{
  "abi": [
    {
      "inputs": [
        {
          "internalType": "contract IERC721",
          "name": "_nftCollection_astra",
          "type": "address"
        },
        {
          "internalType": "contract IERC721",
          "name": "_nftCollection_horse",
          "type": "address"
        },
        {
          "internalType": "contract IERC721",
          "name": "_nftCollection_cat",
          "type": "address"
        },
        {
          "internalType": "contract IERC721",
          "name": "_nftCollection_bear",
          "type": "address"
        },
        {
          "internalType": "contract IERC20",
          "name": "_rewardsToken",
          "type": "address"
        }
      ],
      "stateMutability": "nonpayable",
      "type": "constructor"
    },
    {
      "anonymous": false,
      "inputs": [
        {
          "indexed": true,
          "internalType": "address",
          "name": "previousOwner",
          "type": "address"
        },
        {
          "indexed": true,
          "internalType": "address",
          "name": "newOwner",
          "type": "address"
        }
      ],
      "name": "OwnershipTransferred",
      "type": "event"
    },
    {
      "inputs": [
        {
          "internalType": "address",
          "name": "_staker",
          "type": "address"
        }
      ],
      "name": "availableRewards",
      "outputs": [
        {
          "internalType": "uint256",
          "name": "",
          "type": "uint256"
        }
      ],
      "stateMutability": "view",
      "type": "function"
    },
    {
      "inputs": [],
      "name": "claimRewards",
      "outputs": [],
      "stateMutability": "nonpayable",
      "type": "function"
    },
    {
      "inputs": [],
      "name": "emergencyWithdrawAll",
      "outputs": [],
      "stateMutability": "payable",
      "type": "function"
    },
    {
      "inputs": [
        {
          "internalType": "address",
          "name": "_user",
          "type": "address"
        }
      ],
      "name": "getStakedBearTokens",
      "outputs": [
        {
          "components": [
            {
              "internalType": "address",
              "name": "staker",
              "type": "address"
            },
            {
              "internalType": "uint256",
              "name": "tokenId",
              "type": "uint256"
            }
          ],
          "internalType": "struct ERC721Staking.StakedToken[]",
          "name": "",
          "type": "tuple[]"
        }
      ],
      "stateMutability": "view",
      "type": "function"
    },
    {
      "inputs": [
        {
          "internalType": "address",
          "name": "_user",
          "type": "address"
        }
      ],
      "name": "getStakedCatTokens",
      "outputs": [
        {
          "components": [
            {
              "internalType": "address",
              "name": "staker",
              "type": "address"
            },
            {
              "internalType": "uint256",
              "name": "tokenId",
              "type": "uint256"
            }
          ],
          "internalType": "struct ERC721Staking.StakedToken[]",
          "name": "",
          "type": "tuple[]"
        }
      ],
      "stateMutability": "view",
      "type": "function"
    },
    {
      "inputs": [
        {
          "internalType": "address",
          "name": "_user",
          "type": "address"
        }
      ],
      "name": "getStakedHorseTokens",
      "outputs": [
        {
          "components": [
            {
              "internalType": "address",
              "name": "staker",
              "type": "address"
            },
            {
              "internalType": "uint256",
              "name": "tokenId",
              "type": "uint256"
            }
          ],
          "internalType": "struct ERC721Staking.StakedToken[]",
          "name": "",
          "type": "tuple[]"
        }
      ],
      "stateMutability": "view",
      "type": "function"
    },
    {
      "inputs": [
        {
          "internalType": "address",
          "name": "_user",
          "type": "address"
        }
      ],
      "name": "getStakedTokens",
      "outputs": [
        {
          "components": [
            {
              "internalType": "address",
              "name": "staker",
              "type": "address"
            },
            {
              "internalType": "uint256",
              "name": "tokenId",
              "type": "uint256"
            }
          ],
          "internalType": "struct ERC721Staking.StakedToken[]",
          "name": "",
          "type": "tuple[]"
        }
      ],
      "stateMutability": "view",
      "type": "function"
    },
    {
      "inputs": [],
      "name": "nftCollection_astra",
      "outputs": [
        {
          "internalType": "contract IERC721",
          "name": "",
          "type": "address"
        }
      ],
      "stateMutability": "view",
      "type": "function"
    },
    {
      "inputs": [],
      "name": "nftCollection_bear",
      "outputs": [
        {
          "internalType": "contract IERC721",
          "name": "",
          "type": "address"
        }
      ],
      "stateMutability": "view",
      "type": "function"
    },
    {
      "inputs": [],
      "name": "nftCollection_cat",
      "outputs": [
        {
          "internalType": "contract IERC721",
          "name": "",
          "type": "address"
        }
      ],
      "stateMutability": "view",
      "type": "function"
    },
    {
      "inputs": [],
      "name": "nftCollection_horse",
      "outputs": [
        {
          "internalType": "contract IERC721",
          "name": "",
          "type": "address"
        }
      ],
      "stateMutability": "view",
      "type": "function"
    },
    {
      "inputs": [],
      "name": "owner",
      "outputs": [
        {
          "internalType": "address",
          "name": "",
          "type": "address"
        }
      ],
      "stateMutability": "view",
      "type": "function"
    },
    {
      "inputs": [],
      "name": "renounceOwnership",
      "outputs": [],
      "stateMutability": "nonpayable",
      "type": "function"
    },
    {
      "inputs": [],
      "name": "rewardsToken",
      "outputs": [
        {
          "internalType": "contract IERC20",
          "name": "",
          "type": "address"
        }
      ],
      "stateMutability": "view",
      "type": "function"
    },
    {
      "inputs": [
        {
          "internalType": "uint256",
          "name": "amount",
          "type": "uint256"
        }
      ],
      "name": "setrewardsPerHour",
      "outputs": [],
      "stateMutability": "nonpayable",
      "type": "function"
    },
    {
      "inputs": [
        {
          "internalType": "uint256",
          "name": "_tokenId",
          "type": "uint256"
        },
        {
          "internalType": "contract IERC721",
          "name": "contract_market_",
          "type": "address"
        }
      ],
      "name": "stake",
      "outputs": [],
      "stateMutability": "nonpayable",
      "type": "function"
    },
    {
      "inputs": [
        {
          "internalType": "uint256",
          "name": "",
          "type": "uint256"
        }
      ],
      "name": "stakerAddress",
      "outputs": [
        {
          "internalType": "address",
          "name": "",
          "type": "address"
        }
      ],
      "stateMutability": "view",
      "type": "function"
    },
    {
      "inputs": [
        {
          "internalType": "address",
          "name": "",
          "type": "address"
        }
      ],
      "name": "stakers",
      "outputs": [
        {
          "internalType": "uint256",
          "name": "amountStaked",
          "type": "uint256"
        },
        {
          "internalType": "uint256",
          "name": "timeOfLastUpdate",
          "type": "uint256"
        },
        {
          "internalType": "uint256",
          "name": "unclaimedRewards",
          "type": "uint256"
        }
      ],
      "stateMutability": "view",
      "type": "function"
    },
    {
      "inputs": [],
      "name": "storenative",
      "outputs": [],
      "stateMutability": "payable",
      "type": "function"
    },
    {
      "inputs": [
        {
          "internalType": "address",
          "name": "newOwner",
          "type": "address"
        }
      ],
      "name": "transferOwnership",
      "outputs": [],
      "stateMutability": "nonpayable",
      "type": "function"
    },
    {
      "inputs": [
        {
          "internalType": "uint256",
          "name": "_tokenId",
          "type": "uint256"
        },
        {
          "internalType": "contract IERC721",
          "name": "contract_market",
          "type": "address"
        }
      ],
      "name": "withdraw",
      "outputs": [],
      "stateMutability": "nonpayable",
      "type": "function"
    },
    {
      "inputs": [
        {
          "internalType": "uint256",
          "name": "amount",
          "type": "uint256"
        }
      ],
      "name": "withdrawadmin",
      "outputs": [],
      "stateMutability": "payable",
      "type": "function"
    }
  ],
  "devdoc": {
    "kind": "dev",
    "methods": {
      "owner()": {
        "details": "Returns the address of the current owner."
      },
      "renounceOwnership()": {
        "details": "Leaves the contract without owner. It will not be possible to call `onlyOwner` functions anymore. Can only be called by the current owner. NOTE: Renouncing ownership will leave the contract without an owner, thereby removing any functionality that is only available to the owner."
      },
      "transferOwnership(address)": {
        "details": "Transfers ownership of the contract to a new account (`newOwner`). Can only be called by the current owner."
      }
    },
    "version": 1
  },
  "evm": {
    "assembly": "    /* \"StakingContract.sol\":356:20304  contract ERC721Staking is ReentrancyGuard, Ownable {... */\n  mstore(0x40, 0x0120)\n    /* \"StakingContract.sol\":2055:2078  20833000000000000000000 */\n  0x04695bf4120910e40000\n    /* \"StakingContract.sol\":2022:2078  uint256 private rewardsPerHour = 20833000000000000000000 */\n  0x03\n  sstore\n    /* \"StakingContract.sol\":830:1295  constructor(... */\n  callvalue\n  dup1\n  iszero\n  tag_1\n  jumpi\n  0x00\n  dup1\n  revert\ntag_1:\n  pop\n  mload(0x40)\n  sub(codesize, bytecodeSize)\n  dup1\n  bytecodeSize\n  dup4\n  codecopy\n  dup2\n  add\n  0x40\n  dup2\n  swap1\n  mstore\n  tag_2\n  swap2\n  tag_3\n  jump\t// in\ntag_2:\n    /* \"@openzeppelin/contracts/security/ReentrancyGuard.sol\":1716:1717   */\n  0x01\n    /* \"@openzeppelin/contracts/security/ReentrancyGuard.sol\":1821:1828   */\n  0x00\n    /* \"@openzeppelin/contracts/security/ReentrancyGuard.sol\":1821:1843   */\n  sstore\n    /* \"@openzeppelin/contracts/access/Ownable.sol\":936:968   */\n  tag_9\n    /* \"@openzeppelin/contracts/utils/Context.sol\":719:729   */\n  caller\n    /* \"@openzeppelin/contracts/access/Ownable.sol\":936:954   */\n  tag_12\n    /* \"@openzeppelin/contracts/access/Ownable.sol\":936:968   */\n  jump\t// in\ntag_9:\n  sub(shl(0xa0, 0x01), 0x01)\n    /* \"StakingContract.sol\":1037:1079  nftCollection_astra = _nftCollection_astra */\n  swap5\n  dup6\n  and\n  0xa0\n  mstore\n    /* \"StakingContract.sol\":1089:1131  nftCollection_horse = _nftCollection_horse */\n  swap3\n  dup5\n  and\n  0xc0\n  mstore\n    /* \"StakingContract.sol\":1141:1179  nftCollection_cat = _nftCollection_cat */\n  swap1\n  dup4\n  and\n  0xe0\n  mstore\n    /* \"StakingContract.sol\":1189:1229  nftCollection_bear = _nftCollection_bear */\n  dup3\n  and\n  0x0100\n  mstore\n    /* \"StakingContract.sol\":1239:1267  rewardsToken = _rewardsToken */\n  and\n  0x80\n  mstore\n    /* \"StakingContract.sol\":1284:1288  1000 */\n  0x03e8\n    /* \"StakingContract.sol\":1277:1281  imna */\n  0x02\n    /* \"StakingContract.sol\":1277:1288  imna = 1000 */\n  sstore\n    /* \"StakingContract.sol\":356:20304  contract ERC721Staking is ReentrancyGuard, Ownable {... */\n  jump(tag_18)\n    /* \"@openzeppelin/contracts/access/Ownable.sol\":2433:2620   */\ntag_12:\n    /* \"@openzeppelin/contracts/access/Ownable.sol\":2525:2531   */\n  0x01\n  dup1\n  sload\n  sub(shl(0xa0, 0x01), 0x01)\n    /* \"@openzeppelin/contracts/access/Ownable.sol\":2541:2558   */\n  dup4\n  dup2\n  and\n  not(sub(shl(0xa0, 0x01), 0x01))\n  dup4\n  and\n  dup2\n  or\n  swap1\n  swap4\n  sstore\n    /* \"@openzeppelin/contracts/access/Ownable.sol\":2573:2613   */\n  mload(0x40)\n    /* \"@openzeppelin/contracts/access/Ownable.sol\":2525:2531   */\n  swap2\n  and\n  swap2\n    /* \"@openzeppelin/contracts/access/Ownable.sol\":2541:2558   */\n  swap1\n    /* \"@openzeppelin/contracts/access/Ownable.sol\":2525:2531   */\n  dup3\n  swap1\n    /* \"@openzeppelin/contracts/access/Ownable.sol\":2573:2613   */\n  0x8be0079c531659141344cd1fd0a4f28419497f9722a3daafe3b4186f6b6457e0\n  swap1\n    /* \"@openzeppelin/contracts/access/Ownable.sol\":2506:2522   */\n  0x00\n  swap1\n    /* \"@openzeppelin/contracts/access/Ownable.sol\":2573:2613   */\n  log3\n    /* \"@openzeppelin/contracts/access/Ownable.sol\":2496:2620   */\n  pop\n    /* \"@openzeppelin/contracts/access/Ownable.sol\":2433:2620   */\n  pop\n  jump\t// out\n    /* \"#utility.yul\":14:154   */\ntag_17:\n  sub(shl(0xa0, 0x01), 0x01)\n    /* \"#utility.yul\":98:129   */\n  dup2\n  and\n    /* \"#utility.yul\":88:130   */\n  dup2\n  eq\n    /* \"#utility.yul\":78:148   */\n  tag_20\n  jumpi\n    /* \"#utility.yul\":144:145   */\n  0x00\n    /* \"#utility.yul\":141:142   */\n  dup1\n    /* \"#utility.yul\":134:146   */\n  revert\n    /* \"#utility.yul\":78:148   */\ntag_20:\n    /* \"#utility.yul\":14:154   */\n  pop\n  jump\t// out\n    /* \"#utility.yul\":159:1072   */\ntag_3:\n    /* \"#utility.yul\":344:350   */\n  0x00\n    /* \"#utility.yul\":352:358   */\n  dup1\n    /* \"#utility.yul\":360:366   */\n  0x00\n    /* \"#utility.yul\":368:374   */\n  dup1\n    /* \"#utility.yul\":376:382   */\n  0x00\n    /* \"#utility.yul\":429:432   */\n  0xa0\n    /* \"#utility.yul\":417:426   */\n  dup7\n    /* \"#utility.yul\":408:415   */\n  dup9\n    /* \"#utility.yul\":404:427   */\n  sub\n    /* \"#utility.yul\":400:433   */\n  slt\n    /* \"#utility.yul\":397:450   */\n  iszero\n  tag_22\n  jumpi\n    /* \"#utility.yul\":446:447   */\n  0x00\n    /* \"#utility.yul\":443:444   */\n  dup1\n    /* \"#utility.yul\":436:448   */\n  revert\n    /* \"#utility.yul\":397:450   */\ntag_22:\n    /* \"#utility.yul\":478:487   */\n  dup6\n    /* \"#utility.yul\":472:488   */\n  mload\n    /* \"#utility.yul\":497:537   */\n  tag_23\n    /* \"#utility.yul\":531:536   */\n  dup2\n    /* \"#utility.yul\":497:537   */\n  tag_17\n  jump\t// in\ntag_23:\n    /* \"#utility.yul\":606:608   */\n  0x20\n    /* \"#utility.yul\":591:609   */\n  dup8\n  add\n    /* \"#utility.yul\":585:610   */\n  mload\n    /* \"#utility.yul\":556:561   */\n  swap1\n  swap6\n  pop\n    /* \"#utility.yul\":619:661   */\n  tag_24\n    /* \"#utility.yul\":585:610   */\n  dup2\n    /* \"#utility.yul\":619:661   */\n  tag_17\n  jump\t// in\ntag_24:\n    /* \"#utility.yul\":732:734   */\n  0x40\n    /* \"#utility.yul\":717:735   */\n  dup8\n  add\n    /* \"#utility.yul\":711:736   */\n  mload\n    /* \"#utility.yul\":680:687   */\n  swap1\n  swap5\n  pop\n    /* \"#utility.yul\":745:787   */\n  tag_25\n    /* \"#utility.yul\":711:736   */\n  dup2\n    /* \"#utility.yul\":745:787   */\n  tag_17\n  jump\t// in\ntag_25:\n    /* \"#utility.yul\":858:860   */\n  0x60\n    /* \"#utility.yul\":843:861   */\n  dup8\n  add\n    /* \"#utility.yul\":837:862   */\n  mload\n    /* \"#utility.yul\":806:813   */\n  swap1\n  swap4\n  pop\n    /* \"#utility.yul\":871:913   */\n  tag_26\n    /* \"#utility.yul\":837:862   */\n  dup2\n    /* \"#utility.yul\":871:913   */\n  tag_17\n  jump\t// in\ntag_26:\n    /* \"#utility.yul\":984:987   */\n  0x80\n    /* \"#utility.yul\":969:988   */\n  dup8\n  add\n    /* \"#utility.yul\":963:989   */\n  mload\n    /* \"#utility.yul\":932:939   */\n  swap1\n  swap3\n  pop\n    /* \"#utility.yul\":998:1040   */\n  tag_27\n    /* \"#utility.yul\":963:989   */\n  dup2\n    /* \"#utility.yul\":998:1040   */\n  tag_17\n  jump\t// in\ntag_27:\n    /* \"#utility.yul\":1059:1066   */\n  dup1\n    /* \"#utility.yul\":1049:1066   */\n  swap2\n  pop\n  pop\n    /* \"#utility.yul\":159:1072   */\n  swap3\n  swap6\n  pop\n  swap3\n  swap6\n  swap1\n  swap4\n  pop\n  jump\t// out\ntag_18:\n    /* \"StakingContract.sol\":356:20304  contract ERC721Staking is ReentrancyGuard, Ownable {... */\n  mload(0x80)\n  mload(0xa0)\n  mload(0xc0)\n  mload(0xe0)\n  mload(0x0100)\n  codecopy(0x00, dataOffset(sub_0), dataSize(sub_0))\n  0x00\n  assignImmutable(\"0x7749cc8014201da2069c21d93ba99c584b6f62d393fde534ed47eac227e31561\")\n  0x00\n  assignImmutable(\"0x9cce9eb03c9f29c6481fca9f0f942b15bef0bbbc47fda0ddb44df157019835d9\")\n  0x00\n  assignImmutable(\"0x1572b593c53d839d80004aa4b8c51211864104f06ace9e22be9c4365b50655ea\")\n  0x00\n  assignImmutable(\"0x731dc163f73d31d8c68f9917ce4ff967753939f70432973c04fd2c2a48148607\")\n  0x00\n  assignImmutable(\"0x8e8fab5f003314da8d1873ea7720e8d9f47650136d916064d1edb8a11d682624\")\n  return(0x00, dataSize(sub_0))\nstop\n\nsub_0: assembly {\n        /* \"StakingContract.sol\":356:20304  contract ERC721Staking is ReentrancyGuard, Ownable {... */\n      mstore(0x40, 0x80)\n      jumpi(tag_1, lt(calldatasize, 0x04))\n      shr(0xe0, calldataload(0x00))\n      dup1\n      0x8da5cb5b\n      gt\n      tag_24\n      jumpi\n      dup1\n      0xbcb5eb28\n      gt\n      tag_25\n      jumpi\n      dup1\n      0xe2592c0b\n      gt\n      tag_26\n      jumpi\n      dup1\n      0xe2592c0b\n      eq\n      tag_21\n      jumpi\n      dup1\n      0xf2fde38b\n      eq\n      tag_22\n      jumpi\n      dup1\n      0xf854a27f\n      eq\n      tag_23\n      jumpi\n      0x00\n      dup1\n      revert\n    tag_26:\n      dup1\n      0xbcb5eb28\n      eq\n      tag_18\n      jumpi\n      dup1\n      0xd1af0c7d\n      eq\n      tag_19\n      jumpi\n      dup1\n      0xdd191719\n      eq\n      tag_20\n      jumpi\n      0x00\n      dup1\n      revert\n    tag_25:\n      dup1\n      0x94067045\n      gt\n      tag_27\n      jumpi\n      dup1\n      0x94067045\n      eq\n      tag_15\n      jumpi\n      dup1\n      0xac3f0c26\n      eq\n      tag_16\n      jumpi\n      dup1\n      0xb768d7f5\n      eq\n      tag_17\n      jumpi\n      0x00\n      dup1\n      revert\n    tag_27:\n      dup1\n      0x8da5cb5b\n      eq\n      tag_13\n      jumpi\n      dup1\n      0x9168ae72\n      eq\n      tag_14\n      jumpi\n      0x00\n      dup1\n      revert\n    tag_24:\n      dup1\n      0x5036e63b\n      gt\n      tag_28\n      jumpi\n      dup1\n      0x640fffd8\n      gt\n      tag_29\n      jumpi\n      dup1\n      0x640fffd8\n      eq\n      tag_10\n      jumpi\n      dup1\n      0x715018a6\n      eq\n      tag_11\n      jumpi\n      dup1\n      0x7acb7757\n      eq\n      tag_12\n      jumpi\n      0x00\n      dup1\n      revert\n    tag_29:\n      dup1\n      0x5036e63b\n      eq\n      tag_7\n      jumpi\n      dup1\n      0x5f686f25\n      eq\n      tag_8\n      jumpi\n      dup1\n      0x63c28db1\n      eq\n      tag_9\n      jumpi\n      0x00\n      dup1\n      revert\n    tag_28:\n      dup1\n      0x372500ab\n      gt\n      tag_30\n      jumpi\n      dup1\n      0x372500ab\n      eq\n      tag_4\n      jumpi\n      dup1\n      0x3fcecc9b\n      eq\n      tag_5\n      jumpi\n      dup1\n      0x45c44ad5\n      eq\n      tag_6\n      jumpi\n      0x00\n      dup1\n      revert\n    tag_30:\n      dup1\n      0xf714ce\n      eq\n      tag_2\n      jumpi\n      dup1\n      0x1829b46c\n      eq\n      tag_3\n      jumpi\n    tag_1:\n      0x00\n      dup1\n      revert\n        /* \"StakingContract.sol\":7358:14334  function withdraw(uint256 _tokenId, IERC721 contract_market)... */\n    tag_2:\n      callvalue\n      dup1\n      iszero\n      tag_31\n      jumpi\n      0x00\n      dup1\n      revert\n    tag_31:\n      pop\n      tag_32\n      tag_33\n      calldatasize\n      0x04\n      tag_34\n      jump\t// in\n    tag_33:\n      tag_35\n      jump\t// in\n    tag_32:\n      stop\n        /* \"StakingContract.sol\":19784:19972  function withdrawadmin(uint256 amount) external payable onlyOwner {... */\n    tag_3:\n      tag_32\n      tag_37\n      calldatasize\n      0x04\n      tag_38\n      jump\t// in\n    tag_37:\n      tag_39\n      jump\t// in\n        /* \"StakingContract.sol\":14512:14990  function claimRewards() external {... */\n    tag_4:\n      callvalue\n      dup1\n      iszero\n      tag_40\n      jumpi\n      0x00\n      dup1\n      revert\n    tag_40:\n      pop\n      tag_32\n      tag_42\n      jump\t// in\n        /* \"StakingContract.sol\":16160:17181  function getStakedHorseTokens(address _user)... */\n    tag_5:\n      callvalue\n      dup1\n      iszero\n      tag_43\n      jumpi\n      0x00\n      dup1\n      revert\n    tag_43:\n      pop\n      tag_44\n      tag_45\n      calldatasize\n      0x04\n      tag_46\n      jump\t// in\n    tag_45:\n      tag_47\n      jump\t// in\n    tag_44:\n      mload(0x40)\n      tag_48\n      swap2\n      swap1\n      tag_49\n      jump\t// in\n    tag_48:\n      mload(0x40)\n      dup1\n      swap2\n      sub\n      swap1\n      return\n        /* \"StakingContract.sol\":627:669  IERC721 public immutable nftCollection_cat */\n    tag_6:\n      callvalue\n      dup1\n      iszero\n      tag_50\n      jumpi\n      0x00\n      dup1\n      revert\n    tag_50:\n      pop\n      tag_51\n      immutable(\"0x9cce9eb03c9f29c6481fca9f0f942b15bef0bbbc47fda0ddb44df157019835d9\")\n      dup2\n      jump\n    tag_51:\n      mload(0x40)\n      sub(shl(0xa0, 0x01), 0x01)\n        /* \"#utility.yul\":1999:2054   */\n      swap1\n      swap2\n      and\n        /* \"#utility.yul\":1981:2055   */\n      dup2\n      mstore\n        /* \"#utility.yul\":1969:1971   */\n      0x20\n        /* \"#utility.yul\":1954:1972   */\n      add\n        /* \"StakingContract.sol\":627:669  IERC721 public immutable nftCollection_cat */\n      tag_48\n        /* \"#utility.yul\":1819:2061   */\n      jump\n        /* \"StakingContract.sol\":19683:19778  function storenative() public payable {... */\n    tag_7:\n      tag_32\n        /* \"StakingContract.sol\":19768:19771  100 */\n      0x64\n        /* \"StakingContract.sol\":19761:19765  imna */\n      0x02\n        /* \"StakingContract.sol\":19761:19771  imna = 100 */\n      sstore\n        /* \"StakingContract.sol\":19683:19778  function storenative() public payable {... */\n      jump\n        /* \"StakingContract.sol\":675:718  IERC721 public immutable nftCollection_bear */\n    tag_8:\n      callvalue\n      dup1\n      iszero\n      tag_57\n      jumpi\n      0x00\n      dup1\n      revert\n    tag_57:\n      pop\n      tag_51\n      immutable(\"0x7749cc8014201da2069c21d93ba99c584b6f62d393fde534ed47eac227e31561\")\n      dup2\n      jump\n        /* \"StakingContract.sol\":15253:16154  function getStakedTokens(address _user)... */\n    tag_9:\n      callvalue\n      dup1\n      iszero\n      tag_61\n      jumpi\n      0x00\n      dup1\n      revert\n    tag_61:\n      pop\n      tag_44\n      tag_63\n      calldatasize\n      0x04\n      tag_46\n      jump\t// in\n    tag_63:\n      tag_64\n      jump\t// in\n        /* \"StakingContract.sol\":577:621  IERC721 public immutable nftCollection_horse */\n    tag_10:\n      callvalue\n      dup1\n      iszero\n      tag_66\n      jumpi\n      0x00\n      dup1\n      revert\n    tag_66:\n      pop\n      tag_51\n      immutable(\"0x1572b593c53d839d80004aa4b8c51211864104f06ace9e22be9c4365b50655ea\")\n      dup2\n      jump\n        /* \"@openzeppelin/contracts/access/Ownable.sol\":1831:1932   */\n    tag_11:\n      callvalue\n      dup1\n      iszero\n      tag_70\n      jumpi\n      0x00\n      dup1\n      revert\n    tag_70:\n      pop\n      tag_32\n      tag_72\n      jump\t// in\n        /* \"StakingContract.sol\":2606:7114  function stake(uint256 _tokenId, IERC721 contract_market_)... */\n    tag_12:\n      callvalue\n      dup1\n      iszero\n      tag_73\n      jumpi\n      0x00\n      dup1\n      revert\n    tag_73:\n      pop\n      tag_32\n      tag_75\n      calldatasize\n      0x04\n      tag_34\n      jump\t// in\n    tag_75:\n      tag_76\n      jump\t// in\n        /* \"@openzeppelin/contracts/access/Ownable.sol\":1201:1286   */\n    tag_13:\n      callvalue\n      dup1\n      iszero\n      tag_77\n      jumpi\n      0x00\n      dup1\n      revert\n    tag_77:\n      pop\n        /* \"@openzeppelin/contracts/access/Ownable.sol\":1273:1279   */\n      and(sub(shl(0xa0, 0x01), 0x01), sload(0x01))\n        /* \"@openzeppelin/contracts/access/Ownable.sol\":1201:1286   */\n      jump(tag_51)\n        /* \"StakingContract.sol\":2131:2172  mapping(address => Staker) public stakers */\n    tag_14:\n      callvalue\n      dup1\n      iszero\n      tag_82\n      jumpi\n      0x00\n      dup1\n      revert\n    tag_82:\n      pop\n      tag_83\n      tag_84\n      calldatasize\n      0x04\n      tag_46\n      jump\t// in\n    tag_84:\n      mstore(0x20, 0x04)\n      0x00\n      swap1\n      dup2\n      mstore\n      0x40\n      swap1\n      keccak256\n      dup1\n      sload\n      0x05\n      dup3\n      add\n      sload\n      0x06\n      swap1\n      swap3\n      add\n      sload\n      swap1\n      swap2\n      swap1\n      dup4\n      jump\n    tag_83:\n      0x40\n      dup1\n      mload\n        /* \"#utility.yul\":2499:2524   */\n      swap4\n      dup5\n      mstore\n        /* \"#utility.yul\":2555:2557   */\n      0x20\n        /* \"#utility.yul\":2540:2558   */\n      dup5\n      add\n        /* \"#utility.yul\":2533:2567   */\n      swap3\n      swap1\n      swap3\n      mstore\n        /* \"#utility.yul\":2583:2601   */\n      swap1\n      dup3\n      add\n        /* \"#utility.yul\":2576:2610   */\n      mstore\n        /* \"#utility.yul\":2487:2489   */\n      0x60\n        /* \"#utility.yul\":2472:2490   */\n      add\n        /* \"StakingContract.sol\":2131:2172  mapping(address => Staker) public stakers */\n      tag_48\n        /* \"#utility.yul\":2297:2616   */\n      jump\n        /* \"StakingContract.sol\":2290:2338  mapping(uint256 => address) public stakerAddress */\n    tag_15:\n      callvalue\n      dup1\n      iszero\n      tag_88\n      jumpi\n      0x00\n      dup1\n      revert\n    tag_88:\n      pop\n      tag_51\n      tag_90\n      calldatasize\n      0x04\n      tag_38\n      jump\t// in\n    tag_90:\n      mstore(0x20, 0x05)\n      0x00\n      swap1\n      dup2\n      mstore\n      0x40\n      swap1\n      keccak256\n      sload\n      sub(shl(0xa0, 0x01), 0x01)\n      and\n      dup2\n      jump\n        /* \"StakingContract.sol\":18168:19147  function getStakedBearTokens(address _user)... */\n    tag_16:\n      callvalue\n      dup1\n      iszero\n      tag_93\n      jumpi\n      0x00\n      dup1\n      revert\n    tag_93:\n      pop\n      tag_44\n      tag_95\n      calldatasize\n      0x04\n      tag_46\n      jump\t// in\n    tag_95:\n      tag_96\n      jump\t// in\n        /* \"StakingContract.sol\":19978:20078  function setrewardsPerHour(uint256 amount) public onlyOwner {... */\n    tag_17:\n      callvalue\n      dup1\n      iszero\n      tag_98\n      jumpi\n      0x00\n      dup1\n      revert\n    tag_98:\n      pop\n      tag_32\n      tag_100\n      calldatasize\n      0x04\n      tag_38\n      jump\t// in\n    tag_100:\n      tag_101\n      jump\t// in\n        /* \"StakingContract.sol\":527:571  IERC721 public immutable nftCollection_astra */\n    tag_18:\n      callvalue\n      dup1\n      iszero\n      tag_102\n      jumpi\n      0x00\n      dup1\n      revert\n    tag_102:\n      pop\n      tag_51\n      immutable(\"0x731dc163f73d31d8c68f9917ce4ff967753939f70432973c04fd2c2a48148607\")\n      dup2\n      jump\n        /* \"StakingContract.sol\":485:521  IERC20 public immutable rewardsToken */\n    tag_19:\n      callvalue\n      dup1\n      iszero\n      tag_106\n      jumpi\n      0x00\n      dup1\n      revert\n    tag_106:\n      pop\n      tag_51\n      immutable(\"0x8e8fab5f003314da8d1873ea7720e8d9f47650136d916064d1edb8a11d682624\")\n      dup2\n      jump\n        /* \"StakingContract.sol\":20084:20302  function emergencyWithdrawAll() external payable onlyOwner {... */\n    tag_20:\n      tag_32\n      tag_112\n      jump\t// in\n        /* \"StakingContract.sol\":17187:18162  function getStakedCatTokens(address _user)... */\n    tag_21:\n      callvalue\n      dup1\n      iszero\n      tag_113\n      jumpi\n      0x00\n      dup1\n      revert\n    tag_113:\n      pop\n      tag_44\n      tag_115\n      calldatasize\n      0x04\n      tag_46\n      jump\t// in\n    tag_115:\n      tag_116\n      jump\t// in\n        /* \"@openzeppelin/contracts/access/Ownable.sol\":2081:2279   */\n    tag_22:\n      callvalue\n      dup1\n      iszero\n      tag_118\n      jumpi\n      0x00\n      dup1\n      revert\n    tag_118:\n      pop\n      tag_32\n      tag_120\n      calldatasize\n      0x04\n      tag_46\n      jump\t// in\n    tag_120:\n      tag_121\n      jump\t// in\n        /* \"StakingContract.sol\":15042:15247  function availableRewards(address _staker) public view returns (uint256) {... */\n    tag_23:\n      callvalue\n      dup1\n      iszero\n      tag_122\n      jumpi\n      0x00\n      dup1\n      revert\n    tag_122:\n      pop\n      tag_123\n      tag_124\n      calldatasize\n      0x04\n      tag_46\n      jump\t// in\n    tag_124:\n      tag_125\n      jump\t// in\n    tag_123:\n      mload(0x40)\n        /* \"#utility.yul\":3013:3038   */\n      swap1\n      dup2\n      mstore\n        /* \"#utility.yul\":3001:3003   */\n      0x20\n        /* \"#utility.yul\":2986:3004   */\n      add\n        /* \"StakingContract.sol\":15042:15247  function availableRewards(address _staker) public view returns (uint256) {... */\n      tag_48\n        /* \"#utility.yul\":2867:3044   */\n      jump\n        /* \"StakingContract.sol\":7358:14334  function withdraw(uint256 _tokenId, IERC721 contract_market)... */\n    tag_35:\n        /* \"@openzeppelin/contracts/security/ReentrancyGuard.sol\":2261:2282   */\n      tag_129\n        /* \"@openzeppelin/contracts/security/ReentrancyGuard.sol\":2261:2280   */\n      tag_130\n        /* \"@openzeppelin/contracts/security/ReentrancyGuard.sol\":2261:2282   */\n      jump\t// in\n    tag_129:\n        /* \"StakingContract.sol\":7579:7589  msg.sender */\n      caller\n        /* \"StakingContract.sol\":7606:7607  0 */\n      0x00\n        /* \"StakingContract.sol\":7571:7590  stakers[msg.sender] */\n      swap1\n      dup2\n      mstore\n        /* \"StakingContract.sol\":7571:7578  stakers */\n      0x04\n        /* \"StakingContract.sol\":7571:7590  stakers[msg.sender] */\n      0x20\n      mstore\n      0x40\n      swap1\n      keccak256\n        /* \"StakingContract.sol\":7571:7603  stakers[msg.sender].amountStaked */\n      sload\n        /* \"StakingContract.sol\":7550:7658  require(... */\n      tag_132\n      jumpi\n      mload(0x40)\n      shl(0xe5, 0x461bcd)\n      dup2\n      mstore\n        /* \"#utility.yul\":3251:3253   */\n      0x20\n        /* \"StakingContract.sol\":7550:7658  require(... */\n      0x04\n      dup3\n      add\n        /* \"#utility.yul\":3233:3254   */\n      mstore\n        /* \"#utility.yul\":3290:3292   */\n      0x19\n        /* \"#utility.yul\":3270:3288   */\n      0x24\n      dup3\n      add\n        /* \"#utility.yul\":3263:3293   */\n      mstore\n        /* \"#utility.yul\":3329:3356   */\n      0x596f752048617665204e6f20546f6b656e73205374616b656400000000000000\n        /* \"#utility.yul\":3309:3327   */\n      0x44\n      dup3\n      add\n        /* \"#utility.yul\":3302:3357   */\n      mstore\n        /* \"#utility.yul\":3374:3392   */\n      0x64\n      add\n        /* \"StakingContract.sol\":7550:7658  require(... */\n    tag_133:\n      mload(0x40)\n      dup1\n      swap2\n      sub\n      swap1\n      revert\n    tag_132:\n        /* \"StakingContract.sol\":7698:7708  msg.sender */\n      caller\n        /* \"StakingContract.sol\":7725:7726  0 */\n      0x00\n        /* \"StakingContract.sol\":7690:7709  stakers[msg.sender] */\n      swap1\n      dup2\n      mstore\n        /* \"StakingContract.sol\":7690:7697  stakers */\n      0x04\n        /* \"StakingContract.sol\":7690:7709  stakers[msg.sender] */\n      0x20\n      mstore\n      0x40\n      swap1\n      keccak256\n        /* \"StakingContract.sol\":7690:7722  stakers[msg.sender].amountStaked */\n      sload\n        /* \"StakingContract.sol\":7669:7777  require(... */\n      tag_135\n      jumpi\n      mload(0x40)\n      shl(0xe5, 0x461bcd)\n      dup2\n      mstore\n        /* \"#utility.yul\":3251:3253   */\n      0x20\n        /* \"StakingContract.sol\":7669:7777  require(... */\n      0x04\n      dup3\n      add\n        /* \"#utility.yul\":3233:3254   */\n      mstore\n        /* \"#utility.yul\":3290:3292   */\n      0x19\n        /* \"#utility.yul\":3270:3288   */\n      0x24\n      dup3\n      add\n        /* \"#utility.yul\":3263:3293   */\n      mstore\n        /* \"#utility.yul\":3329:3356   */\n      0x596f752048617665204e6f20546f6b656e73205374616b656400000000000000\n        /* \"#utility.yul\":3309:3327   */\n      0x44\n      dup3\n      add\n        /* \"#utility.yul\":3302:3357   */\n      mstore\n        /* \"#utility.yul\":3374:3392   */\n      0x64\n      add\n        /* \"StakingContract.sol\":7669:7777  require(... */\n      tag_133\n        /* \"#utility.yul\":3049:3398   */\n      jump\n        /* \"StakingContract.sol\":7669:7777  require(... */\n    tag_135:\n        /* \"StakingContract.sol\":7828:7847  nftCollection_astra */\n      immutable(\"0x731dc163f73d31d8c68f9917ce4ff967753939f70432973c04fd2c2a48148607\")\n      sub(shl(0xa0, 0x01), 0x01)\n        /* \"StakingContract.sol\":7809:7847  contract_market == nftCollection_astra */\n      and\n        /* \"StakingContract.sol\":7809:7824  contract_market */\n      dup2\n      sub(shl(0xa0, 0x01), 0x01)\n        /* \"StakingContract.sol\":7809:7847  contract_market == nftCollection_astra */\n      and\n      eq\n        /* \"StakingContract.sol\":7809:7905  contract_market == nftCollection_astra ||... */\n      dup1\n      tag_137\n      jumpi\n      pop\n        /* \"StakingContract.sol\":7886:7905  nftCollection_horse */\n      immutable(\"0x1572b593c53d839d80004aa4b8c51211864104f06ace9e22be9c4365b50655ea\")\n      sub(shl(0xa0, 0x01), 0x01)\n        /* \"StakingContract.sol\":7867:7905  contract_market == nftCollection_horse */\n      and\n        /* \"StakingContract.sol\":7867:7882  contract_market */\n      dup2\n      sub(shl(0xa0, 0x01), 0x01)\n        /* \"StakingContract.sol\":7867:7905  contract_market == nftCollection_horse */\n      and\n      eq\n        /* \"StakingContract.sol\":7809:7905  contract_market == nftCollection_astra ||... */\n    tag_137:\n        /* \"StakingContract.sol\":7809:7961  contract_market == nftCollection_astra ||... */\n      dup1\n      tag_138\n      jumpi\n      pop\n        /* \"StakingContract.sol\":7944:7961  nftCollection_cat */\n      immutable(\"0x9cce9eb03c9f29c6481fca9f0f942b15bef0bbbc47fda0ddb44df157019835d9\")\n      sub(shl(0xa0, 0x01), 0x01)\n        /* \"StakingContract.sol\":7925:7961  contract_market == nftCollection_cat */\n      and\n        /* \"StakingContract.sol\":7925:7940  contract_market */\n      dup2\n      sub(shl(0xa0, 0x01), 0x01)\n        /* \"StakingContract.sol\":7925:7961  contract_market == nftCollection_cat */\n      and\n      eq\n        /* \"StakingContract.sol\":7809:7961  contract_market == nftCollection_astra ||... */\n    tag_138:\n        /* \"StakingContract.sol\":7809:8018  contract_market == nftCollection_astra ||... */\n      dup1\n      tag_139\n      jumpi\n      pop\n        /* \"StakingContract.sol\":8000:8018  nftCollection_bear */\n      immutable(\"0x7749cc8014201da2069c21d93ba99c584b6f62d393fde534ed47eac227e31561\")\n      sub(shl(0xa0, 0x01), 0x01)\n        /* \"StakingContract.sol\":7981:8018  contract_market == nftCollection_bear */\n      and\n        /* \"StakingContract.sol\":7981:7996  contract_market */\n      dup2\n      sub(shl(0xa0, 0x01), 0x01)\n        /* \"StakingContract.sol\":7981:8018  contract_market == nftCollection_bear */\n      and\n      eq\n        /* \"StakingContract.sol\":7809:8018  contract_market == nftCollection_astra ||... */\n    tag_139:\n        /* \"StakingContract.sol\":7788:8078  require(... */\n      tag_140\n      jumpi\n      mload(0x40)\n      shl(0xe5, 0x461bcd)\n      dup2\n      mstore\n        /* \"#utility.yul\":3605:3607   */\n      0x20\n        /* \"StakingContract.sol\":7788:8078  require(... */\n      0x04\n      dup3\n      add\n        /* \"#utility.yul\":3587:3608   */\n      mstore\n        /* \"#utility.yul\":3644:3646   */\n      0x22\n        /* \"#utility.yul\":3624:3642   */\n      0x24\n      dup3\n      add\n        /* \"#utility.yul\":3617:3647   */\n      mstore\n        /* \"#utility.yul\":3683:3717   */\n      0x5468697320436f6c6c656374696f6e2043616e27742042652057697468647261\n        /* \"#utility.yul\":3663:3681   */\n      0x44\n      dup3\n      add\n        /* \"#utility.yul\":3656:3718   */\n      mstore\n      shl(0xf1, 0x3bb7)\n        /* \"#utility.yul\":3734:3752   */\n      0x64\n      dup3\n      add\n        /* \"#utility.yul\":3727:3759   */\n      mstore\n        /* \"#utility.yul\":3776:3795   */\n      0x84\n      add\n        /* \"StakingContract.sol\":7788:8078  require(... */\n      tag_133\n        /* \"#utility.yul\":3403:3801   */\n      jump\n        /* \"StakingContract.sol\":7788:8078  require(... */\n    tag_140:\n        /* \"StakingContract.sol\":8112:8131  nftCollection_astra */\n      immutable(\"0x731dc163f73d31d8c68f9917ce4ff967753939f70432973c04fd2c2a48148607\")\n      sub(shl(0xa0, 0x01), 0x01)\n        /* \"StakingContract.sol\":8093:8131  contract_market == nftCollection_astra */\n      and\n        /* \"StakingContract.sol\":8093:8108  contract_market */\n      dup2\n      sub(shl(0xa0, 0x01), 0x01)\n        /* \"StakingContract.sol\":8093:8131  contract_market == nftCollection_astra */\n      and\n      sub\n        /* \"StakingContract.sol\":8089:9610  if (contract_market == nftCollection_astra) {... */\n      tag_143\n      jumpi\n        /* \"StakingContract.sol\":8249:8264  uint256 rewards */\n      0x00\n        /* \"StakingContract.sol\":8267:8295  calculateRewards(msg.sender) */\n      tag_144\n        /* \"StakingContract.sol\":8284:8294  msg.sender */\n      caller\n        /* \"StakingContract.sol\":8267:8283  calculateRewards */\n      tag_145\n        /* \"StakingContract.sol\":8267:8295  calculateRewards(msg.sender) */\n      jump\t// in\n    tag_144:\n        /* \"StakingContract.sol\":8317:8327  msg.sender */\n      caller\n        /* \"StakingContract.sol\":8309:8328  stakers[msg.sender] */\n      0x00\n      swap1\n      dup2\n      mstore\n        /* \"StakingContract.sol\":8309:8316  stakers */\n      0x04\n        /* \"StakingContract.sol\":8309:8328  stakers[msg.sender] */\n      0x20\n      mstore\n      0x40\n      dup2\n      keccak256\n        /* \"StakingContract.sol\":8309:8345  stakers[msg.sender].unclaimedRewards */\n      0x06\n      add\n        /* \"StakingContract.sol\":8309:8356  stakers[msg.sender].unclaimedRewards += rewards */\n      dup1\n      sload\n        /* \"StakingContract.sol\":8249:8295  uint256 rewards = calculateRewards(msg.sender) */\n      swap3\n      swap4\n      pop\n      dup4\n      swap3\n        /* \"StakingContract.sol\":8309:8345  stakers[msg.sender].unclaimedRewards */\n      swap1\n      swap2\n        /* \"StakingContract.sol\":8309:8328  stakers[msg.sender] */\n      swap1\n        /* \"StakingContract.sol\":8309:8356  stakers[msg.sender].unclaimedRewards += rewards */\n      tag_146\n      swap1\n        /* \"StakingContract.sol\":8249:8295  uint256 rewards = calculateRewards(msg.sender) */\n      dup5\n      swap1\n        /* \"StakingContract.sol\":8309:8356  stakers[msg.sender].unclaimedRewards += rewards */\n      tag_147\n      jump\t// in\n    tag_146:\n      swap1\n      swap2\n      sstore\n      pop\n        /* \"StakingContract.sol\":8444:8457  uint256 index */\n      0x00\n      swap1\n      pop\n      dup1\n        /* \"StakingContract.sol\":8475:8895  for (... */\n    tag_148:\n        /* \"StakingContract.sol\":8540:8550  msg.sender */\n      caller\n        /* \"StakingContract.sol\":8532:8551  stakers[msg.sender] */\n      0x00\n      swap1\n      dup2\n      mstore\n        /* \"StakingContract.sol\":8532:8539  stakers */\n      0x04\n        /* \"StakingContract.sol\":8532:8551  stakers[msg.sender] */\n      0x20\n      mstore\n      0x40\n      swap1\n      keccak256\n        /* \"StakingContract.sol\":8532:8564  stakers[msg.sender].stakedTokens */\n      0x01\n      add\n        /* \"StakingContract.sol\":8532:8571  stakers[msg.sender].stakedTokens.length */\n      sload\n        /* \"StakingContract.sol\":8528:8571  i < stakers[msg.sender].stakedTokens.length */\n      dup2\n      lt\n        /* \"StakingContract.sol\":8475:8895  for (... */\n      iszero\n      tag_149\n      jumpi\n        /* \"StakingContract.sol\":8658:8668  msg.sender */\n      caller\n        /* \"StakingContract.sol\":8650:8669  stakers[msg.sender] */\n      0x00\n      swap1\n      dup2\n      mstore\n        /* \"StakingContract.sol\":8650:8657  stakers */\n      0x04\n        /* \"StakingContract.sol\":8650:8669  stakers[msg.sender] */\n      0x20\n      mstore\n      0x40\n      swap1\n      keccak256\n        /* \"StakingContract.sol\":8650:8682  stakers[msg.sender].stakedTokens */\n      0x01\n      add\n        /* \"StakingContract.sol\":8650:8685  stakers[msg.sender].stakedTokens[i] */\n      dup1\n      sload\n        /* \"StakingContract.sol\":8697:8705  _tokenId */\n      dup7\n      swap2\n        /* \"StakingContract.sol\":8650:8682  stakers[msg.sender].stakedTokens */\n      swap1\n        /* \"StakingContract.sol\":8683:8684  i */\n      dup4\n      swap1\n        /* \"StakingContract.sol\":8650:8685  stakers[msg.sender].stakedTokens[i] */\n      dup2\n      lt\n      tag_152\n      jumpi\n      tag_152\n      tag_153\n      jump\t// in\n    tag_152:\n      swap1\n      0x00\n      mstore\n      keccak256(0x00, 0x20)\n      swap1\n      0x02\n      mul\n      add\n        /* \"StakingContract.sol\":8650:8693  stakers[msg.sender].stakedTokens[i].tokenId */\n      0x01\n      add\n      sload\n        /* \"StakingContract.sol\":8650:8705  stakers[msg.sender].stakedTokens[i].tokenId == _tokenId */\n      eq\n        /* \"StakingContract.sol\":8650:8785  stakers[msg.sender].stakedTokens[i].tokenId == _tokenId &&... */\n      dup1\n      iszero\n      tag_155\n      jumpi\n      pop\n        /* \"StakingContract.sol\":8737:8747  msg.sender */\n      caller\n        /* \"StakingContract.sol\":8783:8784  0 */\n      0x00\n        /* \"StakingContract.sol\":8729:8748  stakers[msg.sender] */\n      swap1\n      dup2\n      mstore\n        /* \"StakingContract.sol\":8729:8736  stakers */\n      0x04\n        /* \"StakingContract.sol\":8729:8748  stakers[msg.sender] */\n      0x20\n      mstore\n      0x40\n      dup2\n      keccak256\n        /* \"StakingContract.sol\":8729:8761  stakers[msg.sender].stakedTokens */\n      0x01\n      add\n        /* \"StakingContract.sol\":8729:8764  stakers[msg.sender].stakedTokens[i] */\n      dup1\n      sload\n        /* \"StakingContract.sol\":8762:8763  i */\n      dup4\n      swap1\n        /* \"StakingContract.sol\":8729:8764  stakers[msg.sender].stakedTokens[i] */\n      dup2\n      lt\n      tag_157\n      jumpi\n      tag_157\n      tag_153\n      jump\t// in\n    tag_157:\n      0x00\n      swap2\n      dup3\n      mstore\n      0x20\n      swap1\n      swap2\n      keccak256\n      0x02\n      swap1\n      swap2\n      mul\n      add\n        /* \"StakingContract.sol\":8729:8771  stakers[msg.sender].stakedTokens[i].staker */\n      sload\n      sub(shl(0xa0, 0x01), 0x01)\n      and\n        /* \"StakingContract.sol\":8729:8785  stakers[msg.sender].stakedTokens[i].staker != address(0) */\n      eq\n      iszero\n        /* \"StakingContract.sol\":8650:8785  stakers[msg.sender].stakedTokens[i].tokenId == _tokenId &&... */\n    tag_155:\n        /* \"StakingContract.sol\":8625:8881  if (... */\n      iszero\n      tag_159\n      jumpi\n        /* \"StakingContract.sol\":8834:8835  i */\n      dup1\n        /* \"StakingContract.sol\":8826:8835  index = i */\n      swap2\n      pop\n        /* \"StakingContract.sol\":8857:8862  break */\n      jump(tag_149)\n        /* \"StakingContract.sol\":8625:8881  if (... */\n    tag_159:\n        /* \"StakingContract.sol\":8589:8592  i++ */\n      dup1\n      tag_160\n      dup2\n      tag_161\n      jump\t// in\n    tag_160:\n      swap2\n      pop\n      pop\n        /* \"StakingContract.sol\":8475:8895  for (... */\n      jump(tag_148)\n    tag_149:\n      pop\n        /* \"StakingContract.sol\":9004:9014  msg.sender */\n      caller\n        /* \"StakingContract.sol\":9053:9054  0 */\n      0x00\n        /* \"StakingContract.sol\":8996:9015  stakers[msg.sender] */\n      swap1\n      dup2\n      mstore\n        /* \"StakingContract.sol\":8996:9003  stakers */\n      0x04\n        /* \"StakingContract.sol\":8996:9015  stakers[msg.sender] */\n      0x20\n      mstore\n      0x40\n      dup2\n      keccak256\n        /* \"StakingContract.sol\":8996:9028  stakers[msg.sender].stakedTokens */\n      0x01\n      add\n        /* \"StakingContract.sol\":8996:9035  stakers[msg.sender].stakedTokens[index] */\n      dup1\n      sload\n        /* \"StakingContract.sol\":9029:9034  index */\n      dup4\n      swap1\n        /* \"StakingContract.sol\":8996:9035  stakers[msg.sender].stakedTokens[index] */\n      dup2\n      lt\n      tag_163\n      jumpi\n      tag_163\n      tag_153\n      jump\t// in\n    tag_163:\n      0x00\n      swap2\n      dup3\n      mstore\n      0x20\n      dup1\n      dup4\n      keccak256\n      0x02\n      swap3\n      swap1\n      swap3\n      mul\n      swap1\n      swap2\n      add\n        /* \"StakingContract.sol\":8996:9055  stakers[msg.sender].stakedTokens[index].staker = address(0) */\n      dup1\n      sload\n      not(sub(shl(0xa0, 0x01), 0x01))\n      and\n      sub(shl(0xa0, 0x01), 0x01)\n      swap5\n      swap1\n      swap5\n      and\n      swap4\n      swap1\n      swap4\n      or\n      swap1\n      swap3\n      sstore\n        /* \"StakingContract.sol\":9137:9147  msg.sender */\n      caller\n        /* \"StakingContract.sol\":9129:9148  stakers[msg.sender] */\n      dup2\n      mstore\n        /* \"StakingContract.sol\":9129:9136  stakers */\n      0x04\n        /* \"StakingContract.sol\":9129:9148  stakers[msg.sender] */\n      swap1\n      swap2\n      mstore\n      0x40\n      dup2\n      keccak256\n        /* \"StakingContract.sol\":9129:9163  stakers[msg.sender].amountStaked-- */\n      dup1\n      sload\n      swap2\n      tag_165\n      dup4\n      tag_166\n      jump\t// in\n    tag_165:\n      swap1\n      swap2\n      sstore\n      pop\n      pop\n        /* \"StakingContract.sol\":9329:9330  0 */\n      0x00\n        /* \"StakingContract.sol\":9295:9318  stakerAddress[_tokenId] */\n      dup5\n      dup2\n      mstore\n        /* \"StakingContract.sol\":9295:9308  stakerAddress */\n      0x05\n        /* \"StakingContract.sol\":9295:9318  stakerAddress[_tokenId] */\n      0x20\n      mstore\n      0x40\n      swap1\n      dup2\n      swap1\n      keccak256\n        /* \"StakingContract.sol\":9295:9331  stakerAddress[_tokenId] = address(0) */\n      dup1\n      sload\n      not(sub(shl(0xa0, 0x01), 0x01))\n      and\n      swap1\n      sstore\n        /* \"StakingContract.sol\":9403:9468  contract_market.transferFrom(address(this), msg.sender, _tokenId) */\n      mload\n      shl(0xe0, 0x23b872dd)\n      dup2\n      mstore\n        /* \"StakingContract.sol\":9440:9444  this */\n      address\n        /* \"StakingContract.sol\":9403:9468  contract_market.transferFrom(address(this), msg.sender, _tokenId) */\n      0x04\n      dup3\n      add\n        /* \"#utility.yul\":4744:4778   */\n      mstore\n        /* \"StakingContract.sol\":9447:9457  msg.sender */\n      caller\n        /* \"#utility.yul\":4794:4812   */\n      0x24\n      dup3\n      add\n        /* \"#utility.yul\":4787:4830   */\n      mstore\n        /* \"#utility.yul\":4846:4864   */\n      0x44\n      dup2\n      add\n        /* \"#utility.yul\":4839:4873   */\n      dup6\n      swap1\n      mstore\n      sub(shl(0xa0, 0x01), 0x01)\n        /* \"StakingContract.sol\":9403:9431  contract_market.transferFrom */\n      dup5\n      and\n      swap1\n      0x23b872dd\n      swap1\n        /* \"#utility.yul\":4656:4674   */\n      0x64\n      add\n        /* \"StakingContract.sol\":9403:9468  contract_market.transferFrom(address(this), msg.sender, _tokenId) */\n      0x00\n      mload(0x40)\n      dup1\n      dup4\n      sub\n      dup2\n      0x00\n      dup8\n      dup1\n      extcodesize\n      iszero\n      dup1\n      iszero\n      tag_169\n      jumpi\n      0x00\n      dup1\n      revert\n    tag_169:\n      pop\n      gas\n      call\n      iszero\n      dup1\n      iszero\n      tag_171\n      jumpi\n      returndatasize\n      0x00\n      dup1\n      returndatacopy\n      revert(0x00, returndatasize)\n    tag_171:\n      pop\n      pop\n        /* \"StakingContract.sol\":9553:9563  msg.sender */\n      caller\n        /* \"StakingContract.sol\":9545:9564  stakers[msg.sender] */\n      0x00\n      swap1\n      dup2\n      mstore\n        /* \"StakingContract.sol\":9545:9552  stakers */\n      0x04\n        /* \"StakingContract.sol\":9545:9564  stakers[msg.sender] */\n      0x20\n      mstore\n      0x40\n      swap1\n      keccak256\n        /* \"StakingContract.sol\":9584:9599  block.timestamp */\n      timestamp\n        /* \"StakingContract.sol\":9545:9581  stakers[msg.sender].timeOfLastUpdate */\n      0x05\n      swap1\n      swap2\n      add\n        /* \"StakingContract.sol\":9545:9599  stakers[msg.sender].timeOfLastUpdate = block.timestamp */\n      sstore\n      pop\n      pop\n      pop\n      pop\n        /* \"StakingContract.sol\":8089:9610  if (contract_market == nftCollection_astra) {... */\n    tag_143:\n        /* \"StakingContract.sol\":9643:9662  nftCollection_horse */\n      immutable(\"0x1572b593c53d839d80004aa4b8c51211864104f06ace9e22be9c4365b50655ea\")\n      sub(shl(0xa0, 0x01), 0x01)\n        /* \"StakingContract.sol\":9624:9662  contract_market == nftCollection_horse */\n      and\n        /* \"StakingContract.sol\":9624:9639  contract_market */\n      dup2\n      sub(shl(0xa0, 0x01), 0x01)\n        /* \"StakingContract.sol\":9624:9662  contract_market == nftCollection_horse */\n      and\n      sub\n        /* \"StakingContract.sol\":9620:11201  if (contract_market == nftCollection_horse) {... */\n      tag_172\n      jumpi\n        /* \"StakingContract.sol\":9780:9795  uint256 rewards */\n      0x00\n        /* \"StakingContract.sol\":9798:9826  calculateRewards(msg.sender) */\n      tag_173\n        /* \"StakingContract.sol\":9815:9825  msg.sender */\n      caller\n        /* \"StakingContract.sol\":9798:9814  calculateRewards */\n      tag_145\n        /* \"StakingContract.sol\":9798:9826  calculateRewards(msg.sender) */\n      jump\t// in\n    tag_173:\n        /* \"StakingContract.sol\":9848:9858  msg.sender */\n      caller\n        /* \"StakingContract.sol\":9840:9859  stakers[msg.sender] */\n      0x00\n      swap1\n      dup2\n      mstore\n        /* \"StakingContract.sol\":9840:9847  stakers */\n      0x04\n        /* \"StakingContract.sol\":9840:9859  stakers[msg.sender] */\n      0x20\n      mstore\n      0x40\n      dup2\n      keccak256\n        /* \"StakingContract.sol\":9840:9876  stakers[msg.sender].unclaimedRewards */\n      0x06\n      add\n        /* \"StakingContract.sol\":9840:9887  stakers[msg.sender].unclaimedRewards += rewards */\n      dup1\n      sload\n        /* \"StakingContract.sol\":9780:9826  uint256 rewards = calculateRewards(msg.sender) */\n      swap3\n      swap4\n      pop\n      dup4\n      swap3\n        /* \"StakingContract.sol\":9840:9876  stakers[msg.sender].unclaimedRewards */\n      swap1\n      swap2\n        /* \"StakingContract.sol\":9840:9859  stakers[msg.sender] */\n      swap1\n        /* \"StakingContract.sol\":9840:9887  stakers[msg.sender].unclaimedRewards += rewards */\n      tag_174\n      swap1\n        /* \"StakingContract.sol\":9780:9826  uint256 rewards = calculateRewards(msg.sender) */\n      dup5\n      swap1\n        /* \"StakingContract.sol\":9840:9887  stakers[msg.sender].unclaimedRewards += rewards */\n      tag_147\n      jump\t// in\n    tag_174:\n      swap1\n      swap2\n      sstore\n      pop\n        /* \"StakingContract.sol\":9975:9988  uint256 index */\n      0x00\n      swap1\n      pop\n      dup1\n        /* \"StakingContract.sol\":10006:10481  for (... */\n    tag_175:\n        /* \"StakingContract.sol\":10071:10081  msg.sender */\n      caller\n        /* \"StakingContract.sol\":10063:10082  stakers[msg.sender] */\n      0x00\n      swap1\n      dup2\n      mstore\n        /* \"StakingContract.sol\":10063:10070  stakers */\n      0x04\n        /* \"StakingContract.sol\":10063:10082  stakers[msg.sender] */\n      0x20\n      dup2\n      swap1\n      mstore\n      0x40\n      swap1\n      swap2\n      keccak256\n        /* \"StakingContract.sol\":10063:10100  stakers[msg.sender].stakedHorseTokens */\n      add\n        /* \"StakingContract.sol\":10063:10107  stakers[msg.sender].stakedHorseTokens.length */\n      sload\n        /* \"StakingContract.sol\":10059:10107  i < stakers[msg.sender].stakedHorseTokens.length */\n      dup2\n      lt\n        /* \"StakingContract.sol\":10006:10481  for (... */\n      iszero\n      tag_176\n      jumpi\n        /* \"StakingContract.sol\":10194:10204  msg.sender */\n      caller\n        /* \"StakingContract.sol\":10186:10205  stakers[msg.sender] */\n      0x00\n      swap1\n      dup2\n      mstore\n        /* \"StakingContract.sol\":10186:10193  stakers */\n      0x04\n        /* \"StakingContract.sol\":10186:10205  stakers[msg.sender] */\n      0x20\n      dup2\n      swap1\n      mstore\n      0x40\n      swap1\n      swap2\n      keccak256\n        /* \"StakingContract.sol\":10186:10223  stakers[msg.sender].stakedHorseTokens */\n      add\n        /* \"StakingContract.sol\":10186:10226  stakers[msg.sender].stakedHorseTokens[i] */\n      dup1\n      sload\n        /* \"StakingContract.sol\":10258:10266  _tokenId */\n      dup7\n      swap2\n        /* \"StakingContract.sol\":10186:10223  stakers[msg.sender].stakedHorseTokens */\n      swap1\n        /* \"StakingContract.sol\":10224:10225  i */\n      dup4\n      swap1\n        /* \"StakingContract.sol\":10186:10226  stakers[msg.sender].stakedHorseTokens[i] */\n      dup2\n      lt\n      tag_179\n      jumpi\n      tag_179\n      tag_153\n      jump\t// in\n    tag_179:\n      swap1\n      0x00\n      mstore\n      keccak256(0x00, 0x20)\n      swap1\n      0x02\n      mul\n      add\n        /* \"StakingContract.sol\":10186:10234  stakers[msg.sender].stakedHorseTokens[i].tokenId */\n      0x01\n      add\n      sload\n        /* \"StakingContract.sol\":10186:10266  stakers[msg.sender].stakedHorseTokens[i].tokenId ==... */\n      eq\n        /* \"StakingContract.sol\":10186:10371  stakers[msg.sender].stakedHorseTokens[i].tokenId ==... */\n      dup1\n      iszero\n      tag_181\n      jumpi\n      pop\n        /* \"StakingContract.sol\":10298:10308  msg.sender */\n      caller\n        /* \"StakingContract.sol\":10369:10370  0 */\n      0x00\n        /* \"StakingContract.sol\":10290:10309  stakers[msg.sender] */\n      swap1\n      dup2\n      mstore\n        /* \"StakingContract.sol\":10290:10297  stakers */\n      0x04\n        /* \"StakingContract.sol\":10290:10309  stakers[msg.sender] */\n      0x20\n      dup2\n      swap1\n      mstore\n      0x40\n      dup3\n      keccak256\n        /* \"StakingContract.sol\":10290:10327  stakers[msg.sender].stakedHorseTokens */\n      add\n        /* \"StakingContract.sol\":10290:10330  stakers[msg.sender].stakedHorseTokens[i] */\n      dup1\n      sload\n        /* \"StakingContract.sol\":10328:10329  i */\n      dup4\n      swap1\n        /* \"StakingContract.sol\":10290:10330  stakers[msg.sender].stakedHorseTokens[i] */\n      dup2\n      lt\n      tag_183\n      jumpi\n      tag_183\n      tag_153\n      jump\t// in\n    tag_183:\n      0x00\n      swap2\n      dup3\n      mstore\n      0x20\n      swap1\n      swap2\n      keccak256\n      0x02\n      swap1\n      swap2\n      mul\n      add\n        /* \"StakingContract.sol\":10290:10337  stakers[msg.sender].stakedHorseTokens[i].staker */\n      sload\n      sub(shl(0xa0, 0x01), 0x01)\n      and\n        /* \"StakingContract.sol\":10290:10371  stakers[msg.sender].stakedHorseTokens[i].staker !=... */\n      eq\n      iszero\n        /* \"StakingContract.sol\":10186:10371  stakers[msg.sender].stakedHorseTokens[i].tokenId ==... */\n    tag_181:\n        /* \"StakingContract.sol\":10161:10467  if (... */\n      iszero\n      tag_185\n      jumpi\n        /* \"StakingContract.sol\":10420:10421  i */\n      dup1\n        /* \"StakingContract.sol\":10412:10421  index = i */\n      swap2\n      pop\n        /* \"StakingContract.sol\":10443:10448  break */\n      jump(tag_176)\n        /* \"StakingContract.sol\":10161:10467  if (... */\n    tag_185:\n        /* \"StakingContract.sol\":10125:10128  i++ */\n      dup1\n      tag_186\n      dup2\n      tag_161\n      jump\t// in\n    tag_186:\n      swap2\n      pop\n      pop\n        /* \"StakingContract.sol\":10006:10481  for (... */\n      jump(tag_175)\n    tag_176:\n      pop\n        /* \"StakingContract.sol\":10590:10600  msg.sender */\n      caller\n        /* \"StakingContract.sol\":10644:10645  0 */\n      0x00\n        /* \"StakingContract.sol\":10582:10601  stakers[msg.sender] */\n      swap1\n      dup2\n      mstore\n        /* \"StakingContract.sol\":10582:10589  stakers */\n      0x04\n        /* \"StakingContract.sol\":10582:10601  stakers[msg.sender] */\n      0x20\n      dup2\n      swap1\n      mstore\n      0x40\n      dup3\n      keccak256\n        /* \"StakingContract.sol\":10582:10619  stakers[msg.sender].stakedHorseTokens */\n      add\n        /* \"StakingContract.sol\":10582:10626  stakers[msg.sender].stakedHorseTokens[index] */\n      dup1\n      sload\n        /* \"StakingContract.sol\":10620:10625  index */\n      dup4\n      swap1\n        /* \"StakingContract.sol\":10582:10626  stakers[msg.sender].stakedHorseTokens[index] */\n      dup2\n      lt\n      tag_188\n      jumpi\n      tag_188\n      tag_153\n      jump\t// in\n    tag_188:\n      0x00\n      swap2\n      dup3\n      mstore\n      0x20\n      dup1\n      dup4\n      keccak256\n      0x02\n      swap3\n      swap1\n      swap3\n      mul\n      swap1\n      swap2\n      add\n        /* \"StakingContract.sol\":10582:10646  stakers[msg.sender].stakedHorseTokens[index].staker = address(0) */\n      dup1\n      sload\n      not(sub(shl(0xa0, 0x01), 0x01))\n      and\n      sub(shl(0xa0, 0x01), 0x01)\n      swap5\n      swap1\n      swap5\n      and\n      swap4\n      swap1\n      swap4\n      or\n      swap1\n      swap3\n      sstore\n        /* \"StakingContract.sol\":10728:10738  msg.sender */\n      caller\n        /* \"StakingContract.sol\":10720:10739  stakers[msg.sender] */\n      dup2\n      mstore\n        /* \"StakingContract.sol\":10720:10727  stakers */\n      0x04\n        /* \"StakingContract.sol\":10720:10739  stakers[msg.sender] */\n      swap1\n      swap2\n      mstore\n      0x40\n      dup2\n      keccak256\n        /* \"StakingContract.sol\":10720:10754  stakers[msg.sender].amountStaked-- */\n      dup1\n      sload\n      swap2\n      tag_190\n      dup4\n      tag_166\n      jump\t// in\n    tag_190:\n      swap1\n      swap2\n      sstore\n      pop\n      pop\n        /* \"StakingContract.sol\":10920:10921  0 */\n      0x00\n        /* \"StakingContract.sol\":10886:10909  stakerAddress[_tokenId] */\n      dup5\n      dup2\n      mstore\n        /* \"StakingContract.sol\":10886:10899  stakerAddress */\n      0x05\n        /* \"StakingContract.sol\":10886:10909  stakerAddress[_tokenId] */\n      0x20\n      mstore\n      0x40\n      swap1\n      dup2\n      swap1\n      keccak256\n        /* \"StakingContract.sol\":10886:10922  stakerAddress[_tokenId] = address(0) */\n      dup1\n      sload\n      not(sub(shl(0xa0, 0x01), 0x01))\n      and\n      swap1\n      sstore\n        /* \"StakingContract.sol\":10994:11059  contract_market.transferFrom(address(this), msg.sender, _tokenId) */\n      mload\n      shl(0xe0, 0x23b872dd)\n      dup2\n      mstore\n        /* \"StakingContract.sol\":11031:11035  this */\n      address\n        /* \"StakingContract.sol\":10994:11059  contract_market.transferFrom(address(this), msg.sender, _tokenId) */\n      0x04\n      dup3\n      add\n        /* \"#utility.yul\":4744:4778   */\n      mstore\n        /* \"StakingContract.sol\":11038:11048  msg.sender */\n      caller\n        /* \"#utility.yul\":4794:4812   */\n      0x24\n      dup3\n      add\n        /* \"#utility.yul\":4787:4830   */\n      mstore\n        /* \"#utility.yul\":4846:4864   */\n      0x44\n      dup2\n      add\n        /* \"#utility.yul\":4839:4873   */\n      dup6\n      swap1\n      mstore\n      sub(shl(0xa0, 0x01), 0x01)\n        /* \"StakingContract.sol\":10994:11022  contract_market.transferFrom */\n      dup5\n      and\n      swap1\n      0x23b872dd\n      swap1\n        /* \"#utility.yul\":4656:4674   */\n      0x64\n      add\n        /* \"StakingContract.sol\":10994:11059  contract_market.transferFrom(address(this), msg.sender, _tokenId) */\n      0x00\n      mload(0x40)\n      dup1\n      dup4\n      sub\n      dup2\n      0x00\n      dup8\n      dup1\n      extcodesize\n      iszero\n      dup1\n      iszero\n      tag_192\n      jumpi\n      0x00\n      dup1\n      revert\n    tag_192:\n      pop\n      gas\n      call\n      iszero\n      dup1\n      iszero\n      tag_194\n      jumpi\n      returndatasize\n      0x00\n      dup1\n      returndatacopy\n      revert(0x00, returndatasize)\n    tag_194:\n      pop\n      pop\n        /* \"StakingContract.sol\":11144:11154  msg.sender */\n      caller\n        /* \"StakingContract.sol\":11136:11155  stakers[msg.sender] */\n      0x00\n      swap1\n      dup2\n      mstore\n        /* \"StakingContract.sol\":11136:11143  stakers */\n      0x04\n        /* \"StakingContract.sol\":11136:11155  stakers[msg.sender] */\n      0x20\n      mstore\n      0x40\n      swap1\n      keccak256\n        /* \"StakingContract.sol\":11175:11190  block.timestamp */\n      timestamp\n        /* \"StakingContract.sol\":11136:11172  stakers[msg.sender].timeOfLastUpdate */\n      0x05\n      swap1\n      swap2\n      add\n        /* \"StakingContract.sol\":11136:11190  stakers[msg.sender].timeOfLastUpdate = block.timestamp */\n      sstore\n      pop\n      pop\n      pop\n      pop\n        /* \"StakingContract.sol\":9620:11201  if (contract_market == nftCollection_horse) {... */\n    tag_172:\n        /* \"StakingContract.sol\":11234:11251  nftCollection_cat */\n      immutable(\"0x9cce9eb03c9f29c6481fca9f0f942b15bef0bbbc47fda0ddb44df157019835d9\")\n      sub(shl(0xa0, 0x01), 0x01)\n        /* \"StakingContract.sol\":11215:11251  contract_market == nftCollection_cat */\n      and\n        /* \"StakingContract.sol\":11215:11230  contract_market */\n      dup2\n      sub(shl(0xa0, 0x01), 0x01)\n        /* \"StakingContract.sol\":11215:11251  contract_market == nftCollection_cat */\n      and\n      sub\n        /* \"StakingContract.sol\":11211:12762  if (contract_market == nftCollection_cat) {... */\n      tag_195\n      jumpi\n        /* \"StakingContract.sol\":11369:11384  uint256 rewards */\n      0x00\n        /* \"StakingContract.sol\":11387:11415  calculateRewards(msg.sender) */\n      tag_196\n        /* \"StakingContract.sol\":11404:11414  msg.sender */\n      caller\n        /* \"StakingContract.sol\":11387:11403  calculateRewards */\n      tag_145\n        /* \"StakingContract.sol\":11387:11415  calculateRewards(msg.sender) */\n      jump\t// in\n    tag_196:\n        /* \"StakingContract.sol\":11437:11447  msg.sender */\n      caller\n        /* \"StakingContract.sol\":11429:11448  stakers[msg.sender] */\n      0x00\n      swap1\n      dup2\n      mstore\n        /* \"StakingContract.sol\":11429:11436  stakers */\n      0x04\n        /* \"StakingContract.sol\":11429:11448  stakers[msg.sender] */\n      0x20\n      mstore\n      0x40\n      dup2\n      keccak256\n        /* \"StakingContract.sol\":11429:11465  stakers[msg.sender].unclaimedRewards */\n      0x06\n      add\n        /* \"StakingContract.sol\":11429:11476  stakers[msg.sender].unclaimedRewards += rewards */\n      dup1\n      sload\n        /* \"StakingContract.sol\":11369:11415  uint256 rewards = calculateRewards(msg.sender) */\n      swap3\n      swap4\n      pop\n      dup4\n      swap3\n        /* \"StakingContract.sol\":11429:11465  stakers[msg.sender].unclaimedRewards */\n      swap1\n      swap2\n        /* \"StakingContract.sol\":11429:11448  stakers[msg.sender] */\n      swap1\n        /* \"StakingContract.sol\":11429:11476  stakers[msg.sender].unclaimedRewards += rewards */\n      tag_197\n      swap1\n        /* \"StakingContract.sol\":11369:11415  uint256 rewards = calculateRewards(msg.sender) */\n      dup5\n      swap1\n        /* \"StakingContract.sol\":11429:11476  stakers[msg.sender].unclaimedRewards += rewards */\n      tag_147\n      jump\t// in\n    tag_197:\n      swap1\n      swap2\n      sstore\n      pop\n        /* \"StakingContract.sol\":11564:11577  uint256 index */\n      0x00\n      swap1\n      pop\n      dup1\n        /* \"StakingContract.sol\":11595:12044  for (... */\n    tag_198:\n        /* \"StakingContract.sol\":11660:11670  msg.sender */\n      caller\n        /* \"StakingContract.sol\":11652:11671  stakers[msg.sender] */\n      0x00\n      swap1\n      dup2\n      mstore\n        /* \"StakingContract.sol\":11652:11659  stakers */\n      0x04\n        /* \"StakingContract.sol\":11652:11671  stakers[msg.sender] */\n      0x20\n      mstore\n      0x40\n      swap1\n      keccak256\n        /* \"StakingContract.sol\":11652:11687  stakers[msg.sender].stakedCatTokens */\n      0x02\n      add\n        /* \"StakingContract.sol\":11652:11694  stakers[msg.sender].stakedCatTokens.length */\n      sload\n        /* \"StakingContract.sol\":11648:11694  i < stakers[msg.sender].stakedCatTokens.length */\n      dup2\n      lt\n        /* \"StakingContract.sol\":11595:12044  for (... */\n      iszero\n      tag_199\n      jumpi\n        /* \"StakingContract.sol\":11781:11791  msg.sender */\n      caller\n        /* \"StakingContract.sol\":11773:11792  stakers[msg.sender] */\n      0x00\n      swap1\n      dup2\n      mstore\n        /* \"StakingContract.sol\":11773:11780  stakers */\n      0x04\n        /* \"StakingContract.sol\":11773:11792  stakers[msg.sender] */\n      0x20\n      mstore\n      0x40\n      swap1\n      keccak256\n        /* \"StakingContract.sol\":11773:11808  stakers[msg.sender].stakedCatTokens */\n      0x02\n      add\n        /* \"StakingContract.sol\":11773:11811  stakers[msg.sender].stakedCatTokens[i] */\n      dup1\n      sload\n        /* \"StakingContract.sol\":11843:11851  _tokenId */\n      dup7\n      swap2\n        /* \"StakingContract.sol\":11773:11808  stakers[msg.sender].stakedCatTokens */\n      swap1\n        /* \"StakingContract.sol\":11809:11810  i */\n      dup4\n      swap1\n        /* \"StakingContract.sol\":11773:11811  stakers[msg.sender].stakedCatTokens[i] */\n      dup2\n      lt\n      tag_202\n      jumpi\n      tag_202\n      tag_153\n      jump\t// in\n    tag_202:\n      swap1\n      0x00\n      mstore\n      keccak256(0x00, 0x20)\n      swap1\n      0x02\n      mul\n      add\n        /* \"StakingContract.sol\":11773:11819  stakers[msg.sender].stakedCatTokens[i].tokenId */\n      0x01\n      add\n      sload\n        /* \"StakingContract.sol\":11773:11851  stakers[msg.sender].stakedCatTokens[i].tokenId ==... */\n      eq\n        /* \"StakingContract.sol\":11773:11934  stakers[msg.sender].stakedCatTokens[i].tokenId ==... */\n      dup1\n      iszero\n      tag_204\n      jumpi\n      pop\n        /* \"StakingContract.sol\":11883:11893  msg.sender */\n      caller\n        /* \"StakingContract.sol\":11932:11933  0 */\n      0x00\n        /* \"StakingContract.sol\":11875:11894  stakers[msg.sender] */\n      swap1\n      dup2\n      mstore\n        /* \"StakingContract.sol\":11875:11882  stakers */\n      0x04\n        /* \"StakingContract.sol\":11875:11894  stakers[msg.sender] */\n      0x20\n      mstore\n      0x40\n      dup2\n      keccak256\n        /* \"StakingContract.sol\":11875:11910  stakers[msg.sender].stakedCatTokens */\n      0x02\n      add\n        /* \"StakingContract.sol\":11875:11913  stakers[msg.sender].stakedCatTokens[i] */\n      dup1\n      sload\n        /* \"StakingContract.sol\":11911:11912  i */\n      dup4\n      swap1\n        /* \"StakingContract.sol\":11875:11913  stakers[msg.sender].stakedCatTokens[i] */\n      dup2\n      lt\n      tag_206\n      jumpi\n      tag_206\n      tag_153\n      jump\t// in\n    tag_206:\n      0x00\n      swap2\n      dup3\n      mstore\n      0x20\n      swap1\n      swap2\n      keccak256\n      0x02\n      swap1\n      swap2\n      mul\n      add\n        /* \"StakingContract.sol\":11875:11920  stakers[msg.sender].stakedCatTokens[i].staker */\n      sload\n      sub(shl(0xa0, 0x01), 0x01)\n      and\n        /* \"StakingContract.sol\":11875:11934  stakers[msg.sender].stakedCatTokens[i].staker != address(0) */\n      eq\n      iszero\n        /* \"StakingContract.sol\":11773:11934  stakers[msg.sender].stakedCatTokens[i].tokenId ==... */\n    tag_204:\n        /* \"StakingContract.sol\":11748:12030  if (... */\n      iszero\n      tag_208\n      jumpi\n        /* \"StakingContract.sol\":11983:11984  i */\n      dup1\n        /* \"StakingContract.sol\":11975:11984  index = i */\n      swap2\n      pop\n        /* \"StakingContract.sol\":12006:12011  break */\n      jump(tag_199)\n        /* \"StakingContract.sol\":11748:12030  if (... */\n    tag_208:\n        /* \"StakingContract.sol\":11712:11715  i++ */\n      dup1\n      tag_209\n      dup2\n      tag_161\n      jump\t// in\n    tag_209:\n      swap2\n      pop\n      pop\n        /* \"StakingContract.sol\":11595:12044  for (... */\n      jump(tag_198)\n    tag_199:\n      pop\n        /* \"StakingContract.sol\":12153:12163  msg.sender */\n      caller\n        /* \"StakingContract.sol\":12205:12206  0 */\n      0x00\n        /* \"StakingContract.sol\":12145:12164  stakers[msg.sender] */\n      swap1\n      dup2\n      mstore\n        /* \"StakingContract.sol\":12145:12152  stakers */\n      0x04\n        /* \"StakingContract.sol\":12145:12164  stakers[msg.sender] */\n      0x20\n      mstore\n      0x40\n      dup2\n      keccak256\n        /* \"StakingContract.sol\":12145:12180  stakers[msg.sender].stakedCatTokens */\n      0x02\n      add\n        /* \"StakingContract.sol\":12145:12187  stakers[msg.sender].stakedCatTokens[index] */\n      dup1\n      sload\n        /* \"StakingContract.sol\":12181:12186  index */\n      dup4\n      swap1\n        /* \"StakingContract.sol\":12145:12187  stakers[msg.sender].stakedCatTokens[index] */\n      dup2\n      lt\n      tag_211\n      jumpi\n      tag_211\n      tag_153\n      jump\t// in\n    tag_211:\n      0x00\n      swap2\n      dup3\n      mstore\n      0x20\n      dup1\n      dup4\n      keccak256\n      0x02\n      swap3\n      swap1\n      swap3\n      mul\n      swap1\n      swap2\n      add\n        /* \"StakingContract.sol\":12145:12207  stakers[msg.sender].stakedCatTokens[index].staker = address(0) */\n      dup1\n      sload\n      not(sub(shl(0xa0, 0x01), 0x01))\n      and\n      sub(shl(0xa0, 0x01), 0x01)\n      swap5\n      swap1\n      swap5\n      and\n      swap4\n      swap1\n      swap4\n      or\n      swap1\n      swap3\n      sstore\n        /* \"StakingContract.sol\":12289:12299  msg.sender */\n      caller\n        /* \"StakingContract.sol\":12281:12300  stakers[msg.sender] */\n      dup2\n      mstore\n        /* \"StakingContract.sol\":12281:12288  stakers */\n      0x04\n        /* \"StakingContract.sol\":12281:12300  stakers[msg.sender] */\n      swap1\n      swap2\n      mstore\n      0x40\n      dup2\n      keccak256\n        /* \"StakingContract.sol\":12281:12315  stakers[msg.sender].amountStaked-- */\n      dup1\n      sload\n      swap2\n      tag_213\n      dup4\n      tag_166\n      jump\t// in\n    tag_213:\n      swap1\n      swap2\n      sstore\n      pop\n      pop\n        /* \"StakingContract.sol\":12481:12482  0 */\n      0x00\n        /* \"StakingContract.sol\":12447:12470  stakerAddress[_tokenId] */\n      dup5\n      dup2\n      mstore\n        /* \"StakingContract.sol\":12447:12460  stakerAddress */\n      0x05\n        /* \"StakingContract.sol\":12447:12470  stakerAddress[_tokenId] */\n      0x20\n      mstore\n      0x40\n      swap1\n      dup2\n      swap1\n      keccak256\n        /* \"StakingContract.sol\":12447:12483  stakerAddress[_tokenId] = address(0) */\n      dup1\n      sload\n      not(sub(shl(0xa0, 0x01), 0x01))\n      and\n      swap1\n      sstore\n        /* \"StakingContract.sol\":12555:12620  contract_market.transferFrom(address(this), msg.sender, _tokenId) */\n      mload\n      shl(0xe0, 0x23b872dd)\n      dup2\n      mstore\n        /* \"StakingContract.sol\":12592:12596  this */\n      address\n        /* \"StakingContract.sol\":12555:12620  contract_market.transferFrom(address(this), msg.sender, _tokenId) */\n      0x04\n      dup3\n      add\n        /* \"#utility.yul\":4744:4778   */\n      mstore\n        /* \"StakingContract.sol\":12599:12609  msg.sender */\n      caller\n        /* \"#utility.yul\":4794:4812   */\n      0x24\n      dup3\n      add\n        /* \"#utility.yul\":4787:4830   */\n      mstore\n        /* \"#utility.yul\":4846:4864   */\n      0x44\n      dup2\n      add\n        /* \"#utility.yul\":4839:4873   */\n      dup6\n      swap1\n      mstore\n      sub(shl(0xa0, 0x01), 0x01)\n        /* \"StakingContract.sol\":12555:12583  contract_market.transferFrom */\n      dup5\n      and\n      swap1\n      0x23b872dd\n      swap1\n        /* \"#utility.yul\":4656:4674   */\n      0x64\n      add\n        /* \"StakingContract.sol\":12555:12620  contract_market.transferFrom(address(this), msg.sender, _tokenId) */\n      0x00\n      mload(0x40)\n      dup1\n      dup4\n      sub\n      dup2\n      0x00\n      dup8\n      dup1\n      extcodesize\n      iszero\n      dup1\n      iszero\n      tag_215\n      jumpi\n      0x00\n      dup1\n      revert\n    tag_215:\n      pop\n      gas\n      call\n      iszero\n      dup1\n      iszero\n      tag_217\n      jumpi\n      returndatasize\n      0x00\n      dup1\n      returndatacopy\n      revert(0x00, returndatasize)\n    tag_217:\n      pop\n      pop\n        /* \"StakingContract.sol\":12705:12715  msg.sender */\n      caller\n        /* \"StakingContract.sol\":12697:12716  stakers[msg.sender] */\n      0x00\n      swap1\n      dup2\n      mstore\n        /* \"StakingContract.sol\":12697:12704  stakers */\n      0x04\n        /* \"StakingContract.sol\":12697:12716  stakers[msg.sender] */\n      0x20\n      mstore\n      0x40\n      swap1\n      keccak256\n        /* \"StakingContract.sol\":12736:12751  block.timestamp */\n      timestamp\n        /* \"StakingContract.sol\":12697:12733  stakers[msg.sender].timeOfLastUpdate */\n      0x05\n      swap1\n      swap2\n      add\n        /* \"StakingContract.sol\":12697:12751  stakers[msg.sender].timeOfLastUpdate = block.timestamp */\n      sstore\n      pop\n      pop\n      pop\n      pop\n        /* \"StakingContract.sol\":11211:12762  if (contract_market == nftCollection_cat) {... */\n    tag_195:\n        /* \"StakingContract.sol\":12795:12813  nftCollection_bear */\n      immutable(\"0x7749cc8014201da2069c21d93ba99c584b6f62d393fde534ed47eac227e31561\")\n      sub(shl(0xa0, 0x01), 0x01)\n        /* \"StakingContract.sol\":12776:12813  contract_market == nftCollection_bear */\n      and\n        /* \"StakingContract.sol\":12776:12791  contract_market */\n      dup2\n      sub(shl(0xa0, 0x01), 0x01)\n        /* \"StakingContract.sol\":12776:12813  contract_market == nftCollection_bear */\n      and\n      sub\n        /* \"StakingContract.sol\":12772:14328  if (contract_market == nftCollection_bear) {... */\n      tag_218\n      jumpi\n        /* \"StakingContract.sol\":12931:12946  uint256 rewards */\n      0x00\n        /* \"StakingContract.sol\":12949:12977  calculateRewards(msg.sender) */\n      tag_219\n        /* \"StakingContract.sol\":12966:12976  msg.sender */\n      caller\n        /* \"StakingContract.sol\":12949:12965  calculateRewards */\n      tag_145\n        /* \"StakingContract.sol\":12949:12977  calculateRewards(msg.sender) */\n      jump\t// in\n    tag_219:\n        /* \"StakingContract.sol\":12999:13009  msg.sender */\n      caller\n        /* \"StakingContract.sol\":12991:13010  stakers[msg.sender] */\n      0x00\n      swap1\n      dup2\n      mstore\n        /* \"StakingContract.sol\":12991:12998  stakers */\n      0x04\n        /* \"StakingContract.sol\":12991:13010  stakers[msg.sender] */\n      0x20\n      mstore\n      0x40\n      dup2\n      keccak256\n        /* \"StakingContract.sol\":12991:13027  stakers[msg.sender].unclaimedRewards */\n      0x06\n      add\n        /* \"StakingContract.sol\":12991:13038  stakers[msg.sender].unclaimedRewards += rewards */\n      dup1\n      sload\n        /* \"StakingContract.sol\":12931:12977  uint256 rewards = calculateRewards(msg.sender) */\n      swap3\n      swap4\n      pop\n      dup4\n      swap3\n        /* \"StakingContract.sol\":12991:13027  stakers[msg.sender].unclaimedRewards */\n      swap1\n      swap2\n        /* \"StakingContract.sol\":12991:13010  stakers[msg.sender] */\n      swap1\n        /* \"StakingContract.sol\":12991:13038  stakers[msg.sender].unclaimedRewards += rewards */\n      tag_220\n      swap1\n        /* \"StakingContract.sol\":12931:12977  uint256 rewards = calculateRewards(msg.sender) */\n      dup5\n      swap1\n        /* \"StakingContract.sol\":12991:13038  stakers[msg.sender].unclaimedRewards += rewards */\n      tag_147\n      jump\t// in\n    tag_220:\n      swap1\n      swap2\n      sstore\n      pop\n        /* \"StakingContract.sol\":13126:13139  uint256 index */\n      0x00\n      swap1\n      pop\n      dup1\n        /* \"StakingContract.sol\":13157:13609  for (... */\n    tag_221:\n        /* \"StakingContract.sol\":13222:13232  msg.sender */\n      caller\n        /* \"StakingContract.sol\":13214:13233  stakers[msg.sender] */\n      0x00\n      swap1\n      dup2\n      mstore\n        /* \"StakingContract.sol\":13214:13221  stakers */\n      0x04\n        /* \"StakingContract.sol\":13214:13233  stakers[msg.sender] */\n      0x20\n      mstore\n      0x40\n      swap1\n      keccak256\n        /* \"StakingContract.sol\":13214:13250  stakers[msg.sender].stakedBearTokens */\n      0x03\n      add\n        /* \"StakingContract.sol\":13214:13257  stakers[msg.sender].stakedBearTokens.length */\n      sload\n        /* \"StakingContract.sol\":13210:13257  i < stakers[msg.sender].stakedBearTokens.length */\n      dup2\n      lt\n        /* \"StakingContract.sol\":13157:13609  for (... */\n      iszero\n      tag_222\n      jumpi\n        /* \"StakingContract.sol\":13344:13354  msg.sender */\n      caller\n        /* \"StakingContract.sol\":13336:13355  stakers[msg.sender] */\n      0x00\n      swap1\n      dup2\n      mstore\n        /* \"StakingContract.sol\":13336:13343  stakers */\n      0x04\n        /* \"StakingContract.sol\":13336:13355  stakers[msg.sender] */\n      0x20\n      mstore\n      0x40\n      swap1\n      keccak256\n        /* \"StakingContract.sol\":13336:13372  stakers[msg.sender].stakedBearTokens */\n      0x03\n      add\n        /* \"StakingContract.sol\":13336:13375  stakers[msg.sender].stakedBearTokens[i] */\n      dup1\n      sload\n        /* \"StakingContract.sol\":13407:13415  _tokenId */\n      dup7\n      swap2\n        /* \"StakingContract.sol\":13336:13372  stakers[msg.sender].stakedBearTokens */\n      swap1\n        /* \"StakingContract.sol\":13373:13374  i */\n      dup4\n      swap1\n        /* \"StakingContract.sol\":13336:13375  stakers[msg.sender].stakedBearTokens[i] */\n      dup2\n      lt\n      tag_225\n      jumpi\n      tag_225\n      tag_153\n      jump\t// in\n    tag_225:\n      swap1\n      0x00\n      mstore\n      keccak256(0x00, 0x20)\n      swap1\n      0x02\n      mul\n      add\n        /* \"StakingContract.sol\":13336:13383  stakers[msg.sender].stakedBearTokens[i].tokenId */\n      0x01\n      add\n      sload\n        /* \"StakingContract.sol\":13336:13415  stakers[msg.sender].stakedBearTokens[i].tokenId ==... */\n      eq\n        /* \"StakingContract.sol\":13336:13499  stakers[msg.sender].stakedBearTokens[i].tokenId ==... */\n      dup1\n      iszero\n      tag_227\n      jumpi\n      pop\n        /* \"StakingContract.sol\":13447:13457  msg.sender */\n      caller\n        /* \"StakingContract.sol\":13497:13498  0 */\n      0x00\n        /* \"StakingContract.sol\":13439:13458  stakers[msg.sender] */\n      swap1\n      dup2\n      mstore\n        /* \"StakingContract.sol\":13439:13446  stakers */\n      0x04\n        /* \"StakingContract.sol\":13439:13458  stakers[msg.sender] */\n      0x20\n      mstore\n      0x40\n      dup2\n      keccak256\n        /* \"StakingContract.sol\":13439:13475  stakers[msg.sender].stakedBearTokens */\n      0x03\n      add\n        /* \"StakingContract.sol\":13439:13478  stakers[msg.sender].stakedBearTokens[i] */\n      dup1\n      sload\n        /* \"StakingContract.sol\":13476:13477  i */\n      dup4\n      swap1\n        /* \"StakingContract.sol\":13439:13478  stakers[msg.sender].stakedBearTokens[i] */\n      dup2\n      lt\n      tag_229\n      jumpi\n      tag_229\n      tag_153\n      jump\t// in\n    tag_229:\n      0x00\n      swap2\n      dup3\n      mstore\n      0x20\n      swap1\n      swap2\n      keccak256\n      0x02\n      swap1\n      swap2\n      mul\n      add\n        /* \"StakingContract.sol\":13439:13485  stakers[msg.sender].stakedBearTokens[i].staker */\n      sload\n      sub(shl(0xa0, 0x01), 0x01)\n      and\n        /* \"StakingContract.sol\":13439:13499  stakers[msg.sender].stakedBearTokens[i].staker != address(0) */\n      eq\n      iszero\n        /* \"StakingContract.sol\":13336:13499  stakers[msg.sender].stakedBearTokens[i].tokenId ==... */\n    tag_227:\n        /* \"StakingContract.sol\":13311:13595  if (... */\n      iszero\n      tag_231\n      jumpi\n        /* \"StakingContract.sol\":13548:13549  i */\n      dup1\n        /* \"StakingContract.sol\":13540:13549  index = i */\n      swap2\n      pop\n        /* \"StakingContract.sol\":13571:13576  break */\n      jump(tag_222)\n        /* \"StakingContract.sol\":13311:13595  if (... */\n    tag_231:\n        /* \"StakingContract.sol\":13275:13278  i++ */\n      dup1\n      tag_232\n      dup2\n      tag_161\n      jump\t// in\n    tag_232:\n      swap2\n      pop\n      pop\n        /* \"StakingContract.sol\":13157:13609  for (... */\n      jump(tag_221)\n    tag_222:\n      pop\n        /* \"StakingContract.sol\":13718:13728  msg.sender */\n      caller\n        /* \"StakingContract.sol\":13771:13772  0 */\n      0x00\n        /* \"StakingContract.sol\":13710:13729  stakers[msg.sender] */\n      swap1\n      dup2\n      mstore\n        /* \"StakingContract.sol\":13710:13717  stakers */\n      0x04\n        /* \"StakingContract.sol\":13710:13729  stakers[msg.sender] */\n      0x20\n      mstore\n      0x40\n      dup2\n      keccak256\n        /* \"StakingContract.sol\":13710:13746  stakers[msg.sender].stakedBearTokens */\n      0x03\n      add\n        /* \"StakingContract.sol\":13710:13753  stakers[msg.sender].stakedBearTokens[index] */\n      dup1\n      sload\n        /* \"StakingContract.sol\":13747:13752  index */\n      dup4\n      swap1\n        /* \"StakingContract.sol\":13710:13753  stakers[msg.sender].stakedBearTokens[index] */\n      dup2\n      lt\n      tag_234\n      jumpi\n      tag_234\n      tag_153\n      jump\t// in\n    tag_234:\n      0x00\n      swap2\n      dup3\n      mstore\n      0x20\n      dup1\n      dup4\n      keccak256\n      0x02\n      swap3\n      swap1\n      swap3\n      mul\n      swap1\n      swap2\n      add\n        /* \"StakingContract.sol\":13710:13773  stakers[msg.sender].stakedBearTokens[index].staker = address(0) */\n      dup1\n      sload\n      not(sub(shl(0xa0, 0x01), 0x01))\n      and\n      sub(shl(0xa0, 0x01), 0x01)\n      swap5\n      swap1\n      swap5\n      and\n      swap4\n      swap1\n      swap4\n      or\n      swap1\n      swap3\n      sstore\n        /* \"StakingContract.sol\":13855:13865  msg.sender */\n      caller\n        /* \"StakingContract.sol\":13847:13866  stakers[msg.sender] */\n      dup2\n      mstore\n        /* \"StakingContract.sol\":13847:13854  stakers */\n      0x04\n        /* \"StakingContract.sol\":13847:13866  stakers[msg.sender] */\n      swap1\n      swap2\n      mstore\n      0x40\n      dup2\n      keccak256\n        /* \"StakingContract.sol\":13847:13881  stakers[msg.sender].amountStaked-- */\n      dup1\n      sload\n      swap2\n      tag_236\n      dup4\n      tag_166\n      jump\t// in\n    tag_236:\n      swap1\n      swap2\n      sstore\n      pop\n      pop\n        /* \"StakingContract.sol\":14047:14048  0 */\n      0x00\n        /* \"StakingContract.sol\":14013:14036  stakerAddress[_tokenId] */\n      dup5\n      dup2\n      mstore\n        /* \"StakingContract.sol\":14013:14026  stakerAddress */\n      0x05\n        /* \"StakingContract.sol\":14013:14036  stakerAddress[_tokenId] */\n      0x20\n      mstore\n      0x40\n      swap1\n      dup2\n      swap1\n      keccak256\n        /* \"StakingContract.sol\":14013:14049  stakerAddress[_tokenId] = address(0) */\n      dup1\n      sload\n      not(sub(shl(0xa0, 0x01), 0x01))\n      and\n      swap1\n      sstore\n        /* \"StakingContract.sol\":14121:14186  contract_market.transferFrom(address(this), msg.sender, _tokenId) */\n      mload\n      shl(0xe0, 0x23b872dd)\n      dup2\n      mstore\n        /* \"StakingContract.sol\":14158:14162  this */\n      address\n        /* \"StakingContract.sol\":14121:14186  contract_market.transferFrom(address(this), msg.sender, _tokenId) */\n      0x04\n      dup3\n      add\n        /* \"#utility.yul\":4744:4778   */\n      mstore\n        /* \"StakingContract.sol\":14165:14175  msg.sender */\n      caller\n        /* \"#utility.yul\":4794:4812   */\n      0x24\n      dup3\n      add\n        /* \"#utility.yul\":4787:4830   */\n      mstore\n        /* \"#utility.yul\":4846:4864   */\n      0x44\n      dup2\n      add\n        /* \"#utility.yul\":4839:4873   */\n      dup6\n      swap1\n      mstore\n      sub(shl(0xa0, 0x01), 0x01)\n        /* \"StakingContract.sol\":14121:14149  contract_market.transferFrom */\n      dup5\n      and\n      swap1\n      0x23b872dd\n      swap1\n        /* \"#utility.yul\":4656:4674   */\n      0x64\n      add\n        /* \"StakingContract.sol\":14121:14186  contract_market.transferFrom(address(this), msg.sender, _tokenId) */\n      0x00\n      mload(0x40)\n      dup1\n      dup4\n      sub\n      dup2\n      0x00\n      dup8\n      dup1\n      extcodesize\n      iszero\n      dup1\n      iszero\n      tag_238\n      jumpi\n      0x00\n      dup1\n      revert\n    tag_238:\n      pop\n      gas\n      call\n      iszero\n      dup1\n      iszero\n      tag_240\n      jumpi\n      returndatasize\n      0x00\n      dup1\n      returndatacopy\n      revert(0x00, returndatasize)\n    tag_240:\n      pop\n      pop\n        /* \"StakingContract.sol\":14271:14281  msg.sender */\n      caller\n        /* \"StakingContract.sol\":14263:14282  stakers[msg.sender] */\n      0x00\n      swap1\n      dup2\n      mstore\n        /* \"StakingContract.sol\":14263:14270  stakers */\n      0x04\n        /* \"StakingContract.sol\":14263:14282  stakers[msg.sender] */\n      0x20\n      mstore\n      0x40\n      swap1\n      keccak256\n        /* \"StakingContract.sol\":14302:14317  block.timestamp */\n      timestamp\n        /* \"StakingContract.sol\":14263:14299  stakers[msg.sender].timeOfLastUpdate */\n      0x05\n      swap1\n      swap2\n      add\n        /* \"StakingContract.sol\":14263:14317  stakers[msg.sender].timeOfLastUpdate = block.timestamp */\n      sstore\n      pop\n      pop\n      pop\n      pop\n        /* \"StakingContract.sol\":12772:14328  if (contract_market == nftCollection_bear) {... */\n    tag_218:\n        /* \"@openzeppelin/contracts/security/ReentrancyGuard.sol\":2303:2323   */\n      tag_241\n        /* \"@openzeppelin/contracts/security/ReentrancyGuard.sol\":1716:1717   */\n      0x01\n        /* \"@openzeppelin/contracts/security/ReentrancyGuard.sol\":2809:2816   */\n      0x00\n        /* \"@openzeppelin/contracts/security/ReentrancyGuard.sol\":2809:2831   */\n      sstore\n        /* \"@openzeppelin/contracts/security/ReentrancyGuard.sol\":2629:2838   */\n      jump\n        /* \"@openzeppelin/contracts/security/ReentrancyGuard.sol\":2303:2323   */\n    tag_241:\n        /* \"StakingContract.sol\":7358:14334  function withdraw(uint256 _tokenId, IERC721 contract_market)... */\n      pop\n      pop\n      jump\t// out\n        /* \"StakingContract.sol\":19784:19972  function withdrawadmin(uint256 amount) external payable onlyOwner {... */\n    tag_39:\n        /* \"@openzeppelin/contracts/access/Ownable.sol\":1094:1107   */\n      tag_244\n        /* \"@openzeppelin/contracts/access/Ownable.sol\":1094:1105   */\n      tag_245\n        /* \"@openzeppelin/contracts/access/Ownable.sol\":1094:1107   */\n      jump\t// in\n    tag_244:\n        /* \"StakingContract.sol\":19861:19873  bool success */\n      0x00\n        /* \"StakingContract.sol\":19887:19894  owner() */\n      tag_247\n        /* \"@openzeppelin/contracts/access/Ownable.sol\":1273:1279   */\n      and(sub(shl(0xa0, 0x01), 0x01), sload(0x01))\n      swap1\n        /* \"@openzeppelin/contracts/access/Ownable.sol\":1201:1286   */\n      jump\n        /* \"StakingContract.sol\":19887:19894  owner() */\n    tag_247:\n      sub(shl(0xa0, 0x01), 0x01)\n        /* \"StakingContract.sol\":19879:19900  payable(owner()).call */\n      and\n        /* \"StakingContract.sol\":19908:19914  amount */\n      dup3\n        /* \"StakingContract.sol\":19879:19919  payable(owner()).call{value: amount}(\"\") */\n      mload(0x40)\n      0x00\n      mload(0x40)\n      dup1\n      dup4\n      sub\n      dup2\n      dup6\n      dup8\n      gas\n      call\n      swap3\n      pop\n      pop\n      pop\n      returndatasize\n      dup1\n      0x00\n      dup2\n      eq\n      tag_252\n      jumpi\n      mload(0x40)\n      swap2\n      pop\n      and(add(returndatasize, 0x3f), not(0x1f))\n      dup3\n      add\n      0x40\n      mstore\n      returndatasize\n      dup3\n      mstore\n      returndatasize\n      0x00\n      0x20\n      dup5\n      add\n      returndatacopy\n      jump(tag_251)\n    tag_252:\n      0x60\n      swap2\n      pop\n    tag_251:\n      pop\n        /* \"StakingContract.sol\":19860:19919  (bool success, ) = payable(owner()).call{value: amount}(\"\") */\n      pop\n      swap1\n      pop\n        /* \"StakingContract.sol\":19937:19944  success */\n      dup1\n        /* \"StakingContract.sol\":19929:19965  require(success, \"Transfer failed!\") */\n      tag_241\n      jumpi\n      mload(0x40)\n      shl(0xe5, 0x461bcd)\n      dup2\n      mstore\n        /* \"#utility.yul\":5296:5298   */\n      0x20\n        /* \"StakingContract.sol\":19929:19965  require(success, \"Transfer failed!\") */\n      0x04\n      dup3\n      add\n        /* \"#utility.yul\":5278:5299   */\n      mstore\n        /* \"#utility.yul\":5335:5337   */\n      0x10\n        /* \"#utility.yul\":5315:5333   */\n      0x24\n      dup3\n      add\n        /* \"#utility.yul\":5308:5338   */\n      mstore\n      shl(0x80, 0x5472616e73666572206661696c656421)\n        /* \"#utility.yul\":5354:5372   */\n      0x44\n      dup3\n      add\n        /* \"#utility.yul\":5347:5393   */\n      mstore\n        /* \"#utility.yul\":5410:5428   */\n      0x64\n      add\n        /* \"StakingContract.sol\":19929:19965  require(success, \"Transfer failed!\") */\n      tag_133\n        /* \"#utility.yul\":5094:5434   */\n      jump\n        /* \"StakingContract.sol\":14512:14990  function claimRewards() external {... */\n    tag_42:\n        /* \"StakingContract.sol\":14624:14634  msg.sender */\n      caller\n        /* \"StakingContract.sol\":14555:14570  uint256 rewards */\n      0x00\n        /* \"StakingContract.sol\":14616:14635  stakers[msg.sender] */\n      dup2\n      dup2\n      mstore\n        /* \"StakingContract.sol\":14616:14623  stakers */\n      0x04\n        /* \"StakingContract.sol\":14616:14635  stakers[msg.sender] */\n      0x20\n      mstore\n      0x40\n      dup2\n      keccak256\n        /* \"StakingContract.sol\":14616:14652  stakers[msg.sender].unclaimedRewards */\n      0x06\n      add\n      sload\n        /* \"StakingContract.sol\":14555:14570  uint256 rewards */\n      swap1\n      swap2\n        /* \"StakingContract.sol\":14573:14601  calculateRewards(msg.sender) */\n      tag_257\n      swap1\n        /* \"StakingContract.sol\":14573:14589  calculateRewards */\n      tag_145\n        /* \"StakingContract.sol\":14573:14601  calculateRewards(msg.sender) */\n      jump\t// in\n    tag_257:\n        /* \"StakingContract.sol\":14573:14652  calculateRewards(msg.sender) +... */\n      tag_258\n      swap2\n      swap1\n      tag_147\n      jump\t// in\n    tag_258:\n        /* \"StakingContract.sol\":14555:14652  uint256 rewards = calculateRewards(msg.sender) +... */\n      swap1\n      pop\n        /* \"StakingContract.sol\":14680:14681  0 */\n      0x00\n        /* \"StakingContract.sol\":14670:14677  rewards */\n      dup2\n        /* \"StakingContract.sol\":14670:14681  rewards > 0 */\n      gt\n        /* \"StakingContract.sol\":14662:14714  require(rewards > 0, \"You have no rewards to claim\") */\n      tag_259\n      jumpi\n      mload(0x40)\n      shl(0xe5, 0x461bcd)\n      dup2\n      mstore\n        /* \"#utility.yul\":5641:5643   */\n      0x20\n        /* \"StakingContract.sol\":14662:14714  require(rewards > 0, \"You have no rewards to claim\") */\n      0x04\n      dup3\n      add\n        /* \"#utility.yul\":5623:5644   */\n      mstore\n        /* \"#utility.yul\":5680:5682   */\n      0x1c\n        /* \"#utility.yul\":5660:5678   */\n      0x24\n      dup3\n      add\n        /* \"#utility.yul\":5653:5683   */\n      mstore\n        /* \"#utility.yul\":5719:5749   */\n      0x596f752068617665206e6f207265776172647320746f20636c61696d00000000\n        /* \"#utility.yul\":5699:5717   */\n      0x44\n      dup3\n      add\n        /* \"#utility.yul\":5692:5750   */\n      mstore\n        /* \"#utility.yul\":5767:5785   */\n      0x64\n      add\n        /* \"StakingContract.sol\":14662:14714  require(rewards > 0, \"You have no rewards to claim\") */\n      tag_133\n        /* \"#utility.yul\":5439:5791   */\n      jump\n        /* \"StakingContract.sol\":14662:14714  require(rewards > 0, \"You have no rewards to claim\") */\n    tag_259:\n        /* \"StakingContract.sol\":14733:14743  msg.sender */\n      caller\n        /* \"StakingContract.sol\":14725:14744  stakers[msg.sender] */\n      0x00\n      dup2\n      dup2\n      mstore\n        /* \"StakingContract.sol\":14725:14732  stakers */\n      0x04\n        /* \"StakingContract.sol\":14725:14744  stakers[msg.sender] */\n      0x20\n      mstore\n      0x40\n      dup2\n      keccak256\n        /* \"StakingContract.sol\":14764:14779  block.timestamp */\n      timestamp\n        /* \"StakingContract.sol\":14725:14761  stakers[msg.sender].timeOfLastUpdate */\n      0x05\n      dup3\n      add\n        /* \"StakingContract.sol\":14725:14779  stakers[msg.sender].timeOfLastUpdate = block.timestamp */\n      sstore\n        /* \"StakingContract.sol\":14789:14825  stakers[msg.sender].unclaimedRewards */\n      0x06\n      add\n        /* \"StakingContract.sol\":14789:14829  stakers[msg.sender].unclaimedRewards = 0 */\n      sstore\n        /* \"StakingContract.sol\":14839:14885  rewardsToken.safeTransfer(msg.sender, rewards) */\n      tag_262\n      swap1\n        /* \"StakingContract.sol\":14839:14851  rewardsToken */\n      immutable(\"0x8e8fab5f003314da8d1873ea7720e8d9f47650136d916064d1edb8a11d682624\")\n      sub(shl(0xa0, 0x01), 0x01)\n        /* \"StakingContract.sol\":14839:14864  rewardsToken.safeTransfer */\n      and\n      swap1\n        /* \"StakingContract.sol\":14877:14884  rewards */\n      dup4\n        /* \"StakingContract.sol\":14839:14864  rewardsToken.safeTransfer */\n      tag_263\n        /* \"StakingContract.sol\":14839:14885  rewardsToken.safeTransfer(msg.sender, rewards) */\n      jump\t// in\n    tag_262:\n        /* \"StakingContract.sol\":14545:14990  {... */\n      pop\n        /* \"StakingContract.sol\":14512:14990  function claimRewards() external {... */\n      jump\t// out\n        /* \"StakingContract.sol\":16160:17181  function getStakedHorseTokens(address _user)... */\n    tag_47:\n      sub(shl(0xa0, 0x01), 0x01)\n        /* \"StakingContract.sol\":16328:16342  stakers[_user] */\n      dup2\n      and\n        /* \"StakingContract.sol\":16358:16359  0 */\n      0x00\n        /* \"StakingContract.sol\":16328:16342  stakers[_user] */\n      swap1\n      dup2\n      mstore\n        /* \"StakingContract.sol\":16328:16335  stakers */\n      0x04\n        /* \"StakingContract.sol\":16328:16342  stakers[_user] */\n      0x20\n      mstore\n      0x40\n      swap1\n      keccak256\n        /* \"StakingContract.sol\":16328:16355  stakers[_user].amountStaked */\n      sload\n        /* \"StakingContract.sol\":16250:16270  StakedToken[] memory */\n      0x60\n      swap1\n        /* \"StakingContract.sol\":16328:16359  stakers[_user].amountStaked > 0 */\n      iszero\n        /* \"StakingContract.sol\":16324:17175  if (stakers[_user].amountStaked > 0) {... */\n      tag_265\n      jumpi\n      sub(shl(0xa0, 0x01), 0x01)\n        /* \"StakingContract.sol\":16539:16553  stakers[_user] */\n      dup3\n      and\n        /* \"StakingContract.sol\":16467:16501  StakedToken[] memory _stakedTokens */\n      0x00\n        /* \"StakingContract.sol\":16539:16553  stakers[_user] */\n      swap1\n      dup2\n      mstore\n        /* \"StakingContract.sol\":16539:16546  stakers */\n      0x04\n        /* \"StakingContract.sol\":16539:16553  stakers[_user] */\n      0x20\n      mstore\n      0x40\n      dup2\n      keccak256\n        /* \"StakingContract.sol\":16539:16566  stakers[_user].amountStaked */\n      sload\n        /* \"StakingContract.sol\":16504:16580  new StakedToken[](... */\n      0xffffffffffffffff\n      dup2\n      gt\n      iszero\n      tag_267\n      jumpi\n      tag_267\n      tag_268\n      jump\t// in\n    tag_267:\n      mload(0x40)\n      swap1\n      dup1\n      dup3\n      mstore\n      dup1\n      0x20\n      mul\n      0x20\n      add\n      dup3\n      add\n      0x40\n      mstore\n      dup1\n      iszero\n      tag_269\n      jumpi\n      dup2\n      0x20\n      add\n    tag_270:\n      0x40\n      dup1\n      mload\n      dup1\n      dup3\n      add\n      swap1\n      swap2\n      mstore\n      0x00\n      dup1\n      dup3\n      mstore\n      0x20\n      dup3\n      add\n      mstore\n      dup2\n      mstore\n      0x20\n      add\n      swap1\n      0x01\n      swap1\n      sub\n      swap1\n      dup2\n      tag_270\n      jumpi\n      swap1\n      pop\n    tag_269:\n      pop\n        /* \"StakingContract.sol\":16467:16580  StakedToken[] memory _stakedTokens = new StakedToken[](... */\n      swap1\n      pop\n        /* \"StakingContract.sol\":16594:16608  uint256 _index */\n      0x00\n        /* \"StakingContract.sol\":16649:16658  uint256 j */\n      dup1\n        /* \"StakingContract.sol\":16627:17023  for (... */\n    tag_273:\n      sub(shl(0xa0, 0x01), 0x01)\n        /* \"StakingContract.sol\":16684:16698  stakers[_user] */\n      dup6\n      and\n      0x00\n      swap1\n      dup2\n      mstore\n        /* \"StakingContract.sol\":16684:16691  stakers */\n      0x04\n        /* \"StakingContract.sol\":16684:16698  stakers[_user] */\n      0x20\n      dup2\n      swap1\n      mstore\n      0x40\n      swap1\n      swap2\n      keccak256\n        /* \"StakingContract.sol\":16684:16716  stakers[_user].stakedHorseTokens */\n      add\n        /* \"StakingContract.sol\":16684:16723  stakers[_user].stakedHorseTokens.length */\n      sload\n        /* \"StakingContract.sol\":16680:16723  j < stakers[_user].stakedHorseTokens.length */\n      dup2\n      lt\n        /* \"StakingContract.sol\":16627:17023  for (... */\n      iszero\n      tag_274\n      jumpi\n      sub(shl(0xa0, 0x01), 0x01)\n        /* \"StakingContract.sol\":16802:16816  stakers[_user] */\n      dup6\n      and\n        /* \"StakingContract.sol\":16857:16858  0 */\n      0x00\n        /* \"StakingContract.sol\":16802:16816  stakers[_user] */\n      swap1\n      dup2\n      mstore\n        /* \"StakingContract.sol\":16802:16809  stakers */\n      0x04\n        /* \"StakingContract.sol\":16802:16816  stakers[_user] */\n      0x20\n      dup2\n      swap1\n      mstore\n      0x40\n      dup3\n      keccak256\n        /* \"StakingContract.sol\":16802:16834  stakers[_user].stakedHorseTokens */\n      add\n        /* \"StakingContract.sol\":16802:16837  stakers[_user].stakedHorseTokens[j] */\n      dup1\n      sload\n        /* \"StakingContract.sol\":16835:16836  j */\n      dup4\n      swap1\n        /* \"StakingContract.sol\":16802:16837  stakers[_user].stakedHorseTokens[j] */\n      dup2\n      lt\n      tag_277\n      jumpi\n      tag_277\n      tag_153\n      jump\t// in\n    tag_277:\n      0x00\n      swap2\n      dup3\n      mstore\n      0x20\n      swap1\n      swap2\n      keccak256\n      0x02\n      swap1\n      swap2\n      mul\n      add\n        /* \"StakingContract.sol\":16802:16844  stakers[_user].stakedHorseTokens[j].staker */\n      sload\n      sub(shl(0xa0, 0x01), 0x01)\n      and\n        /* \"StakingContract.sol\":16802:16860  stakers[_user].stakedHorseTokens[j].staker != (address(0)) */\n      eq\n        /* \"StakingContract.sol\":16777:17009  if (... */\n      tag_279\n      jumpi\n      sub(shl(0xa0, 0x01), 0x01)\n        /* \"StakingContract.sol\":16925:16939  stakers[_user] */\n      dup6\n      and\n      0x00\n      swap1\n      dup2\n      mstore\n        /* \"StakingContract.sol\":16925:16932  stakers */\n      0x04\n        /* \"StakingContract.sol\":16925:16939  stakers[_user] */\n      0x20\n      dup2\n      swap1\n      mstore\n      0x40\n      swap1\n      swap2\n      keccak256\n        /* \"StakingContract.sol\":16925:16957  stakers[_user].stakedHorseTokens */\n      add\n        /* \"StakingContract.sol\":16925:16960  stakers[_user].stakedHorseTokens[j] */\n      dup1\n      sload\n        /* \"StakingContract.sol\":16958:16959  j */\n      dup3\n      swap1\n        /* \"StakingContract.sol\":16925:16960  stakers[_user].stakedHorseTokens[j] */\n      dup2\n      lt\n      tag_281\n      jumpi\n      tag_281\n      tag_153\n      jump\t// in\n    tag_281:\n      0x00\n      swap2\n      dup3\n      mstore\n      0x20\n      swap2\n      dup3\n      swap1\n      keccak256\n        /* \"StakingContract.sol\":16901:16960  _stakedTokens[_index] = stakers[_user].stakedHorseTokens[j] */\n      0x40\n      dup1\n      mload\n      dup1\n      dup3\n      add\n      swap1\n      swap2\n      mstore\n        /* \"StakingContract.sol\":16925:16960  stakers[_user].stakedHorseTokens[j] */\n      0x02\n      swap1\n      swap3\n      mul\n      add\n        /* \"StakingContract.sol\":16901:16960  _stakedTokens[_index] = stakers[_user].stakedHorseTokens[j] */\n      dup1\n      sload\n      sub(shl(0xa0, 0x01), 0x01)\n      and\n      dup3\n      mstore\n      0x01\n      add\n      sload\n      swap2\n      dup2\n      add\n      swap2\n      swap1\n      swap2\n      mstore\n        /* \"StakingContract.sol\":16901:16922  _stakedTokens[_index] */\n      dup4\n      mload\n        /* \"StakingContract.sol\":16901:16914  _stakedTokens */\n      dup5\n      swap1\n        /* \"StakingContract.sol\":16915:16921  _index */\n      dup5\n      swap1\n        /* \"StakingContract.sol\":16901:16922  _stakedTokens[_index] */\n      dup2\n      lt\n      tag_284\n      jumpi\n      tag_284\n      tag_153\n      jump\t// in\n    tag_284:\n      0x20\n      mul\n      0x20\n      add\n      add\n        /* \"StakingContract.sol\":16901:16960  _stakedTokens[_index] = stakers[_user].stakedHorseTokens[j] */\n      dup2\n      swap1\n      mstore\n      pop\n        /* \"StakingContract.sol\":16982:16990  _index++ */\n      dup2\n      dup1\n      tag_285\n      swap1\n      tag_161\n      jump\t// in\n    tag_285:\n      swap3\n      pop\n      pop\n        /* \"StakingContract.sol\":16777:17009  if (... */\n    tag_279:\n        /* \"StakingContract.sol\":16741:16744  j++ */\n      dup1\n      tag_286\n      dup2\n      tag_161\n      jump\t// in\n    tag_286:\n      swap2\n      pop\n      pop\n        /* \"StakingContract.sol\":16627:17023  for (... */\n      jump(tag_273)\n    tag_274:\n      pop\n        /* \"StakingContract.sol\":17044:17057  _stakedTokens */\n      swap1\n      swap4\n        /* \"StakingContract.sol\":16160:17181  function getStakedHorseTokens(address _user)... */\n      swap3\n      pop\n      pop\n      pop\n      jump\t// out\n        /* \"StakingContract.sol\":16324:17175  if (stakers[_user].amountStaked > 0) {... */\n    tag_265:\n        /* \"StakingContract.sol\":17144:17164  new StakedToken[](0) */\n      0x40\n      dup1\n      mload\n        /* \"StakingContract.sol\":17162:17163  0 */\n      0x00\n        /* \"StakingContract.sol\":17144:17164  new StakedToken[](0) */\n      dup1\n      dup3\n      mstore\n      0x20\n      dup3\n      add\n      swap1\n      swap3\n      mstore\n      swap1\n      jump(tag_290)\n    tag_291:\n      0x40\n      dup1\n      mload\n      dup1\n      dup3\n      add\n      swap1\n      swap2\n      mstore\n      0x00\n      dup1\n      dup3\n      mstore\n      0x20\n      dup3\n      add\n      mstore\n      dup2\n      mstore\n      0x20\n      add\n      swap1\n      0x01\n      swap1\n      sub\n      swap1\n      dup2\n      tag_291\n      jumpi\n      swap1\n      pop\n    tag_290:\n      pop\n        /* \"StakingContract.sol\":17137:17164  return new StakedToken[](0) */\n      swap3\n        /* \"StakingContract.sol\":16160:17181  function getStakedHorseTokens(address _user)... */\n      swap2\n      pop\n      pop\n      jump\t// out\n        /* \"StakingContract.sol\":15253:16154  function getStakedTokens(address _user)... */\n    tag_64:\n      sub(shl(0xa0, 0x01), 0x01)\n        /* \"StakingContract.sol\":15416:15430  stakers[_user] */\n      dup2\n      and\n        /* \"StakingContract.sol\":15446:15447  0 */\n      0x00\n        /* \"StakingContract.sol\":15416:15430  stakers[_user] */\n      swap1\n      dup2\n      mstore\n        /* \"StakingContract.sol\":15416:15423  stakers */\n      0x04\n        /* \"StakingContract.sol\":15416:15430  stakers[_user] */\n      0x20\n      mstore\n      0x40\n      swap1\n      keccak256\n        /* \"StakingContract.sol\":15416:15443  stakers[_user].amountStaked */\n      sload\n        /* \"StakingContract.sol\":15338:15358  StakedToken[] memory */\n      0x60\n      swap1\n        /* \"StakingContract.sol\":15416:15447  stakers[_user].amountStaked > 0 */\n      iszero\n        /* \"StakingContract.sol\":15412:16148  if (stakers[_user].amountStaked > 0) {... */\n      tag_265\n      jumpi\n      sub(shl(0xa0, 0x01), 0x01)\n        /* \"StakingContract.sol\":15627:15641  stakers[_user] */\n      dup3\n      and\n        /* \"StakingContract.sol\":15555:15589  StakedToken[] memory _stakedTokens */\n      0x00\n        /* \"StakingContract.sol\":15627:15641  stakers[_user] */\n      swap1\n      dup2\n      mstore\n        /* \"StakingContract.sol\":15627:15634  stakers */\n      0x04\n        /* \"StakingContract.sol\":15627:15641  stakers[_user] */\n      0x20\n      mstore\n      0x40\n      dup2\n      keccak256\n        /* \"StakingContract.sol\":15627:15654  stakers[_user].amountStaked */\n      sload\n        /* \"StakingContract.sol\":15592:15668  new StakedToken[](... */\n      0xffffffffffffffff\n      dup2\n      gt\n      iszero\n      tag_297\n      jumpi\n      tag_297\n      tag_268\n      jump\t// in\n    tag_297:\n      mload(0x40)\n      swap1\n      dup1\n      dup3\n      mstore\n      dup1\n      0x20\n      mul\n      0x20\n      add\n      dup3\n      add\n      0x40\n      mstore\n      dup1\n      iszero\n      tag_298\n      jumpi\n      dup2\n      0x20\n      add\n    tag_299:\n      0x40\n      dup1\n      mload\n      dup1\n      dup3\n      add\n      swap1\n      swap2\n      mstore\n      0x00\n      dup1\n      dup3\n      mstore\n      0x20\n      dup3\n      add\n      mstore\n      dup2\n      mstore\n      0x20\n      add\n      swap1\n      0x01\n      swap1\n      sub\n      swap1\n      dup2\n      tag_299\n      jumpi\n      swap1\n      pop\n    tag_298:\n      pop\n        /* \"StakingContract.sol\":15555:15668  StakedToken[] memory _stakedTokens = new StakedToken[](... */\n      swap1\n      pop\n        /* \"StakingContract.sol\":15682:15696  uint256 _index */\n      0x00\n        /* \"StakingContract.sol\":15720:15729  uint256 j */\n      dup1\n        /* \"StakingContract.sol\":15715:15996  for (uint256 j = 0; j < stakers[_user].stakedTokens.length; j++) {... */\n    tag_301:\n      sub(shl(0xa0, 0x01), 0x01)\n        /* \"StakingContract.sol\":15739:15753  stakers[_user] */\n      dup6\n      and\n      0x00\n      swap1\n      dup2\n      mstore\n        /* \"StakingContract.sol\":15739:15746  stakers */\n      0x04\n        /* \"StakingContract.sol\":15739:15753  stakers[_user] */\n      0x20\n      mstore\n      0x40\n      swap1\n      keccak256\n        /* \"StakingContract.sol\":15739:15766  stakers[_user].stakedTokens */\n      0x01\n      add\n        /* \"StakingContract.sol\":15739:15773  stakers[_user].stakedTokens.length */\n      sload\n        /* \"StakingContract.sol\":15735:15773  j < stakers[_user].stakedTokens.length */\n      dup2\n      lt\n        /* \"StakingContract.sol\":15715:15996  for (uint256 j = 0; j < stakers[_user].stakedTokens.length; j++) {... */\n      iszero\n      tag_274\n      jumpi\n      sub(shl(0xa0, 0x01), 0x01)\n        /* \"StakingContract.sol\":15802:15816  stakers[_user] */\n      dup6\n      and\n        /* \"StakingContract.sol\":15852:15853  0 */\n      0x00\n        /* \"StakingContract.sol\":15802:15816  stakers[_user] */\n      swap1\n      dup2\n      mstore\n        /* \"StakingContract.sol\":15802:15809  stakers */\n      0x04\n        /* \"StakingContract.sol\":15802:15816  stakers[_user] */\n      0x20\n      mstore\n      0x40\n      dup2\n      keccak256\n        /* \"StakingContract.sol\":15802:15829  stakers[_user].stakedTokens */\n      0x01\n      add\n        /* \"StakingContract.sol\":15802:15832  stakers[_user].stakedTokens[j] */\n      dup1\n      sload\n        /* \"StakingContract.sol\":15830:15831  j */\n      dup4\n      swap1\n        /* \"StakingContract.sol\":15802:15832  stakers[_user].stakedTokens[j] */\n      dup2\n      lt\n      tag_305\n      jumpi\n      tag_305\n      tag_153\n      jump\t// in\n    tag_305:\n      0x00\n      swap2\n      dup3\n      mstore\n      0x20\n      swap1\n      swap2\n      keccak256\n      0x02\n      swap1\n      swap2\n      mul\n      add\n        /* \"StakingContract.sol\":15802:15839  stakers[_user].stakedTokens[j].staker */\n      sload\n      sub(shl(0xa0, 0x01), 0x01)\n      and\n        /* \"StakingContract.sol\":15802:15855  stakers[_user].stakedTokens[j].staker != (address(0)) */\n      eq\n        /* \"StakingContract.sol\":15798:15982  if (stakers[_user].stakedTokens[j].staker != (address(0))) {... */\n      tag_307\n      jumpi\n      sub(shl(0xa0, 0x01), 0x01)\n        /* \"StakingContract.sol\":15903:15917  stakers[_user] */\n      dup6\n      and\n      0x00\n      swap1\n      dup2\n      mstore\n        /* \"StakingContract.sol\":15903:15910  stakers */\n      0x04\n        /* \"StakingContract.sol\":15903:15917  stakers[_user] */\n      0x20\n      mstore\n      0x40\n      swap1\n      keccak256\n        /* \"StakingContract.sol\":15903:15930  stakers[_user].stakedTokens */\n      0x01\n      add\n        /* \"StakingContract.sol\":15903:15933  stakers[_user].stakedTokens[j] */\n      dup1\n      sload\n        /* \"StakingContract.sol\":15931:15932  j */\n      dup3\n      swap1\n        /* \"StakingContract.sol\":15903:15933  stakers[_user].stakedTokens[j] */\n      dup2\n      lt\n      tag_309\n      jumpi\n      tag_309\n      tag_153\n      jump\t// in\n    tag_309:\n      0x00\n      swap2\n      dup3\n      mstore\n      0x20\n      swap2\n      dup3\n      swap1\n      keccak256\n        /* \"StakingContract.sol\":15879:15933  _stakedTokens[_index] = stakers[_user].stakedTokens[j] */\n      0x40\n      dup1\n      mload\n      dup1\n      dup3\n      add\n      swap1\n      swap2\n      mstore\n        /* \"StakingContract.sol\":15903:15933  stakers[_user].stakedTokens[j] */\n      0x02\n      swap1\n      swap3\n      mul\n      add\n        /* \"StakingContract.sol\":15879:15933  _stakedTokens[_index] = stakers[_user].stakedTokens[j] */\n      dup1\n      sload\n      sub(shl(0xa0, 0x01), 0x01)\n      and\n      dup3\n      mstore\n      0x01\n      add\n      sload\n      swap2\n      dup2\n      add\n      swap2\n      swap1\n      swap2\n      mstore\n        /* \"StakingContract.sol\":15879:15900  _stakedTokens[_index] */\n      dup4\n      mload\n        /* \"StakingContract.sol\":15879:15892  _stakedTokens */\n      dup5\n      swap1\n        /* \"StakingContract.sol\":15893:15899  _index */\n      dup5\n      swap1\n        /* \"StakingContract.sol\":15879:15900  _stakedTokens[_index] */\n      dup2\n      lt\n      tag_312\n      jumpi\n      tag_312\n      tag_153\n      jump\t// in\n    tag_312:\n      0x20\n      mul\n      0x20\n      add\n      add\n        /* \"StakingContract.sol\":15879:15933  _stakedTokens[_index] = stakers[_user].stakedTokens[j] */\n      dup2\n      swap1\n      mstore\n      pop\n        /* \"StakingContract.sol\":15955:15963  _index++ */\n      dup2\n      dup1\n      tag_313\n      swap1\n      tag_161\n      jump\t// in\n    tag_313:\n      swap3\n      pop\n      pop\n        /* \"StakingContract.sol\":15798:15982  if (stakers[_user].stakedTokens[j].staker != (address(0))) {... */\n    tag_307:\n        /* \"StakingContract.sol\":15775:15778  j++ */\n      dup1\n      tag_314\n      dup2\n      tag_161\n      jump\t// in\n    tag_314:\n      swap2\n      pop\n      pop\n        /* \"StakingContract.sol\":15715:15996  for (uint256 j = 0; j < stakers[_user].stakedTokens.length; j++) {... */\n      jump(tag_301)\n        /* \"@openzeppelin/contracts/access/Ownable.sol\":1831:1932   */\n    tag_72:\n        /* \"@openzeppelin/contracts/access/Ownable.sol\":1094:1107   */\n      tag_322\n        /* \"@openzeppelin/contracts/access/Ownable.sol\":1094:1105   */\n      tag_245\n        /* \"@openzeppelin/contracts/access/Ownable.sol\":1094:1107   */\n      jump\t// in\n    tag_322:\n        /* \"@openzeppelin/contracts/access/Ownable.sol\":1895:1925   */\n      tag_324\n        /* \"@openzeppelin/contracts/access/Ownable.sol\":1922:1923   */\n      0x00\n        /* \"@openzeppelin/contracts/access/Ownable.sol\":1895:1913   */\n      tag_325\n        /* \"@openzeppelin/contracts/access/Ownable.sol\":1895:1925   */\n      jump\t// in\n    tag_324:\n        /* \"@openzeppelin/contracts/access/Ownable.sol\":1831:1932   */\n      jump\t// out\n        /* \"StakingContract.sol\":2606:7114  function stake(uint256 _tokenId, IERC721 contract_market_)... */\n    tag_76:\n        /* \"@openzeppelin/contracts/security/ReentrancyGuard.sol\":2261:2282   */\n      tag_327\n        /* \"@openzeppelin/contracts/security/ReentrancyGuard.sol\":2261:2280   */\n      tag_130\n        /* \"@openzeppelin/contracts/security/ReentrancyGuard.sol\":2261:2282   */\n      jump\t// in\n    tag_327:\n        /* \"StakingContract.sol\":2819:2829  msg.sender */\n      caller\n        /* \"StakingContract.sol\":2846:2847  0 */\n      0x00\n        /* \"StakingContract.sol\":2811:2830  stakers[msg.sender] */\n      swap1\n      dup2\n      mstore\n        /* \"StakingContract.sol\":2811:2818  stakers */\n      0x04\n        /* \"StakingContract.sol\":2811:2830  stakers[msg.sender] */\n      0x20\n      mstore\n      0x40\n      swap1\n      keccak256\n        /* \"StakingContract.sol\":2811:2843  stakers[msg.sender].amountStaked */\n      sload\n        /* \"StakingContract.sol\":2811:2847  stakers[msg.sender].amountStaked > 0 */\n      iszero\n        /* \"StakingContract.sol\":2807:2981  if (stakers[msg.sender].amountStaked > 0) {... */\n      tag_329\n      jumpi\n        /* \"StakingContract.sol\":2863:2878  uint256 rewards */\n      0x00\n        /* \"StakingContract.sol\":2881:2909  calculateRewards(msg.sender) */\n      tag_330\n        /* \"StakingContract.sol\":2898:2908  msg.sender */\n      caller\n        /* \"StakingContract.sol\":2881:2897  calculateRewards */\n      tag_145\n        /* \"StakingContract.sol\":2881:2909  calculateRewards(msg.sender) */\n      jump\t// in\n    tag_330:\n        /* \"StakingContract.sol\":2931:2941  msg.sender */\n      caller\n        /* \"StakingContract.sol\":2923:2942  stakers[msg.sender] */\n      0x00\n      swap1\n      dup2\n      mstore\n        /* \"StakingContract.sol\":2923:2930  stakers */\n      0x04\n        /* \"StakingContract.sol\":2923:2942  stakers[msg.sender] */\n      0x20\n      mstore\n      0x40\n      dup2\n      keccak256\n        /* \"StakingContract.sol\":2923:2959  stakers[msg.sender].unclaimedRewards */\n      0x06\n      add\n        /* \"StakingContract.sol\":2923:2970  stakers[msg.sender].unclaimedRewards += rewards */\n      dup1\n      sload\n        /* \"StakingContract.sol\":2863:2909  uint256 rewards = calculateRewards(msg.sender) */\n      swap3\n      swap4\n      pop\n      dup4\n      swap3\n        /* \"StakingContract.sol\":2923:2959  stakers[msg.sender].unclaimedRewards */\n      swap1\n      swap2\n        /* \"StakingContract.sol\":2923:2942  stakers[msg.sender] */\n      swap1\n        /* \"StakingContract.sol\":2923:2970  stakers[msg.sender].unclaimedRewards += rewards */\n      tag_331\n      swap1\n        /* \"StakingContract.sol\":2863:2909  uint256 rewards = calculateRewards(msg.sender) */\n      dup5\n      swap1\n        /* \"StakingContract.sol\":2923:2970  stakers[msg.sender].unclaimedRewards += rewards */\n      tag_147\n      jump\t// in\n    tag_331:\n      swap1\n      swap2\n      sstore\n      pop\n      pop\n      pop\n        /* \"StakingContract.sol\":2807:2981  if (stakers[msg.sender].amountStaked > 0) {... */\n    tag_329:\n        /* \"StakingContract.sol\":3074:3111  nftCollection_astra.ownerOf(_tokenId) */\n      mload(0x40)\n      shl(0xe1, 0x31a9108f)\n      dup2\n      mstore\n      0x04\n      dup2\n      add\n        /* \"#utility.yul\":3013:3038   */\n      dup4\n      swap1\n      mstore\n        /* \"StakingContract.sol\":3115:3125  msg.sender */\n      caller\n      swap1\n      sub(shl(0xa0, 0x01), 0x01)\n        /* \"StakingContract.sol\":3074:3093  nftCollection_astra */\n      immutable(\"0x731dc163f73d31d8c68f9917ce4ff967753939f70432973c04fd2c2a48148607\")\n        /* \"StakingContract.sol\":3074:3101  nftCollection_astra.ownerOf */\n      and\n      swap1\n      0x6352211e\n      swap1\n        /* \"#utility.yul\":2986:3004   */\n      0x24\n      add\n        /* \"StakingContract.sol\":3074:3111  nftCollection_astra.ownerOf(_tokenId) */\n      0x20\n      mload(0x40)\n      dup1\n      dup4\n      sub\n      dup2\n      dup7\n      gas\n      staticcall\n      iszero\n      dup1\n      iszero\n      tag_334\n      jumpi\n      returndatasize\n      0x00\n      dup1\n      returndatacopy\n      revert(0x00, returndatasize)\n    tag_334:\n      pop\n      pop\n      pop\n      pop\n      mload(0x40)\n      returndatasize\n      not(0x1f)\n      0x1f\n      dup3\n      add\n      and\n      dup3\n      add\n      dup1\n      0x40\n      mstore\n      pop\n      dup2\n      add\n      swap1\n      tag_335\n      swap2\n      swap1\n      tag_336\n      jump\t// in\n    tag_335:\n      sub(shl(0xa0, 0x01), 0x01)\n        /* \"StakingContract.sol\":3074:3125  nftCollection_astra.ownerOf(_tokenId) == msg.sender */\n      and\n      eq\n        /* \"StakingContract.sol\":3074:3196  nftCollection_astra.ownerOf(_tokenId) == msg.sender ||... */\n      dup1\n      tag_337\n      jumpi\n      pop\n        /* \"StakingContract.sol\":3145:3182  nftCollection_horse.ownerOf(_tokenId) */\n      mload(0x40)\n      shl(0xe1, 0x31a9108f)\n      dup2\n      mstore\n      0x04\n      dup2\n      add\n        /* \"#utility.yul\":3013:3038   */\n      dup4\n      swap1\n      mstore\n        /* \"StakingContract.sol\":3186:3196  msg.sender */\n      caller\n      swap1\n      sub(shl(0xa0, 0x01), 0x01)\n        /* \"StakingContract.sol\":3145:3164  nftCollection_horse */\n      immutable(\"0x1572b593c53d839d80004aa4b8c51211864104f06ace9e22be9c4365b50655ea\")\n        /* \"StakingContract.sol\":3145:3172  nftCollection_horse.ownerOf */\n      and\n      swap1\n      0x6352211e\n      swap1\n        /* \"#utility.yul\":2986:3004   */\n      0x24\n      add\n        /* \"StakingContract.sol\":3145:3182  nftCollection_horse.ownerOf(_tokenId) */\n      0x20\n      mload(0x40)\n      dup1\n      dup4\n      sub\n      dup2\n      dup7\n      gas\n      staticcall\n      iszero\n      dup1\n      iszero\n      tag_340\n      jumpi\n      returndatasize\n      0x00\n      dup1\n      returndatacopy\n      revert(0x00, returndatasize)\n    tag_340:\n      pop\n      pop\n      pop\n      pop\n      mload(0x40)\n      returndatasize\n      not(0x1f)\n      0x1f\n      dup3\n      add\n      and\n      dup3\n      add\n      dup1\n      0x40\n      mstore\n      pop\n      dup2\n      add\n      swap1\n      tag_341\n      swap2\n      swap1\n      tag_336\n      jump\t// in\n    tag_341:\n      sub(shl(0xa0, 0x01), 0x01)\n        /* \"StakingContract.sol\":3145:3196  nftCollection_horse.ownerOf(_tokenId) == msg.sender */\n      and\n      eq\n        /* \"StakingContract.sol\":3074:3196  nftCollection_astra.ownerOf(_tokenId) == msg.sender ||... */\n    tag_337:\n        /* \"StakingContract.sol\":3074:3265  nftCollection_astra.ownerOf(_tokenId) == msg.sender ||... */\n      dup1\n      tag_342\n      jumpi\n      pop\n        /* \"StakingContract.sol\":3216:3251  nftCollection_cat.ownerOf(_tokenId) */\n      mload(0x40)\n      shl(0xe1, 0x31a9108f)\n      dup2\n      mstore\n      0x04\n      dup2\n      add\n        /* \"#utility.yul\":3013:3038   */\n      dup4\n      swap1\n      mstore\n        /* \"StakingContract.sol\":3255:3265  msg.sender */\n      caller\n      swap1\n      sub(shl(0xa0, 0x01), 0x01)\n        /* \"StakingContract.sol\":3216:3233  nftCollection_cat */\n      immutable(\"0x9cce9eb03c9f29c6481fca9f0f942b15bef0bbbc47fda0ddb44df157019835d9\")\n        /* \"StakingContract.sol\":3216:3241  nftCollection_cat.ownerOf */\n      and\n      swap1\n      0x6352211e\n      swap1\n        /* \"#utility.yul\":2986:3004   */\n      0x24\n      add\n        /* \"StakingContract.sol\":3216:3251  nftCollection_cat.ownerOf(_tokenId) */\n      0x20\n      mload(0x40)\n      dup1\n      dup4\n      sub\n      dup2\n      dup7\n      gas\n      staticcall\n      iszero\n      dup1\n      iszero\n      tag_345\n      jumpi\n      returndatasize\n      0x00\n      dup1\n      returndatacopy\n      revert(0x00, returndatasize)\n    tag_345:\n      pop\n      pop\n      pop\n      pop\n      mload(0x40)\n      returndatasize\n      not(0x1f)\n      0x1f\n      dup3\n      add\n      and\n      dup3\n      add\n      dup1\n      0x40\n      mstore\n      pop\n      dup2\n      add\n      swap1\n      tag_346\n      swap2\n      swap1\n      tag_336\n      jump\t// in\n    tag_346:\n      sub(shl(0xa0, 0x01), 0x01)\n        /* \"StakingContract.sol\":3216:3265  nftCollection_cat.ownerOf(_tokenId) == msg.sender */\n      and\n      eq\n        /* \"StakingContract.sol\":3074:3265  nftCollection_astra.ownerOf(_tokenId) == msg.sender ||... */\n    tag_342:\n        /* \"StakingContract.sol\":3074:3335  nftCollection_astra.ownerOf(_tokenId) == msg.sender ||... */\n      dup1\n      tag_347\n      jumpi\n      pop\n        /* \"StakingContract.sol\":3285:3321  nftCollection_bear.ownerOf(_tokenId) */\n      mload(0x40)\n      shl(0xe1, 0x31a9108f)\n      dup2\n      mstore\n      0x04\n      dup2\n      add\n        /* \"#utility.yul\":3013:3038   */\n      dup4\n      swap1\n      mstore\n        /* \"StakingContract.sol\":3325:3335  msg.sender */\n      caller\n      swap1\n      sub(shl(0xa0, 0x01), 0x01)\n        /* \"StakingContract.sol\":3285:3303  nftCollection_bear */\n      immutable(\"0x7749cc8014201da2069c21d93ba99c584b6f62d393fde534ed47eac227e31561\")\n        /* \"StakingContract.sol\":3285:3311  nftCollection_bear.ownerOf */\n      and\n      swap1\n      0x6352211e\n      swap1\n        /* \"#utility.yul\":2986:3004   */\n      0x24\n      add\n        /* \"StakingContract.sol\":3285:3321  nftCollection_bear.ownerOf(_tokenId) */\n      0x20\n      mload(0x40)\n      dup1\n      dup4\n      sub\n      dup2\n      dup7\n      gas\n      staticcall\n      iszero\n      dup1\n      iszero\n      tag_350\n      jumpi\n      returndatasize\n      0x00\n      dup1\n      returndatacopy\n      revert(0x00, returndatasize)\n    tag_350:\n      pop\n      pop\n      pop\n      pop\n      mload(0x40)\n      returndatasize\n      not(0x1f)\n      0x1f\n      dup3\n      add\n      and\n      dup3\n      add\n      dup1\n      0x40\n      mstore\n      pop\n      dup2\n      add\n      swap1\n      tag_351\n      swap2\n      swap1\n      tag_336\n      jump\t// in\n    tag_351:\n      sub(shl(0xa0, 0x01), 0x01)\n        /* \"StakingContract.sol\":3285:3335  nftCollection_bear.ownerOf(_tokenId) == msg.sender */\n      and\n      eq\n        /* \"StakingContract.sol\":3074:3335  nftCollection_astra.ownerOf(_tokenId) == msg.sender ||... */\n    tag_347:\n        /* \"StakingContract.sol\":3053:3386  require(... */\n      tag_352\n      jumpi\n      mload(0x40)\n      shl(0xe5, 0x461bcd)\n      dup2\n      mstore\n        /* \"#utility.yul\":6395:6397   */\n      0x20\n        /* \"StakingContract.sol\":3053:3386  require(... */\n      0x04\n      dup3\n      add\n        /* \"#utility.yul\":6377:6398   */\n      mstore\n        /* \"#utility.yul\":6434:6436   */\n      0x19\n        /* \"#utility.yul\":6414:6432   */\n      0x24\n      dup3\n      add\n        /* \"#utility.yul\":6407:6437   */\n      mstore\n        /* \"#utility.yul\":6473:6500   */\n      0x596f7520446f6e2774204f776e205468697320546f6b656e2100000000000000\n        /* \"#utility.yul\":6453:6471   */\n      0x44\n      dup3\n      add\n        /* \"#utility.yul\":6446:6501   */\n      mstore\n        /* \"#utility.yul\":6518:6536   */\n      0x64\n      add\n        /* \"StakingContract.sol\":3053:3386  require(... */\n      tag_133\n        /* \"#utility.yul\":6193:6542   */\n      jump\n        /* \"StakingContract.sol\":3053:3386  require(... */\n    tag_352:\n        /* \"StakingContract.sol\":3438:3457  nftCollection_astra */\n      immutable(\"0x731dc163f73d31d8c68f9917ce4ff967753939f70432973c04fd2c2a48148607\")\n      sub(shl(0xa0, 0x01), 0x01)\n        /* \"StakingContract.sol\":3418:3457  contract_market_ == nftCollection_astra */\n      and\n        /* \"StakingContract.sol\":3418:3434  contract_market_ */\n      dup2\n      sub(shl(0xa0, 0x01), 0x01)\n        /* \"StakingContract.sol\":3418:3457  contract_market_ == nftCollection_astra */\n      and\n      eq\n        /* \"StakingContract.sol\":3418:3516  contract_market_ == nftCollection_astra ||... */\n      dup1\n      tag_355\n      jumpi\n      pop\n        /* \"StakingContract.sol\":3497:3516  nftCollection_horse */\n      immutable(\"0x1572b593c53d839d80004aa4b8c51211864104f06ace9e22be9c4365b50655ea\")\n      sub(shl(0xa0, 0x01), 0x01)\n        /* \"StakingContract.sol\":3477:3516  contract_market_ == nftCollection_horse */\n      and\n        /* \"StakingContract.sol\":3477:3493  contract_market_ */\n      dup2\n      sub(shl(0xa0, 0x01), 0x01)\n        /* \"StakingContract.sol\":3477:3516  contract_market_ == nftCollection_horse */\n      and\n      eq\n        /* \"StakingContract.sol\":3418:3516  contract_market_ == nftCollection_astra ||... */\n    tag_355:\n        /* \"StakingContract.sol\":3418:3573  contract_market_ == nftCollection_astra ||... */\n      dup1\n      tag_356\n      jumpi\n      pop\n        /* \"StakingContract.sol\":3556:3573  nftCollection_cat */\n      immutable(\"0x9cce9eb03c9f29c6481fca9f0f942b15bef0bbbc47fda0ddb44df157019835d9\")\n      sub(shl(0xa0, 0x01), 0x01)\n        /* \"StakingContract.sol\":3536:3573  contract_market_ == nftCollection_cat */\n      and\n        /* \"StakingContract.sol\":3536:3552  contract_market_ */\n      dup2\n      sub(shl(0xa0, 0x01), 0x01)\n        /* \"StakingContract.sol\":3536:3573  contract_market_ == nftCollection_cat */\n      and\n      eq\n        /* \"StakingContract.sol\":3418:3573  contract_market_ == nftCollection_astra ||... */\n    tag_356:\n        /* \"StakingContract.sol\":3418:3631  contract_market_ == nftCollection_astra ||... */\n      dup1\n      tag_357\n      jumpi\n      pop\n        /* \"StakingContract.sol\":3613:3631  nftCollection_bear */\n      immutable(\"0x7749cc8014201da2069c21d93ba99c584b6f62d393fde534ed47eac227e31561\")\n      sub(shl(0xa0, 0x01), 0x01)\n        /* \"StakingContract.sol\":3593:3631  contract_market_ == nftCollection_bear */\n      and\n        /* \"StakingContract.sol\":3593:3609  contract_market_ */\n      dup2\n      sub(shl(0xa0, 0x01), 0x01)\n        /* \"StakingContract.sol\":3593:3631  contract_market_ == nftCollection_bear */\n      and\n      eq\n        /* \"StakingContract.sol\":3418:3631  contract_market_ == nftCollection_astra ||... */\n    tag_357:\n        /* \"StakingContract.sol\":3397:3688  require(... */\n      tag_358\n      jumpi\n      mload(0x40)\n      shl(0xe5, 0x461bcd)\n      dup2\n      mstore\n        /* \"#utility.yul\":6749:6751   */\n      0x20\n        /* \"StakingContract.sol\":3397:3688  require(... */\n      0x04\n      dup3\n      add\n        /* \"#utility.yul\":6731:6752   */\n      mstore\n        /* \"#utility.yul\":6788:6790   */\n      0x1f\n        /* \"#utility.yul\":6768:6786   */\n      0x24\n      dup3\n      add\n        /* \"#utility.yul\":6761:6791   */\n      mstore\n        /* \"#utility.yul\":6827:6860   */\n      0x5468697320436f6c6c656374696f6e2043616e2774204265205374616b656400\n        /* \"#utility.yul\":6807:6825   */\n      0x44\n      dup3\n      add\n        /* \"#utility.yul\":6800:6861   */\n      mstore\n        /* \"#utility.yul\":6878:6896   */\n      0x64\n      add\n        /* \"StakingContract.sol\":3397:3688  require(... */\n      tag_133\n        /* \"#utility.yul\":6547:6902   */\n      jump\n        /* \"StakingContract.sol\":3397:3688  require(... */\n    tag_358:\n        /* \"StakingContract.sol\":3723:3742  nftCollection_astra */\n      immutable(\"0x731dc163f73d31d8c68f9917ce4ff967753939f70432973c04fd2c2a48148607\")\n      sub(shl(0xa0, 0x01), 0x01)\n        /* \"StakingContract.sol\":3703:3742  contract_market_ == nftCollection_astra */\n      and\n        /* \"StakingContract.sol\":3703:3719  contract_market_ */\n      dup2\n      sub(shl(0xa0, 0x01), 0x01)\n        /* \"StakingContract.sol\":3703:3742  contract_market_ == nftCollection_astra */\n      and\n      sub\n        /* \"StakingContract.sol\":3699:4501  if (contract_market_ == nftCollection_astra) {... */\n      tag_361\n      jumpi\n        /* \"StakingContract.sol\":3830:3896  contract_market_.transferFrom(msg.sender, address(this), _tokenId) */\n      mload(0x40)\n      shl(0xe0, 0x23b872dd)\n      dup2\n      mstore\n        /* \"StakingContract.sol\":3860:3870  msg.sender */\n      caller\n        /* \"StakingContract.sol\":3830:3896  contract_market_.transferFrom(msg.sender, address(this), _tokenId) */\n      0x04\n      dup3\n      add\n        /* \"#utility.yul\":4744:4778   */\n      mstore\n        /* \"StakingContract.sol\":3880:3884  this */\n      address\n        /* \"#utility.yul\":4794:4812   */\n      0x24\n      dup3\n      add\n        /* \"#utility.yul\":4787:4830   */\n      mstore\n        /* \"#utility.yul\":4846:4864   */\n      0x44\n      dup2\n      add\n        /* \"#utility.yul\":4839:4873   */\n      dup4\n      swap1\n      mstore\n      sub(shl(0xa0, 0x01), 0x01)\n        /* \"StakingContract.sol\":3830:3859  contract_market_.transferFrom */\n      dup3\n      and\n      swap1\n      0x23b872dd\n      swap1\n        /* \"#utility.yul\":4656:4674   */\n      0x64\n      add\n        /* \"StakingContract.sol\":3830:3896  contract_market_.transferFrom(msg.sender, address(this), _tokenId) */\n      0x00\n      mload(0x40)\n      dup1\n      dup4\n      sub\n      dup2\n      0x00\n      dup8\n      dup1\n      extcodesize\n      iszero\n      dup1\n      iszero\n      tag_363\n      jumpi\n      0x00\n      dup1\n      revert\n    tag_363:\n      pop\n      gas\n      call\n      iszero\n      dup1\n      iszero\n      tag_365\n      jumpi\n      returndatasize\n      0x00\n      dup1\n      returndatacopy\n      revert(0x00, returndatasize)\n    tag_365:\n      pop\n      pop\n        /* \"StakingContract.sol\":3978:4011  StakedToken(msg.sender, _tokenId) */\n      0x40\n      dup1\n      mload\n      dup1\n      dup3\n      add\n      dup3\n      mstore\n        /* \"StakingContract.sol\":3990:4000  msg.sender */\n      caller\n        /* \"StakingContract.sol\":3978:4011  StakedToken(msg.sender, _tokenId) */\n      dup1\n      dup3\n      mstore\n      0x20\n      dup1\n      dup4\n      add\n      dup9\n      dup2\n      mstore\n      0x00\n        /* \"StakingContract.sol\":4081:4100  stakers[msg.sender] */\n      dup4\n      dup2\n      mstore\n        /* \"StakingContract.sol\":4081:4088  stakers */\n      0x04\n        /* \"StakingContract.sol\":4081:4100  stakers[msg.sender] */\n      dup4\n      mstore\n      swap5\n      dup6\n      keccak256\n        /* \"StakingContract.sol\":4081:4113  stakers[msg.sender].stakedTokens */\n      0x01\n      dup1\n      dup3\n      add\n        /* \"StakingContract.sol\":4081:4131  stakers[msg.sender].stakedTokens.push(stakedToken) */\n      dup1\n      sload\n      dup1\n      dup4\n      add\n      dup3\n      sstore\n      swap1\n      dup9\n      mstore\n      swap4\n      dup8\n      keccak256\n      dup7\n      mload\n      0x02\n      swap1\n      swap6\n      mul\n      add\n      dup1\n      sload\n      not(sub(shl(0xa0, 0x01), 0x01))\n      and\n      sub(shl(0xa0, 0x01), 0x01)\n      swap1\n      swap6\n      and\n      swap5\n      swap1\n      swap5\n      or\n      dup5\n      sstore\n      swap2\n      mload\n      swap3\n      swap1\n      swap2\n      add\n      swap2\n      swap1\n      swap2\n      sstore\n        /* \"StakingContract.sol\":4205:4224  stakers[msg.sender] */\n      swap1\n      dup4\n      mstore\n        /* \"StakingContract.sol\":4205:4239  stakers[msg.sender].amountStaked++ */\n      dup1\n      sload\n        /* \"StakingContract.sol\":3978:4011  StakedToken(msg.sender, _tokenId) */\n      swap2\n      swap5\n      pop\n        /* \"StakingContract.sol\":4205:4239  stakers[msg.sender].amountStaked++ */\n      swap1\n      swap3\n      pop\n        /* \"StakingContract.sol\":4081:4100  stakers[msg.sender] */\n      swap1\n        /* \"StakingContract.sol\":4205:4239  stakers[msg.sender].amountStaked++ */\n      tag_367\n      dup4\n      tag_161\n      jump\t// in\n    tag_367:\n      swap1\n      swap2\n      sstore\n      pop\n      pop\n      pop\n        /* \"StakingContract.sol\":4327:4350  stakerAddress[_tokenId] */\n      0x00\n      dup3\n      dup2\n      mstore\n        /* \"StakingContract.sol\":4327:4340  stakerAddress */\n      0x05\n        /* \"StakingContract.sol\":4327:4350  stakerAddress[_tokenId] */\n      0x20\n      dup2\n      dup2\n      mstore\n      0x40\n      dup1\n      dup5\n      keccak256\n        /* \"StakingContract.sol\":4327:4363  stakerAddress[_tokenId] = msg.sender */\n      dup1\n      sload\n      not(sub(shl(0xa0, 0x01), 0x01))\n      and\n        /* \"StakingContract.sol\":4353:4363  msg.sender */\n      caller\n        /* \"StakingContract.sol\":4327:4363  stakerAddress[_tokenId] = msg.sender */\n      swap1\n      dup2\n      or\n      swap1\n      swap2\n      sstore\n        /* \"StakingContract.sol\":4436:4455  stakers[msg.sender] */\n      dup5\n      mstore\n        /* \"StakingContract.sol\":4436:4443  stakers */\n      0x04\n        /* \"StakingContract.sol\":4436:4455  stakers[msg.sender] */\n      swap1\n      swap2\n      mstore\n      swap1\n      swap2\n      keccak256\n        /* \"StakingContract.sol\":4475:4490  block.timestamp */\n      timestamp\n        /* \"StakingContract.sol\":4436:4472  stakers[msg.sender].timeOfLastUpdate */\n      swap2\n      add\n        /* \"StakingContract.sol\":4436:4490  stakers[msg.sender].timeOfLastUpdate = block.timestamp */\n      sstore\n        /* \"StakingContract.sol\":3699:4501  if (contract_market_ == nftCollection_astra) {... */\n    tag_361:\n        /* \"StakingContract.sol\":4535:4554  nftCollection_horse */\n      immutable(\"0x1572b593c53d839d80004aa4b8c51211864104f06ace9e22be9c4365b50655ea\")\n      sub(shl(0xa0, 0x01), 0x01)\n        /* \"StakingContract.sol\":4515:4554  contract_market_ == nftCollection_horse */\n      and\n        /* \"StakingContract.sol\":4515:4531  contract_market_ */\n      dup2\n      sub(shl(0xa0, 0x01), 0x01)\n        /* \"StakingContract.sol\":4515:4554  contract_market_ == nftCollection_horse */\n      and\n      sub\n        /* \"StakingContract.sol\":4511:5374  if (contract_market_ == nftCollection_horse) {... */\n      tag_368\n      jumpi\n        /* \"StakingContract.sol\":4642:4708  contract_market_.transferFrom(msg.sender, address(this), _tokenId) */\n      mload(0x40)\n      shl(0xe0, 0x23b872dd)\n      dup2\n      mstore\n        /* \"StakingContract.sol\":4672:4682  msg.sender */\n      caller\n        /* \"StakingContract.sol\":4642:4708  contract_market_.transferFrom(msg.sender, address(this), _tokenId) */\n      0x04\n      dup3\n      add\n        /* \"#utility.yul\":4744:4778   */\n      mstore\n        /* \"StakingContract.sol\":4692:4696  this */\n      address\n        /* \"#utility.yul\":4794:4812   */\n      0x24\n      dup3\n      add\n        /* \"#utility.yul\":4787:4830   */\n      mstore\n        /* \"#utility.yul\":4846:4864   */\n      0x44\n      dup2\n      add\n        /* \"#utility.yul\":4839:4873   */\n      dup4\n      swap1\n      mstore\n      sub(shl(0xa0, 0x01), 0x01)\n        /* \"StakingContract.sol\":4642:4671  contract_market_.transferFrom */\n      dup3\n      and\n      swap1\n      0x23b872dd\n      swap1\n        /* \"#utility.yul\":4656:4674   */\n      0x64\n      add\n        /* \"StakingContract.sol\":4642:4708  contract_market_.transferFrom(msg.sender, address(this), _tokenId) */\n      0x00\n      mload(0x40)\n      dup1\n      dup4\n      sub\n      dup2\n      0x00\n      dup8\n      dup1\n      extcodesize\n      iszero\n      dup1\n      iszero\n      tag_370\n      jumpi\n      0x00\n      dup1\n      revert\n    tag_370:\n      pop\n      gas\n      call\n      iszero\n      dup1\n      iszero\n      tag_372\n      jumpi\n      returndatasize\n      0x00\n      dup1\n      returndatacopy\n      revert(0x00, returndatasize)\n    tag_372:\n      pop\n      pop\n        /* \"StakingContract.sol\":4795:4874  StakedToken(... */\n      0x40\n      dup1\n      mload\n      dup1\n      dup3\n      add\n      dup3\n      mstore\n        /* \"StakingContract.sol\":4824:4834  msg.sender */\n      caller\n        /* \"StakingContract.sol\":4795:4874  StakedToken(... */\n      dup1\n      dup3\n      mstore\n      0x20\n      dup1\n      dup4\n      add\n      dup9\n      dup2\n      mstore\n      0x00\n        /* \"StakingContract.sol\":4944:4963  stakers[msg.sender] */\n      dup4\n      dup2\n      mstore\n        /* \"StakingContract.sol\":4944:4951  stakers */\n      0x04\n        /* \"StakingContract.sol\":4944:4963  stakers[msg.sender] */\n      dup1\n      dup5\n      mstore\n      swap6\n      dup2\n      keccak256\n        /* \"StakingContract.sol\":4944:4981  stakers[msg.sender].stakedHorseTokens */\n      swap6\n      dup7\n      add\n        /* \"StakingContract.sol\":4944:5004  stakers[msg.sender].stakedHorseTokens.push(stakedHorseToken) */\n      dup1\n      sload\n      0x01\n      dup1\n      dup3\n      add\n      dup4\n      sstore\n      swap2\n      dup4\n      mstore\n      swap4\n      dup3\n      keccak256\n      dup7\n      mload\n      0x02\n      swap1\n      swap6\n      mul\n      add\n      dup1\n      sload\n      not(sub(shl(0xa0, 0x01), 0x01))\n      and\n      sub(shl(0xa0, 0x01), 0x01)\n      swap1\n      swap6\n      and\n      swap5\n      swap1\n      swap5\n      or\n      dup5\n      sstore\n      swap2\n      mload\n      swap3\n      swap1\n      swap2\n      add\n      swap2\n      swap1\n      swap2\n      sstore\n        /* \"StakingContract.sol\":5078:5097  stakers[msg.sender] */\n      swap1\n      dup2\n      mstore\n        /* \"StakingContract.sol\":5078:5112  stakers[msg.sender].amountStaked++ */\n      dup3\n      sload\n        /* \"StakingContract.sol\":4795:4874  StakedToken(... */\n      swap2\n      swap5\n      pop\n        /* \"StakingContract.sol\":5078:5112  stakers[msg.sender].amountStaked++ */\n      swap1\n      swap3\n      pop\n      tag_374\n      dup4\n      tag_161\n      jump\t// in\n    tag_374:\n      swap1\n      swap2\n      sstore\n      pop\n      pop\n      pop\n        /* \"StakingContract.sol\":5200:5223  stakerAddress[_tokenId] */\n      0x00\n      dup3\n      dup2\n      mstore\n        /* \"StakingContract.sol\":5200:5213  stakerAddress */\n      0x05\n        /* \"StakingContract.sol\":5200:5223  stakerAddress[_tokenId] */\n      0x20\n      dup2\n      dup2\n      mstore\n      0x40\n      dup1\n      dup5\n      keccak256\n        /* \"StakingContract.sol\":5200:5236  stakerAddress[_tokenId] = msg.sender */\n      dup1\n      sload\n      not(sub(shl(0xa0, 0x01), 0x01))\n      and\n        /* \"StakingContract.sol\":5226:5236  msg.sender */\n      caller\n        /* \"StakingContract.sol\":5200:5236  stakerAddress[_tokenId] = msg.sender */\n      swap1\n      dup2\n      or\n      swap1\n      swap2\n      sstore\n        /* \"StakingContract.sol\":5309:5328  stakers[msg.sender] */\n      dup5\n      mstore\n        /* \"StakingContract.sol\":5309:5316  stakers */\n      0x04\n        /* \"StakingContract.sol\":5309:5328  stakers[msg.sender] */\n      swap1\n      swap2\n      mstore\n      swap1\n      swap2\n      keccak256\n        /* \"StakingContract.sol\":5348:5363  block.timestamp */\n      timestamp\n        /* \"StakingContract.sol\":5309:5345  stakers[msg.sender].timeOfLastUpdate */\n      swap2\n      add\n        /* \"StakingContract.sol\":5309:5363  stakers[msg.sender].timeOfLastUpdate = block.timestamp */\n      sstore\n        /* \"StakingContract.sol\":4511:5374  if (contract_market_ == nftCollection_horse) {... */\n    tag_368:\n        /* \"StakingContract.sol\":5408:5425  nftCollection_cat */\n      immutable(\"0x9cce9eb03c9f29c6481fca9f0f942b15bef0bbbc47fda0ddb44df157019835d9\")\n      sub(shl(0xa0, 0x01), 0x01)\n        /* \"StakingContract.sol\":5388:5425  contract_market_ == nftCollection_cat */\n      and\n        /* \"StakingContract.sol\":5388:5404  contract_market_ */\n      dup2\n      sub(shl(0xa0, 0x01), 0x01)\n        /* \"StakingContract.sol\":5388:5425  contract_market_ == nftCollection_cat */\n      and\n      sub\n        /* \"StakingContract.sol\":5384:6239  if (contract_market_ == nftCollection_cat) {... */\n      tag_375\n      jumpi\n        /* \"StakingContract.sol\":5513:5579  contract_market_.transferFrom(msg.sender, address(this), _tokenId) */\n      mload(0x40)\n      shl(0xe0, 0x23b872dd)\n      dup2\n      mstore\n        /* \"StakingContract.sol\":5543:5553  msg.sender */\n      caller\n        /* \"StakingContract.sol\":5513:5579  contract_market_.transferFrom(msg.sender, address(this), _tokenId) */\n      0x04\n      dup3\n      add\n        /* \"#utility.yul\":4744:4778   */\n      mstore\n        /* \"StakingContract.sol\":5563:5567  this */\n      address\n        /* \"#utility.yul\":4794:4812   */\n      0x24\n      dup3\n      add\n        /* \"#utility.yul\":4787:4830   */\n      mstore\n        /* \"#utility.yul\":4846:4864   */\n      0x44\n      dup2\n      add\n        /* \"#utility.yul\":4839:4873   */\n      dup4\n      swap1\n      mstore\n      sub(shl(0xa0, 0x01), 0x01)\n        /* \"StakingContract.sol\":5513:5542  contract_market_.transferFrom */\n      dup3\n      and\n      swap1\n      0x23b872dd\n      swap1\n        /* \"#utility.yul\":4656:4674   */\n      0x64\n      add\n        /* \"StakingContract.sol\":5513:5579  contract_market_.transferFrom(msg.sender, address(this), _tokenId) */\n      0x00\n      mload(0x40)\n      dup1\n      dup4\n      sub\n      dup2\n      0x00\n      dup8\n      dup1\n      extcodesize\n      iszero\n      dup1\n      iszero\n      tag_377\n      jumpi\n      0x00\n      dup1\n      revert\n    tag_377:\n      pop\n      gas\n      call\n      iszero\n      dup1\n      iszero\n      tag_379\n      jumpi\n      returndatasize\n      0x00\n      dup1\n      returndatacopy\n      revert(0x00, returndatasize)\n    tag_379:\n      pop\n      pop\n        /* \"StakingContract.sol\":5664:5743  StakedToken(... */\n      0x40\n      dup1\n      mload\n      dup1\n      dup3\n      add\n      dup3\n      mstore\n        /* \"StakingContract.sol\":5693:5703  msg.sender */\n      caller\n        /* \"StakingContract.sol\":5664:5743  StakedToken(... */\n      dup1\n      dup3\n      mstore\n      0x20\n      dup1\n      dup4\n      add\n      dup9\n      dup2\n      mstore\n      0x00\n        /* \"StakingContract.sol\":5813:5832  stakers[msg.sender] */\n      dup4\n      dup2\n      mstore\n        /* \"StakingContract.sol\":5813:5820  stakers */\n      0x04\n        /* \"StakingContract.sol\":5813:5832  stakers[msg.sender] */\n      dup4\n      mstore\n      swap5\n      dup6\n      keccak256\n        /* \"StakingContract.sol\":5813:5848  stakers[msg.sender].stakedCatTokens */\n      0x02\n      dup1\n      dup3\n      add\n        /* \"StakingContract.sol\":5813:5869  stakers[msg.sender].stakedCatTokens.push(stakedCatToken) */\n      dup1\n      sload\n      0x01\n      dup1\n      dup3\n      add\n      dup4\n      sstore\n      swap2\n      dup10\n      mstore\n      swap5\n      dup9\n      keccak256\n      dup8\n      mload\n      swap6\n      swap1\n      swap3\n      mul\n      swap1\n      swap2\n      add\n      dup1\n      sload\n      not(sub(shl(0xa0, 0x01), 0x01))\n      and\n      sub(shl(0xa0, 0x01), 0x01)\n      swap1\n      swap6\n      and\n      swap5\n      swap1\n      swap5\n      or\n      dup5\n      sstore\n      swap2\n      mload\n      swap3\n      swap1\n      swap2\n      add\n      swap2\n      swap1\n      swap2\n      sstore\n        /* \"StakingContract.sol\":5943:5962  stakers[msg.sender] */\n      swap1\n      dup4\n      mstore\n        /* \"StakingContract.sol\":5943:5977  stakers[msg.sender].amountStaked++ */\n      dup1\n      sload\n        /* \"StakingContract.sol\":5664:5743  StakedToken(... */\n      swap2\n      swap5\n      pop\n        /* \"StakingContract.sol\":5943:5977  stakers[msg.sender].amountStaked++ */\n      swap1\n      swap3\n      pop\n        /* \"StakingContract.sol\":5813:5832  stakers[msg.sender] */\n      swap1\n        /* \"StakingContract.sol\":5943:5977  stakers[msg.sender].amountStaked++ */\n      tag_381\n      dup4\n      tag_161\n      jump\t// in\n    tag_381:\n      swap1\n      swap2\n      sstore\n      pop\n      pop\n      pop\n        /* \"StakingContract.sol\":6065:6088  stakerAddress[_tokenId] */\n      0x00\n      dup3\n      dup2\n      mstore\n        /* \"StakingContract.sol\":6065:6078  stakerAddress */\n      0x05\n        /* \"StakingContract.sol\":6065:6088  stakerAddress[_tokenId] */\n      0x20\n      dup2\n      dup2\n      mstore\n      0x40\n      dup1\n      dup5\n      keccak256\n        /* \"StakingContract.sol\":6065:6101  stakerAddress[_tokenId] = msg.sender */\n      dup1\n      sload\n      not(sub(shl(0xa0, 0x01), 0x01))\n      and\n        /* \"StakingContract.sol\":6091:6101  msg.sender */\n      caller\n        /* \"StakingContract.sol\":6065:6101  stakerAddress[_tokenId] = msg.sender */\n      swap1\n      dup2\n      or\n      swap1\n      swap2\n      sstore\n        /* \"StakingContract.sol\":6174:6193  stakers[msg.sender] */\n      dup5\n      mstore\n        /* \"StakingContract.sol\":6174:6181  stakers */\n      0x04\n        /* \"StakingContract.sol\":6174:6193  stakers[msg.sender] */\n      swap1\n      swap2\n      mstore\n      swap1\n      swap2\n      keccak256\n        /* \"StakingContract.sol\":6213:6228  block.timestamp */\n      timestamp\n        /* \"StakingContract.sol\":6174:6210  stakers[msg.sender].timeOfLastUpdate */\n      swap2\n      add\n        /* \"StakingContract.sol\":6174:6228  stakers[msg.sender].timeOfLastUpdate = block.timestamp */\n      sstore\n        /* \"StakingContract.sol\":5384:6239  if (contract_market_ == nftCollection_cat) {... */\n    tag_375:\n        /* \"StakingContract.sol\":6273:6291  nftCollection_bear */\n      immutable(\"0x7749cc8014201da2069c21d93ba99c584b6f62d393fde534ed47eac227e31561\")\n      sub(shl(0xa0, 0x01), 0x01)\n        /* \"StakingContract.sol\":6253:6291  contract_market_ == nftCollection_bear */\n      and\n        /* \"StakingContract.sol\":6253:6269  contract_market_ */\n      dup2\n      sub(shl(0xa0, 0x01), 0x01)\n        /* \"StakingContract.sol\":6253:6291  contract_market_ == nftCollection_bear */\n      and\n      sub\n        /* \"StakingContract.sol\":6249:7108  if (contract_market_ == nftCollection_bear) {... */\n      tag_218\n      jumpi\n        /* \"StakingContract.sol\":6379:6445  contract_market_.transferFrom(msg.sender, address(this), _tokenId) */\n      mload(0x40)\n      shl(0xe0, 0x23b872dd)\n      dup2\n      mstore\n        /* \"StakingContract.sol\":6409:6419  msg.sender */\n      caller\n        /* \"StakingContract.sol\":6379:6445  contract_market_.transferFrom(msg.sender, address(this), _tokenId) */\n      0x04\n      dup3\n      add\n        /* \"#utility.yul\":4744:4778   */\n      mstore\n        /* \"StakingContract.sol\":6429:6433  this */\n      address\n        /* \"#utility.yul\":4794:4812   */\n      0x24\n      dup3\n      add\n        /* \"#utility.yul\":4787:4830   */\n      mstore\n        /* \"#utility.yul\":4846:4864   */\n      0x44\n      dup2\n      add\n        /* \"#utility.yul\":4839:4873   */\n      dup4\n      swap1\n      mstore\n      sub(shl(0xa0, 0x01), 0x01)\n        /* \"StakingContract.sol\":6379:6408  contract_market_.transferFrom */\n      dup3\n      and\n      swap1\n      0x23b872dd\n      swap1\n        /* \"#utility.yul\":4656:4674   */\n      0x64\n      add\n        /* \"StakingContract.sol\":6379:6445  contract_market_.transferFrom(msg.sender, address(this), _tokenId) */\n      0x00\n      mload(0x40)\n      dup1\n      dup4\n      sub\n      dup2\n      0x00\n      dup8\n      dup1\n      extcodesize\n      iszero\n      dup1\n      iszero\n      tag_384\n      jumpi\n      0x00\n      dup1\n      revert\n    tag_384:\n      pop\n      gas\n      call\n      iszero\n      dup1\n      iszero\n      tag_386\n      jumpi\n      returndatasize\n      0x00\n      dup1\n      returndatacopy\n      revert(0x00, returndatasize)\n    tag_386:\n      pop\n      pop\n        /* \"StakingContract.sol\":6531:6610  StakedToken(... */\n      0x40\n      dup1\n      mload\n      dup1\n      dup3\n      add\n      dup3\n      mstore\n        /* \"StakingContract.sol\":6560:6570  msg.sender */\n      caller\n        /* \"StakingContract.sol\":6531:6610  StakedToken(... */\n      dup1\n      dup3\n      mstore\n      0x20\n      dup1\n      dup4\n      add\n      dup9\n      dup2\n      mstore\n      0x00\n        /* \"StakingContract.sol\":6680:6699  stakers[msg.sender] */\n      dup4\n      dup2\n      mstore\n        /* \"StakingContract.sol\":6680:6687  stakers */\n      0x04\n        /* \"StakingContract.sol\":6680:6699  stakers[msg.sender] */\n      dup4\n      mstore\n      swap5\n      dup6\n      keccak256\n        /* \"StakingContract.sol\":6680:6716  stakers[msg.sender].stakedBearTokens */\n      0x03\n      dup2\n      add\n        /* \"StakingContract.sol\":6680:6738  stakers[msg.sender].stakedBearTokens.push(stakedBearToken) */\n      dup1\n      sload\n      0x01\n      dup1\n      dup3\n      add\n      dup4\n      sstore\n      swap2\n      dup9\n      mstore\n      swap4\n      dup8\n      keccak256\n      dup7\n      mload\n      0x02\n      swap1\n      swap6\n      mul\n      add\n      dup1\n      sload\n      not(sub(shl(0xa0, 0x01), 0x01))\n      and\n      sub(shl(0xa0, 0x01), 0x01)\n      swap1\n      swap6\n      and\n      swap5\n      swap1\n      swap5\n      or\n      dup5\n      sstore\n      swap2\n      mload\n      swap3\n      swap1\n      swap2\n      add\n      swap2\n      swap1\n      swap2\n      sstore\n        /* \"StakingContract.sol\":6812:6831  stakers[msg.sender] */\n      swap1\n      dup4\n      mstore\n        /* \"StakingContract.sol\":6812:6846  stakers[msg.sender].amountStaked++ */\n      dup1\n      sload\n        /* \"StakingContract.sol\":6531:6610  StakedToken(... */\n      swap2\n      swap5\n      pop\n        /* \"StakingContract.sol\":6812:6846  stakers[msg.sender].amountStaked++ */\n      swap1\n      swap3\n      pop\n        /* \"StakingContract.sol\":6680:6699  stakers[msg.sender] */\n      swap1\n        /* \"StakingContract.sol\":6812:6846  stakers[msg.sender].amountStaked++ */\n      tag_388\n      dup4\n      tag_161\n      jump\t// in\n    tag_388:\n      swap1\n      swap2\n      sstore\n      pop\n      pop\n      pop\n        /* \"StakingContract.sol\":6934:6957  stakerAddress[_tokenId] */\n      0x00\n      dup3\n      dup2\n      mstore\n        /* \"StakingContract.sol\":6934:6947  stakerAddress */\n      0x05\n        /* \"StakingContract.sol\":6934:6957  stakerAddress[_tokenId] */\n      0x20\n      dup2\n      dup2\n      mstore\n      0x40\n      dup1\n      dup5\n      keccak256\n        /* \"StakingContract.sol\":6934:6970  stakerAddress[_tokenId] = msg.sender */\n      dup1\n      sload\n      not(sub(shl(0xa0, 0x01), 0x01))\n      and\n        /* \"StakingContract.sol\":6960:6970  msg.sender */\n      caller\n        /* \"StakingContract.sol\":6934:6970  stakerAddress[_tokenId] = msg.sender */\n      swap1\n      dup2\n      or\n      swap1\n      swap2\n      sstore\n        /* \"StakingContract.sol\":7043:7062  stakers[msg.sender] */\n      dup5\n      mstore\n        /* \"StakingContract.sol\":7043:7050  stakers */\n      0x04\n        /* \"StakingContract.sol\":7043:7062  stakers[msg.sender] */\n      swap1\n      swap2\n      mstore\n      swap1\n      swap2\n      keccak256\n        /* \"StakingContract.sol\":7082:7097  block.timestamp */\n      timestamp\n        /* \"StakingContract.sol\":7043:7079  stakers[msg.sender].timeOfLastUpdate */\n      swap2\n      add\n        /* \"StakingContract.sol\":7043:7097  stakers[msg.sender].timeOfLastUpdate = block.timestamp */\n      sstore\n        /* \"@openzeppelin/contracts/security/ReentrancyGuard.sol\":2303:2323   */\n      tag_241\n        /* \"@openzeppelin/contracts/security/ReentrancyGuard.sol\":1716:1717   */\n      0x01\n        /* \"@openzeppelin/contracts/security/ReentrancyGuard.sol\":2809:2816   */\n      0x00\n        /* \"@openzeppelin/contracts/security/ReentrancyGuard.sol\":2809:2831   */\n      sstore\n        /* \"@openzeppelin/contracts/security/ReentrancyGuard.sol\":2629:2838   */\n      jump\n        /* \"StakingContract.sol\":18168:19147  function getStakedBearTokens(address _user)... */\n    tag_96:\n      sub(shl(0xa0, 0x01), 0x01)\n        /* \"StakingContract.sol\":18335:18349  stakers[_user] */\n      dup2\n      and\n        /* \"StakingContract.sol\":18365:18366  0 */\n      0x00\n        /* \"StakingContract.sol\":18335:18349  stakers[_user] */\n      swap1\n      dup2\n      mstore\n        /* \"StakingContract.sol\":18335:18342  stakers */\n      0x04\n        /* \"StakingContract.sol\":18335:18349  stakers[_user] */\n      0x20\n      mstore\n      0x40\n      swap1\n      keccak256\n        /* \"StakingContract.sol\":18335:18362  stakers[_user].amountStaked */\n      sload\n        /* \"StakingContract.sol\":18257:18277  StakedToken[] memory */\n      0x60\n      swap1\n        /* \"StakingContract.sol\":18335:18366  stakers[_user].amountStaked > 0 */\n      iszero\n        /* \"StakingContract.sol\":18331:19141  if (stakers[_user].amountStaked > 0) {... */\n      tag_265\n      jumpi\n      sub(shl(0xa0, 0x01), 0x01)\n        /* \"StakingContract.sol\":18546:18560  stakers[_user] */\n      dup3\n      and\n        /* \"StakingContract.sol\":18474:18508  StakedToken[] memory _stakedTokens */\n      0x00\n        /* \"StakingContract.sol\":18546:18560  stakers[_user] */\n      swap1\n      dup2\n      mstore\n        /* \"StakingContract.sol\":18546:18553  stakers */\n      0x04\n        /* \"StakingContract.sol\":18546:18560  stakers[_user] */\n      0x20\n      mstore\n      0x40\n      dup2\n      keccak256\n        /* \"StakingContract.sol\":18546:18573  stakers[_user].amountStaked */\n      sload\n        /* \"StakingContract.sol\":18511:18587  new StakedToken[](... */\n      0xffffffffffffffff\n      dup2\n      gt\n      iszero\n      tag_394\n      jumpi\n      tag_394\n      tag_268\n      jump\t// in\n    tag_394:\n      mload(0x40)\n      swap1\n      dup1\n      dup3\n      mstore\n      dup1\n      0x20\n      mul\n      0x20\n      add\n      dup3\n      add\n      0x40\n      mstore\n      dup1\n      iszero\n      tag_395\n      jumpi\n      dup2\n      0x20\n      add\n    tag_396:\n      0x40\n      dup1\n      mload\n      dup1\n      dup3\n      add\n      swap1\n      swap2\n      mstore\n      0x00\n      dup1\n      dup3\n      mstore\n      0x20\n      dup3\n      add\n      mstore\n      dup2\n      mstore\n      0x20\n      add\n      swap1\n      0x01\n      swap1\n      sub\n      swap1\n      dup2\n      tag_396\n      jumpi\n      swap1\n      pop\n    tag_395:\n      pop\n        /* \"StakingContract.sol\":18474:18587  StakedToken[] memory _stakedTokens = new StakedToken[](... */\n      swap1\n      pop\n        /* \"StakingContract.sol\":18601:18615  uint256 _index */\n      0x00\n        /* \"StakingContract.sol\":18656:18665  uint256 j */\n      dup1\n        /* \"StakingContract.sol\":18634:18989  for (... */\n    tag_398:\n      sub(shl(0xa0, 0x01), 0x01)\n        /* \"StakingContract.sol\":18691:18705  stakers[_user] */\n      dup6\n      and\n      0x00\n      swap1\n      dup2\n      mstore\n        /* \"StakingContract.sol\":18691:18698  stakers */\n      0x04\n        /* \"StakingContract.sol\":18691:18705  stakers[_user] */\n      0x20\n      mstore\n      0x40\n      swap1\n      keccak256\n        /* \"StakingContract.sol\":18691:18722  stakers[_user].stakedBearTokens */\n      0x03\n      add\n        /* \"StakingContract.sol\":18691:18729  stakers[_user].stakedBearTokens.length */\n      sload\n        /* \"StakingContract.sol\":18687:18729  j < stakers[_user].stakedBearTokens.length */\n      dup2\n      lt\n        /* \"StakingContract.sol\":18634:18989  for (... */\n      iszero\n      tag_274\n      jumpi\n      sub(shl(0xa0, 0x01), 0x01)\n        /* \"StakingContract.sol\":18787:18801  stakers[_user] */\n      dup6\n      and\n        /* \"StakingContract.sol\":18841:18842  0 */\n      0x00\n        /* \"StakingContract.sol\":18787:18801  stakers[_user] */\n      swap1\n      dup2\n      mstore\n        /* \"StakingContract.sol\":18787:18794  stakers */\n      0x04\n        /* \"StakingContract.sol\":18787:18801  stakers[_user] */\n      0x20\n      mstore\n      0x40\n      dup2\n      keccak256\n        /* \"StakingContract.sol\":18787:18818  stakers[_user].stakedBearTokens */\n      0x03\n      add\n        /* \"StakingContract.sol\":18787:18821  stakers[_user].stakedBearTokens[j] */\n      dup1\n      sload\n        /* \"StakingContract.sol\":18819:18820  j */\n      dup4\n      swap1\n        /* \"StakingContract.sol\":18787:18821  stakers[_user].stakedBearTokens[j] */\n      dup2\n      lt\n      tag_402\n      jumpi\n      tag_402\n      tag_153\n      jump\t// in\n    tag_402:\n      0x00\n      swap2\n      dup3\n      mstore\n      0x20\n      swap1\n      swap2\n      keccak256\n      0x02\n      swap1\n      swap2\n      mul\n      add\n        /* \"StakingContract.sol\":18787:18828  stakers[_user].stakedBearTokens[j].staker */\n      sload\n      sub(shl(0xa0, 0x01), 0x01)\n      and\n        /* \"StakingContract.sol\":18787:18844  stakers[_user].stakedBearTokens[j].staker != (address(0)) */\n      eq\n        /* \"StakingContract.sol\":18783:18975  if (stakers[_user].stakedBearTokens[j].staker != (address(0))) {... */\n      tag_404\n      jumpi\n      sub(shl(0xa0, 0x01), 0x01)\n        /* \"StakingContract.sol\":18892:18906  stakers[_user] */\n      dup6\n      and\n      0x00\n      swap1\n      dup2\n      mstore\n        /* \"StakingContract.sol\":18892:18899  stakers */\n      0x04\n        /* \"StakingContract.sol\":18892:18906  stakers[_user] */\n      0x20\n      mstore\n      0x40\n      swap1\n      keccak256\n        /* \"StakingContract.sol\":18892:18923  stakers[_user].stakedBearTokens */\n      0x03\n      add\n        /* \"StakingContract.sol\":18892:18926  stakers[_user].stakedBearTokens[j] */\n      dup1\n      sload\n        /* \"StakingContract.sol\":18924:18925  j */\n      dup3\n      swap1\n        /* \"StakingContract.sol\":18892:18926  stakers[_user].stakedBearTokens[j] */\n      dup2\n      lt\n      tag_406\n      jumpi\n      tag_406\n      tag_153\n      jump\t// in\n    tag_406:\n      0x00\n      swap2\n      dup3\n      mstore\n      0x20\n      swap2\n      dup3\n      swap1\n      keccak256\n        /* \"StakingContract.sol\":18868:18926  _stakedTokens[_index] = stakers[_user].stakedBearTokens[j] */\n      0x40\n      dup1\n      mload\n      dup1\n      dup3\n      add\n      swap1\n      swap2\n      mstore\n        /* \"StakingContract.sol\":18892:18926  stakers[_user].stakedBearTokens[j] */\n      0x02\n      swap1\n      swap3\n      mul\n      add\n        /* \"StakingContract.sol\":18868:18926  _stakedTokens[_index] = stakers[_user].stakedBearTokens[j] */\n      dup1\n      sload\n      sub(shl(0xa0, 0x01), 0x01)\n      and\n      dup3\n      mstore\n      0x01\n      add\n      sload\n      swap2\n      dup2\n      add\n      swap2\n      swap1\n      swap2\n      mstore\n        /* \"StakingContract.sol\":18868:18889  _stakedTokens[_index] */\n      dup4\n      mload\n        /* \"StakingContract.sol\":18868:18881  _stakedTokens */\n      dup5\n      swap1\n        /* \"StakingContract.sol\":18882:18888  _index */\n      dup5\n      swap1\n        /* \"StakingContract.sol\":18868:18889  _stakedTokens[_index] */\n      dup2\n      lt\n      tag_409\n      jumpi\n      tag_409\n      tag_153\n      jump\t// in\n    tag_409:\n      0x20\n      mul\n      0x20\n      add\n      add\n        /* \"StakingContract.sol\":18868:18926  _stakedTokens[_index] = stakers[_user].stakedBearTokens[j] */\n      dup2\n      swap1\n      mstore\n      pop\n        /* \"StakingContract.sol\":18948:18956  _index++ */\n      dup2\n      dup1\n      tag_410\n      swap1\n      tag_161\n      jump\t// in\n    tag_410:\n      swap3\n      pop\n      pop\n        /* \"StakingContract.sol\":18783:18975  if (stakers[_user].stakedBearTokens[j].staker != (address(0))) {... */\n    tag_404:\n        /* \"StakingContract.sol\":18747:18750  j++ */\n      dup1\n      tag_411\n      dup2\n      tag_161\n      jump\t// in\n    tag_411:\n      swap2\n      pop\n      pop\n        /* \"StakingContract.sol\":18634:18989  for (... */\n      jump(tag_398)\n        /* \"StakingContract.sol\":19978:20078  function setrewardsPerHour(uint256 amount) public onlyOwner {... */\n    tag_101:\n        /* \"@openzeppelin/contracts/access/Ownable.sol\":1094:1107   */\n      tag_419\n        /* \"@openzeppelin/contracts/access/Ownable.sol\":1094:1105   */\n      tag_245\n        /* \"@openzeppelin/contracts/access/Ownable.sol\":1094:1107   */\n      jump\t// in\n    tag_419:\n        /* \"StakingContract.sol\":20048:20062  rewardsPerHour */\n      0x03\n        /* \"StakingContract.sol\":20048:20071  rewardsPerHour = amount */\n      sstore\n        /* \"StakingContract.sol\":19978:20078  function setrewardsPerHour(uint256 amount) public onlyOwner {... */\n      jump\t// out\n        /* \"StakingContract.sol\":20084:20302  function emergencyWithdrawAll() external payable onlyOwner {... */\n    tag_112:\n        /* \"@openzeppelin/contracts/access/Ownable.sol\":1094:1107   */\n      tag_422\n        /* \"@openzeppelin/contracts/access/Ownable.sol\":1094:1105   */\n      tag_245\n        /* \"@openzeppelin/contracts/access/Ownable.sol\":1094:1107   */\n      jump\t// in\n    tag_422:\n        /* \"StakingContract.sol\":20154:20166  bool success */\n      0x00\n        /* \"StakingContract.sol\":20180:20187  owner() */\n      tag_424\n        /* \"@openzeppelin/contracts/access/Ownable.sol\":1273:1279   */\n      and(sub(shl(0xa0, 0x01), 0x01), sload(0x01))\n      swap1\n        /* \"@openzeppelin/contracts/access/Ownable.sol\":1201:1286   */\n      jump\n        /* \"StakingContract.sol\":20180:20187  owner() */\n    tag_424:\n      sub(shl(0xa0, 0x01), 0x01)\n        /* \"StakingContract.sol\":20172:20193  payable(owner()).call */\n      and\n        /* \"StakingContract.sol\":20201:20222  address(this).balance */\n      selfbalance\n        /* \"StakingContract.sol\":20172:20249  payable(owner()).call{value: address(this).balance}(... */\n      mload(0x40)\n      0x00\n      mload(0x40)\n      dup1\n      dup4\n      sub\n      dup2\n      dup6\n      dup8\n      gas\n      call\n      swap3\n      pop\n      pop\n      pop\n      returndatasize\n      dup1\n      0x00\n      dup2\n      eq\n      tag_428\n      jumpi\n      mload(0x40)\n      swap2\n      pop\n      and(add(returndatasize, 0x3f), not(0x1f))\n      dup3\n      add\n      0x40\n      mstore\n      returndatasize\n      dup3\n      mstore\n      returndatasize\n      0x00\n      0x20\n      dup5\n      add\n      returndatacopy\n      jump(tag_427)\n    tag_428:\n      0x60\n      swap2\n      pop\n    tag_427:\n      pop\n        /* \"StakingContract.sol\":20153:20249  (bool success, ) = payable(owner()).call{value: address(this).balance}(... */\n      pop\n      swap1\n      pop\n        /* \"StakingContract.sol\":20267:20274  success */\n      dup1\n        /* \"StakingContract.sol\":20259:20295  require(success, \"Transfer failed!\") */\n      tag_262\n      jumpi\n      mload(0x40)\n      shl(0xe5, 0x461bcd)\n      dup2\n      mstore\n        /* \"#utility.yul\":5296:5298   */\n      0x20\n        /* \"StakingContract.sol\":20259:20295  require(success, \"Transfer failed!\") */\n      0x04\n      dup3\n      add\n        /* \"#utility.yul\":5278:5299   */\n      mstore\n        /* \"#utility.yul\":5335:5337   */\n      0x10\n        /* \"#utility.yul\":5315:5333   */\n      0x24\n      dup3\n      add\n        /* \"#utility.yul\":5308:5338   */\n      mstore\n      shl(0x80, 0x5472616e73666572206661696c656421)\n        /* \"#utility.yul\":5354:5372   */\n      0x44\n      dup3\n      add\n        /* \"#utility.yul\":5347:5393   */\n      mstore\n        /* \"#utility.yul\":5410:5428   */\n      0x64\n      add\n        /* \"StakingContract.sol\":20259:20295  require(success, \"Transfer failed!\") */\n      tag_133\n        /* \"#utility.yul\":5094:5434   */\n      jump\n        /* \"StakingContract.sol\":17187:18162  function getStakedCatTokens(address _user)... */\n    tag_116:\n      sub(shl(0xa0, 0x01), 0x01)\n        /* \"StakingContract.sol\":17353:17367  stakers[_user] */\n      dup2\n      and\n        /* \"StakingContract.sol\":17383:17384  0 */\n      0x00\n        /* \"StakingContract.sol\":17353:17367  stakers[_user] */\n      swap1\n      dup2\n      mstore\n        /* \"StakingContract.sol\":17353:17360  stakers */\n      0x04\n        /* \"StakingContract.sol\":17353:17367  stakers[_user] */\n      0x20\n      mstore\n      0x40\n      swap1\n      keccak256\n        /* \"StakingContract.sol\":17353:17380  stakers[_user].amountStaked */\n      sload\n        /* \"StakingContract.sol\":17275:17295  StakedToken[] memory */\n      0x60\n      swap1\n        /* \"StakingContract.sol\":17353:17384  stakers[_user].amountStaked > 0 */\n      iszero\n        /* \"StakingContract.sol\":17349:18156  if (stakers[_user].amountStaked > 0) {... */\n      tag_265\n      jumpi\n      sub(shl(0xa0, 0x01), 0x01)\n        /* \"StakingContract.sol\":17564:17578  stakers[_user] */\n      dup3\n      and\n        /* \"StakingContract.sol\":17492:17526  StakedToken[] memory _stakedTokens */\n      0x00\n        /* \"StakingContract.sol\":17564:17578  stakers[_user] */\n      swap1\n      dup2\n      mstore\n        /* \"StakingContract.sol\":17564:17571  stakers */\n      0x04\n        /* \"StakingContract.sol\":17564:17578  stakers[_user] */\n      0x20\n      mstore\n      0x40\n      dup2\n      keccak256\n        /* \"StakingContract.sol\":17564:17591  stakers[_user].amountStaked */\n      sload\n        /* \"StakingContract.sol\":17529:17605  new StakedToken[](... */\n      0xffffffffffffffff\n      dup2\n      gt\n      iszero\n      tag_434\n      jumpi\n      tag_434\n      tag_268\n      jump\t// in\n    tag_434:\n      mload(0x40)\n      swap1\n      dup1\n      dup3\n      mstore\n      dup1\n      0x20\n      mul\n      0x20\n      add\n      dup3\n      add\n      0x40\n      mstore\n      dup1\n      iszero\n      tag_435\n      jumpi\n      dup2\n      0x20\n      add\n    tag_436:\n      0x40\n      dup1\n      mload\n      dup1\n      dup3\n      add\n      swap1\n      swap2\n      mstore\n      0x00\n      dup1\n      dup3\n      mstore\n      0x20\n      dup3\n      add\n      mstore\n      dup2\n      mstore\n      0x20\n      add\n      swap1\n      0x01\n      swap1\n      sub\n      swap1\n      dup2\n      tag_436\n      jumpi\n      swap1\n      pop\n    tag_435:\n      pop\n        /* \"StakingContract.sol\":17492:17605  StakedToken[] memory _stakedTokens = new StakedToken[](... */\n      swap1\n      pop\n        /* \"StakingContract.sol\":17619:17633  uint256 _index */\n      0x00\n        /* \"StakingContract.sol\":17674:17683  uint256 j */\n      dup1\n        /* \"StakingContract.sol\":17652:18004  for (... */\n    tag_438:\n      sub(shl(0xa0, 0x01), 0x01)\n        /* \"StakingContract.sol\":17709:17723  stakers[_user] */\n      dup6\n      and\n      0x00\n      swap1\n      dup2\n      mstore\n        /* \"StakingContract.sol\":17709:17716  stakers */\n      0x04\n        /* \"StakingContract.sol\":17709:17723  stakers[_user] */\n      0x20\n      mstore\n      0x40\n      swap1\n      keccak256\n        /* \"StakingContract.sol\":17709:17739  stakers[_user].stakedCatTokens */\n      0x02\n      add\n        /* \"StakingContract.sol\":17709:17746  stakers[_user].stakedCatTokens.length */\n      sload\n        /* \"StakingContract.sol\":17705:17746  j < stakers[_user].stakedCatTokens.length */\n      dup2\n      lt\n        /* \"StakingContract.sol\":17652:18004  for (... */\n      iszero\n      tag_274\n      jumpi\n      sub(shl(0xa0, 0x01), 0x01)\n        /* \"StakingContract.sol\":17804:17818  stakers[_user] */\n      dup6\n      and\n        /* \"StakingContract.sol\":17857:17858  0 */\n      0x00\n        /* \"StakingContract.sol\":17804:17818  stakers[_user] */\n      swap1\n      dup2\n      mstore\n        /* \"StakingContract.sol\":17804:17811  stakers */\n      0x04\n        /* \"StakingContract.sol\":17804:17818  stakers[_user] */\n      0x20\n      mstore\n      0x40\n      dup2\n      keccak256\n        /* \"StakingContract.sol\":17804:17834  stakers[_user].stakedCatTokens */\n      0x02\n      add\n        /* \"StakingContract.sol\":17804:17837  stakers[_user].stakedCatTokens[j] */\n      dup1\n      sload\n        /* \"StakingContract.sol\":17835:17836  j */\n      dup4\n      swap1\n        /* \"StakingContract.sol\":17804:17837  stakers[_user].stakedCatTokens[j] */\n      dup2\n      lt\n      tag_442\n      jumpi\n      tag_442\n      tag_153\n      jump\t// in\n    tag_442:\n      0x00\n      swap2\n      dup3\n      mstore\n      0x20\n      swap1\n      swap2\n      keccak256\n      0x02\n      swap1\n      swap2\n      mul\n      add\n        /* \"StakingContract.sol\":17804:17844  stakers[_user].stakedCatTokens[j].staker */\n      sload\n      sub(shl(0xa0, 0x01), 0x01)\n      and\n        /* \"StakingContract.sol\":17804:17860  stakers[_user].stakedCatTokens[j].staker != (address(0)) */\n      eq\n        /* \"StakingContract.sol\":17800:17990  if (stakers[_user].stakedCatTokens[j].staker != (address(0))) {... */\n      tag_444\n      jumpi\n      sub(shl(0xa0, 0x01), 0x01)\n        /* \"StakingContract.sol\":17908:17922  stakers[_user] */\n      dup6\n      and\n      0x00\n      swap1\n      dup2\n      mstore\n        /* \"StakingContract.sol\":17908:17915  stakers */\n      0x04\n        /* \"StakingContract.sol\":17908:17922  stakers[_user] */\n      0x20\n      mstore\n      0x40\n      swap1\n      keccak256\n        /* \"StakingContract.sol\":17908:17938  stakers[_user].stakedCatTokens */\n      0x02\n      add\n        /* \"StakingContract.sol\":17908:17941  stakers[_user].stakedCatTokens[j] */\n      dup1\n      sload\n        /* \"StakingContract.sol\":17939:17940  j */\n      dup3\n      swap1\n        /* \"StakingContract.sol\":17908:17941  stakers[_user].stakedCatTokens[j] */\n      dup2\n      lt\n      tag_446\n      jumpi\n      tag_446\n      tag_153\n      jump\t// in\n    tag_446:\n      0x00\n      swap2\n      dup3\n      mstore\n      0x20\n      swap2\n      dup3\n      swap1\n      keccak256\n        /* \"StakingContract.sol\":17884:17941  _stakedTokens[_index] = stakers[_user].stakedCatTokens[j] */\n      0x40\n      dup1\n      mload\n      dup1\n      dup3\n      add\n      swap1\n      swap2\n      mstore\n        /* \"StakingContract.sol\":17908:17941  stakers[_user].stakedCatTokens[j] */\n      0x02\n      swap1\n      swap3\n      mul\n      add\n        /* \"StakingContract.sol\":17884:17941  _stakedTokens[_index] = stakers[_user].stakedCatTokens[j] */\n      dup1\n      sload\n      sub(shl(0xa0, 0x01), 0x01)\n      and\n      dup3\n      mstore\n      0x01\n      add\n      sload\n      swap2\n      dup2\n      add\n      swap2\n      swap1\n      swap2\n      mstore\n        /* \"StakingContract.sol\":17884:17905  _stakedTokens[_index] */\n      dup4\n      mload\n        /* \"StakingContract.sol\":17884:17897  _stakedTokens */\n      dup5\n      swap1\n        /* \"StakingContract.sol\":17898:17904  _index */\n      dup5\n      swap1\n        /* \"StakingContract.sol\":17884:17905  _stakedTokens[_index] */\n      dup2\n      lt\n      tag_449\n      jumpi\n      tag_449\n      tag_153\n      jump\t// in\n    tag_449:\n      0x20\n      mul\n      0x20\n      add\n      add\n        /* \"StakingContract.sol\":17884:17941  _stakedTokens[_index] = stakers[_user].stakedCatTokens[j] */\n      dup2\n      swap1\n      mstore\n      pop\n        /* \"StakingContract.sol\":17963:17971  _index++ */\n      dup2\n      dup1\n      tag_450\n      swap1\n      tag_161\n      jump\t// in\n    tag_450:\n      swap3\n      pop\n      pop\n        /* \"StakingContract.sol\":17800:17990  if (stakers[_user].stakedCatTokens[j].staker != (address(0))) {... */\n    tag_444:\n        /* \"StakingContract.sol\":17764:17767  j++ */\n      dup1\n      tag_451\n      dup2\n      tag_161\n      jump\t// in\n    tag_451:\n      swap2\n      pop\n      pop\n        /* \"StakingContract.sol\":17652:18004  for (... */\n      jump(tag_438)\n        /* \"@openzeppelin/contracts/access/Ownable.sol\":2081:2279   */\n    tag_121:\n        /* \"@openzeppelin/contracts/access/Ownable.sol\":1094:1107   */\n      tag_459\n        /* \"@openzeppelin/contracts/access/Ownable.sol\":1094:1105   */\n      tag_245\n        /* \"@openzeppelin/contracts/access/Ownable.sol\":1094:1107   */\n      jump\t// in\n    tag_459:\n      sub(shl(0xa0, 0x01), 0x01)\n        /* \"@openzeppelin/contracts/access/Ownable.sol\":2169:2191   */\n      dup2\n      and\n        /* \"@openzeppelin/contracts/access/Ownable.sol\":2161:2234   */\n      tag_461\n      jumpi\n      mload(0x40)\n      shl(0xe5, 0x461bcd)\n      dup2\n      mstore\n        /* \"#utility.yul\":7109:7111   */\n      0x20\n        /* \"@openzeppelin/contracts/access/Ownable.sol\":2161:2234   */\n      0x04\n      dup3\n      add\n        /* \"#utility.yul\":7091:7112   */\n      mstore\n        /* \"#utility.yul\":7148:7150   */\n      0x26\n        /* \"#utility.yul\":7128:7146   */\n      0x24\n      dup3\n      add\n        /* \"#utility.yul\":7121:7151   */\n      mstore\n        /* \"#utility.yul\":7187:7221   */\n      0x4f776e61626c653a206e6577206f776e657220697320746865207a65726f2061\n        /* \"#utility.yul\":7167:7185   */\n      0x44\n      dup3\n      add\n        /* \"#utility.yul\":7160:7222   */\n      mstore\n        /* \"#utility.yul\":7258:7266   */\n      0x6464726573730000000000000000000000000000000000000000000000000000\n        /* \"#utility.yul\":7238:7256   */\n      0x64\n      dup3\n      add\n        /* \"#utility.yul\":7231:7267   */\n      mstore\n        /* \"#utility.yul\":7284:7303   */\n      0x84\n      add\n        /* \"@openzeppelin/contracts/access/Ownable.sol\":2161:2234   */\n      tag_133\n        /* \"#utility.yul\":6907:7309   */\n      jump\n        /* \"@openzeppelin/contracts/access/Ownable.sol\":2161:2234   */\n    tag_461:\n        /* \"@openzeppelin/contracts/access/Ownable.sol\":2244:2272   */\n      tag_262\n        /* \"@openzeppelin/contracts/access/Ownable.sol\":2263:2271   */\n      dup2\n        /* \"@openzeppelin/contracts/access/Ownable.sol\":2244:2262   */\n      tag_325\n        /* \"@openzeppelin/contracts/access/Ownable.sol\":2244:2272   */\n      jump\t// in\n        /* \"StakingContract.sol\":15042:15247  function availableRewards(address _staker) public view returns (uint256) {... */\n    tag_125:\n      sub(shl(0xa0, 0x01), 0x01)\n        /* \"StakingContract.sol\":15183:15199  stakers[_staker] */\n      dup2\n      and\n        /* \"StakingContract.sol\":15106:15113  uint256 */\n      0x00\n        /* \"StakingContract.sol\":15183:15199  stakers[_staker] */\n      swap1\n      dup2\n      mstore\n        /* \"StakingContract.sol\":15183:15190  stakers */\n      0x04\n        /* \"StakingContract.sol\":15183:15199  stakers[_staker] */\n      0x20\n      mstore\n      0x40\n      dup2\n      keccak256\n        /* \"StakingContract.sol\":15183:15216  stakers[_staker].unclaimedRewards */\n      0x06\n      add\n      sload\n        /* \"StakingContract.sol\":15106:15113  uint256 */\n      dup2\n      swap1\n        /* \"StakingContract.sol\":15143:15168  calculateRewards(_staker) */\n      tag_466\n        /* \"StakingContract.sol\":15191:15198  _staker */\n      dup5\n        /* \"StakingContract.sol\":15143:15159  calculateRewards */\n      tag_145\n        /* \"StakingContract.sol\":15143:15168  calculateRewards(_staker) */\n      jump\t// in\n    tag_466:\n        /* \"StakingContract.sol\":15143:15216  calculateRewards(_staker) +... */\n      tag_467\n      swap2\n      swap1\n      tag_147\n      jump\t// in\n    tag_467:\n        /* \"StakingContract.sol\":15125:15216  uint256 rewards = calculateRewards(_staker) +... */\n      swap4\n        /* \"StakingContract.sol\":15042:15247  function availableRewards(address _staker) public view returns (uint256) {... */\n      swap3\n      pop\n      pop\n      pop\n      jump\t// out\n        /* \"@openzeppelin/contracts/security/ReentrancyGuard.sol\":2336:2623   */\n    tag_130:\n        /* \"@openzeppelin/contracts/security/ReentrancyGuard.sol\":1759:1760   */\n      0x02\n        /* \"@openzeppelin/contracts/security/ReentrancyGuard.sol\":2468:2475   */\n      sload(0x00)\n        /* \"@openzeppelin/contracts/security/ReentrancyGuard.sol\":2468:2487   */\n      sub\n        /* \"@openzeppelin/contracts/security/ReentrancyGuard.sol\":2460:2523   */\n      tag_469\n      jumpi\n      mload(0x40)\n      shl(0xe5, 0x461bcd)\n      dup2\n      mstore\n        /* \"#utility.yul\":7516:7518   */\n      0x20\n        /* \"@openzeppelin/contracts/security/ReentrancyGuard.sol\":2460:2523   */\n      0x04\n      dup3\n      add\n        /* \"#utility.yul\":7498:7519   */\n      mstore\n        /* \"#utility.yul\":7555:7557   */\n      0x1f\n        /* \"#utility.yul\":7535:7553   */\n      0x24\n      dup3\n      add\n        /* \"#utility.yul\":7528:7558   */\n      mstore\n        /* \"#utility.yul\":7594:7627   */\n      0x5265656e7472616e637947756172643a207265656e7472616e742063616c6c00\n        /* \"#utility.yul\":7574:7592   */\n      0x44\n      dup3\n      add\n        /* \"#utility.yul\":7567:7628   */\n      mstore\n        /* \"#utility.yul\":7645:7663   */\n      0x64\n      add\n        /* \"@openzeppelin/contracts/security/ReentrancyGuard.sol\":2460:2523   */\n      tag_133\n        /* \"#utility.yul\":7314:7669   */\n      jump\n        /* \"@openzeppelin/contracts/security/ReentrancyGuard.sol\":2460:2523   */\n    tag_469:\n        /* \"@openzeppelin/contracts/security/ReentrancyGuard.sol\":1759:1760   */\n      0x02\n        /* \"@openzeppelin/contracts/security/ReentrancyGuard.sol\":2598:2605   */\n      0x00\n        /* \"@openzeppelin/contracts/security/ReentrancyGuard.sol\":2598:2616   */\n      sstore\n        /* \"@openzeppelin/contracts/security/ReentrancyGuard.sol\":2336:2623   */\n      jump\t// out\n        /* \"StakingContract.sol\":19386:19677  function calculateRewards(address _staker)... */\n    tag_145:\n        /* \"StakingContract.sol\":19647:19661  rewardsPerHour */\n      sload(0x03)\n      sub(shl(0xa0, 0x01), 0x01)\n        /* \"StakingContract.sol\":19604:19620  stakers[_staker] */\n      dup3\n      and\n        /* \"StakingContract.sol\":19476:19492  uint256 _rewards */\n      0x00\n        /* \"StakingContract.sol\":19604:19620  stakers[_staker] */\n      swap1\n      dup2\n      mstore\n        /* \"StakingContract.sol\":19604:19611  stakers */\n      0x04\n        /* \"StakingContract.sol\":19604:19620  stakers[_staker] */\n      0x20\n      mstore\n      0x40\n      dup2\n      keccak256\n        /* \"StakingContract.sol\":19604:19633  stakers[_staker].amountStaked */\n      dup1\n      sload\n        /* \"StakingContract.sol\":19551:19584  stakers[_staker].timeOfLastUpdate */\n      0x05\n      swap1\n      swap2\n      add\n      sload\n        /* \"StakingContract.sol\":19476:19492  uint256 _rewards */\n      swap2\n      swap3\n        /* \"StakingContract.sol\":19665:19669  3600 */\n      0x0e10\n      swap3\n        /* \"StakingContract.sol\":19647:19661  rewardsPerHour */\n      swap1\n      swap2\n        /* \"StakingContract.sol\":19604:19633  stakers[_staker].amountStaked */\n      swap1\n        /* \"StakingContract.sol\":19533:19584  block.timestamp - stakers[_staker].timeOfLastUpdate */\n      tag_473\n      swap1\n        /* \"StakingContract.sol\":19533:19548  block.timestamp */\n      timestamp\n        /* \"StakingContract.sol\":19533:19584  block.timestamp - stakers[_staker].timeOfLastUpdate */\n      tag_474\n      jump\t// in\n    tag_473:\n        /* \"StakingContract.sol\":19532:19633  (block.timestamp - stakers[_staker].timeOfLastUpdate) *... */\n      tag_475\n      swap2\n      swap1\n      tag_476\n      jump\t// in\n    tag_475:\n        /* \"StakingContract.sol\":19517:19661  (... */\n      tag_477\n      swap2\n      swap1\n      tag_476\n      jump\t// in\n    tag_477:\n        /* \"StakingContract.sol\":19516:19669  ((... */\n      tag_478\n      swap2\n      swap1\n      tag_479\n      jump\t// in\n    tag_478:\n        /* \"StakingContract.sol\":19508:19670  return (((... */\n      swap3\n        /* \"StakingContract.sol\":19386:19677  function calculateRewards(address _staker)... */\n      swap2\n      pop\n      pop\n      jump\t// out\n        /* \"@openzeppelin/contracts/access/Ownable.sol\":1359:1489   */\n    tag_245:\n        /* \"@openzeppelin/contracts/access/Ownable.sol\":1273:1279   */\n      and(sub(shl(0xa0, 0x01), 0x01), sload(0x01))\n        /* \"@openzeppelin/contracts/utils/Context.sol\":719:729   */\n      caller\n        /* \"@openzeppelin/contracts/access/Ownable.sol\":1422:1445   */\n      eq\n        /* \"@openzeppelin/contracts/access/Ownable.sol\":1414:1482   */\n      tag_324\n      jumpi\n      mload(0x40)\n      shl(0xe5, 0x461bcd)\n      dup2\n      mstore\n        /* \"#utility.yul\":8404:8406   */\n      0x20\n        /* \"@openzeppelin/contracts/access/Ownable.sol\":1414:1482   */\n      0x04\n      dup3\n      add\n        /* \"#utility.yul\":8386:8407   */\n      dup2\n      swap1\n      mstore\n        /* \"#utility.yul\":8423:8441   */\n      0x24\n      dup3\n      add\n        /* \"#utility.yul\":8416:8446   */\n      mstore\n        /* \"#utility.yul\":8482:8516   */\n      0x4f776e61626c653a2063616c6c6572206973206e6f7420746865206f776e6572\n        /* \"#utility.yul\":8462:8480   */\n      0x44\n      dup3\n      add\n        /* \"#utility.yul\":8455:8517   */\n      mstore\n        /* \"#utility.yul\":8534:8552   */\n      0x64\n      add\n        /* \"@openzeppelin/contracts/access/Ownable.sol\":1414:1482   */\n      tag_133\n        /* \"#utility.yul\":8202:8558   */\n      jump\n        /* \"@openzeppelin/contracts/token/ERC20/utils/SafeERC20.sol\":763:968   */\n    tag_263:\n        /* \"@openzeppelin/contracts/token/ERC20/utils/SafeERC20.sol\":902:960   */\n      0x40\n      dup1\n      mload\n      sub(shl(0xa0, 0x01), 0x01)\n        /* \"#utility.yul\":8755:8810   */\n      dup5\n      and\n        /* \"@openzeppelin/contracts/token/ERC20/utils/SafeERC20.sol\":902:960   */\n      0x24\n      dup3\n      add\n        /* \"#utility.yul\":8737:8811   */\n      mstore\n        /* \"#utility.yul\":8827:8845   */\n      0x44\n      dup1\n      dup3\n      add\n        /* \"#utility.yul\":8820:8854   */\n      dup5\n      swap1\n      mstore\n        /* \"@openzeppelin/contracts/token/ERC20/utils/SafeERC20.sol\":902:960   */\n      dup3\n      mload\n      dup1\n      dup4\n      sub\n      swap1\n      swap2\n      add\n      dup2\n      mstore\n        /* \"#utility.yul\":8710:8728   */\n      0x64\n      swap1\n      swap2\n      add\n        /* \"@openzeppelin/contracts/token/ERC20/utils/SafeERC20.sol\":902:960   */\n      swap1\n      swap2\n      mstore\n      0x20\n      dup2\n      add\n      dup1\n      mload\n      0xffffffffffffffffffffffffffffffffffffffffffffffffffffffff\n      and\n      shl(0xe0, 0xa9059cbb)\n      or\n      swap1\n      mstore\n        /* \"@openzeppelin/contracts/token/ERC20/utils/SafeERC20.sol\":875:961   */\n      tag_489\n      swap1\n        /* \"@openzeppelin/contracts/token/ERC20/utils/SafeERC20.sol\":895:900   */\n      dup5\n      swap1\n        /* \"@openzeppelin/contracts/token/ERC20/utils/SafeERC20.sol\":875:894   */\n      tag_492\n        /* \"@openzeppelin/contracts/token/ERC20/utils/SafeERC20.sol\":875:961   */\n      jump\t// in\n    tag_489:\n        /* \"@openzeppelin/contracts/token/ERC20/utils/SafeERC20.sol\":763:968   */\n      pop\n      pop\n      pop\n      jump\t// out\n        /* \"@openzeppelin/contracts/access/Ownable.sol\":2433:2620   */\n    tag_325:\n        /* \"@openzeppelin/contracts/access/Ownable.sol\":2525:2531   */\n      0x01\n      dup1\n      sload\n      sub(shl(0xa0, 0x01), 0x01)\n        /* \"@openzeppelin/contracts/access/Ownable.sol\":2541:2558   */\n      dup4\n      dup2\n      and\n      not(sub(shl(0xa0, 0x01), 0x01))\n      dup4\n      and\n      dup2\n      or\n      swap1\n      swap4\n      sstore\n        /* \"@openzeppelin/contracts/access/Ownable.sol\":2573:2613   */\n      mload(0x40)\n        /* \"@openzeppelin/contracts/access/Ownable.sol\":2525:2531   */\n      swap2\n      and\n      swap2\n        /* \"@openzeppelin/contracts/access/Ownable.sol\":2541:2558   */\n      swap1\n        /* \"@openzeppelin/contracts/access/Ownable.sol\":2525:2531   */\n      dup3\n      swap1\n        /* \"@openzeppelin/contracts/access/Ownable.sol\":2573:2613   */\n      0x8be0079c531659141344cd1fd0a4f28419497f9722a3daafe3b4186f6b6457e0\n      swap1\n        /* \"@openzeppelin/contracts/access/Ownable.sol\":2506:2522   */\n      0x00\n      swap1\n        /* \"@openzeppelin/contracts/access/Ownable.sol\":2573:2613   */\n      log3\n        /* \"@openzeppelin/contracts/access/Ownable.sol\":2496:2620   */\n      pop\n        /* \"@openzeppelin/contracts/access/Ownable.sol\":2433:2620   */\n      pop\n      jump\t// out\n        /* \"@openzeppelin/contracts/token/ERC20/utils/SafeERC20.sol\":3747:4453   */\n    tag_492:\n        /* \"@openzeppelin/contracts/token/ERC20/utils/SafeERC20.sol\":4166:4189   */\n      0x00\n        /* \"@openzeppelin/contracts/token/ERC20/utils/SafeERC20.sol\":4192:4261   */\n      tag_496\n        /* \"@openzeppelin/contracts/token/ERC20/utils/SafeERC20.sol\":4220:4224   */\n      dup3\n        /* \"@openzeppelin/contracts/token/ERC20/utils/SafeERC20.sol\":4192:4261   */\n      mload(0x40)\n      dup1\n      0x40\n      add\n      0x40\n      mstore\n      dup1\n      0x20\n      dup2\n      mstore\n      0x20\n      add\n      0x5361666545524332303a206c6f772d6c6576656c2063616c6c206661696c6564\n      dup2\n      mstore\n      pop\n        /* \"@openzeppelin/contracts/token/ERC20/utils/SafeERC20.sol\":4200:4205   */\n      dup6\n      sub(shl(0xa0, 0x01), 0x01)\n        /* \"@openzeppelin/contracts/token/ERC20/utils/SafeERC20.sol\":4192:4219   */\n      and\n      tag_497\n      swap1\n        /* \"@openzeppelin/contracts/token/ERC20/utils/SafeERC20.sol\":4192:4261   */\n      swap3\n      swap2\n      swap1\n      0xffffffff\n      and\n      jump\t// in\n    tag_496:\n        /* \"@openzeppelin/contracts/token/ERC20/utils/SafeERC20.sol\":4275:4292   */\n      dup1\n      mload\n        /* \"@openzeppelin/contracts/token/ERC20/utils/SafeERC20.sol\":4166:4261   */\n      swap1\n      swap2\n      pop\n        /* \"@openzeppelin/contracts/token/ERC20/utils/SafeERC20.sol\":4275:4296   */\n      iszero\n        /* \"@openzeppelin/contracts/token/ERC20/utils/SafeERC20.sol\":4271:4447   */\n      tag_489\n      jumpi\n        /* \"@openzeppelin/contracts/token/ERC20/utils/SafeERC20.sol\":4370:4380   */\n      dup1\n        /* \"@openzeppelin/contracts/token/ERC20/utils/SafeERC20.sol\":4359:4389   */\n      dup1\n      0x20\n      add\n      swap1\n      mload\n      dup2\n      add\n      swap1\n      tag_499\n      swap2\n      swap1\n      tag_500\n      jump\t// in\n    tag_499:\n        /* \"@openzeppelin/contracts/token/ERC20/utils/SafeERC20.sol\":4351:4436   */\n      tag_489\n      jumpi\n      mload(0x40)\n      shl(0xe5, 0x461bcd)\n      dup2\n      mstore\n        /* \"#utility.yul\":9349:9351   */\n      0x20\n        /* \"@openzeppelin/contracts/token/ERC20/utils/SafeERC20.sol\":4351:4436   */\n      0x04\n      dup3\n      add\n        /* \"#utility.yul\":9331:9352   */\n      mstore\n        /* \"#utility.yul\":9388:9390   */\n      0x2a\n        /* \"#utility.yul\":9368:9386   */\n      0x24\n      dup3\n      add\n        /* \"#utility.yul\":9361:9391   */\n      mstore\n        /* \"#utility.yul\":9427:9461   */\n      0x5361666545524332303a204552433230206f7065726174696f6e20646964206e\n        /* \"#utility.yul\":9407:9425   */\n      0x44\n      dup3\n      add\n        /* \"#utility.yul\":9400:9462   */\n      mstore\n        /* \"#utility.yul\":9498:9510   */\n      0x6f74207375636365656400000000000000000000000000000000000000000000\n        /* \"#utility.yul\":9478:9496   */\n      0x64\n      dup3\n      add\n        /* \"#utility.yul\":9471:9511   */\n      mstore\n        /* \"#utility.yul\":9528:9547   */\n      0x84\n      add\n        /* \"@openzeppelin/contracts/token/ERC20/utils/SafeERC20.sol\":4351:4436   */\n      tag_133\n        /* \"#utility.yul\":9147:9553   */\n      jump\n        /* \"@openzeppelin/contracts/utils/Address.sol\":3873:4096   */\n    tag_497:\n        /* \"@openzeppelin/contracts/utils/Address.sol\":4006:4018   */\n      0x60\n        /* \"@openzeppelin/contracts/utils/Address.sol\":4037:4089   */\n      tag_505\n        /* \"@openzeppelin/contracts/utils/Address.sol\":4059:4065   */\n      dup5\n        /* \"@openzeppelin/contracts/utils/Address.sol\":4067:4071   */\n      dup5\n        /* \"@openzeppelin/contracts/utils/Address.sol\":4073:4074   */\n      0x00\n        /* \"@openzeppelin/contracts/utils/Address.sol\":4076:4088   */\n      dup6\n        /* \"@openzeppelin/contracts/utils/Address.sol\":4037:4058   */\n      tag_506\n        /* \"@openzeppelin/contracts/utils/Address.sol\":4037:4089   */\n      jump\t// in\n    tag_505:\n        /* \"@openzeppelin/contracts/utils/Address.sol\":4030:4089   */\n      swap5\n        /* \"@openzeppelin/contracts/utils/Address.sol\":3873:4096   */\n      swap4\n      pop\n      pop\n      pop\n      pop\n      jump\t// out\n        /* \"@openzeppelin/contracts/utils/Address.sol\":4960:5406   */\n    tag_506:\n        /* \"@openzeppelin/contracts/utils/Address.sol\":5125:5137   */\n      0x60\n        /* \"@openzeppelin/contracts/utils/Address.sol\":5182:5187   */\n      dup3\n        /* \"@openzeppelin/contracts/utils/Address.sol\":5157:5178   */\n      selfbalance\n        /* \"@openzeppelin/contracts/utils/Address.sol\":5157:5187   */\n      lt\n      iszero\n        /* \"@openzeppelin/contracts/utils/Address.sol\":5149:5230   */\n      tag_508\n      jumpi\n      mload(0x40)\n      shl(0xe5, 0x461bcd)\n      dup2\n      mstore\n        /* \"#utility.yul\":9760:9762   */\n      0x20\n        /* \"@openzeppelin/contracts/utils/Address.sol\":5149:5230   */\n      0x04\n      dup3\n      add\n        /* \"#utility.yul\":9742:9763   */\n      mstore\n        /* \"#utility.yul\":9799:9801   */\n      0x26\n        /* \"#utility.yul\":9779:9797   */\n      0x24\n      dup3\n      add\n        /* \"#utility.yul\":9772:9802   */\n      mstore\n        /* \"#utility.yul\":9838:9872   */\n      0x416464726573733a20696e73756666696369656e742062616c616e636520666f\n        /* \"#utility.yul\":9818:9836   */\n      0x44\n      dup3\n      add\n        /* \"#utility.yul\":9811:9873   */\n      mstore\n        /* \"#utility.yul\":9909:9917   */\n      0x722063616c6c0000000000000000000000000000000000000000000000000000\n        /* \"#utility.yul\":9889:9907   */\n      0x64\n      dup3\n      add\n        /* \"#utility.yul\":9882:9918   */\n      mstore\n        /* \"#utility.yul\":9935:9954   */\n      0x84\n      add\n        /* \"@openzeppelin/contracts/utils/Address.sol\":5149:5230   */\n      tag_133\n        /* \"#utility.yul\":9558:9960   */\n      jump\n        /* \"@openzeppelin/contracts/utils/Address.sol\":5149:5230   */\n    tag_508:\n        /* \"@openzeppelin/contracts/utils/Address.sol\":5241:5253   */\n      0x00\n        /* \"@openzeppelin/contracts/utils/Address.sol\":5255:5278   */\n      dup1\n        /* \"@openzeppelin/contracts/utils/Address.sol\":5282:5288   */\n      dup7\n      sub(shl(0xa0, 0x01), 0x01)\n        /* \"@openzeppelin/contracts/utils/Address.sol\":5282:5293   */\n      and\n        /* \"@openzeppelin/contracts/utils/Address.sol\":5301:5306   */\n      dup6\n        /* \"@openzeppelin/contracts/utils/Address.sol\":5308:5312   */\n      dup8\n        /* \"@openzeppelin/contracts/utils/Address.sol\":5282:5313   */\n      mload(0x40)\n      tag_511\n      swap2\n      swap1\n      tag_512\n      jump\t// in\n    tag_511:\n      0x00\n      mload(0x40)\n      dup1\n      dup4\n      sub\n      dup2\n      dup6\n      dup8\n      gas\n      call\n      swap3\n      pop\n      pop\n      pop\n      returndatasize\n      dup1\n      0x00\n      dup2\n      eq\n      tag_515\n      jumpi\n      mload(0x40)\n      swap2\n      pop\n      and(add(returndatasize, 0x3f), not(0x1f))\n      dup3\n      add\n      0x40\n      mstore\n      returndatasize\n      dup3\n      mstore\n      returndatasize\n      0x00\n      0x20\n      dup5\n      add\n      returndatacopy\n      jump(tag_514)\n    tag_515:\n      0x60\n      swap2\n      pop\n    tag_514:\n      pop\n        /* \"@openzeppelin/contracts/utils/Address.sol\":5240:5313   */\n      swap2\n      pop\n      swap2\n      pop\n        /* \"@openzeppelin/contracts/utils/Address.sol\":5330:5399   */\n      tag_516\n        /* \"@openzeppelin/contracts/utils/Address.sol\":5357:5363   */\n      dup8\n        /* \"@openzeppelin/contracts/utils/Address.sol\":5365:5372   */\n      dup4\n        /* \"@openzeppelin/contracts/utils/Address.sol\":5374:5384   */\n      dup4\n        /* \"@openzeppelin/contracts/utils/Address.sol\":5386:5398   */\n      dup8\n        /* \"@openzeppelin/contracts/utils/Address.sol\":5330:5356   */\n      tag_517\n        /* \"@openzeppelin/contracts/utils/Address.sol\":5330:5399   */\n      jump\t// in\n    tag_516:\n        /* \"@openzeppelin/contracts/utils/Address.sol\":5323:5399   */\n      swap8\n        /* \"@openzeppelin/contracts/utils/Address.sol\":4960:5406   */\n      swap7\n      pop\n      pop\n      pop\n      pop\n      pop\n      pop\n      pop\n      jump\t// out\n        /* \"@openzeppelin/contracts/utils/Address.sol\":7466:8094   */\n    tag_517:\n        /* \"@openzeppelin/contracts/utils/Address.sol\":7646:7658   */\n      0x60\n        /* \"@openzeppelin/contracts/utils/Address.sol\":7674:7681   */\n      dup4\n        /* \"@openzeppelin/contracts/utils/Address.sol\":7670:8088   */\n      iszero\n      tag_519\n      jumpi\n        /* \"@openzeppelin/contracts/utils/Address.sol\":7701:7711   */\n      dup3\n        /* \"@openzeppelin/contracts/utils/Address.sol\":7701:7718   */\n      mload\n        /* \"@openzeppelin/contracts/utils/Address.sol\":7722:7723   */\n      0x00\n        /* \"@openzeppelin/contracts/utils/Address.sol\":7701:7723   */\n      sub\n        /* \"@openzeppelin/contracts/utils/Address.sol\":7697:7983   */\n      tag_523\n      jumpi\n      sub(shl(0xa0, 0x01), 0x01)\n        /* \"@openzeppelin/contracts/utils/Address.sol\":1465:1484   */\n      dup6\n      and\n      extcodesize\n        /* \"@openzeppelin/contracts/utils/Address.sol\":7908:7968   */\n      tag_523\n      jumpi\n      mload(0x40)\n      shl(0xe5, 0x461bcd)\n      dup2\n      mstore\n        /* \"#utility.yul\":10714:10716   */\n      0x20\n        /* \"@openzeppelin/contracts/utils/Address.sol\":7908:7968   */\n      0x04\n      dup3\n      add\n        /* \"#utility.yul\":10696:10717   */\n      mstore\n        /* \"#utility.yul\":10753:10755   */\n      0x1d\n        /* \"#utility.yul\":10733:10751   */\n      0x24\n      dup3\n      add\n        /* \"#utility.yul\":10726:10756   */\n      mstore\n        /* \"#utility.yul\":10792:10823   */\n      0x416464726573733a2063616c6c20746f206e6f6e2d636f6e7472616374000000\n        /* \"#utility.yul\":10772:10790   */\n      0x44\n      dup3\n      add\n        /* \"#utility.yul\":10765:10824   */\n      mstore\n        /* \"#utility.yul\":10841:10859   */\n      0x64\n      add\n        /* \"@openzeppelin/contracts/utils/Address.sol\":7908:7968   */\n      tag_133\n        /* \"#utility.yul\":10512:10865   */\n      jump\n        /* \"@openzeppelin/contracts/utils/Address.sol\":7908:7968   */\n    tag_523:\n      pop\n        /* \"@openzeppelin/contracts/utils/Address.sol\":8003:8013   */\n      dup2\n        /* \"@openzeppelin/contracts/utils/Address.sol\":7996:8013   */\n      jump(tag_505)\n        /* \"@openzeppelin/contracts/utils/Address.sol\":7670:8088   */\n    tag_519:\n        /* \"@openzeppelin/contracts/utils/Address.sol\":8044:8077   */\n      tag_505\n        /* \"@openzeppelin/contracts/utils/Address.sol\":8052:8062   */\n      dup4\n        /* \"@openzeppelin/contracts/utils/Address.sol\":8064:8076   */\n      dup4\n        /* \"@openzeppelin/contracts/utils/Address.sol\":8775:8792   */\n      dup2\n      mload\n        /* \"@openzeppelin/contracts/utils/Address.sol\":8775:8796   */\n      iszero\n        /* \"@openzeppelin/contracts/utils/Address.sol\":8771:9150   */\n      tag_531\n      jumpi\n        /* \"@openzeppelin/contracts/utils/Address.sol\":9003:9013   */\n      dup2\n        /* \"@openzeppelin/contracts/utils/Address.sol\":8997:9014   */\n      mload\n        /* \"@openzeppelin/contracts/utils/Address.sol\":9059:9074   */\n      dup1\n        /* \"@openzeppelin/contracts/utils/Address.sol\":9046:9056   */\n      dup4\n        /* \"@openzeppelin/contracts/utils/Address.sol\":9042:9044   */\n      0x20\n        /* \"@openzeppelin/contracts/utils/Address.sol\":9038:9057   */\n      add\n        /* \"@openzeppelin/contracts/utils/Address.sol\":9031:9075   */\n      revert\n        /* \"@openzeppelin/contracts/utils/Address.sol\":8771:9150   */\n    tag_531:\n        /* \"@openzeppelin/contracts/utils/Address.sol\":9126:9138   */\n      dup1\n        /* \"@openzeppelin/contracts/utils/Address.sol\":9119:9139   */\n      mload(0x40)\n      shl(0xe5, 0x461bcd)\n      dup2\n      mstore\n      0x04\n      add\n      tag_133\n      swap2\n      swap1\n      tag_534\n      jump\t// in\n        /* \"#utility.yul\":14:177   */\n    tag_535:\n      sub(shl(0xa0, 0x01), 0x01)\n        /* \"#utility.yul\":102:107   */\n      dup2\n        /* \"#utility.yul\":98:152   */\n      and\n        /* \"#utility.yul\":91:96   */\n      dup2\n        /* \"#utility.yul\":88:153   */\n      eq\n        /* \"#utility.yul\":78:171   */\n      tag_262\n      jumpi\n        /* \"#utility.yul\":167:168   */\n      0x00\n        /* \"#utility.yul\":164:165   */\n      dup1\n        /* \"#utility.yul\":157:169   */\n      revert\n        /* \"#utility.yul\":182:522   */\n    tag_34:\n        /* \"#utility.yul\":266:272   */\n      0x00\n        /* \"#utility.yul\":274:280   */\n      dup1\n        /* \"#utility.yul\":327:329   */\n      0x40\n        /* \"#utility.yul\":315:324   */\n      dup4\n        /* \"#utility.yul\":306:313   */\n      dup6\n        /* \"#utility.yul\":302:325   */\n      sub\n        /* \"#utility.yul\":298:330   */\n      slt\n        /* \"#utility.yul\":295:347   */\n      iszero\n      tag_542\n      jumpi\n        /* \"#utility.yul\":343:344   */\n      0x00\n        /* \"#utility.yul\":340:341   */\n      dup1\n        /* \"#utility.yul\":333:345   */\n      revert\n        /* \"#utility.yul\":295:347   */\n    tag_542:\n        /* \"#utility.yul\":379:388   */\n      dup3\n        /* \"#utility.yul\":366:389   */\n      calldataload\n        /* \"#utility.yul\":356:389   */\n      swap2\n      pop\n        /* \"#utility.yul\":439:441   */\n      0x20\n        /* \"#utility.yul\":428:437   */\n      dup4\n        /* \"#utility.yul\":424:442   */\n      add\n        /* \"#utility.yul\":411:443   */\n      calldataload\n        /* \"#utility.yul\":452:492   */\n      tag_543\n        /* \"#utility.yul\":486:491   */\n      dup2\n        /* \"#utility.yul\":452:492   */\n      tag_535\n      jump\t// in\n    tag_543:\n        /* \"#utility.yul\":511:516   */\n      dup1\n        /* \"#utility.yul\":501:516   */\n      swap2\n      pop\n      pop\n        /* \"#utility.yul\":182:522   */\n      swap3\n      pop\n      swap3\n      swap1\n      pop\n      jump\t// out\n        /* \"#utility.yul\":527:707   */\n    tag_38:\n        /* \"#utility.yul\":586:592   */\n      0x00\n        /* \"#utility.yul\":639:641   */\n      0x20\n        /* \"#utility.yul\":627:636   */\n      dup3\n        /* \"#utility.yul\":618:625   */\n      dup5\n        /* \"#utility.yul\":614:637   */\n      sub\n        /* \"#utility.yul\":610:642   */\n      slt\n        /* \"#utility.yul\":607:659   */\n      iszero\n      tag_545\n      jumpi\n        /* \"#utility.yul\":655:656   */\n      0x00\n        /* \"#utility.yul\":652:653   */\n      dup1\n        /* \"#utility.yul\":645:657   */\n      revert\n        /* \"#utility.yul\":607:659   */\n    tag_545:\n      pop\n        /* \"#utility.yul\":678:701   */\n      calldataload\n      swap2\n        /* \"#utility.yul\":527:707   */\n      swap1\n      pop\n      jump\t// out\n        /* \"#utility.yul\":712:968   */\n    tag_46:\n        /* \"#utility.yul\":771:777   */\n      0x00\n        /* \"#utility.yul\":824:826   */\n      0x20\n        /* \"#utility.yul\":812:821   */\n      dup3\n        /* \"#utility.yul\":803:810   */\n      dup5\n        /* \"#utility.yul\":799:822   */\n      sub\n        /* \"#utility.yul\":795:827   */\n      slt\n        /* \"#utility.yul\":792:844   */\n      iszero\n      tag_547\n      jumpi\n        /* \"#utility.yul\":840:841   */\n      0x00\n        /* \"#utility.yul\":837:838   */\n      dup1\n        /* \"#utility.yul\":830:842   */\n      revert\n        /* \"#utility.yul\":792:844   */\n    tag_547:\n        /* \"#utility.yul\":879:888   */\n      dup2\n        /* \"#utility.yul\":866:889   */\n      calldataload\n        /* \"#utility.yul\":898:938   */\n      tag_467\n        /* \"#utility.yul\":932:937   */\n      dup2\n        /* \"#utility.yul\":898:938   */\n      tag_535\n      jump\t// in\n        /* \"#utility.yul\":973:1814   */\n    tag_49:\n        /* \"#utility.yul\":1198:1200   */\n      0x20\n        /* \"#utility.yul\":1250:1271   */\n      dup1\n      dup3\n      mstore\n        /* \"#utility.yul\":1320:1333   */\n      dup3\n      mload\n        /* \"#utility.yul\":1223:1241   */\n      dup3\n      dup3\n      add\n        /* \"#utility.yul\":1342:1364   */\n      dup2\n      swap1\n      mstore\n        /* \"#utility.yul\":1169:1173   */\n      0x00\n      swap2\n        /* \"#utility.yul\":1198:1200   */\n      swap1\n        /* \"#utility.yul\":1383:1385   */\n      0x40\n      swap1\n        /* \"#utility.yul\":1401:1419   */\n      dup2\n      dup6\n      add\n      swap1\n        /* \"#utility.yul\":1442:1457   */\n      dup7\n      dup5\n      add\n        /* \"#utility.yul\":1169:1173   */\n      dup6\n        /* \"#utility.yul\":1485:1788   */\n    tag_550:\n        /* \"#utility.yul\":1499:1505   */\n      dup3\n        /* \"#utility.yul\":1496:1497   */\n      dup2\n        /* \"#utility.yul\":1493:1506   */\n      lt\n        /* \"#utility.yul\":1485:1788   */\n      iszero\n      tag_552\n      jumpi\n        /* \"#utility.yul\":1558:1571   */\n      dup2\n      mload\n        /* \"#utility.yul\":1600:1609   */\n      dup1\n      mload\n      sub(shl(0xa0, 0x01), 0x01)\n        /* \"#utility.yul\":1596:1654   */\n      and\n        /* \"#utility.yul\":1584:1655   */\n      dup6\n      mstore\n        /* \"#utility.yul\":1695:1706   */\n      dup7\n      add\n        /* \"#utility.yul\":1689:1707   */\n      mload\n        /* \"#utility.yul\":1675:1687   */\n      dup7\n      dup6\n      add\n        /* \"#utility.yul\":1668:1708   */\n      mstore\n        /* \"#utility.yul\":1728:1740   */\n      swap3\n      dup5\n      add\n      swap3\n        /* \"#utility.yul\":1763:1778   */\n      swap1\n      dup6\n      add\n      swap1\n        /* \"#utility.yul\":1521:1522   */\n      0x01\n        /* \"#utility.yul\":1514:1523   */\n      add\n        /* \"#utility.yul\":1485:1788   */\n      jump(tag_550)\n    tag_552:\n      pop\n        /* \"#utility.yul\":1805:1808   */\n      swap2\n      swap8\n        /* \"#utility.yul\":973:1814   */\n      swap7\n      pop\n      pop\n      pop\n      pop\n      pop\n      pop\n      pop\n      jump\t// out\n        /* \"#utility.yul\":3806:3933   */\n    tag_536:\n        /* \"#utility.yul\":3867:3877   */\n      0x4e487b71\n        /* \"#utility.yul\":3862:3865   */\n      0xe0\n        /* \"#utility.yul\":3858:3878   */\n      shl\n        /* \"#utility.yul\":3855:3856   */\n      0x00\n        /* \"#utility.yul\":3848:3879   */\n      mstore\n        /* \"#utility.yul\":3898:3902   */\n      0x11\n        /* \"#utility.yul\":3895:3896   */\n      0x04\n        /* \"#utility.yul\":3888:3903   */\n      mstore\n        /* \"#utility.yul\":3922:3926   */\n      0x24\n        /* \"#utility.yul\":3919:3920   */\n      0x00\n        /* \"#utility.yul\":3912:3927   */\n      revert\n        /* \"#utility.yul\":3938:4063   */\n    tag_147:\n        /* \"#utility.yul\":4003:4012   */\n      dup1\n      dup3\n      add\n        /* \"#utility.yul\":4024:4034   */\n      dup1\n      dup3\n      gt\n        /* \"#utility.yul\":4021:4057   */\n      iszero\n      tag_478\n      jumpi\n        /* \"#utility.yul\":4037:4055   */\n      tag_478\n      tag_536\n      jump\t// in\n        /* \"#utility.yul\":4068:4195   */\n    tag_153:\n        /* \"#utility.yul\":4129:4139   */\n      0x4e487b71\n        /* \"#utility.yul\":4124:4127   */\n      0xe0\n        /* \"#utility.yul\":4120:4140   */\n      shl\n        /* \"#utility.yul\":4117:4118   */\n      0x00\n        /* \"#utility.yul\":4110:4141   */\n      mstore\n        /* \"#utility.yul\":4160:4164   */\n      0x32\n        /* \"#utility.yul\":4157:4158   */\n      0x04\n        /* \"#utility.yul\":4150:4165   */\n      mstore\n        /* \"#utility.yul\":4184:4188   */\n      0x24\n        /* \"#utility.yul\":4181:4182   */\n      0x00\n        /* \"#utility.yul\":4174:4189   */\n      revert\n        /* \"#utility.yul\":4200:4335   */\n    tag_161:\n        /* \"#utility.yul\":4239:4242   */\n      0x00\n        /* \"#utility.yul\":4260:4277   */\n      0x01\n      dup3\n      add\n        /* \"#utility.yul\":4257:4300   */\n      tag_567\n      jumpi\n        /* \"#utility.yul\":4280:4298   */\n      tag_567\n      tag_536\n      jump\t// in\n    tag_567:\n      pop\n        /* \"#utility.yul\":4327:4328   */\n      0x01\n        /* \"#utility.yul\":4316:4329   */\n      add\n      swap1\n        /* \"#utility.yul\":4200:4335   */\n      jump\t// out\n        /* \"#utility.yul\":4340:4476   */\n    tag_166:\n        /* \"#utility.yul\":4379:4382   */\n      0x00\n        /* \"#utility.yul\":4407:4412   */\n      dup2\n        /* \"#utility.yul\":4397:4436   */\n      tag_570\n      jumpi\n        /* \"#utility.yul\":4416:4434   */\n      tag_570\n      tag_536\n      jump\t// in\n    tag_570:\n      pop\n      not(0x00)\n        /* \"#utility.yul\":4452:4470   */\n      add\n      swap1\n        /* \"#utility.yul\":4340:4476   */\n      jump\t// out\n        /* \"#utility.yul\":5796:5923   */\n    tag_268:\n        /* \"#utility.yul\":5857:5867   */\n      0x4e487b71\n        /* \"#utility.yul\":5852:5855   */\n      0xe0\n        /* \"#utility.yul\":5848:5868   */\n      shl\n        /* \"#utility.yul\":5845:5846   */\n      0x00\n        /* \"#utility.yul\":5838:5869   */\n      mstore\n        /* \"#utility.yul\":5888:5892   */\n      0x41\n        /* \"#utility.yul\":5885:5886   */\n      0x04\n        /* \"#utility.yul\":5878:5893   */\n      mstore\n        /* \"#utility.yul\":5912:5916   */\n      0x24\n        /* \"#utility.yul\":5909:5910   */\n      0x00\n        /* \"#utility.yul\":5902:5917   */\n      revert\n        /* \"#utility.yul\":5928:6188   */\n    tag_336:\n        /* \"#utility.yul\":5998:6004   */\n      0x00\n        /* \"#utility.yul\":6051:6053   */\n      0x20\n        /* \"#utility.yul\":6039:6048   */\n      dup3\n        /* \"#utility.yul\":6030:6037   */\n      dup5\n        /* \"#utility.yul\":6026:6049   */\n      sub\n        /* \"#utility.yul\":6022:6054   */\n      slt\n        /* \"#utility.yul\":6019:6071   */\n      iszero\n      tag_577\n      jumpi\n        /* \"#utility.yul\":6067:6068   */\n      0x00\n        /* \"#utility.yul\":6064:6065   */\n      dup1\n        /* \"#utility.yul\":6057:6069   */\n      revert\n        /* \"#utility.yul\":6019:6071   */\n    tag_577:\n        /* \"#utility.yul\":6099:6108   */\n      dup2\n        /* \"#utility.yul\":6093:6109   */\n      mload\n        /* \"#utility.yul\":6118:6158   */\n      tag_467\n        /* \"#utility.yul\":6152:6157   */\n      dup2\n        /* \"#utility.yul\":6118:6158   */\n      tag_535\n      jump\t// in\n        /* \"#utility.yul\":7674:7802   */\n    tag_474:\n        /* \"#utility.yul\":7741:7750   */\n      dup2\n      dup2\n      sub\n        /* \"#utility.yul\":7762:7773   */\n      dup2\n      dup2\n      gt\n        /* \"#utility.yul\":7759:7796   */\n      iszero\n      tag_478\n      jumpi\n        /* \"#utility.yul\":7776:7794   */\n      tag_478\n      tag_536\n      jump\t// in\n        /* \"#utility.yul\":7807:7975   */\n    tag_476:\n        /* \"#utility.yul\":7880:7889   */\n      dup1\n      dup3\n      mul\n        /* \"#utility.yul\":7911:7920   */\n      dup2\n      iszero\n        /* \"#utility.yul\":7928:7943   */\n      dup3\n      dup3\n      div\n        /* \"#utility.yul\":7922:7944   */\n      dup5\n      eq\n        /* \"#utility.yul\":7908:7945   */\n      or\n        /* \"#utility.yul\":7898:7969   */\n      tag_478\n      jumpi\n        /* \"#utility.yul\":7949:7967   */\n      tag_478\n      tag_536\n      jump\t// in\n        /* \"#utility.yul\":7980:8197   */\n    tag_479:\n        /* \"#utility.yul\":8020:8021   */\n      0x00\n        /* \"#utility.yul\":8046:8047   */\n      dup3\n        /* \"#utility.yul\":8036:8168   */\n      tag_590\n      jumpi\n        /* \"#utility.yul\":8090:8100   */\n      0x4e487b71\n        /* \"#utility.yul\":8085:8088   */\n      0xe0\n        /* \"#utility.yul\":8081:8101   */\n      shl\n        /* \"#utility.yul\":8078:8079   */\n      0x00\n        /* \"#utility.yul\":8071:8102   */\n      mstore\n        /* \"#utility.yul\":8125:8129   */\n      0x12\n        /* \"#utility.yul\":8122:8123   */\n      0x04\n        /* \"#utility.yul\":8115:8130   */\n      mstore\n        /* \"#utility.yul\":8153:8157   */\n      0x24\n        /* \"#utility.yul\":8150:8151   */\n      0x00\n        /* \"#utility.yul\":8143:8158   */\n      revert\n        /* \"#utility.yul\":8036:8168   */\n    tag_590:\n      pop\n        /* \"#utility.yul\":8182:8191   */\n      div\n      swap1\n        /* \"#utility.yul\":7980:8197   */\n      jump\t// out\n        /* \"#utility.yul\":8865:9142   */\n    tag_500:\n        /* \"#utility.yul\":8932:8938   */\n      0x00\n        /* \"#utility.yul\":8985:8987   */\n      0x20\n        /* \"#utility.yul\":8973:8982   */\n      dup3\n        /* \"#utility.yul\":8964:8971   */\n      dup5\n        /* \"#utility.yul\":8960:8983   */\n      sub\n        /* \"#utility.yul\":8956:8988   */\n      slt\n        /* \"#utility.yul\":8953:9005   */\n      iszero\n      tag_594\n      jumpi\n        /* \"#utility.yul\":9001:9002   */\n      0x00\n        /* \"#utility.yul\":8998:8999   */\n      dup1\n        /* \"#utility.yul\":8991:9003   */\n      revert\n        /* \"#utility.yul\":8953:9005   */\n    tag_594:\n        /* \"#utility.yul\":9033:9042   */\n      dup2\n        /* \"#utility.yul\":9027:9043   */\n      mload\n        /* \"#utility.yul\":9086:9091   */\n      dup1\n        /* \"#utility.yul\":9079:9092   */\n      iszero\n        /* \"#utility.yul\":9072:9093   */\n      iszero\n        /* \"#utility.yul\":9065:9070   */\n      dup2\n        /* \"#utility.yul\":9062:9094   */\n      eq\n        /* \"#utility.yul\":9052:9112   */\n      tag_467\n      jumpi\n        /* \"#utility.yul\":9108:9109   */\n      0x00\n        /* \"#utility.yul\":9105:9106   */\n      dup1\n        /* \"#utility.yul\":9098:9110   */\n      revert\n        /* \"#utility.yul\":9965:10215   */\n    tag_537:\n        /* \"#utility.yul\":10050:10051   */\n      0x00\n        /* \"#utility.yul\":10060:10173   */\n    tag_599:\n        /* \"#utility.yul\":10074:10080   */\n      dup4\n        /* \"#utility.yul\":10071:10072   */\n      dup2\n        /* \"#utility.yul\":10068:10081   */\n      lt\n        /* \"#utility.yul\":10060:10173   */\n      iszero\n      tag_601\n      jumpi\n        /* \"#utility.yul\":10150:10161   */\n      dup2\n      dup2\n      add\n        /* \"#utility.yul\":10144:10162   */\n      mload\n        /* \"#utility.yul\":10131:10142   */\n      dup4\n      dup3\n      add\n        /* \"#utility.yul\":10124:10163   */\n      mstore\n        /* \"#utility.yul\":10096:10098   */\n      0x20\n        /* \"#utility.yul\":10089:10099   */\n      add\n        /* \"#utility.yul\":10060:10173   */\n      jump(tag_599)\n    tag_601:\n      pop\n      pop\n        /* \"#utility.yul\":10207:10208   */\n      0x00\n        /* \"#utility.yul\":10189:10205   */\n      swap2\n      add\n        /* \"#utility.yul\":10182:10209   */\n      mstore\n        /* \"#utility.yul\":9965:10215   */\n      jump\t// out\n        /* \"#utility.yul\":10220:10507   */\n    tag_512:\n        /* \"#utility.yul\":10349:10352   */\n      0x00\n        /* \"#utility.yul\":10387:10393   */\n      dup3\n        /* \"#utility.yul\":10381:10394   */\n      mload\n        /* \"#utility.yul\":10403:10469   */\n      tag_603\n        /* \"#utility.yul\":10462:10468   */\n      dup2\n        /* \"#utility.yul\":10457:10460   */\n      dup5\n        /* \"#utility.yul\":10450:10454   */\n      0x20\n        /* \"#utility.yul\":10442:10448   */\n      dup8\n        /* \"#utility.yul\":10438:10455   */\n      add\n        /* \"#utility.yul\":10403:10469   */\n      tag_537\n      jump\t// in\n    tag_603:\n        /* \"#utility.yul\":10485:10501   */\n      swap2\n      swap1\n      swap2\n      add\n      swap3\n        /* \"#utility.yul\":10220:10507   */\n      swap2\n      pop\n      pop\n      jump\t// out\n        /* \"#utility.yul\":10870:11266   */\n    tag_534:\n        /* \"#utility.yul\":11019:11021   */\n      0x20\n        /* \"#utility.yul\":11008:11017   */\n      dup2\n        /* \"#utility.yul\":11001:11022   */\n      mstore\n        /* \"#utility.yul\":10982:10986   */\n      0x00\n        /* \"#utility.yul\":11051:11057   */\n      dup3\n        /* \"#utility.yul\":11045:11058   */\n      mload\n        /* \"#utility.yul\":11094:11100   */\n      dup1\n        /* \"#utility.yul\":11089:11091   */\n      0x20\n        /* \"#utility.yul\":11078:11087   */\n      dup5\n        /* \"#utility.yul\":11074:11092   */\n      add\n        /* \"#utility.yul\":11067:11101   */\n      mstore\n        /* \"#utility.yul\":11110:11189   */\n      tag_606\n        /* \"#utility.yul\":11182:11188   */\n      dup2\n        /* \"#utility.yul\":11177:11179   */\n      0x40\n        /* \"#utility.yul\":11166:11175   */\n      dup6\n        /* \"#utility.yul\":11162:11180   */\n      add\n        /* \"#utility.yul\":11157:11159   */\n      0x20\n        /* \"#utility.yul\":11149:11155   */\n      dup8\n        /* \"#utility.yul\":11145:11160   */\n      add\n        /* \"#utility.yul\":11110:11189   */\n      tag_537\n      jump\t// in\n    tag_606:\n        /* \"#utility.yul\":11250:11252   */\n      0x1f\n        /* \"#utility.yul\":11229:11244   */\n      add\n      not(0x1f)\n        /* \"#utility.yul\":11225:11254   */\n      and\n        /* \"#utility.yul\":11210:11255   */\n      swap2\n      swap1\n      swap2\n      add\n        /* \"#utility.yul\":11257:11259   */\n      0x40\n        /* \"#utility.yul\":11206:11260   */\n      add\n      swap3\n        /* \"#utility.yul\":10870:11266   */\n      swap2\n      pop\n      pop\n      jump\t// out\n\n    auxdata: 0xa2646970667358221220b7160c6ba254224675488abdba75d3782f7bfd66b5f4abf35de2d3f00249fa7464736f6c63430008110033\n}\n",
    "bytecode": {
      "linkReferences": {},
      "object": "6101206040526904695bf4120910e400006003553480156200002057600080fd5b5060405162002ca238038062002ca28339810160408190526200004391620000ee565b6001600055620000533362000083565b6001600160a01b0394851660a05292841660c05290831660e052821661010052166080526103e86002556200016e565b600180546001600160a01b038381166001600160a01b0319831681179093556040519116919082907f8be0079c531659141344cd1fd0a4f28419497f9722a3daafe3b4186f6b6457e090600090a35050565b6001600160a01b0381168114620000eb57600080fd5b50565b600080600080600060a086880312156200010757600080fd5b85516200011481620000d5565b60208701519095506200012781620000d5565b60408701519094506200013a81620000d5565b60608701519093506200014d81620000d5565b60808701519092506200016081620000d5565b809150509295509295909350565b60805160a05160c05160e05161010051612a5c62000246600039600081816102610152818161064f01528181610d9b01528181611766015281816118dd0152611d4901526000818161020b0152818161061301528181610b5c015281816116ca015281816118a10152611bf90152600081816102b5015281816105d70152818161091b0152818161162e015281816118650152611aac0152600081816104090152818161059c015281816106dc015281816115930152818161182a015261195f01526000818161043d015261112e0152612a5c6000f3fe6080604052600436106101745760003560e01c80638da5cb5b116100cb578063bcb5eb281161007f578063e2592c0b11610059578063e2592c0b14610467578063f2fde38b14610487578063f854a27f146104a757600080fd5b8063bcb5eb28146103f7578063d1af0c7d1461042b578063dd1917191461045f57600080fd5b806394067045116100b05780639406704514610381578063ac3f0c26146103b7578063b768d7f5146103d757600080fd5b80638da5cb5b1461030c5780639168ae721461032a57600080fd5b80635036e63b1161012d578063640fffd811610107578063640fffd8146102a3578063715018a6146102d75780637acb7757146102ec57600080fd5b80635036e63b146102455780635f686f251461024f57806363c28db11461028357600080fd5b8063372500ab1161015e578063372500ab146101ae5780633fcecc9b146101c357806345c44ad5146101f957600080fd5b8062f714ce146101795780631829b46c1461019b575b600080fd5b34801561018557600080fd5b506101996101943660046127e5565b6104d5565b005b6101996101a9366004612815565b610fe6565b3480156101ba57600080fd5b50610199611095565b3480156101cf57600080fd5b506101e36101de36600461282e565b611160565b6040516101f0919061284b565b60405180910390f35b34801561020557600080fd5b5061022d7f000000000000000000000000000000000000000000000000000000000000000081565b6040516001600160a01b0390911681526020016101f0565b6101996064600255565b34801561025b57600080fd5b5061022d7f000000000000000000000000000000000000000000000000000000000000000081565b34801561028f57600080fd5b506101e361029e36600461282e565b61135c565b3480156102af57600080fd5b5061022d7f000000000000000000000000000000000000000000000000000000000000000081565b3480156102e357600080fd5b50610199611509565b3480156102f857600080fd5b506101996103073660046127e5565b61151d565b34801561031857600080fd5b506001546001600160a01b031661022d565b34801561033657600080fd5b5061036661034536600461282e565b60046020526000908152604090208054600582015460069092015490919083565b604080519384526020840192909252908201526060016101f0565b34801561038d57600080fd5b5061022d61039c366004612815565b6005602052600090815260409020546001600160a01b031681565b3480156103c357600080fd5b506101e36103d236600461282e565b611e9e565b3480156103e357600080fd5b506101996103f2366004612815565b61204b565b34801561040357600080fd5b5061022d7f000000000000000000000000000000000000000000000000000000000000000081565b34801561043757600080fd5b5061022d7f000000000000000000000000000000000000000000000000000000000000000081565b610199612058565b34801561047357600080fd5b506101e361048236600461282e565b612107565b34801561049357600080fd5b506101996104a236600461282e565b6122b4565b3480156104b357600080fd5b506104c76104c236600461282e565b612341565b6040519081526020016101f0565b6104dd612379565b3360009081526004602052604090205461053e5760405162461bcd60e51b815260206004820152601960248201527f596f752048617665204e6f20546f6b656e73205374616b65640000000000000060448201526064015b60405180910390fd5b3360009081526004602052604090205461059a5760405162461bcd60e51b815260206004820152601960248201527f596f752048617665204e6f20546f6b656e73205374616b6564000000000000006044820152606401610535565b7f00000000000000000000000000000000000000000000000000000000000000006001600160a01b0316816001600160a01b0316148061060b57507f00000000000000000000000000000000000000000000000000000000000000006001600160a01b0316816001600160a01b0316145b8061064757507f00000000000000000000000000000000000000000000000000000000000000006001600160a01b0316816001600160a01b0316145b8061068357507f00000000000000000000000000000000000000000000000000000000000000006001600160a01b0316816001600160a01b0316145b6106da5760405162461bcd60e51b815260206004820152602260248201527f5468697320436f6c6c656374696f6e2043616e277420426520576974686472616044820152613bb760f11b6064820152608401610535565b7f00000000000000000000000000000000000000000000000000000000000000006001600160a01b0316816001600160a01b03160361091957600061071e336123d2565b336000908152600460205260408120600601805492935083929091906107459084906128b9565b9091555060009050805b3360009081526004602052604090206001015481101561080a57336000908152600460205260409020600101805486919083908110610790576107906128cc565b9060005260206000209060020201600101541480156107eb57503360009081526004602052604081206001018054839081106107ce576107ce6128cc565b60009182526020909120600290910201546001600160a01b031614155b156107f85780915061080a565b80610802816128e2565b91505061074f565b5033600090815260046020526040812060010180548390811061082f5761082f6128cc565b6000918252602080832060029290920290910180546001600160a01b0319166001600160a01b039490941693909317909255338152600490915260408120805491610879836128fb565b90915550506000848152600560205260409081902080546001600160a01b0319169055516323b872dd60e01b8152306004820152336024820152604481018590526001600160a01b038416906323b872dd90606401600060405180830381600087803b1580156108e857600080fd5b505af11580156108fc573d6000803e3d6000fd5b505033600090815260046020526040902042600590910155505050505b7f00000000000000000000000000000000000000000000000000000000000000006001600160a01b0316816001600160a01b031603610b5a57600061095d336123d2565b336000908152600460205260408120600601805492935083929091906109849084906128b9565b9091555060009050805b3360009081526004602081905260409091200154811015610a4b57336000908152600460208190526040909120018054869190839081106109d1576109d16128cc565b906000526020600020906002020160010154148015610a2c5750336000908152600460208190526040822001805483908110610a0f57610a0f6128cc565b60009182526020909120600290910201546001600160a01b031614155b15610a3957809150610a4b565b80610a43816128e2565b91505061098e565b50336000908152600460208190526040822001805483908110610a7057610a706128cc565b6000918252602080832060029290920290910180546001600160a01b0319166001600160a01b039490941693909317909255338152600490915260408120805491610aba836128fb565b90915550506000848152600560205260409081902080546001600160a01b0319169055516323b872dd60e01b8152306004820152336024820152604481018590526001600160a01b038416906323b872dd90606401600060405180830381600087803b158015610b2957600080fd5b505af1158015610b3d573d6000803e3d6000fd5b505033600090815260046020526040902042600590910155505050505b7f00000000000000000000000000000000000000000000000000000000000000006001600160a01b0316816001600160a01b031603610d99576000610b9e336123d2565b33600090815260046020526040812060060180549293508392909190610bc59084906128b9565b9091555060009050805b33600090815260046020526040902060020154811015610c8a57336000908152600460205260409020600201805486919083908110610c1057610c106128cc565b906000526020600020906002020160010154148015610c6b5750336000908152600460205260408120600201805483908110610c4e57610c4e6128cc565b60009182526020909120600290910201546001600160a01b031614155b15610c7857809150610c8a565b80610c82816128e2565b915050610bcf565b50336000908152600460205260408120600201805483908110610caf57610caf6128cc565b6000918252602080832060029290920290910180546001600160a01b0319166001600160a01b039490941693909317909255338152600490915260408120805491610cf9836128fb565b90915550506000848152600560205260409081902080546001600160a01b0319169055516323b872dd60e01b8152306004820152336024820152604481018590526001600160a01b038416906323b872dd90606401600060405180830381600087803b158015610d6857600080fd5b505af1158015610d7c573d6000803e3d6000fd5b505033600090815260046020526040902042600590910155505050505b7f00000000000000000000000000000000000000000000000000000000000000006001600160a01b0316816001600160a01b031603610fd8576000610ddd336123d2565b33600090815260046020526040812060060180549293508392909190610e049084906128b9565b9091555060009050805b33600090815260046020526040902060030154811015610ec957336000908152600460205260409020600301805486919083908110610e4f57610e4f6128cc565b906000526020600020906002020160010154148015610eaa5750336000908152600460205260408120600301805483908110610e8d57610e8d6128cc565b60009182526020909120600290910201546001600160a01b031614155b15610eb757809150610ec9565b80610ec1816128e2565b915050610e0e565b50336000908152600460205260408120600301805483908110610eee57610eee6128cc565b6000918252602080832060029290920290910180546001600160a01b0319166001600160a01b039490941693909317909255338152600490915260408120805491610f38836128fb565b90915550506000848152600560205260409081902080546001600160a01b0319169055516323b872dd60e01b8152306004820152336024820152604481018590526001600160a01b038416906323b872dd90606401600060405180830381600087803b158015610fa757600080fd5b505af1158015610fbb573d6000803e3d6000fd5b505033600090815260046020526040902042600590910155505050505b610fe26001600055565b5050565b610fee61242c565b60006110026001546001600160a01b031690565b6001600160a01b03168260405160006040518083038185875af1925050503d806000811461104c576040519150601f19603f3d011682016040523d82523d6000602084013e611051565b606091505b5050905080610fe25760405162461bcd60e51b815260206004820152601060248201526f5472616e73666572206661696c65642160801b6044820152606401610535565b3360008181526004602052604081206006015490916110b3906123d2565b6110bd91906128b9565b90506000811161110f5760405162461bcd60e51b815260206004820152601c60248201527f596f752068617665206e6f207265776172647320746f20636c61696d000000006044820152606401610535565b3360008181526004602052604081204260058201556006015561115d907f00000000000000000000000000000000000000000000000000000000000000006001600160a01b03169083612486565b50565b6001600160a01b03811660009081526004602052604090205460609015611318576001600160a01b03821660009081526004602052604081205467ffffffffffffffff8111156111b2576111b2612912565b6040519080825280602002602001820160405280156111f757816020015b60408051808201909152600080825260208201528152602001906001900390816111d05790505b5090506000805b6001600160a01b0385166000908152600460208190526040909120015481101561130f576001600160a01b038516600090815260046020819052604082200180548390811061124f5761124f6128cc565b60009182526020909120600290910201546001600160a01b0316146112fd576001600160a01b03851660009081526004602081905260409091200180548290811061129c5761129c6128cc565b60009182526020918290206040805180820190915260029092020180546001600160a01b03168252600101549181019190915283518490849081106112e3576112e36128cc565b602002602001018190525081806112f9906128e2565b9250505b80611307816128e2565b9150506111fe565b50909392505050565b6040805160008082526020820190925290611355565b604080518082019091526000808252602082015281526020019060019003908161132e5790505b5092915050565b6001600160a01b03811660009081526004602052604090205460609015611318576001600160a01b03821660009081526004602052604081205467ffffffffffffffff8111156113ae576113ae612912565b6040519080825280602002602001820160405280156113f357816020015b60408051808201909152600080825260208201528152602001906001900390816113cc5790505b5090506000805b6001600160a01b03851660009081526004602052604090206001015481101561130f576001600160a01b038516600090815260046020526040812060010180548390811061144a5761144a6128cc565b60009182526020909120600290910201546001600160a01b0316146114f7576001600160a01b0385166000908152600460205260409020600101805482908110611496576114966128cc565b60009182526020918290206040805180820190915260029092020180546001600160a01b03168252600101549181019190915283518490849081106114dd576114dd6128cc565b602002602001018190525081806114f3906128e2565b9250505b80611501816128e2565b9150506113fa565b61151161242c565b61151b60006124f2565b565b611525612379565b3360009081526004602052604090205415611573576000611545336123d2565b3360009081526004602052604081206006018054929350839290919061156c9084906128b9565b9091555050505b6040516331a9108f60e11b81526004810183905233906001600160a01b037f00000000000000000000000000000000000000000000000000000000000000001690636352211e90602401602060405180830381865afa1580156115da573d6000803e3d6000fd5b505050506040513d601f19601f820116820180604052508101906115fe9190612928565b6001600160a01b031614806116a457506040516331a9108f60e11b81526004810183905233906001600160a01b037f00000000000000000000000000000000000000000000000000000000000000001690636352211e90602401602060405180830381865afa158015611675573d6000803e3d6000fd5b505050506040513d601f19601f820116820180604052508101906116999190612928565b6001600160a01b0316145b8061174057506040516331a9108f60e11b81526004810183905233906001600160a01b037f00000000000000000000000000000000000000000000000000000000000000001690636352211e90602401602060405180830381865afa158015611711573d6000803e3d6000fd5b505050506040513d601f19601f820116820180604052508101906117359190612928565b6001600160a01b0316145b806117dc57506040516331a9108f60e11b81526004810183905233906001600160a01b037f00000000000000000000000000000000000000000000000000000000000000001690636352211e90602401602060405180830381865afa1580156117ad573d6000803e3d6000fd5b505050506040513d601f19601f820116820180604052508101906117d19190612928565b6001600160a01b0316145b6118285760405162461bcd60e51b815260206004820152601960248201527f596f7520446f6e2774204f776e205468697320546f6b656e21000000000000006044820152606401610535565b7f00000000000000000000000000000000000000000000000000000000000000006001600160a01b0316816001600160a01b0316148061189957507f00000000000000000000000000000000000000000000000000000000000000006001600160a01b0316816001600160a01b0316145b806118d557507f00000000000000000000000000000000000000000000000000000000000000006001600160a01b0316816001600160a01b0316145b8061191157507f00000000000000000000000000000000000000000000000000000000000000006001600160a01b0316816001600160a01b0316145b61195d5760405162461bcd60e51b815260206004820152601f60248201527f5468697320436f6c6c656374696f6e2043616e2774204265205374616b6564006044820152606401610535565b7f00000000000000000000000000000000000000000000000000000000000000006001600160a01b0316816001600160a01b031603611aaa576040516323b872dd60e01b8152336004820152306024820152604481018390526001600160a01b038216906323b872dd90606401600060405180830381600087803b1580156119e457600080fd5b505af11580156119f8573d6000803e3d6000fd5b5050604080518082018252338082526020808301888152600083815260048352948520600180820180548083018255908852938720865160029095020180546001600160a01b0319166001600160a01b0390951694909417845591519290910191909155908352805491945090925090611a71836128e2565b909155505050600082815260056020818152604080842080546001600160a01b0319163390811790915584526004909152909120429101555b7f00000000000000000000000000000000000000000000000000000000000000006001600160a01b0316816001600160a01b031603611bf7576040516323b872dd60e01b8152336004820152306024820152604481018390526001600160a01b038216906323b872dd90606401600060405180830381600087803b158015611b3157600080fd5b505af1158015611b45573d6000803e3d6000fd5b505060408051808201825233808252602080830188815260008381526004808452958120958601805460018082018355918352938220865160029095020180546001600160a01b0319166001600160a01b03909516949094178455915192909101919091559081528254919450909250611bbe836128e2565b909155505050600082815260056020818152604080842080546001600160a01b0319163390811790915584526004909152909120429101555b7f00000000000000000000000000000000000000000000000000000000000000006001600160a01b0316816001600160a01b031603611d47576040516323b872dd60e01b8152336004820152306024820152604481018390526001600160a01b038216906323b872dd90606401600060405180830381600087803b158015611c7e57600080fd5b505af1158015611c92573d6000803e3d6000fd5b5050604080518082018252338082526020808301888152600083815260048352948520600280820180546001808201835591895294882087519590920290910180546001600160a01b0319166001600160a01b0390951694909417845591519290910191909155908352805491945090925090611d0e836128e2565b909155505050600082815260056020818152604080842080546001600160a01b0319163390811790915584526004909152909120429101555b7f00000000000000000000000000000000000000000000000000000000000000006001600160a01b0316816001600160a01b031603610fd8576040516323b872dd60e01b8152336004820152306024820152604481018390526001600160a01b038216906323b872dd90606401600060405180830381600087803b158015611dce57600080fd5b505af1158015611de2573d6000803e3d6000fd5b505060408051808201825233808252602080830188815260008381526004835294852060038101805460018082018355918852938720865160029095020180546001600160a01b0319166001600160a01b0390951694909417845591519290910191909155908352805491945090925090611e5c836128e2565b909155505050600082815260056020818152604080842080546001600160a01b031916339081179091558452600490915290912042910155610fe26001600055565b6001600160a01b03811660009081526004602052604090205460609015611318576001600160a01b03821660009081526004602052604081205467ffffffffffffffff811115611ef057611ef0612912565b604051908082528060200260200182016040528015611f3557816020015b6040805180820190915260008082526020820152815260200190600190039081611f0e5790505b5090506000805b6001600160a01b03851660009081526004602052604090206003015481101561130f576001600160a01b0385166000908152600460205260408120600301805483908110611f8c57611f8c6128cc565b60009182526020909120600290910201546001600160a01b031614612039576001600160a01b0385166000908152600460205260409020600301805482908110611fd857611fd86128cc565b60009182526020918290206040805180820190915260029092020180546001600160a01b031682526001015491810191909152835184908490811061201f5761201f6128cc565b60200260200101819052508180612035906128e2565b9250505b80612043816128e2565b915050611f3c565b61205361242c565b600355565b61206061242c565b60006120746001546001600160a01b031690565b6001600160a01b03164760405160006040518083038185875af1925050503d80600081146120be576040519150601f19603f3d011682016040523d82523d6000602084013e6120c3565b606091505b505090508061115d5760405162461bcd60e51b815260206004820152601060248201526f5472616e73666572206661696c65642160801b6044820152606401610535565b6001600160a01b03811660009081526004602052604090205460609015611318576001600160a01b03821660009081526004602052604081205467ffffffffffffffff81111561215957612159612912565b60405190808252806020026020018201604052801561219e57816020015b60408051808201909152600080825260208201528152602001906001900390816121775790505b5090506000805b6001600160a01b03851660009081526004602052604090206002015481101561130f576001600160a01b03851660009081526004602052604081206002018054839081106121f5576121f56128cc565b60009182526020909120600290910201546001600160a01b0316146122a2576001600160a01b0385166000908152600460205260409020600201805482908110612241576122416128cc565b60009182526020918290206040805180820190915260029092020180546001600160a01b0316825260010154918101919091528351849084908110612288576122886128cc565b6020026020010181905250818061229e906128e2565b9250505b806122ac816128e2565b9150506121a5565b6122bc61242c565b6001600160a01b0381166123385760405162461bcd60e51b815260206004820152602660248201527f4f776e61626c653a206e6577206f776e657220697320746865207a65726f206160448201527f64647265737300000000000000000000000000000000000000000000000000006064820152608401610535565b61115d816124f2565b6001600160a01b0381166000908152600460205260408120600601548190612368846123d2565b61237291906128b9565b9392505050565b6002600054036123cb5760405162461bcd60e51b815260206004820152601f60248201527f5265656e7472616e637947756172643a207265656e7472616e742063616c6c006044820152606401610535565b6002600055565b6003546001600160a01b038216600090815260046020526040812080546005909101549192610e10929091906124089042612945565b6124129190612958565b61241c9190612958565b612426919061296f565b92915050565b6001546001600160a01b0316331461151b5760405162461bcd60e51b815260206004820181905260248201527f4f776e61626c653a2063616c6c6572206973206e6f7420746865206f776e65726044820152606401610535565b604080516001600160a01b038416602482015260448082018490528251808303909101815260649091019091526020810180517bffffffffffffffffffffffffffffffffffffffffffffffffffffffff1663a9059cbb60e01b1790526124ed908490612544565b505050565b600180546001600160a01b038381166001600160a01b0319831681179093556040519116919082907f8be0079c531659141344cd1fd0a4f28419497f9722a3daafe3b4186f6b6457e090600090a35050565b6000612599826040518060400160405280602081526020017f5361666545524332303a206c6f772d6c6576656c2063616c6c206661696c6564815250856001600160a01b03166126299092919063ffffffff16565b8051909150156124ed57808060200190518101906125b79190612991565b6124ed5760405162461bcd60e51b815260206004820152602a60248201527f5361666545524332303a204552433230206f7065726174696f6e20646964206e60448201527f6f742073756363656564000000000000000000000000000000000000000000006064820152608401610535565b60606126388484600085612640565b949350505050565b6060824710156126b85760405162461bcd60e51b815260206004820152602660248201527f416464726573733a20696e73756666696369656e742062616c616e636520666f60448201527f722063616c6c00000000000000000000000000000000000000000000000000006064820152608401610535565b600080866001600160a01b031685876040516126d491906129d7565b60006040518083038185875af1925050503d8060008114612711576040519150601f19603f3d011682016040523d82523d6000602084013e612716565b606091505b509150915061272787838387612732565b979650505050505050565b606083156127a157825160000361279a576001600160a01b0385163b61279a5760405162461bcd60e51b815260206004820152601d60248201527f416464726573733a2063616c6c20746f206e6f6e2d636f6e74726163740000006044820152606401610535565b5081612638565b61263883838151156127b65781518083602001fd5b8060405162461bcd60e51b815260040161053591906129f3565b6001600160a01b038116811461115d57600080fd5b600080604083850312156127f857600080fd5b82359150602083013561280a816127d0565b809150509250929050565b60006020828403121561282757600080fd5b5035919050565b60006020828403121561284057600080fd5b8135612372816127d0565b602080825282518282018190526000919060409081850190868401855b8281101561289657815180516001600160a01b03168552860151868501529284019290850190600101612868565b5091979650505050505050565b634e487b7160e01b600052601160045260246000fd5b80820180821115612426576124266128a3565b634e487b7160e01b600052603260045260246000fd5b6000600182016128f4576128f46128a3565b5060010190565b60008161290a5761290a6128a3565b506000190190565b634e487b7160e01b600052604160045260246000fd5b60006020828403121561293a57600080fd5b8151612372816127d0565b81810381811115612426576124266128a3565b8082028115828204841417612426576124266128a3565b60008261298c57634e487b7160e01b600052601260045260246000fd5b500490565b6000602082840312156129a357600080fd5b8151801515811461237257600080fd5b60005b838110156129ce5781810151838201526020016129b6565b50506000910152565b600082516129e98184602087016129b3565b9190910192915050565b6020815260008251806020840152612a128160408501602087016129b3565b601f01601f1916919091016040019291505056fea2646970667358221220b7160c6ba254224675488abdba75d3782f7bfd66b5f4abf35de2d3f00249fa7464736f6c63430008110033",
      "opcodes": "PUSH2 0x120 PUSH1 0x40 MSTORE PUSH10 0x4695BF4120910E40000 PUSH1 0x3 SSTORE CALLVALUE DUP1 ISZERO PUSH3 0x20 JUMPI PUSH1 0x0 DUP1 REVERT JUMPDEST POP PUSH1 0x40 MLOAD PUSH3 0x2CA2 CODESIZE SUB DUP1 PUSH3 0x2CA2 DUP4 CODECOPY DUP2 ADD PUSH1 0x40 DUP2 SWAP1 MSTORE PUSH3 0x43 SWAP2 PUSH3 0xEE JUMP JUMPDEST PUSH1 0x1 PUSH1 0x0 SSTORE PUSH3 0x53 CALLER PUSH3 0x83 JUMP JUMPDEST PUSH1 0x1 PUSH1 0x1 PUSH1 0xA0 SHL SUB SWAP5 DUP6 AND PUSH1 0xA0 MSTORE SWAP3 DUP5 AND PUSH1 0xC0 MSTORE SWAP1 DUP4 AND PUSH1 0xE0 MSTORE DUP3 AND PUSH2 0x100 MSTORE AND PUSH1 0x80 MSTORE PUSH2 0x3E8 PUSH1 0x2 SSTORE PUSH3 0x16E JUMP JUMPDEST PUSH1 0x1 DUP1 SLOAD PUSH1 0x1 PUSH1 0x1 PUSH1 0xA0 SHL SUB DUP4 DUP2 AND PUSH1 0x1 PUSH1 0x1 PUSH1 0xA0 SHL SUB NOT DUP4 AND DUP2 OR SWAP1 SWAP4 SSTORE PUSH1 0x40 MLOAD SWAP2 AND SWAP2 SWAP1 DUP3 SWAP1 PUSH32 0x8BE0079C531659141344CD1FD0A4F28419497F9722A3DAAFE3B4186F6B6457E0 SWAP1 PUSH1 0x0 SWAP1 LOG3 POP POP JUMP JUMPDEST PUSH1 0x1 PUSH1 0x1 PUSH1 0xA0 SHL SUB DUP2 AND DUP2 EQ PUSH3 0xEB JUMPI PUSH1 0x0 DUP1 REVERT JUMPDEST POP JUMP JUMPDEST PUSH1 0x0 DUP1 PUSH1 0x0 DUP1 PUSH1 0x0 PUSH1 0xA0 DUP7 DUP9 SUB SLT ISZERO PUSH3 0x107 JUMPI PUSH1 0x0 DUP1 REVERT JUMPDEST DUP6 MLOAD PUSH3 0x114 DUP2 PUSH3 0xD5 JUMP JUMPDEST PUSH1 0x20 DUP8 ADD MLOAD SWAP1 SWAP6 POP PUSH3 0x127 DUP2 PUSH3 0xD5 JUMP JUMPDEST PUSH1 0x40 DUP8 ADD MLOAD SWAP1 SWAP5 POP PUSH3 0x13A DUP2 PUSH3 0xD5 JUMP JUMPDEST PUSH1 0x60 DUP8 ADD MLOAD SWAP1 SWAP4 POP PUSH3 0x14D DUP2 PUSH3 0xD5 JUMP JUMPDEST PUSH1 0x80 DUP8 ADD MLOAD SWAP1 SWAP3 POP PUSH3 0x160 DUP2 PUSH3 0xD5 JUMP JUMPDEST DUP1 SWAP2 POP POP SWAP3 SWAP6 POP SWAP3 SWAP6 SWAP1 SWAP4 POP JUMP JUMPDEST PUSH1 0x80 MLOAD PUSH1 0xA0 MLOAD PUSH1 0xC0 MLOAD PUSH1 0xE0 MLOAD PUSH2 0x100 MLOAD PUSH2 0x2A5C PUSH3 0x246 PUSH1 0x0 CODECOPY PUSH1 0x0 DUP2 DUP2 PUSH2 0x261 ADD MSTORE DUP2 DUP2 PUSH2 0x64F ADD MSTORE DUP2 DUP2 PUSH2 0xD9B ADD MSTORE DUP2 DUP2 PUSH2 0x1766 ADD MSTORE DUP2 DUP2 PUSH2 0x18DD ADD MSTORE PUSH2 0x1D49 ADD MSTORE PUSH1 0x0 DUP2 DUP2 PUSH2 0x20B ADD MSTORE DUP2 DUP2 PUSH2 0x613 ADD MSTORE DUP2 DUP2 PUSH2 0xB5C ADD MSTORE DUP2 DUP2 PUSH2 0x16CA ADD MSTORE DUP2 DUP2 PUSH2 0x18A1 ADD MSTORE PUSH2 0x1BF9 ADD MSTORE PUSH1 0x0 DUP2 DUP2 PUSH2 0x2B5 ADD MSTORE DUP2 DUP2 PUSH2 0x5D7 ADD MSTORE DUP2 DUP2 PUSH2 0x91B ADD MSTORE DUP2 DUP2 PUSH2 0x162E ADD MSTORE DUP2 DUP2 PUSH2 0x1865 ADD MSTORE PUSH2 0x1AAC ADD MSTORE PUSH1 0x0 DUP2 DUP2 PUSH2 0x409 ADD MSTORE DUP2 DUP2 PUSH2 0x59C ADD MSTORE DUP2 DUP2 PUSH2 0x6DC ADD MSTORE DUP2 DUP2 PUSH2 0x1593 ADD MSTORE DUP2 DUP2 PUSH2 0x182A ADD MSTORE PUSH2 0x195F ADD MSTORE PUSH1 0x0 DUP2 DUP2 PUSH2 0x43D ADD MSTORE PUSH2 0x112E ADD MSTORE PUSH2 0x2A5C PUSH1 0x0 RETURN INVALID PUSH1 0x80 PUSH1 0x40 MSTORE PUSH1 0x4 CALLDATASIZE LT PUSH2 0x174 JUMPI PUSH1 0x0 CALLDATALOAD PUSH1 0xE0 SHR DUP1 PUSH4 0x8DA5CB5B GT PUSH2 0xCB JUMPI DUP1 PUSH4 0xBCB5EB28 GT PUSH2 0x7F JUMPI DUP1 PUSH4 0xE2592C0B GT PUSH2 0x59 JUMPI DUP1 PUSH4 0xE2592C0B EQ PUSH2 0x467 JUMPI DUP1 PUSH4 0xF2FDE38B EQ PUSH2 0x487 JUMPI DUP1 PUSH4 0xF854A27F EQ PUSH2 0x4A7 JUMPI PUSH1 0x0 DUP1 REVERT JUMPDEST DUP1 PUSH4 0xBCB5EB28 EQ PUSH2 0x3F7 JUMPI DUP1 PUSH4 0xD1AF0C7D EQ PUSH2 0x42B JUMPI DUP1 PUSH4 0xDD191719 EQ PUSH2 0x45F JUMPI PUSH1 0x0 DUP1 REVERT JUMPDEST DUP1 PUSH4 0x94067045 GT PUSH2 0xB0 JUMPI DUP1 PUSH4 0x94067045 EQ PUSH2 0x381 JUMPI DUP1 PUSH4 0xAC3F0C26 EQ PUSH2 0x3B7 JUMPI DUP1 PUSH4 0xB768D7F5 EQ PUSH2 0x3D7 JUMPI PUSH1 0x0 DUP1 REVERT JUMPDEST DUP1 PUSH4 0x8DA5CB5B EQ PUSH2 0x30C JUMPI DUP1 PUSH4 0x9168AE72 EQ PUSH2 0x32A JUMPI PUSH1 0x0 DUP1 REVERT JUMPDEST DUP1 PUSH4 0x5036E63B GT PUSH2 0x12D JUMPI DUP1 PUSH4 0x640FFFD8 GT PUSH2 0x107 JUMPI DUP1 PUSH4 0x640FFFD8 EQ PUSH2 0x2A3 JUMPI DUP1 PUSH4 0x715018A6 EQ PUSH2 0x2D7 JUMPI DUP1 PUSH4 0x7ACB7757 EQ PUSH2 0x2EC JUMPI PUSH1 0x0 DUP1 REVERT JUMPDEST DUP1 PUSH4 0x5036E63B EQ PUSH2 0x245 JUMPI DUP1 PUSH4 0x5F686F25 EQ PUSH2 0x24F JUMPI DUP1 PUSH4 0x63C28DB1 EQ PUSH2 0x283 JUMPI PUSH1 0x0 DUP1 REVERT JUMPDEST DUP1 PUSH4 0x372500AB GT PUSH2 0x15E JUMPI DUP1 PUSH4 0x372500AB EQ PUSH2 0x1AE JUMPI DUP1 PUSH4 0x3FCECC9B EQ PUSH2 0x1C3 JUMPI DUP1 PUSH4 0x45C44AD5 EQ PUSH2 0x1F9 JUMPI PUSH1 0x0 DUP1 REVERT JUMPDEST DUP1 PUSH3 0xF714CE EQ PUSH2 0x179 JUMPI DUP1 PUSH4 0x1829B46C EQ PUSH2 0x19B JUMPI JUMPDEST PUSH1 0x0 DUP1 REVERT JUMPDEST CALLVALUE DUP1 ISZERO PUSH2 0x185 JUMPI PUSH1 0x0 DUP1 REVERT JUMPDEST POP PUSH2 0x199 PUSH2 0x194 CALLDATASIZE PUSH1 0x4 PUSH2 0x27E5 JUMP JUMPDEST PUSH2 0x4D5 JUMP JUMPDEST STOP JUMPDEST PUSH2 0x199 PUSH2 0x1A9 CALLDATASIZE PUSH1 0x4 PUSH2 0x2815 JUMP JUMPDEST PUSH2 0xFE6 JUMP JUMPDEST CALLVALUE DUP1 ISZERO PUSH2 0x1BA JUMPI PUSH1 0x0 DUP1 REVERT JUMPDEST POP PUSH2 0x199 PUSH2 0x1095 JUMP JUMPDEST CALLVALUE DUP1 ISZERO PUSH2 0x1CF JUMPI PUSH1 0x0 DUP1 REVERT JUMPDEST POP PUSH2 0x1E3 PUSH2 0x1DE CALLDATASIZE PUSH1 0x4 PUSH2 0x282E JUMP JUMPDEST PUSH2 0x1160 JUMP JUMPDEST PUSH1 0x40 MLOAD PUSH2 0x1F0 SWAP2 SWAP1 PUSH2 0x284B JUMP JUMPDEST PUSH1 0x40 MLOAD DUP1 SWAP2 SUB SWAP1 RETURN JUMPDEST CALLVALUE DUP1 ISZERO PUSH2 0x205 JUMPI PUSH1 0x0 DUP1 REVERT JUMPDEST POP PUSH2 0x22D PUSH32 0x0 DUP2 JUMP JUMPDEST PUSH1 0x40 MLOAD PUSH1 0x1 PUSH1 0x1 PUSH1 0xA0 SHL SUB SWAP1 SWAP2 AND DUP2 MSTORE PUSH1 0x20 ADD PUSH2 0x1F0 JUMP JUMPDEST PUSH2 0x199 PUSH1 0x64 PUSH1 0x2 SSTORE JUMP JUMPDEST CALLVALUE DUP1 ISZERO PUSH2 0x25B JUMPI PUSH1 0x0 DUP1 REVERT JUMPDEST POP PUSH2 0x22D PUSH32 0x0 DUP2 JUMP JUMPDEST CALLVALUE DUP1 ISZERO PUSH2 0x28F JUMPI PUSH1 0x0 DUP1 REVERT JUMPDEST POP PUSH2 0x1E3 PUSH2 0x29E CALLDATASIZE PUSH1 0x4 PUSH2 0x282E JUMP JUMPDEST PUSH2 0x135C JUMP JUMPDEST CALLVALUE DUP1 ISZERO PUSH2 0x2AF JUMPI PUSH1 0x0 DUP1 REVERT JUMPDEST POP PUSH2 0x22D PUSH32 0x0 DUP2 JUMP JUMPDEST CALLVALUE DUP1 ISZERO PUSH2 0x2E3 JUMPI PUSH1 0x0 DUP1 REVERT JUMPDEST POP PUSH2 0x199 PUSH2 0x1509 JUMP JUMPDEST CALLVALUE DUP1 ISZERO PUSH2 0x2F8 JUMPI PUSH1 0x0 DUP1 REVERT JUMPDEST POP PUSH2 0x199 PUSH2 0x307 CALLDATASIZE PUSH1 0x4 PUSH2 0x27E5 JUMP JUMPDEST PUSH2 0x151D JUMP JUMPDEST CALLVALUE DUP1 ISZERO PUSH2 0x318 JUMPI PUSH1 0x0 DUP1 REVERT JUMPDEST POP PUSH1 0x1 SLOAD PUSH1 0x1 PUSH1 0x1 PUSH1 0xA0 SHL SUB AND PUSH2 0x22D JUMP JUMPDEST CALLVALUE DUP1 ISZERO PUSH2 0x336 JUMPI PUSH1 0x0 DUP1 REVERT JUMPDEST POP PUSH2 0x366 PUSH2 0x345 CALLDATASIZE PUSH1 0x4 PUSH2 0x282E JUMP JUMPDEST PUSH1 0x4 PUSH1 0x20 MSTORE PUSH1 0x0 SWAP1 DUP2 MSTORE PUSH1 0x40 SWAP1 KECCAK256 DUP1 SLOAD PUSH1 0x5 DUP3 ADD SLOAD PUSH1 0x6 SWAP1 SWAP3 ADD SLOAD SWAP1 SWAP2 SWAP1 DUP4 JUMP JUMPDEST PUSH1 0x40 DUP1 MLOAD SWAP4 DUP5 MSTORE PUSH1 0x20 DUP5 ADD SWAP3 SWAP1 SWAP3 MSTORE SWAP1 DUP3 ADD MSTORE PUSH1 0x60 ADD PUSH2 0x1F0 JUMP JUMPDEST CALLVALUE DUP1 ISZERO PUSH2 0x38D JUMPI PUSH1 0x0 DUP1 REVERT JUMPDEST POP PUSH2 0x22D PUSH2 0x39C CALLDATASIZE PUSH1 0x4 PUSH2 0x2815 JUMP JUMPDEST PUSH1 0x5 PUSH1 0x20 MSTORE PUSH1 0x0 SWAP1 DUP2 MSTORE PUSH1 0x40 SWAP1 KECCAK256 SLOAD PUSH1 0x1 PUSH1 0x1 PUSH1 0xA0 SHL SUB AND DUP2 JUMP JUMPDEST CALLVALUE DUP1 ISZERO PUSH2 0x3C3 JUMPI PUSH1 0x0 DUP1 REVERT JUMPDEST POP PUSH2 0x1E3 PUSH2 0x3D2 CALLDATASIZE PUSH1 0x4 PUSH2 0x282E JUMP JUMPDEST PUSH2 0x1E9E JUMP JUMPDEST CALLVALUE DUP1 ISZERO PUSH2 0x3E3 JUMPI PUSH1 0x0 DUP1 REVERT JUMPDEST POP PUSH2 0x199 PUSH2 0x3F2 CALLDATASIZE PUSH1 0x4 PUSH2 0x2815 JUMP JUMPDEST PUSH2 0x204B JUMP JUMPDEST CALLVALUE DUP1 ISZERO PUSH2 0x403 JUMPI PUSH1 0x0 DUP1 REVERT JUMPDEST POP PUSH2 0x22D PUSH32 0x0 DUP2 JUMP JUMPDEST CALLVALUE DUP1 ISZERO PUSH2 0x437 JUMPI PUSH1 0x0 DUP1 REVERT JUMPDEST POP PUSH2 0x22D PUSH32 0x0 DUP2 JUMP JUMPDEST PUSH2 0x199 PUSH2 0x2058 JUMP JUMPDEST CALLVALUE DUP1 ISZERO PUSH2 0x473 JUMPI PUSH1 0x0 DUP1 REVERT JUMPDEST POP PUSH2 0x1E3 PUSH2 0x482 CALLDATASIZE PUSH1 0x4 PUSH2 0x282E JUMP JUMPDEST PUSH2 0x2107 JUMP JUMPDEST CALLVALUE DUP1 ISZERO PUSH2 0x493 JUMPI PUSH1 0x0 DUP1 REVERT JUMPDEST POP PUSH2 0x199 PUSH2 0x4A2 CALLDATASIZE PUSH1 0x4 PUSH2 0x282E JUMP JUMPDEST PUSH2 0x22B4 JUMP JUMPDEST CALLVALUE DUP1 ISZERO PUSH2 0x4B3 JUMPI PUSH1 0x0 DUP1 REVERT JUMPDEST POP PUSH2 0x4C7 PUSH2 0x4C2 CALLDATASIZE PUSH1 0x4 PUSH2 0x282E JUMP JUMPDEST PUSH2 0x2341 JUMP JUMPDEST PUSH1 0x40 MLOAD SWAP1 DUP2 MSTORE PUSH1 0x20 ADD PUSH2 0x1F0 JUMP JUMPDEST PUSH2 0x4DD PUSH2 0x2379 JUMP JUMPDEST CALLER PUSH1 0x0 SWAP1 DUP2 MSTORE PUSH1 0x4 PUSH1 0x20 MSTORE PUSH1 0x40 SWAP1 KECCAK256 SLOAD PUSH2 0x53E JUMPI PUSH1 0x40 MLOAD PUSH3 0x461BCD PUSH1 0xE5 SHL DUP2 MSTORE PUSH1 0x20 PUSH1 0x4 DUP3 ADD MSTORE PUSH1 0x19 PUSH1 0x24 DUP3 ADD MSTORE PUSH32 0x596F752048617665204E6F20546F6B656E73205374616B656400000000000000 PUSH1 0x44 DUP3 ADD MSTORE PUSH1 0x64 ADD JUMPDEST PUSH1 0x40 MLOAD DUP1 SWAP2 SUB SWAP1 REVERT JUMPDEST CALLER PUSH1 0x0 SWAP1 DUP2 MSTORE PUSH1 0x4 PUSH1 0x20 MSTORE PUSH1 0x40 SWAP1 KECCAK256 SLOAD PUSH2 0x59A JUMPI PUSH1 0x40 MLOAD PUSH3 0x461BCD PUSH1 0xE5 SHL DUP2 MSTORE PUSH1 0x20 PUSH1 0x4 DUP3 ADD MSTORE PUSH1 0x19 PUSH1 0x24 DUP3 ADD MSTORE PUSH32 0x596F752048617665204E6F20546F6B656E73205374616B656400000000000000 PUSH1 0x44 DUP3 ADD MSTORE PUSH1 0x64 ADD PUSH2 0x535 JUMP JUMPDEST PUSH32 0x0 PUSH1 0x1 PUSH1 0x1 PUSH1 0xA0 SHL SUB AND DUP2 PUSH1 0x1 PUSH1 0x1 PUSH1 0xA0 SHL SUB AND EQ DUP1 PUSH2 0x60B JUMPI POP PUSH32 0x0 PUSH1 0x1 PUSH1 0x1 PUSH1 0xA0 SHL SUB AND DUP2 PUSH1 0x1 PUSH1 0x1 PUSH1 0xA0 SHL SUB AND EQ JUMPDEST DUP1 PUSH2 0x647 JUMPI POP PUSH32 0x0 PUSH1 0x1 PUSH1 0x1 PUSH1 0xA0 SHL SUB AND DUP2 PUSH1 0x1 PUSH1 0x1 PUSH1 0xA0 SHL SUB AND EQ JUMPDEST DUP1 PUSH2 0x683 JUMPI POP PUSH32 0x0 PUSH1 0x1 PUSH1 0x1 PUSH1 0xA0 SHL SUB AND DUP2 PUSH1 0x1 PUSH1 0x1 PUSH1 0xA0 SHL SUB AND EQ JUMPDEST PUSH2 0x6DA JUMPI PUSH1 0x40 MLOAD PUSH3 0x461BCD PUSH1 0xE5 SHL DUP2 MSTORE PUSH1 0x20 PUSH1 0x4 DUP3 ADD MSTORE PUSH1 0x22 PUSH1 0x24 DUP3 ADD MSTORE PUSH32 0x5468697320436F6C6C656374696F6E2043616E27742042652057697468647261 PUSH1 0x44 DUP3 ADD MSTORE PUSH2 0x3BB7 PUSH1 0xF1 SHL PUSH1 0x64 DUP3 ADD MSTORE PUSH1 0x84 ADD PUSH2 0x535 JUMP JUMPDEST PUSH32 0x0 PUSH1 0x1 PUSH1 0x1 PUSH1 0xA0 SHL SUB AND DUP2 PUSH1 0x1 PUSH1 0x1 PUSH1 0xA0 SHL SUB AND SUB PUSH2 0x919 JUMPI PUSH1 0x0 PUSH2 0x71E CALLER PUSH2 0x23D2 JUMP JUMPDEST CALLER PUSH1 0x0 SWAP1 DUP2 MSTORE PUSH1 0x4 PUSH1 0x20 MSTORE PUSH1 0x40 DUP2 KECCAK256 PUSH1 0x6 ADD DUP1 SLOAD SWAP3 SWAP4 POP DUP4 SWAP3 SWAP1 SWAP2 SWAP1 PUSH2 0x745 SWAP1 DUP5 SWAP1 PUSH2 0x28B9 JUMP JUMPDEST SWAP1 SWAP2 SSTORE POP PUSH1 0x0 SWAP1 POP DUP1 JUMPDEST CALLER PUSH1 0x0 SWAP1 DUP2 MSTORE PUSH1 0x4 PUSH1 0x20 MSTORE PUSH1 0x40 SWAP1 KECCAK256 PUSH1 0x1 ADD SLOAD DUP2 LT ISZERO PUSH2 0x80A JUMPI CALLER PUSH1 0x0 SWAP1 DUP2 MSTORE PUSH1 0x4 PUSH1 0x20 MSTORE PUSH1 0x40 SWAP1 KECCAK256 PUSH1 0x1 ADD DUP1 SLOAD DUP7 SWAP2 SWAP1 DUP4 SWAP1 DUP2 LT PUSH2 0x790 JUMPI PUSH2 0x790 PUSH2 0x28CC JUMP JUMPDEST SWAP1 PUSH1 0x0 MSTORE PUSH1 0x20 PUSH1 0x0 KECCAK256 SWAP1 PUSH1 0x2 MUL ADD PUSH1 0x1 ADD SLOAD EQ DUP1 ISZERO PUSH2 0x7EB JUMPI POP CALLER PUSH1 0x0 SWAP1 DUP2 MSTORE PUSH1 0x4 PUSH1 0x20 MSTORE PUSH1 0x40 DUP2 KECCAK256 PUSH1 0x1 ADD DUP1 SLOAD DUP4 SWAP1 DUP2 LT PUSH2 0x7CE JUMPI PUSH2 0x7CE PUSH2 0x28CC JUMP JUMPDEST PUSH1 0x0 SWAP2 DUP3 MSTORE PUSH1 0x20 SWAP1 SWAP2 KECCAK256 PUSH1 0x2 SWAP1 SWAP2 MUL ADD SLOAD PUSH1 0x1 PUSH1 0x1 PUSH1 0xA0 SHL SUB AND EQ ISZERO JUMPDEST ISZERO PUSH2 0x7F8 JUMPI DUP1 SWAP2 POP PUSH2 0x80A JUMP JUMPDEST DUP1 PUSH2 0x802 DUP2 PUSH2 0x28E2 JUMP JUMPDEST SWAP2 POP POP PUSH2 0x74F JUMP JUMPDEST POP CALLER PUSH1 0x0 SWAP1 DUP2 MSTORE PUSH1 0x4 PUSH1 0x20 MSTORE PUSH1 0x40 DUP2 KECCAK256 PUSH1 0x1 ADD DUP1 SLOAD DUP4 SWAP1 DUP2 LT PUSH2 0x82F JUMPI PUSH2 0x82F PUSH2 0x28CC JUMP JUMPDEST PUSH1 0x0 SWAP2 DUP3 MSTORE PUSH1 0x20 DUP1 DUP4 KECCAK256 PUSH1 0x2 SWAP3 SWAP1 SWAP3 MUL SWAP1 SWAP2 ADD DUP1 SLOAD PUSH1 0x1 PUSH1 0x1 PUSH1 0xA0 SHL SUB NOT AND PUSH1 0x1 PUSH1 0x1 PUSH1 0xA0 SHL SUB SWAP5 SWAP1 SWAP5 AND SWAP4 SWAP1 SWAP4 OR SWAP1 SWAP3 SSTORE CALLER DUP2 MSTORE PUSH1 0x4 SWAP1 SWAP2 MSTORE PUSH1 0x40 DUP2 KECCAK256 DUP1 SLOAD SWAP2 PUSH2 0x879 DUP4 PUSH2 0x28FB JUMP JUMPDEST SWAP1 SWAP2 SSTORE POP POP PUSH1 0x0 DUP5 DUP2 MSTORE PUSH1 0x5 PUSH1 0x20 MSTORE PUSH1 0x40 SWAP1 DUP2 SWAP1 KECCAK256 DUP1 SLOAD PUSH1 0x1 PUSH1 0x1 PUSH1 0xA0 SHL SUB NOT AND SWAP1 SSTORE MLOAD PUSH4 0x23B872DD PUSH1 0xE0 SHL DUP2 MSTORE ADDRESS PUSH1 0x4 DUP3 ADD MSTORE CALLER PUSH1 0x24 DUP3 ADD MSTORE PUSH1 0x44 DUP2 ADD DUP6 SWAP1 MSTORE PUSH1 0x1 PUSH1 0x1 PUSH1 0xA0 SHL SUB DUP5 AND SWAP1 PUSH4 0x23B872DD SWAP1 PUSH1 0x64 ADD PUSH1 0x0 PUSH1 0x40 MLOAD DUP1 DUP4 SUB DUP2 PUSH1 0x0 DUP8 DUP1 EXTCODESIZE ISZERO DUP1 ISZERO PUSH2 0x8E8 JUMPI PUSH1 0x0 DUP1 REVERT JUMPDEST POP GAS CALL ISZERO DUP1 ISZERO PUSH2 0x8FC JUMPI RETURNDATASIZE PUSH1 0x0 DUP1 RETURNDATACOPY RETURNDATASIZE PUSH1 0x0 REVERT JUMPDEST POP POP CALLER PUSH1 0x0 SWAP1 DUP2 MSTORE PUSH1 0x4 PUSH1 0x20 MSTORE PUSH1 0x40 SWAP1 KECCAK256 TIMESTAMP PUSH1 0x5 SWAP1 SWAP2 ADD SSTORE POP POP POP POP JUMPDEST PUSH32 0x0 PUSH1 0x1 PUSH1 0x1 PUSH1 0xA0 SHL SUB AND DUP2 PUSH1 0x1 PUSH1 0x1 PUSH1 0xA0 SHL SUB AND SUB PUSH2 0xB5A JUMPI PUSH1 0x0 PUSH2 0x95D CALLER PUSH2 0x23D2 JUMP JUMPDEST CALLER PUSH1 0x0 SWAP1 DUP2 MSTORE PUSH1 0x4 PUSH1 0x20 MSTORE PUSH1 0x40 DUP2 KECCAK256 PUSH1 0x6 ADD DUP1 SLOAD SWAP3 SWAP4 POP DUP4 SWAP3 SWAP1 SWAP2 SWAP1 PUSH2 0x984 SWAP1 DUP5 SWAP1 PUSH2 0x28B9 JUMP JUMPDEST SWAP1 SWAP2 SSTORE POP PUSH1 0x0 SWAP1 POP DUP1 JUMPDEST CALLER PUSH1 0x0 SWAP1 DUP2 MSTORE PUSH1 0x4 PUSH1 0x20 DUP2 SWAP1 MSTORE PUSH1 0x40 SWAP1 SWAP2 KECCAK256 ADD SLOAD DUP2 LT ISZERO PUSH2 0xA4B JUMPI CALLER PUSH1 0x0 SWAP1 DUP2 MSTORE PUSH1 0x4 PUSH1 0x20 DUP2 SWAP1 MSTORE PUSH1 0x40 SWAP1 SWAP2 KECCAK256 ADD DUP1 SLOAD DUP7 SWAP2 SWAP1 DUP4 SWAP1 DUP2 LT PUSH2 0x9D1 JUMPI PUSH2 0x9D1 PUSH2 0x28CC JUMP JUMPDEST SWAP1 PUSH1 0x0 MSTORE PUSH1 0x20 PUSH1 0x0 KECCAK256 SWAP1 PUSH1 0x2 MUL ADD PUSH1 0x1 ADD SLOAD EQ DUP1 ISZERO PUSH2 0xA2C JUMPI POP CALLER PUSH1 0x0 SWAP1 DUP2 MSTORE PUSH1 0x4 PUSH1 0x20 DUP2 SWAP1 MSTORE PUSH1 0x40 DUP3 KECCAK256 ADD DUP1 SLOAD DUP4 SWAP1 DUP2 LT PUSH2 0xA0F JUMPI PUSH2 0xA0F PUSH2 0x28CC JUMP JUMPDEST PUSH1 0x0 SWAP2 DUP3 MSTORE PUSH1 0x20 SWAP1 SWAP2 KECCAK256 PUSH1 0x2 SWAP1 SWAP2 MUL ADD SLOAD PUSH1 0x1 PUSH1 0x1 PUSH1 0xA0 SHL SUB AND EQ ISZERO JUMPDEST ISZERO PUSH2 0xA39 JUMPI DUP1 SWAP2 POP PUSH2 0xA4B JUMP JUMPDEST DUP1 PUSH2 0xA43 DUP2 PUSH2 0x28E2 JUMP JUMPDEST SWAP2 POP POP PUSH2 0x98E JUMP JUMPDEST POP CALLER PUSH1 0x0 SWAP1 DUP2 MSTORE PUSH1 0x4 PUSH1 0x20 DUP2 SWAP1 MSTORE PUSH1 0x40 DUP3 KECCAK256 ADD DUP1 SLOAD DUP4 SWAP1 DUP2 LT PUSH2 0xA70 JUMPI PUSH2 0xA70 PUSH2 0x28CC JUMP JUMPDEST PUSH1 0x0 SWAP2 DUP3 MSTORE PUSH1 0x20 DUP1 DUP4 KECCAK256 PUSH1 0x2 SWAP3 SWAP1 SWAP3 MUL SWAP1 SWAP2 ADD DUP1 SLOAD PUSH1 0x1 PUSH1 0x1 PUSH1 0xA0 SHL SUB NOT AND PUSH1 0x1 PUSH1 0x1 PUSH1 0xA0 SHL SUB SWAP5 SWAP1 SWAP5 AND SWAP4 SWAP1 SWAP4 OR SWAP1 SWAP3 SSTORE CALLER DUP2 MSTORE PUSH1 0x4 SWAP1 SWAP2 MSTORE PUSH1 0x40 DUP2 KECCAK256 DUP1 SLOAD SWAP2 PUSH2 0xABA DUP4 PUSH2 0x28FB JUMP JUMPDEST SWAP1 SWAP2 SSTORE POP POP PUSH1 0x0 DUP5 DUP2 MSTORE PUSH1 0x5 PUSH1 0x20 MSTORE PUSH1 0x40 SWAP1 DUP2 SWAP1 KECCAK256 DUP1 SLOAD PUSH1 0x1 PUSH1 0x1 PUSH1 0xA0 SHL SUB NOT AND SWAP1 SSTORE MLOAD PUSH4 0x23B872DD PUSH1 0xE0 SHL DUP2 MSTORE ADDRESS PUSH1 0x4 DUP3 ADD MSTORE CALLER PUSH1 0x24 DUP3 ADD MSTORE PUSH1 0x44 DUP2 ADD DUP6 SWAP1 MSTORE PUSH1 0x1 PUSH1 0x1 PUSH1 0xA0 SHL SUB DUP5 AND SWAP1 PUSH4 0x23B872DD SWAP1 PUSH1 0x64 ADD PUSH1 0x0 PUSH1 0x40 MLOAD DUP1 DUP4 SUB DUP2 PUSH1 0x0 DUP8 DUP1 EXTCODESIZE ISZERO DUP1 ISZERO PUSH2 0xB29 JUMPI PUSH1 0x0 DUP1 REVERT JUMPDEST POP GAS CALL ISZERO DUP1 ISZERO PUSH2 0xB3D JUMPI RETURNDATASIZE PUSH1 0x0 DUP1 RETURNDATACOPY RETURNDATASIZE PUSH1 0x0 REVERT JUMPDEST POP POP CALLER PUSH1 0x0 SWAP1 DUP2 MSTORE PUSH1 0x4 PUSH1 0x20 MSTORE PUSH1 0x40 SWAP1 KECCAK256 TIMESTAMP PUSH1 0x5 SWAP1 SWAP2 ADD SSTORE POP POP POP POP JUMPDEST PUSH32 0x0 PUSH1 0x1 PUSH1 0x1 PUSH1 0xA0 SHL SUB AND DUP2 PUSH1 0x1 PUSH1 0x1 PUSH1 0xA0 SHL SUB AND SUB PUSH2 0xD99 JUMPI PUSH1 0x0 PUSH2 0xB9E CALLER PUSH2 0x23D2 JUMP JUMPDEST CALLER PUSH1 0x0 SWAP1 DUP2 MSTORE PUSH1 0x4 PUSH1 0x20 MSTORE PUSH1 0x40 DUP2 KECCAK256 PUSH1 0x6 ADD DUP1 SLOAD SWAP3 SWAP4 POP DUP4 SWAP3 SWAP1 SWAP2 SWAP1 PUSH2 0xBC5 SWAP1 DUP5 SWAP1 PUSH2 0x28B9 JUMP JUMPDEST SWAP1 SWAP2 SSTORE POP PUSH1 0x0 SWAP1 POP DUP1 JUMPDEST CALLER PUSH1 0x0 SWAP1 DUP2 MSTORE PUSH1 0x4 PUSH1 0x20 MSTORE PUSH1 0x40 SWAP1 KECCAK256 PUSH1 0x2 ADD SLOAD DUP2 LT ISZERO PUSH2 0xC8A JUMPI CALLER PUSH1 0x0 SWAP1 DUP2 MSTORE PUSH1 0x4 PUSH1 0x20 MSTORE PUSH1 0x40 SWAP1 KECCAK256 PUSH1 0x2 ADD DUP1 SLOAD DUP7 SWAP2 SWAP1 DUP4 SWAP1 DUP2 LT PUSH2 0xC10 JUMPI PUSH2 0xC10 PUSH2 0x28CC JUMP JUMPDEST SWAP1 PUSH1 0x0 MSTORE PUSH1 0x20 PUSH1 0x0 KECCAK256 SWAP1 PUSH1 0x2 MUL ADD PUSH1 0x1 ADD SLOAD EQ DUP1 ISZERO PUSH2 0xC6B JUMPI POP CALLER PUSH1 0x0 SWAP1 DUP2 MSTORE PUSH1 0x4 PUSH1 0x20 MSTORE PUSH1 0x40 DUP2 KECCAK256 PUSH1 0x2 ADD DUP1 SLOAD DUP4 SWAP1 DUP2 LT PUSH2 0xC4E JUMPI PUSH2 0xC4E PUSH2 0x28CC JUMP JUMPDEST PUSH1 0x0 SWAP2 DUP3 MSTORE PUSH1 0x20 SWAP1 SWAP2 KECCAK256 PUSH1 0x2 SWAP1 SWAP2 MUL ADD SLOAD PUSH1 0x1 PUSH1 0x1 PUSH1 0xA0 SHL SUB AND EQ ISZERO JUMPDEST ISZERO PUSH2 0xC78 JUMPI DUP1 SWAP2 POP PUSH2 0xC8A JUMP JUMPDEST DUP1 PUSH2 0xC82 DUP2 PUSH2 0x28E2 JUMP JUMPDEST SWAP2 POP POP PUSH2 0xBCF JUMP JUMPDEST POP CALLER PUSH1 0x0 SWAP1 DUP2 MSTORE PUSH1 0x4 PUSH1 0x20 MSTORE PUSH1 0x40 DUP2 KECCAK256 PUSH1 0x2 ADD DUP1 SLOAD DUP4 SWAP1 DUP2 LT PUSH2 0xCAF JUMPI PUSH2 0xCAF PUSH2 0x28CC JUMP JUMPDEST PUSH1 0x0 SWAP2 DUP3 MSTORE PUSH1 0x20 DUP1 DUP4 KECCAK256 PUSH1 0x2 SWAP3 SWAP1 SWAP3 MUL SWAP1 SWAP2 ADD DUP1 SLOAD PUSH1 0x1 PUSH1 0x1 PUSH1 0xA0 SHL SUB NOT AND PUSH1 0x1 PUSH1 0x1 PUSH1 0xA0 SHL SUB SWAP5 SWAP1 SWAP5 AND SWAP4 SWAP1 SWAP4 OR SWAP1 SWAP3 SSTORE CALLER DUP2 MSTORE PUSH1 0x4 SWAP1 SWAP2 MSTORE PUSH1 0x40 DUP2 KECCAK256 DUP1 SLOAD SWAP2 PUSH2 0xCF9 DUP4 PUSH2 0x28FB JUMP JUMPDEST SWAP1 SWAP2 SSTORE POP POP PUSH1 0x0 DUP5 DUP2 MSTORE PUSH1 0x5 PUSH1 0x20 MSTORE PUSH1 0x40 SWAP1 DUP2 SWAP1 KECCAK256 DUP1 SLOAD PUSH1 0x1 PUSH1 0x1 PUSH1 0xA0 SHL SUB NOT AND SWAP1 SSTORE MLOAD PUSH4 0x23B872DD PUSH1 0xE0 SHL DUP2 MSTORE ADDRESS PUSH1 0x4 DUP3 ADD MSTORE CALLER PUSH1 0x24 DUP3 ADD MSTORE PUSH1 0x44 DUP2 ADD DUP6 SWAP1 MSTORE PUSH1 0x1 PUSH1 0x1 PUSH1 0xA0 SHL SUB DUP5 AND SWAP1 PUSH4 0x23B872DD SWAP1 PUSH1 0x64 ADD PUSH1 0x0 PUSH1 0x40 MLOAD DUP1 DUP4 SUB DUP2 PUSH1 0x0 DUP8 DUP1 EXTCODESIZE ISZERO DUP1 ISZERO PUSH2 0xD68 JUMPI PUSH1 0x0 DUP1 REVERT JUMPDEST POP GAS CALL ISZERO DUP1 ISZERO PUSH2 0xD7C JUMPI RETURNDATASIZE PUSH1 0x0 DUP1 RETURNDATACOPY RETURNDATASIZE PUSH1 0x0 REVERT JUMPDEST POP POP CALLER PUSH1 0x0 SWAP1 DUP2 MSTORE PUSH1 0x4 PUSH1 0x20 MSTORE PUSH1 0x40 SWAP1 KECCAK256 TIMESTAMP PUSH1 0x5 SWAP1 SWAP2 ADD SSTORE POP POP POP POP JUMPDEST PUSH32 0x0 PUSH1 0x1 PUSH1 0x1 PUSH1 0xA0 SHL SUB AND DUP2 PUSH1 0x1 PUSH1 0x1 PUSH1 0xA0 SHL SUB AND SUB PUSH2 0xFD8 JUMPI PUSH1 0x0 PUSH2 0xDDD CALLER PUSH2 0x23D2 JUMP JUMPDEST CALLER PUSH1 0x0 SWAP1 DUP2 MSTORE PUSH1 0x4 PUSH1 0x20 MSTORE PUSH1 0x40 DUP2 KECCAK256 PUSH1 0x6 ADD DUP1 SLOAD SWAP3 SWAP4 POP DUP4 SWAP3 SWAP1 SWAP2 SWAP1 PUSH2 0xE04 SWAP1 DUP5 SWAP1 PUSH2 0x28B9 JUMP JUMPDEST SWAP1 SWAP2 SSTORE POP PUSH1 0x0 SWAP1 POP DUP1 JUMPDEST CALLER PUSH1 0x0 SWAP1 DUP2 MSTORE PUSH1 0x4 PUSH1 0x20 MSTORE PUSH1 0x40 SWAP1 KECCAK256 PUSH1 0x3 ADD SLOAD DUP2 LT ISZERO PUSH2 0xEC9 JUMPI CALLER PUSH1 0x0 SWAP1 DUP2 MSTORE PUSH1 0x4 PUSH1 0x20 MSTORE PUSH1 0x40 SWAP1 KECCAK256 PUSH1 0x3 ADD DUP1 SLOAD DUP7 SWAP2 SWAP1 DUP4 SWAP1 DUP2 LT PUSH2 0xE4F JUMPI PUSH2 0xE4F PUSH2 0x28CC JUMP JUMPDEST SWAP1 PUSH1 0x0 MSTORE PUSH1 0x20 PUSH1 0x0 KECCAK256 SWAP1 PUSH1 0x2 MUL ADD PUSH1 0x1 ADD SLOAD EQ DUP1 ISZERO PUSH2 0xEAA JUMPI POP CALLER PUSH1 0x0 SWAP1 DUP2 MSTORE PUSH1 0x4 PUSH1 0x20 MSTORE PUSH1 0x40 DUP2 KECCAK256 PUSH1 0x3 ADD DUP1 SLOAD DUP4 SWAP1 DUP2 LT PUSH2 0xE8D JUMPI PUSH2 0xE8D PUSH2 0x28CC JUMP JUMPDEST PUSH1 0x0 SWAP2 DUP3 MSTORE PUSH1 0x20 SWAP1 SWAP2 KECCAK256 PUSH1 0x2 SWAP1 SWAP2 MUL ADD SLOAD PUSH1 0x1 PUSH1 0x1 PUSH1 0xA0 SHL SUB AND EQ ISZERO JUMPDEST ISZERO PUSH2 0xEB7 JUMPI DUP1 SWAP2 POP PUSH2 0xEC9 JUMP JUMPDEST DUP1 PUSH2 0xEC1 DUP2 PUSH2 0x28E2 JUMP JUMPDEST SWAP2 POP POP PUSH2 0xE0E JUMP JUMPDEST POP CALLER PUSH1 0x0 SWAP1 DUP2 MSTORE PUSH1 0x4 PUSH1 0x20 MSTORE PUSH1 0x40 DUP2 KECCAK256 PUSH1 0x3 ADD DUP1 SLOAD DUP4 SWAP1 DUP2 LT PUSH2 0xEEE JUMPI PUSH2 0xEEE PUSH2 0x28CC JUMP JUMPDEST PUSH1 0x0 SWAP2 DUP3 MSTORE PUSH1 0x20 DUP1 DUP4 KECCAK256 PUSH1 0x2 SWAP3 SWAP1 SWAP3 MUL SWAP1 SWAP2 ADD DUP1 SLOAD PUSH1 0x1 PUSH1 0x1 PUSH1 0xA0 SHL SUB NOT AND PUSH1 0x1 PUSH1 0x1 PUSH1 0xA0 SHL SUB SWAP5 SWAP1 SWAP5 AND SWAP4 SWAP1 SWAP4 OR SWAP1 SWAP3 SSTORE CALLER DUP2 MSTORE PUSH1 0x4 SWAP1 SWAP2 MSTORE PUSH1 0x40 DUP2 KECCAK256 DUP1 SLOAD SWAP2 PUSH2 0xF38 DUP4 PUSH2 0x28FB JUMP JUMPDEST SWAP1 SWAP2 SSTORE POP POP PUSH1 0x0 DUP5 DUP2 MSTORE PUSH1 0x5 PUSH1 0x20 MSTORE PUSH1 0x40 SWAP1 DUP2 SWAP1 KECCAK256 DUP1 SLOAD PUSH1 0x1 PUSH1 0x1 PUSH1 0xA0 SHL SUB NOT AND SWAP1 SSTORE MLOAD PUSH4 0x23B872DD PUSH1 0xE0 SHL DUP2 MSTORE ADDRESS PUSH1 0x4 DUP3 ADD MSTORE CALLER PUSH1 0x24 DUP3 ADD MSTORE PUSH1 0x44 DUP2 ADD DUP6 SWAP1 MSTORE PUSH1 0x1 PUSH1 0x1 PUSH1 0xA0 SHL SUB DUP5 AND SWAP1 PUSH4 0x23B872DD SWAP1 PUSH1 0x64 ADD PUSH1 0x0 PUSH1 0x40 MLOAD DUP1 DUP4 SUB DUP2 PUSH1 0x0 DUP8 DUP1 EXTCODESIZE ISZERO DUP1 ISZERO PUSH2 0xFA7 JUMPI PUSH1 0x0 DUP1 REVERT JUMPDEST POP GAS CALL ISZERO DUP1 ISZERO PUSH2 0xFBB JUMPI RETURNDATASIZE PUSH1 0x0 DUP1 RETURNDATACOPY RETURNDATASIZE PUSH1 0x0 REVERT JUMPDEST POP POP CALLER PUSH1 0x0 SWAP1 DUP2 MSTORE PUSH1 0x4 PUSH1 0x20 MSTORE PUSH1 0x40 SWAP1 KECCAK256 TIMESTAMP PUSH1 0x5 SWAP1 SWAP2 ADD SSTORE POP POP POP POP JUMPDEST PUSH2 0xFE2 PUSH1 0x1 PUSH1 0x0 SSTORE JUMP JUMPDEST POP POP JUMP JUMPDEST PUSH2 0xFEE PUSH2 0x242C JUMP JUMPDEST PUSH1 0x0 PUSH2 0x1002 PUSH1 0x1 SLOAD PUSH1 0x1 PUSH1 0x1 PUSH1 0xA0 SHL SUB AND SWAP1 JUMP JUMPDEST PUSH1 0x1 PUSH1 0x1 PUSH1 0xA0 SHL SUB AND DUP3 PUSH1 0x40 MLOAD PUSH1 0x0 PUSH1 0x40 MLOAD DUP1 DUP4 SUB DUP2 DUP6 DUP8 GAS CALL SWAP3 POP POP POP RETURNDATASIZE DUP1 PUSH1 0x0 DUP2 EQ PUSH2 0x104C JUMPI PUSH1 0x40 MLOAD SWAP2 POP PUSH1 0x1F NOT PUSH1 0x3F RETURNDATASIZE ADD AND DUP3 ADD PUSH1 0x40 MSTORE RETURNDATASIZE DUP3 MSTORE RETURNDATASIZE PUSH1 0x0 PUSH1 0x20 DUP5 ADD RETURNDATACOPY PUSH2 0x1051 JUMP JUMPDEST PUSH1 0x60 SWAP2 POP JUMPDEST POP POP SWAP1 POP DUP1 PUSH2 0xFE2 JUMPI PUSH1 0x40 MLOAD PUSH3 0x461BCD PUSH1 0xE5 SHL DUP2 MSTORE PUSH1 0x20 PUSH1 0x4 DUP3 ADD MSTORE PUSH1 0x10 PUSH1 0x24 DUP3 ADD MSTORE PUSH16 0x5472616E73666572206661696C656421 PUSH1 0x80 SHL PUSH1 0x44 DUP3 ADD MSTORE PUSH1 0x64 ADD PUSH2 0x535 JUMP JUMPDEST CALLER PUSH1 0x0 DUP2 DUP2 MSTORE PUSH1 0x4 PUSH1 0x20 MSTORE PUSH1 0x40 DUP2 KECCAK256 PUSH1 0x6 ADD SLOAD SWAP1 SWAP2 PUSH2 0x10B3 SWAP1 PUSH2 0x23D2 JUMP JUMPDEST PUSH2 0x10BD SWAP2 SWAP1 PUSH2 0x28B9 JUMP JUMPDEST SWAP1 POP PUSH1 0x0 DUP2 GT PUSH2 0x110F JUMPI PUSH1 0x40 MLOAD PUSH3 0x461BCD PUSH1 0xE5 SHL DUP2 MSTORE PUSH1 0x20 PUSH1 0x4 DUP3 ADD MSTORE PUSH1 0x1C PUSH1 0x24 DUP3 ADD MSTORE PUSH32 0x596F752068617665206E6F207265776172647320746F20636C61696D00000000 PUSH1 0x44 DUP3 ADD MSTORE PUSH1 0x64 ADD PUSH2 0x535 JUMP JUMPDEST CALLER PUSH1 0x0 DUP2 DUP2 MSTORE PUSH1 0x4 PUSH1 0x20 MSTORE PUSH1 0x40 DUP2 KECCAK256 TIMESTAMP PUSH1 0x5 DUP3 ADD SSTORE PUSH1 0x6 ADD SSTORE PUSH2 0x115D SWAP1 PUSH32 0x0 PUSH1 0x1 PUSH1 0x1 PUSH1 0xA0 SHL SUB AND SWAP1 DUP4 PUSH2 0x2486 JUMP JUMPDEST POP JUMP JUMPDEST PUSH1 0x1 PUSH1 0x1 PUSH1 0xA0 SHL SUB DUP2 AND PUSH1 0x0 SWAP1 DUP2 MSTORE PUSH1 0x4 PUSH1 0x20 MSTORE PUSH1 0x40 SWAP1 KECCAK256 SLOAD PUSH1 0x60 SWAP1 ISZERO PUSH2 0x1318 JUMPI PUSH1 0x1 PUSH1 0x1 PUSH1 0xA0 SHL SUB DUP3 AND PUSH1 0x0 SWAP1 DUP2 MSTORE PUSH1 0x4 PUSH1 0x20 MSTORE PUSH1 0x40 DUP2 KECCAK256 SLOAD PUSH8 0xFFFFFFFFFFFFFFFF DUP2 GT ISZERO PUSH2 0x11B2 JUMPI PUSH2 0x11B2 PUSH2 0x2912 JUMP JUMPDEST PUSH1 0x40 MLOAD SWAP1 DUP1 DUP3 MSTORE DUP1 PUSH1 0x20 MUL PUSH1 0x20 ADD DUP3 ADD PUSH1 0x40 MSTORE DUP1 ISZERO PUSH2 0x11F7 JUMPI DUP2 PUSH1 0x20 ADD JUMPDEST PUSH1 0x40 DUP1 MLOAD DUP1 DUP3 ADD SWAP1 SWAP2 MSTORE PUSH1 0x0 DUP1 DUP3 MSTORE PUSH1 0x20 DUP3 ADD MSTORE DUP2 MSTORE PUSH1 0x20 ADD SWAP1 PUSH1 0x1 SWAP1 SUB SWAP1 DUP2 PUSH2 0x11D0 JUMPI SWAP1 POP JUMPDEST POP SWAP1 POP PUSH1 0x0 DUP1 JUMPDEST PUSH1 0x1 PUSH1 0x1 PUSH1 0xA0 SHL SUB DUP6 AND PUSH1 0x0 SWAP1 DUP2 MSTORE PUSH1 0x4 PUSH1 0x20 DUP2 SWAP1 MSTORE PUSH1 0x40 SWAP1 SWAP2 KECCAK256 ADD SLOAD DUP2 LT ISZERO PUSH2 0x130F JUMPI PUSH1 0x1 PUSH1 0x1 PUSH1 0xA0 SHL SUB DUP6 AND PUSH1 0x0 SWAP1 DUP2 MSTORE PUSH1 0x4 PUSH1 0x20 DUP2 SWAP1 MSTORE PUSH1 0x40 DUP3 KECCAK256 ADD DUP1 SLOAD DUP4 SWAP1 DUP2 LT PUSH2 0x124F JUMPI PUSH2 0x124F PUSH2 0x28CC JUMP JUMPDEST PUSH1 0x0 SWAP2 DUP3 MSTORE PUSH1 0x20 SWAP1 SWAP2 KECCAK256 PUSH1 0x2 SWAP1 SWAP2 MUL ADD SLOAD PUSH1 0x1 PUSH1 0x1 PUSH1 0xA0 SHL SUB AND EQ PUSH2 0x12FD JUMPI PUSH1 0x1 PUSH1 0x1 PUSH1 0xA0 SHL SUB DUP6 AND PUSH1 0x0 SWAP1 DUP2 MSTORE PUSH1 0x4 PUSH1 0x20 DUP2 SWAP1 MSTORE PUSH1 0x40 SWAP1 SWAP2 KECCAK256 ADD DUP1 SLOAD DUP3 SWAP1 DUP2 LT PUSH2 0x129C JUMPI PUSH2 0x129C PUSH2 0x28CC JUMP JUMPDEST PUSH1 0x0 SWAP2 DUP3 MSTORE PUSH1 0x20 SWAP2 DUP3 SWAP1 KECCAK256 PUSH1 0x40 DUP1 MLOAD DUP1 DUP3 ADD SWAP1 SWAP2 MSTORE PUSH1 0x2 SWAP1 SWAP3 MUL ADD DUP1 SLOAD PUSH1 0x1 PUSH1 0x1 PUSH1 0xA0 SHL SUB AND DUP3 MSTORE PUSH1 0x1 ADD SLOAD SWAP2 DUP2 ADD SWAP2 SWAP1 SWAP2 MSTORE DUP4 MLOAD DUP5 SWAP1 DUP5 SWAP1 DUP2 LT PUSH2 0x12E3 JUMPI PUSH2 0x12E3 PUSH2 0x28CC JUMP JUMPDEST PUSH1 0x20 MUL PUSH1 0x20 ADD ADD DUP2 SWAP1 MSTORE POP DUP2 DUP1 PUSH2 0x12F9 SWAP1 PUSH2 0x28E2 JUMP JUMPDEST SWAP3 POP POP JUMPDEST DUP1 PUSH2 0x1307 DUP2 PUSH2 0x28E2 JUMP JUMPDEST SWAP2 POP POP PUSH2 0x11FE JUMP JUMPDEST POP SWAP1 SWAP4 SWAP3 POP POP POP JUMP JUMPDEST PUSH1 0x40 DUP1 MLOAD PUSH1 0x0 DUP1 DUP3 MSTORE PUSH1 0x20 DUP3 ADD SWAP1 SWAP3 MSTORE SWAP1 PUSH2 0x1355 JUMP JUMPDEST PUSH1 0x40 DUP1 MLOAD DUP1 DUP3 ADD SWAP1 SWAP2 MSTORE PUSH1 0x0 DUP1 DUP3 MSTORE PUSH1 0x20 DUP3 ADD MSTORE DUP2 MSTORE PUSH1 0x20 ADD SWAP1 PUSH1 0x1 SWAP1 SUB SWAP1 DUP2 PUSH2 0x132E JUMPI SWAP1 POP JUMPDEST POP SWAP3 SWAP2 POP POP JUMP JUMPDEST PUSH1 0x1 PUSH1 0x1 PUSH1 0xA0 SHL SUB DUP2 AND PUSH1 0x0 SWAP1 DUP2 MSTORE PUSH1 0x4 PUSH1 0x20 MSTORE PUSH1 0x40 SWAP1 KECCAK256 SLOAD PUSH1 0x60 SWAP1 ISZERO PUSH2 0x1318 JUMPI PUSH1 0x1 PUSH1 0x1 PUSH1 0xA0 SHL SUB DUP3 AND PUSH1 0x0 SWAP1 DUP2 MSTORE PUSH1 0x4 PUSH1 0x20 MSTORE PUSH1 0x40 DUP2 KECCAK256 SLOAD PUSH8 0xFFFFFFFFFFFFFFFF DUP2 GT ISZERO PUSH2 0x13AE JUMPI PUSH2 0x13AE PUSH2 0x2912 JUMP JUMPDEST PUSH1 0x40 MLOAD SWAP1 DUP1 DUP3 MSTORE DUP1 PUSH1 0x20 MUL PUSH1 0x20 ADD DUP3 ADD PUSH1 0x40 MSTORE DUP1 ISZERO PUSH2 0x13F3 JUMPI DUP2 PUSH1 0x20 ADD JUMPDEST PUSH1 0x40 DUP1 MLOAD DUP1 DUP3 ADD SWAP1 SWAP2 MSTORE PUSH1 0x0 DUP1 DUP3 MSTORE PUSH1 0x20 DUP3 ADD MSTORE DUP2 MSTORE PUSH1 0x20 ADD SWAP1 PUSH1 0x1 SWAP1 SUB SWAP1 DUP2 PUSH2 0x13CC JUMPI SWAP1 POP JUMPDEST POP SWAP1 POP PUSH1 0x0 DUP1 JUMPDEST PUSH1 0x1 PUSH1 0x1 PUSH1 0xA0 SHL SUB DUP6 AND PUSH1 0x0 SWAP1 DUP2 MSTORE PUSH1 0x4 PUSH1 0x20 MSTORE PUSH1 0x40 SWAP1 KECCAK256 PUSH1 0x1 ADD SLOAD DUP2 LT ISZERO PUSH2 0x130F JUMPI PUSH1 0x1 PUSH1 0x1 PUSH1 0xA0 SHL SUB DUP6 AND PUSH1 0x0 SWAP1 DUP2 MSTORE PUSH1 0x4 PUSH1 0x20 MSTORE PUSH1 0x40 DUP2 KECCAK256 PUSH1 0x1 ADD DUP1 SLOAD DUP4 SWAP1 DUP2 LT PUSH2 0x144A JUMPI PUSH2 0x144A PUSH2 0x28CC JUMP JUMPDEST PUSH1 0x0 SWAP2 DUP3 MSTORE PUSH1 0x20 SWAP1 SWAP2 KECCAK256 PUSH1 0x2 SWAP1 SWAP2 MUL ADD SLOAD PUSH1 0x1 PUSH1 0x1 PUSH1 0xA0 SHL SUB AND EQ PUSH2 0x14F7 JUMPI PUSH1 0x1 PUSH1 0x1 PUSH1 0xA0 SHL SUB DUP6 AND PUSH1 0x0 SWAP1 DUP2 MSTORE PUSH1 0x4 PUSH1 0x20 MSTORE PUSH1 0x40 SWAP1 KECCAK256 PUSH1 0x1 ADD DUP1 SLOAD DUP3 SWAP1 DUP2 LT PUSH2 0x1496 JUMPI PUSH2 0x1496 PUSH2 0x28CC JUMP JUMPDEST PUSH1 0x0 SWAP2 DUP3 MSTORE PUSH1 0x20 SWAP2 DUP3 SWAP1 KECCAK256 PUSH1 0x40 DUP1 MLOAD DUP1 DUP3 ADD SWAP1 SWAP2 MSTORE PUSH1 0x2 SWAP1 SWAP3 MUL ADD DUP1 SLOAD PUSH1 0x1 PUSH1 0x1 PUSH1 0xA0 SHL SUB AND DUP3 MSTORE PUSH1 0x1 ADD SLOAD SWAP2 DUP2 ADD SWAP2 SWAP1 SWAP2 MSTORE DUP4 MLOAD DUP5 SWAP1 DUP5 SWAP1 DUP2 LT PUSH2 0x14DD JUMPI PUSH2 0x14DD PUSH2 0x28CC JUMP JUMPDEST PUSH1 0x20 MUL PUSH1 0x20 ADD ADD DUP2 SWAP1 MSTORE POP DUP2 DUP1 PUSH2 0x14F3 SWAP1 PUSH2 0x28E2 JUMP JUMPDEST SWAP3 POP POP JUMPDEST DUP1 PUSH2 0x1501 DUP2 PUSH2 0x28E2 JUMP JUMPDEST SWAP2 POP POP PUSH2 0x13FA JUMP JUMPDEST PUSH2 0x1511 PUSH2 0x242C JUMP JUMPDEST PUSH2 0x151B PUSH1 0x0 PUSH2 0x24F2 JUMP JUMPDEST JUMP JUMPDEST PUSH2 0x1525 PUSH2 0x2379 JUMP JUMPDEST CALLER PUSH1 0x0 SWAP1 DUP2 MSTORE PUSH1 0x4 PUSH1 0x20 MSTORE PUSH1 0x40 SWAP1 KECCAK256 SLOAD ISZERO PUSH2 0x1573 JUMPI PUSH1 0x0 PUSH2 0x1545 CALLER PUSH2 0x23D2 JUMP JUMPDEST CALLER PUSH1 0x0 SWAP1 DUP2 MSTORE PUSH1 0x4 PUSH1 0x20 MSTORE PUSH1 0x40 DUP2 KECCAK256 PUSH1 0x6 ADD DUP1 SLOAD SWAP3 SWAP4 POP DUP4 SWAP3 SWAP1 SWAP2 SWAP1 PUSH2 0x156C SWAP1 DUP5 SWAP1 PUSH2 0x28B9 JUMP JUMPDEST SWAP1 SWAP2 SSTORE POP POP POP JUMPDEST PUSH1 0x40 MLOAD PUSH4 0x31A9108F PUSH1 0xE1 SHL DUP2 MSTORE PUSH1 0x4 DUP2 ADD DUP4 SWAP1 MSTORE CALLER SWAP1 PUSH1 0x1 PUSH1 0x1 PUSH1 0xA0 SHL SUB PUSH32 0x0 AND SWAP1 PUSH4 0x6352211E SWAP1 PUSH1 0x24 ADD PUSH1 0x20 PUSH1 0x40 MLOAD DUP1 DUP4 SUB DUP2 DUP7 GAS STATICCALL ISZERO DUP1 ISZERO PUSH2 0x15DA JUMPI RETURNDATASIZE PUSH1 0x0 DUP1 RETURNDATACOPY RETURNDATASIZE PUSH1 0x0 REVERT JUMPDEST POP POP POP POP PUSH1 0x40 MLOAD RETURNDATASIZE PUSH1 0x1F NOT PUSH1 0x1F DUP3 ADD AND DUP3 ADD DUP1 PUSH1 0x40 MSTORE POP DUP2 ADD SWAP1 PUSH2 0x15FE SWAP2 SWAP1 PUSH2 0x2928 JUMP JUMPDEST PUSH1 0x1 PUSH1 0x1 PUSH1 0xA0 SHL SUB AND EQ DUP1 PUSH2 0x16A4 JUMPI POP PUSH1 0x40 MLOAD PUSH4 0x31A9108F PUSH1 0xE1 SHL DUP2 MSTORE PUSH1 0x4 DUP2 ADD DUP4 SWAP1 MSTORE CALLER SWAP1 PUSH1 0x1 PUSH1 0x1 PUSH1 0xA0 SHL SUB PUSH32 0x0 AND SWAP1 PUSH4 0x6352211E SWAP1 PUSH1 0x24 ADD PUSH1 0x20 PUSH1 0x40 MLOAD DUP1 DUP4 SUB DUP2 DUP7 GAS STATICCALL ISZERO DUP1 ISZERO PUSH2 0x1675 JUMPI RETURNDATASIZE PUSH1 0x0 DUP1 RETURNDATACOPY RETURNDATASIZE PUSH1 0x0 REVERT JUMPDEST POP POP POP POP PUSH1 0x40 MLOAD RETURNDATASIZE PUSH1 0x1F NOT PUSH1 0x1F DUP3 ADD AND DUP3 ADD DUP1 PUSH1 0x40 MSTORE POP DUP2 ADD SWAP1 PUSH2 0x1699 SWAP2 SWAP1 PUSH2 0x2928 JUMP JUMPDEST PUSH1 0x1 PUSH1 0x1 PUSH1 0xA0 SHL SUB AND EQ JUMPDEST DUP1 PUSH2 0x1740 JUMPI POP PUSH1 0x40 MLOAD PUSH4 0x31A9108F PUSH1 0xE1 SHL DUP2 MSTORE PUSH1 0x4 DUP2 ADD DUP4 SWAP1 MSTORE CALLER SWAP1 PUSH1 0x1 PUSH1 0x1 PUSH1 0xA0 SHL SUB PUSH32 0x0 AND SWAP1 PUSH4 0x6352211E SWAP1 PUSH1 0x24 ADD PUSH1 0x20 PUSH1 0x40 MLOAD DUP1 DUP4 SUB DUP2 DUP7 GAS STATICCALL ISZERO DUP1 ISZERO PUSH2 0x1711 JUMPI RETURNDATASIZE PUSH1 0x0 DUP1 RETURNDATACOPY RETURNDATASIZE PUSH1 0x0 REVERT JUMPDEST POP POP POP POP PUSH1 0x40 MLOAD RETURNDATASIZE PUSH1 0x1F NOT PUSH1 0x1F DUP3 ADD AND DUP3 ADD DUP1 PUSH1 0x40 MSTORE POP DUP2 ADD SWAP1 PUSH2 0x1735 SWAP2 SWAP1 PUSH2 0x2928 JUMP JUMPDEST PUSH1 0x1 PUSH1 0x1 PUSH1 0xA0 SHL SUB AND EQ JUMPDEST DUP1 PUSH2 0x17DC JUMPI POP PUSH1 0x40 MLOAD PUSH4 0x31A9108F PUSH1 0xE1 SHL DUP2 MSTORE PUSH1 0x4 DUP2 ADD DUP4 SWAP1 MSTORE CALLER SWAP1 PUSH1 0x1 PUSH1 0x1 PUSH1 0xA0 SHL SUB PUSH32 0x0 AND SWAP1 PUSH4 0x6352211E SWAP1 PUSH1 0x24 ADD PUSH1 0x20 PUSH1 0x40 MLOAD DUP1 DUP4 SUB DUP2 DUP7 GAS STATICCALL ISZERO DUP1 ISZERO PUSH2 0x17AD JUMPI RETURNDATASIZE PUSH1 0x0 DUP1 RETURNDATACOPY RETURNDATASIZE PUSH1 0x0 REVERT JUMPDEST POP POP POP POP PUSH1 0x40 MLOAD RETURNDATASIZE PUSH1 0x1F NOT PUSH1 0x1F DUP3 ADD AND DUP3 ADD DUP1 PUSH1 0x40 MSTORE POP DUP2 ADD SWAP1 PUSH2 0x17D1 SWAP2 SWAP1 PUSH2 0x2928 JUMP JUMPDEST PUSH1 0x1 PUSH1 0x1 PUSH1 0xA0 SHL SUB AND EQ JUMPDEST PUSH2 0x1828 JUMPI PUSH1 0x40 MLOAD PUSH3 0x461BCD PUSH1 0xE5 SHL DUP2 MSTORE PUSH1 0x20 PUSH1 0x4 DUP3 ADD MSTORE PUSH1 0x19 PUSH1 0x24 DUP3 ADD MSTORE PUSH32 0x596F7520446F6E2774204F776E205468697320546F6B656E2100000000000000 PUSH1 0x44 DUP3 ADD MSTORE PUSH1 0x64 ADD PUSH2 0x535 JUMP JUMPDEST PUSH32 0x0 PUSH1 0x1 PUSH1 0x1 PUSH1 0xA0 SHL SUB AND DUP2 PUSH1 0x1 PUSH1 0x1 PUSH1 0xA0 SHL SUB AND EQ DUP1 PUSH2 0x1899 JUMPI POP PUSH32 0x0 PUSH1 0x1 PUSH1 0x1 PUSH1 0xA0 SHL SUB AND DUP2 PUSH1 0x1 PUSH1 0x1 PUSH1 0xA0 SHL SUB AND EQ JUMPDEST DUP1 PUSH2 0x18D5 JUMPI POP PUSH32 0x0 PUSH1 0x1 PUSH1 0x1 PUSH1 0xA0 SHL SUB AND DUP2 PUSH1 0x1 PUSH1 0x1 PUSH1 0xA0 SHL SUB AND EQ JUMPDEST DUP1 PUSH2 0x1911 JUMPI POP PUSH32 0x0 PUSH1 0x1 PUSH1 0x1 PUSH1 0xA0 SHL SUB AND DUP2 PUSH1 0x1 PUSH1 0x1 PUSH1 0xA0 SHL SUB AND EQ JUMPDEST PUSH2 0x195D JUMPI PUSH1 0x40 MLOAD PUSH3 0x461BCD PUSH1 0xE5 SHL DUP2 MSTORE PUSH1 0x20 PUSH1 0x4 DUP3 ADD MSTORE PUSH1 0x1F PUSH1 0x24 DUP3 ADD MSTORE PUSH32 0x5468697320436F6C6C656374696F6E2043616E2774204265205374616B656400 PUSH1 0x44 DUP3 ADD MSTORE PUSH1 0x64 ADD PUSH2 0x535 JUMP JUMPDEST PUSH32 0x0 PUSH1 0x1 PUSH1 0x1 PUSH1 0xA0 SHL SUB AND DUP2 PUSH1 0x1 PUSH1 0x1 PUSH1 0xA0 SHL SUB AND SUB PUSH2 0x1AAA JUMPI PUSH1 0x40 MLOAD PUSH4 0x23B872DD PUSH1 0xE0 SHL DUP2 MSTORE CALLER PUSH1 0x4 DUP3 ADD MSTORE ADDRESS PUSH1 0x24 DUP3 ADD MSTORE PUSH1 0x44 DUP2 ADD DUP4 SWAP1 MSTORE PUSH1 0x1 PUSH1 0x1 PUSH1 0xA0 SHL SUB DUP3 AND SWAP1 PUSH4 0x23B872DD SWAP1 PUSH1 0x64 ADD PUSH1 0x0 PUSH1 0x40 MLOAD DUP1 DUP4 SUB DUP2 PUSH1 0x0 DUP8 DUP1 EXTCODESIZE ISZERO DUP1 ISZERO PUSH2 0x19E4 JUMPI PUSH1 0x0 DUP1 REVERT JUMPDEST POP GAS CALL ISZERO DUP1 ISZERO PUSH2 0x19F8 JUMPI RETURNDATASIZE PUSH1 0x0 DUP1 RETURNDATACOPY RETURNDATASIZE PUSH1 0x0 REVERT JUMPDEST POP POP PUSH1 0x40 DUP1 MLOAD DUP1 DUP3 ADD DUP3 MSTORE CALLER DUP1 DUP3 MSTORE PUSH1 0x20 DUP1 DUP4 ADD DUP9 DUP2 MSTORE PUSH1 0x0 DUP4 DUP2 MSTORE PUSH1 0x4 DUP4 MSTORE SWAP5 DUP6 KECCAK256 PUSH1 0x1 DUP1 DUP3 ADD DUP1 SLOAD DUP1 DUP4 ADD DUP3 SSTORE SWAP1 DUP9 MSTORE SWAP4 DUP8 KECCAK256 DUP7 MLOAD PUSH1 0x2 SWAP1 SWAP6 MUL ADD DUP1 SLOAD PUSH1 0x1 PUSH1 0x1 PUSH1 0xA0 SHL SUB NOT AND PUSH1 0x1 PUSH1 0x1 PUSH1 0xA0 SHL SUB SWAP1 SWAP6 AND SWAP5 SWAP1 SWAP5 OR DUP5 SSTORE SWAP2 MLOAD SWAP3 SWAP1 SWAP2 ADD SWAP2 SWAP1 SWAP2 SSTORE SWAP1 DUP4 MSTORE DUP1 SLOAD SWAP2 SWAP5 POP SWAP1 SWAP3 POP SWAP1 PUSH2 0x1A71 DUP4 PUSH2 0x28E2 JUMP JUMPDEST SWAP1 SWAP2 SSTORE POP POP POP PUSH1 0x0 DUP3 DUP2 MSTORE PUSH1 0x5 PUSH1 0x20 DUP2 DUP2 MSTORE PUSH1 0x40 DUP1 DUP5 KECCAK256 DUP1 SLOAD PUSH1 0x1 PUSH1 0x1 PUSH1 0xA0 SHL SUB NOT AND CALLER SWAP1 DUP2 OR SWAP1 SWAP2 SSTORE DUP5 MSTORE PUSH1 0x4 SWAP1 SWAP2 MSTORE SWAP1 SWAP2 KECCAK256 TIMESTAMP SWAP2 ADD SSTORE JUMPDEST PUSH32 0x0 PUSH1 0x1 PUSH1 0x1 PUSH1 0xA0 SHL SUB AND DUP2 PUSH1 0x1 PUSH1 0x1 PUSH1 0xA0 SHL SUB AND SUB PUSH2 0x1BF7 JUMPI PUSH1 0x40 MLOAD PUSH4 0x23B872DD PUSH1 0xE0 SHL DUP2 MSTORE CALLER PUSH1 0x4 DUP3 ADD MSTORE ADDRESS PUSH1 0x24 DUP3 ADD MSTORE PUSH1 0x44 DUP2 ADD DUP4 SWAP1 MSTORE PUSH1 0x1 PUSH1 0x1 PUSH1 0xA0 SHL SUB DUP3 AND SWAP1 PUSH4 0x23B872DD SWAP1 PUSH1 0x64 ADD PUSH1 0x0 PUSH1 0x40 MLOAD DUP1 DUP4 SUB DUP2 PUSH1 0x0 DUP8 DUP1 EXTCODESIZE ISZERO DUP1 ISZERO PUSH2 0x1B31 JUMPI PUSH1 0x0 DUP1 REVERT JUMPDEST POP GAS CALL ISZERO DUP1 ISZERO PUSH2 0x1B45 JUMPI RETURNDATASIZE PUSH1 0x0 DUP1 RETURNDATACOPY RETURNDATASIZE PUSH1 0x0 REVERT JUMPDEST POP POP PUSH1 0x40 DUP1 MLOAD DUP1 DUP3 ADD DUP3 MSTORE CALLER DUP1 DUP3 MSTORE PUSH1 0x20 DUP1 DUP4 ADD DUP9 DUP2 MSTORE PUSH1 0x0 DUP4 DUP2 MSTORE PUSH1 0x4 DUP1 DUP5 MSTORE SWAP6 DUP2 KECCAK256 SWAP6 DUP7 ADD DUP1 SLOAD PUSH1 0x1 DUP1 DUP3 ADD DUP4 SSTORE SWAP2 DUP4 MSTORE SWAP4 DUP3 KECCAK256 DUP7 MLOAD PUSH1 0x2 SWAP1 SWAP6 MUL ADD DUP1 SLOAD PUSH1 0x1 PUSH1 0x1 PUSH1 0xA0 SHL SUB NOT AND PUSH1 0x1 PUSH1 0x1 PUSH1 0xA0 SHL SUB SWAP1 SWAP6 AND SWAP5 SWAP1 SWAP5 OR DUP5 SSTORE SWAP2 MLOAD SWAP3 SWAP1 SWAP2 ADD SWAP2 SWAP1 SWAP2 SSTORE SWAP1 DUP2 MSTORE DUP3 SLOAD SWAP2 SWAP5 POP SWAP1 SWAP3 POP PUSH2 0x1BBE DUP4 PUSH2 0x28E2 JUMP JUMPDEST SWAP1 SWAP2 SSTORE POP POP POP PUSH1 0x0 DUP3 DUP2 MSTORE PUSH1 0x5 PUSH1 0x20 DUP2 DUP2 MSTORE PUSH1 0x40 DUP1 DUP5 KECCAK256 DUP1 SLOAD PUSH1 0x1 PUSH1 0x1 PUSH1 0xA0 SHL SUB NOT AND CALLER SWAP1 DUP2 OR SWAP1 SWAP2 SSTORE DUP5 MSTORE PUSH1 0x4 SWAP1 SWAP2 MSTORE SWAP1 SWAP2 KECCAK256 TIMESTAMP SWAP2 ADD SSTORE JUMPDEST PUSH32 0x0 PUSH1 0x1 PUSH1 0x1 PUSH1 0xA0 SHL SUB AND DUP2 PUSH1 0x1 PUSH1 0x1 PUSH1 0xA0 SHL SUB AND SUB PUSH2 0x1D47 JUMPI PUSH1 0x40 MLOAD PUSH4 0x23B872DD PUSH1 0xE0 SHL DUP2 MSTORE CALLER PUSH1 0x4 DUP3 ADD MSTORE ADDRESS PUSH1 0x24 DUP3 ADD MSTORE PUSH1 0x44 DUP2 ADD DUP4 SWAP1 MSTORE PUSH1 0x1 PUSH1 0x1 PUSH1 0xA0 SHL SUB DUP3 AND SWAP1 PUSH4 0x23B872DD SWAP1 PUSH1 0x64 ADD PUSH1 0x0 PUSH1 0x40 MLOAD DUP1 DUP4 SUB DUP2 PUSH1 0x0 DUP8 DUP1 EXTCODESIZE ISZERO DUP1 ISZERO PUSH2 0x1C7E JUMPI PUSH1 0x0 DUP1 REVERT JUMPDEST POP GAS CALL ISZERO DUP1 ISZERO PUSH2 0x1C92 JUMPI RETURNDATASIZE PUSH1 0x0 DUP1 RETURNDATACOPY RETURNDATASIZE PUSH1 0x0 REVERT JUMPDEST POP POP PUSH1 0x40 DUP1 MLOAD DUP1 DUP3 ADD DUP3 MSTORE CALLER DUP1 DUP3 MSTORE PUSH1 0x20 DUP1 DUP4 ADD DUP9 DUP2 MSTORE PUSH1 0x0 DUP4 DUP2 MSTORE PUSH1 0x4 DUP4 MSTORE SWAP5 DUP6 KECCAK256 PUSH1 0x2 DUP1 DUP3 ADD DUP1 SLOAD PUSH1 0x1 DUP1 DUP3 ADD DUP4 SSTORE SWAP2 DUP10 MSTORE SWAP5 DUP9 KECCAK256 DUP8 MLOAD SWAP6 SWAP1 SWAP3 MUL SWAP1 SWAP2 ADD DUP1 SLOAD PUSH1 0x1 PUSH1 0x1 PUSH1 0xA0 SHL SUB NOT AND PUSH1 0x1 PUSH1 0x1 PUSH1 0xA0 SHL SUB SWAP1 SWAP6 AND SWAP5 SWAP1 SWAP5 OR DUP5 SSTORE SWAP2 MLOAD SWAP3 SWAP1 SWAP2 ADD SWAP2 SWAP1 SWAP2 SSTORE SWAP1 DUP4 MSTORE DUP1 SLOAD SWAP2 SWAP5 POP SWAP1 SWAP3 POP SWAP1 PUSH2 0x1D0E DUP4 PUSH2 0x28E2 JUMP JUMPDEST SWAP1 SWAP2 SSTORE POP POP POP PUSH1 0x0 DUP3 DUP2 MSTORE PUSH1 0x5 PUSH1 0x20 DUP2 DUP2 MSTORE PUSH1 0x40 DUP1 DUP5 KECCAK256 DUP1 SLOAD PUSH1 0x1 PUSH1 0x1 PUSH1 0xA0 SHL SUB NOT AND CALLER SWAP1 DUP2 OR SWAP1 SWAP2 SSTORE DUP5 MSTORE PUSH1 0x4 SWAP1 SWAP2 MSTORE SWAP1 SWAP2 KECCAK256 TIMESTAMP SWAP2 ADD SSTORE JUMPDEST PUSH32 0x0 PUSH1 0x1 PUSH1 0x1 PUSH1 0xA0 SHL SUB AND DUP2 PUSH1 0x1 PUSH1 0x1 PUSH1 0xA0 SHL SUB AND SUB PUSH2 0xFD8 JUMPI PUSH1 0x40 MLOAD PUSH4 0x23B872DD PUSH1 0xE0 SHL DUP2 MSTORE CALLER PUSH1 0x4 DUP3 ADD MSTORE ADDRESS PUSH1 0x24 DUP3 ADD MSTORE PUSH1 0x44 DUP2 ADD DUP4 SWAP1 MSTORE PUSH1 0x1 PUSH1 0x1 PUSH1 0xA0 SHL SUB DUP3 AND SWAP1 PUSH4 0x23B872DD SWAP1 PUSH1 0x64 ADD PUSH1 0x0 PUSH1 0x40 MLOAD DUP1 DUP4 SUB DUP2 PUSH1 0x0 DUP8 DUP1 EXTCODESIZE ISZERO DUP1 ISZERO PUSH2 0x1DCE JUMPI PUSH1 0x0 DUP1 REVERT JUMPDEST POP GAS CALL ISZERO DUP1 ISZERO PUSH2 0x1DE2 JUMPI RETURNDATASIZE PUSH1 0x0 DUP1 RETURNDATACOPY RETURNDATASIZE PUSH1 0x0 REVERT JUMPDEST POP POP PUSH1 0x40 DUP1 MLOAD DUP1 DUP3 ADD DUP3 MSTORE CALLER DUP1 DUP3 MSTORE PUSH1 0x20 DUP1 DUP4 ADD DUP9 DUP2 MSTORE PUSH1 0x0 DUP4 DUP2 MSTORE PUSH1 0x4 DUP4 MSTORE SWAP5 DUP6 KECCAK256 PUSH1 0x3 DUP2 ADD DUP1 SLOAD PUSH1 0x1 DUP1 DUP3 ADD DUP4 SSTORE SWAP2 DUP9 MSTORE SWAP4 DUP8 KECCAK256 DUP7 MLOAD PUSH1 0x2 SWAP1 SWAP6 MUL ADD DUP1 SLOAD PUSH1 0x1 PUSH1 0x1 PUSH1 0xA0 SHL SUB NOT AND PUSH1 0x1 PUSH1 0x1 PUSH1 0xA0 SHL SUB SWAP1 SWAP6 AND SWAP5 SWAP1 SWAP5 OR DUP5 SSTORE SWAP2 MLOAD SWAP3 SWAP1 SWAP2 ADD SWAP2 SWAP1 SWAP2 SSTORE SWAP1 DUP4 MSTORE DUP1 SLOAD SWAP2 SWAP5 POP SWAP1 SWAP3 POP SWAP1 PUSH2 0x1E5C DUP4 PUSH2 0x28E2 JUMP JUMPDEST SWAP1 SWAP2 SSTORE POP POP POP PUSH1 0x0 DUP3 DUP2 MSTORE PUSH1 0x5 PUSH1 0x20 DUP2 DUP2 MSTORE PUSH1 0x40 DUP1 DUP5 KECCAK256 DUP1 SLOAD PUSH1 0x1 PUSH1 0x1 PUSH1 0xA0 SHL SUB NOT AND CALLER SWAP1 DUP2 OR SWAP1 SWAP2 SSTORE DUP5 MSTORE PUSH1 0x4 SWAP1 SWAP2 MSTORE SWAP1 SWAP2 KECCAK256 TIMESTAMP SWAP2 ADD SSTORE PUSH2 0xFE2 PUSH1 0x1 PUSH1 0x0 SSTORE JUMP JUMPDEST PUSH1 0x1 PUSH1 0x1 PUSH1 0xA0 SHL SUB DUP2 AND PUSH1 0x0 SWAP1 DUP2 MSTORE PUSH1 0x4 PUSH1 0x20 MSTORE PUSH1 0x40 SWAP1 KECCAK256 SLOAD PUSH1 0x60 SWAP1 ISZERO PUSH2 0x1318 JUMPI PUSH1 0x1 PUSH1 0x1 PUSH1 0xA0 SHL SUB DUP3 AND PUSH1 0x0 SWAP1 DUP2 MSTORE PUSH1 0x4 PUSH1 0x20 MSTORE PUSH1 0x40 DUP2 KECCAK256 SLOAD PUSH8 0xFFFFFFFFFFFFFFFF DUP2 GT ISZERO PUSH2 0x1EF0 JUMPI PUSH2 0x1EF0 PUSH2 0x2912 JUMP JUMPDEST PUSH1 0x40 MLOAD SWAP1 DUP1 DUP3 MSTORE DUP1 PUSH1 0x20 MUL PUSH1 0x20 ADD DUP3 ADD PUSH1 0x40 MSTORE DUP1 ISZERO PUSH2 0x1F35 JUMPI DUP2 PUSH1 0x20 ADD JUMPDEST PUSH1 0x40 DUP1 MLOAD DUP1 DUP3 ADD SWAP1 SWAP2 MSTORE PUSH1 0x0 DUP1 DUP3 MSTORE PUSH1 0x20 DUP3 ADD MSTORE DUP2 MSTORE PUSH1 0x20 ADD SWAP1 PUSH1 0x1 SWAP1 SUB SWAP1 DUP2 PUSH2 0x1F0E JUMPI SWAP1 POP JUMPDEST POP SWAP1 POP PUSH1 0x0 DUP1 JUMPDEST PUSH1 0x1 PUSH1 0x1 PUSH1 0xA0 SHL SUB DUP6 AND PUSH1 0x0 SWAP1 DUP2 MSTORE PUSH1 0x4 PUSH1 0x20 MSTORE PUSH1 0x40 SWAP1 KECCAK256 PUSH1 0x3 ADD SLOAD DUP2 LT ISZERO PUSH2 0x130F JUMPI PUSH1 0x1 PUSH1 0x1 PUSH1 0xA0 SHL SUB DUP6 AND PUSH1 0x0 SWAP1 DUP2 MSTORE PUSH1 0x4 PUSH1 0x20 MSTORE PUSH1 0x40 DUP2 KECCAK256 PUSH1 0x3 ADD DUP1 SLOAD DUP4 SWAP1 DUP2 LT PUSH2 0x1F8C JUMPI PUSH2 0x1F8C PUSH2 0x28CC JUMP JUMPDEST PUSH1 0x0 SWAP2 DUP3 MSTORE PUSH1 0x20 SWAP1 SWAP2 KECCAK256 PUSH1 0x2 SWAP1 SWAP2 MUL ADD SLOAD PUSH1 0x1 PUSH1 0x1 PUSH1 0xA0 SHL SUB AND EQ PUSH2 0x2039 JUMPI PUSH1 0x1 PUSH1 0x1 PUSH1 0xA0 SHL SUB DUP6 AND PUSH1 0x0 SWAP1 DUP2 MSTORE PUSH1 0x4 PUSH1 0x20 MSTORE PUSH1 0x40 SWAP1 KECCAK256 PUSH1 0x3 ADD DUP1 SLOAD DUP3 SWAP1 DUP2 LT PUSH2 0x1FD8 JUMPI PUSH2 0x1FD8 PUSH2 0x28CC JUMP JUMPDEST PUSH1 0x0 SWAP2 DUP3 MSTORE PUSH1 0x20 SWAP2 DUP3 SWAP1 KECCAK256 PUSH1 0x40 DUP1 MLOAD DUP1 DUP3 ADD SWAP1 SWAP2 MSTORE PUSH1 0x2 SWAP1 SWAP3 MUL ADD DUP1 SLOAD PUSH1 0x1 PUSH1 0x1 PUSH1 0xA0 SHL SUB AND DUP3 MSTORE PUSH1 0x1 ADD SLOAD SWAP2 DUP2 ADD SWAP2 SWAP1 SWAP2 MSTORE DUP4 MLOAD DUP5 SWAP1 DUP5 SWAP1 DUP2 LT PUSH2 0x201F JUMPI PUSH2 0x201F PUSH2 0x28CC JUMP JUMPDEST PUSH1 0x20 MUL PUSH1 0x20 ADD ADD DUP2 SWAP1 MSTORE POP DUP2 DUP1 PUSH2 0x2035 SWAP1 PUSH2 0x28E2 JUMP JUMPDEST SWAP3 POP POP JUMPDEST DUP1 PUSH2 0x2043 DUP2 PUSH2 0x28E2 JUMP JUMPDEST SWAP2 POP POP PUSH2 0x1F3C JUMP JUMPDEST PUSH2 0x2053 PUSH2 0x242C JUMP JUMPDEST PUSH1 0x3 SSTORE JUMP JUMPDEST PUSH2 0x2060 PUSH2 0x242C JUMP JUMPDEST PUSH1 0x0 PUSH2 0x2074 PUSH1 0x1 SLOAD PUSH1 0x1 PUSH1 0x1 PUSH1 0xA0 SHL SUB AND SWAP1 JUMP JUMPDEST PUSH1 0x1 PUSH1 0x1 PUSH1 0xA0 SHL SUB AND SELFBALANCE PUSH1 0x40 MLOAD PUSH1 0x0 PUSH1 0x40 MLOAD DUP1 DUP4 SUB DUP2 DUP6 DUP8 GAS CALL SWAP3 POP POP POP RETURNDATASIZE DUP1 PUSH1 0x0 DUP2 EQ PUSH2 0x20BE JUMPI PUSH1 0x40 MLOAD SWAP2 POP PUSH1 0x1F NOT PUSH1 0x3F RETURNDATASIZE ADD AND DUP3 ADD PUSH1 0x40 MSTORE RETURNDATASIZE DUP3 MSTORE RETURNDATASIZE PUSH1 0x0 PUSH1 0x20 DUP5 ADD RETURNDATACOPY PUSH2 0x20C3 JUMP JUMPDEST PUSH1 0x60 SWAP2 POP JUMPDEST POP POP SWAP1 POP DUP1 PUSH2 0x115D JUMPI PUSH1 0x40 MLOAD PUSH3 0x461BCD PUSH1 0xE5 SHL DUP2 MSTORE PUSH1 0x20 PUSH1 0x4 DUP3 ADD MSTORE PUSH1 0x10 PUSH1 0x24 DUP3 ADD MSTORE PUSH16 0x5472616E73666572206661696C656421 PUSH1 0x80 SHL PUSH1 0x44 DUP3 ADD MSTORE PUSH1 0x64 ADD PUSH2 0x535 JUMP JUMPDEST PUSH1 0x1 PUSH1 0x1 PUSH1 0xA0 SHL SUB DUP2 AND PUSH1 0x0 SWAP1 DUP2 MSTORE PUSH1 0x4 PUSH1 0x20 MSTORE PUSH1 0x40 SWAP1 KECCAK256 SLOAD PUSH1 0x60 SWAP1 ISZERO PUSH2 0x1318 JUMPI PUSH1 0x1 PUSH1 0x1 PUSH1 0xA0 SHL SUB DUP3 AND PUSH1 0x0 SWAP1 DUP2 MSTORE PUSH1 0x4 PUSH1 0x20 MSTORE PUSH1 0x40 DUP2 KECCAK256 SLOAD PUSH8 0xFFFFFFFFFFFFFFFF DUP2 GT ISZERO PUSH2 0x2159 JUMPI PUSH2 0x2159 PUSH2 0x2912 JUMP JUMPDEST PUSH1 0x40 MLOAD SWAP1 DUP1 DUP3 MSTORE DUP1 PUSH1 0x20 MUL PUSH1 0x20 ADD DUP3 ADD PUSH1 0x40 MSTORE DUP1 ISZERO PUSH2 0x219E JUMPI DUP2 PUSH1 0x20 ADD JUMPDEST PUSH1 0x40 DUP1 MLOAD DUP1 DUP3 ADD SWAP1 SWAP2 MSTORE PUSH1 0x0 DUP1 DUP3 MSTORE PUSH1 0x20 DUP3 ADD MSTORE DUP2 MSTORE PUSH1 0x20 ADD SWAP1 PUSH1 0x1 SWAP1 SUB SWAP1 DUP2 PUSH2 0x2177 JUMPI SWAP1 POP JUMPDEST POP SWAP1 POP PUSH1 0x0 DUP1 JUMPDEST PUSH1 0x1 PUSH1 0x1 PUSH1 0xA0 SHL SUB DUP6 AND PUSH1 0x0 SWAP1 DUP2 MSTORE PUSH1 0x4 PUSH1 0x20 MSTORE PUSH1 0x40 SWAP1 KECCAK256 PUSH1 0x2 ADD SLOAD DUP2 LT ISZERO PUSH2 0x130F JUMPI PUSH1 0x1 PUSH1 0x1 PUSH1 0xA0 SHL SUB DUP6 AND PUSH1 0x0 SWAP1 DUP2 MSTORE PUSH1 0x4 PUSH1 0x20 MSTORE PUSH1 0x40 DUP2 KECCAK256 PUSH1 0x2 ADD DUP1 SLOAD DUP4 SWAP1 DUP2 LT PUSH2 0x21F5 JUMPI PUSH2 0x21F5 PUSH2 0x28CC JUMP JUMPDEST PUSH1 0x0 SWAP2 DUP3 MSTORE PUSH1 0x20 SWAP1 SWAP2 KECCAK256 PUSH1 0x2 SWAP1 SWAP2 MUL ADD SLOAD PUSH1 0x1 PUSH1 0x1 PUSH1 0xA0 SHL SUB AND EQ PUSH2 0x22A2 JUMPI PUSH1 0x1 PUSH1 0x1 PUSH1 0xA0 SHL SUB DUP6 AND PUSH1 0x0 SWAP1 DUP2 MSTORE PUSH1 0x4 PUSH1 0x20 MSTORE PUSH1 0x40 SWAP1 KECCAK256 PUSH1 0x2 ADD DUP1 SLOAD DUP3 SWAP1 DUP2 LT PUSH2 0x2241 JUMPI PUSH2 0x2241 PUSH2 0x28CC JUMP JUMPDEST PUSH1 0x0 SWAP2 DUP3 MSTORE PUSH1 0x20 SWAP2 DUP3 SWAP1 KECCAK256 PUSH1 0x40 DUP1 MLOAD DUP1 DUP3 ADD SWAP1 SWAP2 MSTORE PUSH1 0x2 SWAP1 SWAP3 MUL ADD DUP1 SLOAD PUSH1 0x1 PUSH1 0x1 PUSH1 0xA0 SHL SUB AND DUP3 MSTORE PUSH1 0x1 ADD SLOAD SWAP2 DUP2 ADD SWAP2 SWAP1 SWAP2 MSTORE DUP4 MLOAD DUP5 SWAP1 DUP5 SWAP1 DUP2 LT PUSH2 0x2288 JUMPI PUSH2 0x2288 PUSH2 0x28CC JUMP JUMPDEST PUSH1 0x20 MUL PUSH1 0x20 ADD ADD DUP2 SWAP1 MSTORE POP DUP2 DUP1 PUSH2 0x229E SWAP1 PUSH2 0x28E2 JUMP JUMPDEST SWAP3 POP POP JUMPDEST DUP1 PUSH2 0x22AC DUP2 PUSH2 0x28E2 JUMP JUMPDEST SWAP2 POP POP PUSH2 0x21A5 JUMP JUMPDEST PUSH2 0x22BC PUSH2 0x242C JUMP JUMPDEST PUSH1 0x1 PUSH1 0x1 PUSH1 0xA0 SHL SUB DUP2 AND PUSH2 0x2338 JUMPI PUSH1 0x40 MLOAD PUSH3 0x461BCD PUSH1 0xE5 SHL DUP2 MSTORE PUSH1 0x20 PUSH1 0x4 DUP3 ADD MSTORE PUSH1 0x26 PUSH1 0x24 DUP3 ADD MSTORE PUSH32 0x4F776E61626C653A206E6577206F776E657220697320746865207A65726F2061 PUSH1 0x44 DUP3 ADD MSTORE PUSH32 0x6464726573730000000000000000000000000000000000000000000000000000 PUSH1 0x64 DUP3 ADD MSTORE PUSH1 0x84 ADD PUSH2 0x535 JUMP JUMPDEST PUSH2 0x115D DUP2 PUSH2 0x24F2 JUMP JUMPDEST PUSH1 0x1 PUSH1 0x1 PUSH1 0xA0 SHL SUB DUP2 AND PUSH1 0x0 SWAP1 DUP2 MSTORE PUSH1 0x4 PUSH1 0x20 MSTORE PUSH1 0x40 DUP2 KECCAK256 PUSH1 0x6 ADD SLOAD DUP2 SWAP1 PUSH2 0x2368 DUP5 PUSH2 0x23D2 JUMP JUMPDEST PUSH2 0x2372 SWAP2 SWAP1 PUSH2 0x28B9 JUMP JUMPDEST SWAP4 SWAP3 POP POP POP JUMP JUMPDEST PUSH1 0x2 PUSH1 0x0 SLOAD SUB PUSH2 0x23CB JUMPI PUSH1 0x40 MLOAD PUSH3 0x461BCD PUSH1 0xE5 SHL DUP2 MSTORE PUSH1 0x20 PUSH1 0x4 DUP3 ADD MSTORE PUSH1 0x1F PUSH1 0x24 DUP3 ADD MSTORE PUSH32 0x5265656E7472616E637947756172643A207265656E7472616E742063616C6C00 PUSH1 0x44 DUP3 ADD MSTORE PUSH1 0x64 ADD PUSH2 0x535 JUMP JUMPDEST PUSH1 0x2 PUSH1 0x0 SSTORE JUMP JUMPDEST PUSH1 0x3 SLOAD PUSH1 0x1 PUSH1 0x1 PUSH1 0xA0 SHL SUB DUP3 AND PUSH1 0x0 SWAP1 DUP2 MSTORE PUSH1 0x4 PUSH1 0x20 MSTORE PUSH1 0x40 DUP2 KECCAK256 DUP1 SLOAD PUSH1 0x5 SWAP1 SWAP2 ADD SLOAD SWAP2 SWAP3 PUSH2 0xE10 SWAP3 SWAP1 SWAP2 SWAP1 PUSH2 0x2408 SWAP1 TIMESTAMP PUSH2 0x2945 JUMP JUMPDEST PUSH2 0x2412 SWAP2 SWAP1 PUSH2 0x2958 JUMP JUMPDEST PUSH2 0x241C SWAP2 SWAP1 PUSH2 0x2958 JUMP JUMPDEST PUSH2 0x2426 SWAP2 SWAP1 PUSH2 0x296F JUMP JUMPDEST SWAP3 SWAP2 POP POP JUMP JUMPDEST PUSH1 0x1 SLOAD PUSH1 0x1 PUSH1 0x1 PUSH1 0xA0 SHL SUB AND CALLER EQ PUSH2 0x151B JUMPI PUSH1 0x40 MLOAD PUSH3 0x461BCD PUSH1 0xE5 SHL DUP2 MSTORE PUSH1 0x20 PUSH1 0x4 DUP3 ADD DUP2 SWAP1 MSTORE PUSH1 0x24 DUP3 ADD MSTORE PUSH32 0x4F776E61626C653A2063616C6C6572206973206E6F7420746865206F776E6572 PUSH1 0x44 DUP3 ADD MSTORE PUSH1 0x64 ADD PUSH2 0x535 JUMP JUMPDEST PUSH1 0x40 DUP1 MLOAD PUSH1 0x1 PUSH1 0x1 PUSH1 0xA0 SHL SUB DUP5 AND PUSH1 0x24 DUP3 ADD MSTORE PUSH1 0x44 DUP1 DUP3 ADD DUP5 SWAP1 MSTORE DUP3 MLOAD DUP1 DUP4 SUB SWAP1 SWAP2 ADD DUP2 MSTORE PUSH1 0x64 SWAP1 SWAP2 ADD SWAP1 SWAP2 MSTORE PUSH1 0x20 DUP2 ADD DUP1 MLOAD PUSH28 0xFFFFFFFFFFFFFFFFFFFFFFFFFFFFFFFFFFFFFFFFFFFFFFFFFFFFFFFF AND PUSH4 0xA9059CBB PUSH1 0xE0 SHL OR SWAP1 MSTORE PUSH2 0x24ED SWAP1 DUP5 SWAP1 PUSH2 0x2544 JUMP JUMPDEST POP POP POP JUMP JUMPDEST PUSH1 0x1 DUP1 SLOAD PUSH1 0x1 PUSH1 0x1 PUSH1 0xA0 SHL SUB DUP4 DUP2 AND PUSH1 0x1 PUSH1 0x1 PUSH1 0xA0 SHL SUB NOT DUP4 AND DUP2 OR SWAP1 SWAP4 SSTORE PUSH1 0x40 MLOAD SWAP2 AND SWAP2 SWAP1 DUP3 SWAP1 PUSH32 0x8BE0079C531659141344CD1FD0A4F28419497F9722A3DAAFE3B4186F6B6457E0 SWAP1 PUSH1 0x0 SWAP1 LOG3 POP POP JUMP JUMPDEST PUSH1 0x0 PUSH2 0x2599 DUP3 PUSH1 0x40 MLOAD DUP1 PUSH1 0x40 ADD PUSH1 0x40 MSTORE DUP1 PUSH1 0x20 DUP2 MSTORE PUSH1 0x20 ADD PUSH32 0x5361666545524332303A206C6F772D6C6576656C2063616C6C206661696C6564 DUP2 MSTORE POP DUP6 PUSH1 0x1 PUSH1 0x1 PUSH1 0xA0 SHL SUB AND PUSH2 0x2629 SWAP1 SWAP3 SWAP2 SWAP1 PUSH4 0xFFFFFFFF AND JUMP JUMPDEST DUP1 MLOAD SWAP1 SWAP2 POP ISZERO PUSH2 0x24ED JUMPI DUP1 DUP1 PUSH1 0x20 ADD SWAP1 MLOAD DUP2 ADD SWAP1 PUSH2 0x25B7 SWAP2 SWAP1 PUSH2 0x2991 JUMP JUMPDEST PUSH2 0x24ED JUMPI PUSH1 0x40 MLOAD PUSH3 0x461BCD PUSH1 0xE5 SHL DUP2 MSTORE PUSH1 0x20 PUSH1 0x4 DUP3 ADD MSTORE PUSH1 0x2A PUSH1 0x24 DUP3 ADD MSTORE PUSH32 0x5361666545524332303A204552433230206F7065726174696F6E20646964206E PUSH1 0x44 DUP3 ADD MSTORE PUSH32 0x6F74207375636365656400000000000000000000000000000000000000000000 PUSH1 0x64 DUP3 ADD MSTORE PUSH1 0x84 ADD PUSH2 0x535 JUMP JUMPDEST PUSH1 0x60 PUSH2 0x2638 DUP5 DUP5 PUSH1 0x0 DUP6 PUSH2 0x2640 JUMP JUMPDEST SWAP5 SWAP4 POP POP POP POP JUMP JUMPDEST PUSH1 0x60 DUP3 SELFBALANCE LT ISZERO PUSH2 0x26B8 JUMPI PUSH1 0x40 MLOAD PUSH3 0x461BCD PUSH1 0xE5 SHL DUP2 MSTORE PUSH1 0x20 PUSH1 0x4 DUP3 ADD MSTORE PUSH1 0x26 PUSH1 0x24 DUP3 ADD MSTORE PUSH32 0x416464726573733A20696E73756666696369656E742062616C616E636520666F PUSH1 0x44 DUP3 ADD MSTORE PUSH32 0x722063616C6C0000000000000000000000000000000000000000000000000000 PUSH1 0x64 DUP3 ADD MSTORE PUSH1 0x84 ADD PUSH2 0x535 JUMP JUMPDEST PUSH1 0x0 DUP1 DUP7 PUSH1 0x1 PUSH1 0x1 PUSH1 0xA0 SHL SUB AND DUP6 DUP8 PUSH1 0x40 MLOAD PUSH2 0x26D4 SWAP2 SWAP1 PUSH2 0x29D7 JUMP JUMPDEST PUSH1 0x0 PUSH1 0x40 MLOAD DUP1 DUP4 SUB DUP2 DUP6 DUP8 GAS CALL SWAP3 POP POP POP RETURNDATASIZE DUP1 PUSH1 0x0 DUP2 EQ PUSH2 0x2711 JUMPI PUSH1 0x40 MLOAD SWAP2 POP PUSH1 0x1F NOT PUSH1 0x3F RETURNDATASIZE ADD AND DUP3 ADD PUSH1 0x40 MSTORE RETURNDATASIZE DUP3 MSTORE RETURNDATASIZE PUSH1 0x0 PUSH1 0x20 DUP5 ADD RETURNDATACOPY PUSH2 0x2716 JUMP JUMPDEST PUSH1 0x60 SWAP2 POP JUMPDEST POP SWAP2 POP SWAP2 POP PUSH2 0x2727 DUP8 DUP4 DUP4 DUP8 PUSH2 0x2732 JUMP JUMPDEST SWAP8 SWAP7 POP POP POP POP POP POP POP JUMP JUMPDEST PUSH1 0x60 DUP4 ISZERO PUSH2 0x27A1 JUMPI DUP3 MLOAD PUSH1 0x0 SUB PUSH2 0x279A JUMPI PUSH1 0x1 PUSH1 0x1 PUSH1 0xA0 SHL SUB DUP6 AND EXTCODESIZE PUSH2 0x279A JUMPI PUSH1 0x40 MLOAD PUSH3 0x461BCD PUSH1 0xE5 SHL DUP2 MSTORE PUSH1 0x20 PUSH1 0x4 DUP3 ADD MSTORE PUSH1 0x1D PUSH1 0x24 DUP3 ADD MSTORE PUSH32 0x416464726573733A2063616C6C20746F206E6F6E2D636F6E7472616374000000 PUSH1 0x44 DUP3 ADD MSTORE PUSH1 0x64 ADD PUSH2 0x535 JUMP JUMPDEST POP DUP2 PUSH2 0x2638 JUMP JUMPDEST PUSH2 0x2638 DUP4 DUP4 DUP2 MLOAD ISZERO PUSH2 0x27B6 JUMPI DUP2 MLOAD DUP1 DUP4 PUSH1 0x20 ADD REVERT JUMPDEST DUP1 PUSH1 0x40 MLOAD PUSH3 0x461BCD PUSH1 0xE5 SHL DUP2 MSTORE PUSH1 0x4 ADD PUSH2 0x535 SWAP2 SWAP1 PUSH2 0x29F3 JUMP JUMPDEST PUSH1 0x1 PUSH1 0x1 PUSH1 0xA0 SHL SUB DUP2 AND DUP2 EQ PUSH2 0x115D JUMPI PUSH1 0x0 DUP1 REVERT JUMPDEST PUSH1 0x0 DUP1 PUSH1 0x40 DUP4 DUP6 SUB SLT ISZERO PUSH2 0x27F8 JUMPI PUSH1 0x0 DUP1 REVERT JUMPDEST DUP3 CALLDATALOAD SWAP2 POP PUSH1 0x20 DUP4 ADD CALLDATALOAD PUSH2 0x280A DUP2 PUSH2 0x27D0 JUMP JUMPDEST DUP1 SWAP2 POP POP SWAP3 POP SWAP3 SWAP1 POP JUMP JUMPDEST PUSH1 0x0 PUSH1 0x20 DUP3 DUP5 SUB SLT ISZERO PUSH2 0x2827 JUMPI PUSH1 0x0 DUP1 REVERT JUMPDEST POP CALLDATALOAD SWAP2 SWAP1 POP JUMP JUMPDEST PUSH1 0x0 PUSH1 0x20 DUP3 DUP5 SUB SLT ISZERO PUSH2 0x2840 JUMPI PUSH1 0x0 DUP1 REVERT JUMPDEST DUP2 CALLDATALOAD PUSH2 0x2372 DUP2 PUSH2 0x27D0 JUMP JUMPDEST PUSH1 0x20 DUP1 DUP3 MSTORE DUP3 MLOAD DUP3 DUP3 ADD DUP2 SWAP1 MSTORE PUSH1 0x0 SWAP2 SWAP1 PUSH1 0x40 SWAP1 DUP2 DUP6 ADD SWAP1 DUP7 DUP5 ADD DUP6 JUMPDEST DUP3 DUP2 LT ISZERO PUSH2 0x2896 JUMPI DUP2 MLOAD DUP1 MLOAD PUSH1 0x1 PUSH1 0x1 PUSH1 0xA0 SHL SUB AND DUP6 MSTORE DUP7 ADD MLOAD DUP7 DUP6 ADD MSTORE SWAP3 DUP5 ADD SWAP3 SWAP1 DUP6 ADD SWAP1 PUSH1 0x1 ADD PUSH2 0x2868 JUMP JUMPDEST POP SWAP2 SWAP8 SWAP7 POP POP POP POP POP POP POP JUMP JUMPDEST PUSH4 0x4E487B71 PUSH1 0xE0 SHL PUSH1 0x0 MSTORE PUSH1 0x11 PUSH1 0x4 MSTORE PUSH1 0x24 PUSH1 0x0 REVERT JUMPDEST DUP1 DUP3 ADD DUP1 DUP3 GT ISZERO PUSH2 0x2426 JUMPI PUSH2 0x2426 PUSH2 0x28A3 JUMP JUMPDEST PUSH4 0x4E487B71 PUSH1 0xE0 SHL PUSH1 0x0 MSTORE PUSH1 0x32 PUSH1 0x4 MSTORE PUSH1 0x24 PUSH1 0x0 REVERT JUMPDEST PUSH1 0x0 PUSH1 0x1 DUP3 ADD PUSH2 0x28F4 JUMPI PUSH2 0x28F4 PUSH2 0x28A3 JUMP JUMPDEST POP PUSH1 0x1 ADD SWAP1 JUMP JUMPDEST PUSH1 0x0 DUP2 PUSH2 0x290A JUMPI PUSH2 0x290A PUSH2 0x28A3 JUMP JUMPDEST POP PUSH1 0x0 NOT ADD SWAP1 JUMP JUMPDEST PUSH4 0x4E487B71 PUSH1 0xE0 SHL PUSH1 0x0 MSTORE PUSH1 0x41 PUSH1 0x4 MSTORE PUSH1 0x24 PUSH1 0x0 REVERT JUMPDEST PUSH1 0x0 PUSH1 0x20 DUP3 DUP5 SUB SLT ISZERO PUSH2 0x293A JUMPI PUSH1 0x0 DUP1 REVERT JUMPDEST DUP2 MLOAD PUSH2 0x2372 DUP2 PUSH2 0x27D0 JUMP JUMPDEST DUP2 DUP2 SUB DUP2 DUP2 GT ISZERO PUSH2 0x2426 JUMPI PUSH2 0x2426 PUSH2 0x28A3 JUMP JUMPDEST DUP1 DUP3 MUL DUP2 ISZERO DUP3 DUP3 DIV DUP5 EQ OR PUSH2 0x2426 JUMPI PUSH2 0x2426 PUSH2 0x28A3 JUMP JUMPDEST PUSH1 0x0 DUP3 PUSH2 0x298C JUMPI PUSH4 0x4E487B71 PUSH1 0xE0 SHL PUSH1 0x0 MSTORE PUSH1 0x12 PUSH1 0x4 MSTORE PUSH1 0x24 PUSH1 0x0 REVERT JUMPDEST POP DIV SWAP1 JUMP JUMPDEST PUSH1 0x0 PUSH1 0x20 DUP3 DUP5 SUB SLT ISZERO PUSH2 0x29A3 JUMPI PUSH1 0x0 DUP1 REVERT JUMPDEST DUP2 MLOAD DUP1 ISZERO ISZERO DUP2 EQ PUSH2 0x2372 JUMPI PUSH1 0x0 DUP1 REVERT JUMPDEST PUSH1 0x0 JUMPDEST DUP4 DUP2 LT ISZERO PUSH2 0x29CE JUMPI DUP2 DUP2 ADD MLOAD DUP4 DUP3 ADD MSTORE PUSH1 0x20 ADD PUSH2 0x29B6 JUMP JUMPDEST POP POP PUSH1 0x0 SWAP2 ADD MSTORE JUMP JUMPDEST PUSH1 0x0 DUP3 MLOAD PUSH2 0x29E9 DUP2 DUP5 PUSH1 0x20 DUP8 ADD PUSH2 0x29B3 JUMP JUMPDEST SWAP2 SWAP1 SWAP2 ADD SWAP3 SWAP2 POP POP JUMP JUMPDEST PUSH1 0x20 DUP2 MSTORE PUSH1 0x0 DUP3 MLOAD DUP1 PUSH1 0x20 DUP5 ADD MSTORE PUSH2 0x2A12 DUP2 PUSH1 0x40 DUP6 ADD PUSH1 0x20 DUP8 ADD PUSH2 0x29B3 JUMP JUMPDEST PUSH1 0x1F ADD PUSH1 0x1F NOT AND SWAP2 SWAP1 SWAP2 ADD PUSH1 0x40 ADD SWAP3 SWAP2 POP POP JUMP INVALID LOG2 PUSH5 0x6970667358 0x22 SLT KECCAK256 0xB7 AND 0xC PUSH12 0xA254224675488ABDBA75D378 0x2F PUSH28 0xFD66B5F4ABF35DE2D3F00249FA7464736F6C63430008110033000000 "
    },
    "gasEstimates": {
      "creation": {
        "codeDepositCost": "2168800",
        "executionCost": "infinite",
        "totalCost": "infinite"
      },
      "external": {
        "availableRewards(address)": "infinite",
        "claimRewards()": "infinite",
        "emergencyWithdrawAll()": "infinite",
        "getStakedBearTokens(address)": "infinite",
        "getStakedCatTokens(address)": "infinite",
        "getStakedHorseTokens(address)": "infinite",
        "getStakedTokens(address)": "infinite",
        "nftCollection_astra()": "infinite",
        "nftCollection_bear()": "infinite",
        "nftCollection_cat()": "infinite",
        "nftCollection_horse()": "infinite",
        "owner()": "2377",
        "renounceOwnership()": "infinite",
        "rewardsToken()": "infinite",
        "setrewardsPerHour(uint256)": "24577",
        "stake(uint256,address)": "infinite",
        "stakerAddress(uint256)": "2522",
        "stakers(address)": "6856",
        "storenative()": "22260",
        "transferOwnership(address)": "infinite",
        "withdraw(uint256,address)": "infinite",
        "withdrawadmin(uint256)": "infinite"
      },
      "internal": {
        "calculateRewards(address)": "infinite"
      }
    },
    "methodIdentifiers": {
      "availableRewards(address)": "f854a27f",
      "claimRewards()": "372500ab",
      "emergencyWithdrawAll()": "dd191719",
      "getStakedBearTokens(address)": "ac3f0c26",
      "getStakedCatTokens(address)": "e2592c0b",
      "getStakedHorseTokens(address)": "3fcecc9b",
      "getStakedTokens(address)": "63c28db1",
      "nftCollection_astra()": "bcb5eb28",
      "nftCollection_bear()": "5f686f25",
      "nftCollection_cat()": "45c44ad5",
      "nftCollection_horse()": "640fffd8",
      "owner()": "8da5cb5b",
      "renounceOwnership()": "715018a6",
      "rewardsToken()": "d1af0c7d",
      "setrewardsPerHour(uint256)": "b768d7f5",
      "stake(uint256,address)": "7acb7757",
      "stakerAddress(uint256)": "94067045",
      "stakers(address)": "9168ae72",
      "storenative()": "5036e63b",
      "transferOwnership(address)": "f2fde38b",
      "withdraw(uint256,address)": "00f714ce",
      "withdrawadmin(uint256)": "1829b46c"
    }
  },
  "storageLayout": {
    "storage": [
      {
        "astId": 1646,
        "contract": "StakingContract.sol:ERC721Staking",
        "label": "_status",
        "offset": 0,
        "slot": "0",
        "type": "t_uint256"
      },
      {
        "astId": 1530,
        "contract": "StakingContract.sol:ERC721Staking",
        "label": "_owner",
        "offset": 0,
        "slot": "1",
        "type": "t_address"
      },
      {
        "astId": 31,
        "contract": "StakingContract.sol:ERC721Staking",
        "label": "imna",
        "offset": 0,
        "slot": "2",
        "type": "t_uint256"
      },
      {
        "astId": 105,
        "contract": "StakingContract.sol:ERC721Staking",
        "label": "rewardsPerHour",
        "offset": 0,
        "slot": "3",
        "type": "t_uint256"
      },
      {
        "astId": 110,
        "contract": "StakingContract.sol:ERC721Staking",
        "label": "stakers",
        "offset": 0,
        "slot": "4",
        "type": "t_mapping(t_address,t_struct(Staker)102_storage)"
      },
      {
        "astId": 114,
        "contract": "StakingContract.sol:ERC721Staking",
        "label": "stakerAddress",
        "offset": 0,
        "slot": "5",
        "type": "t_mapping(t_uint256,t_address)"
      }
    ],
    "types": {
      "t_address": {
        "encoding": "inplace",
        "label": "address",
        "numberOfBytes": "20"
      },
      "t_array(t_struct(StakedToken)79_storage)dyn_storage": {
        "base": "t_struct(StakedToken)79_storage",
        "encoding": "dynamic_array",
        "label": "struct ERC721Staking.StakedToken[]",
        "numberOfBytes": "32"
      },
      "t_mapping(t_address,t_struct(Staker)102_storage)": {
        "encoding": "mapping",
        "key": "t_address",
        "label": "mapping(address => struct ERC721Staking.Staker)",
        "numberOfBytes": "32",
        "value": "t_struct(Staker)102_storage"
      },
      "t_mapping(t_uint256,t_address)": {
        "encoding": "mapping",
        "key": "t_uint256",
        "label": "mapping(uint256 => address)",
        "numberOfBytes": "32",
        "value": "t_address"
      },
      "t_struct(StakedToken)79_storage": {
        "encoding": "inplace",
        "label": "struct ERC721Staking.StakedToken",
        "members": [
          {
            "astId": 76,
            "contract": "StakingContract.sol:ERC721Staking",
            "label": "staker",
            "offset": 0,
            "slot": "0",
            "type": "t_address"
          },
          {
            "astId": 78,
            "contract": "StakingContract.sol:ERC721Staking",
            "label": "tokenId",
            "offset": 0,
            "slot": "1",
            "type": "t_uint256"
          }
        ],
        "numberOfBytes": "64"
      },
      "t_struct(Staker)102_storage": {
        "encoding": "inplace",
        "label": "struct ERC721Staking.Staker",
        "members": [
          {
            "astId": 81,
            "contract": "StakingContract.sol:ERC721Staking",
            "label": "amountStaked",
            "offset": 0,
            "slot": "0",
            "type": "t_uint256"
          },
          {
            "astId": 85,
            "contract": "StakingContract.sol:ERC721Staking",
            "label": "stakedTokens",
            "offset": 0,
            "slot": "1",
            "type": "t_array(t_struct(StakedToken)79_storage)dyn_storage"
          },
          {
            "astId": 89,
            "contract": "StakingContract.sol:ERC721Staking",
            "label": "stakedCatTokens",
            "offset": 0,
            "slot": "2",
            "type": "t_array(t_struct(StakedToken)79_storage)dyn_storage"
          },
          {
            "astId": 93,
            "contract": "StakingContract.sol:ERC721Staking",
            "label": "stakedBearTokens",
            "offset": 0,
            "slot": "3",
            "type": "t_array(t_struct(StakedToken)79_storage)dyn_storage"
          },
          {
            "astId": 97,
            "contract": "StakingContract.sol:ERC721Staking",
            "label": "stakedHorseTokens",
            "offset": 0,
            "slot": "4",
            "type": "t_array(t_struct(StakedToken)79_storage)dyn_storage"
          },
          {
            "astId": 99,
            "contract": "StakingContract.sol:ERC721Staking",
            "label": "timeOfLastUpdate",
            "offset": 0,
            "slot": "5",
            "type": "t_uint256"
          },
          {
            "astId": 101,
            "contract": "StakingContract.sol:ERC721Staking",
            "label": "unclaimedRewards",
            "offset": 0,
            "slot": "6",
            "type": "t_uint256"
          }
        ],
        "numberOfBytes": "224"
      },
      "t_uint256": {
        "encoding": "inplace",
        "label": "uint256",
        "numberOfBytes": "32"
      }
    }
  },
  "userdoc": {
    "kind": "user",
    "methods": {},
    "version": 1
  }
}