{
  "abi": [
    {
      "inputs": [
        {
          "internalType": "contract IERC721",
          "name": "_nftCollection_astra",
          "type": "address"
        },
        {
          "internalType": "contract IERC721",
          "name": "_nftCollection_horse",
          "type": "address"
        },
        {
          "internalType": "contract IERC721",
          "name": "_nftCollection_cat",
          "type": "address"
        },
        {
          "internalType": "contract IERC721",
          "name": "_nftCollection_bear",
          "type": "address"
        },
        {
          "internalType": "contract IERC20",
          "name": "_rewardsToken",
          "type": "address"
        }
      ],
      "stateMutability": "nonpayable",
      "type": "constructor"
    },
    {
      "anonymous": false,
      "inputs": [
        {
          "indexed": true,
          "internalType": "address",
          "name": "previousOwner",
          "type": "address"
        },
        {
          "indexed": true,
          "internalType": "address",
          "name": "newOwner",
          "type": "address"
        }
      ],
      "name": "OwnershipTransferred",
      "type": "event"
    },
    {
      "inputs": [
        {
          "internalType": "address",
          "name": "_staker",
          "type": "address"
        }
      ],
      "name": "availableRewards",
      "outputs": [
        {
          "internalType": "uint256",
          "name": "",
          "type": "uint256"
        }
      ],
      "stateMutability": "view",
      "type": "function"
    },
    {
      "inputs": [],
      "name": "claimRewards",
      "outputs": [],
      "stateMutability": "nonpayable",
      "type": "function"
    },
    {
      "inputs": [],
      "name": "emergencyWithdrawAll",
      "outputs": [],
      "stateMutability": "payable",
      "type": "function"
    },
    {
      "inputs": [
        {
          "internalType": "address",
          "name": "_user",
          "type": "address"
        }
      ],
      "name": "getStakedTokens",
      "outputs": [
        {
          "components": [
            {
              "internalType": "address",
              "name": "staker",
              "type": "address"
            },
            {
              "internalType": "uint256",
              "name": "tokenId",
              "type": "uint256"
            }
          ],
          "internalType": "struct ERC721Staking.StakedToken[]",
          "name": "",
          "type": "tuple[]"
        }
      ],
      "stateMutability": "view",
      "type": "function"
    },
    {
      "inputs": [],
      "name": "nftCollection_astra",
      "outputs": [
        {
          "internalType": "contract IERC721",
          "name": "",
          "type": "address"
        }
      ],
      "stateMutability": "view",
      "type": "function"
    },
    {
      "inputs": [],
      "name": "nftCollection_bear",
      "outputs": [
        {
          "internalType": "contract IERC721",
          "name": "",
          "type": "address"
        }
      ],
      "stateMutability": "view",
      "type": "function"
    },
    {
      "inputs": [],
      "name": "nftCollection_cat",
      "outputs": [
        {
          "internalType": "contract IERC721",
          "name": "",
          "type": "address"
        }
      ],
      "stateMutability": "view",
      "type": "function"
    },
    {
      "inputs": [],
      "name": "nftCollection_horse",
      "outputs": [
        {
          "internalType": "contract IERC721",
          "name": "",
          "type": "address"
        }
      ],
      "stateMutability": "view",
      "type": "function"
    },
    {
      "inputs": [],
      "name": "owner",
      "outputs": [
        {
          "internalType": "address",
          "name": "",
          "type": "address"
        }
      ],
      "stateMutability": "view",
      "type": "function"
    },
    {
      "inputs": [],
      "name": "renounceOwnership",
      "outputs": [],
      "stateMutability": "nonpayable",
      "type": "function"
    },
    {
      "inputs": [],
      "name": "rewardsToken",
      "outputs": [
        {
          "internalType": "contract IERC20",
          "name": "",
          "type": "address"
        }
      ],
      "stateMutability": "view",
      "type": "function"
    },
    {
      "inputs": [
        {
          "internalType": "uint256",
          "name": "amount",
          "type": "uint256"
        }
      ],
      "name": "setrewardsPerHour",
      "outputs": [],
      "stateMutability": "nonpayable",
      "type": "function"
    },
    {
      "inputs": [
        {
          "internalType": "uint256",
          "name": "_tokenId",
          "type": "uint256"
        },
        {
          "internalType": "contract IERC721",
          "name": "contract_market_",
          "type": "address"
        }
      ],
      "name": "stake",
      "outputs": [],
      "stateMutability": "nonpayable",
      "type": "function"
    },
    {
      "inputs": [
        {
          "internalType": "uint256",
          "name": "",
          "type": "uint256"
        }
      ],
      "name": "stakerAddress",
      "outputs": [
        {
          "internalType": "address",
          "name": "",
          "type": "address"
        }
      ],
      "stateMutability": "view",
      "type": "function"
    },
    {
      "inputs": [
        {
          "internalType": "address",
          "name": "",
          "type": "address"
        }
      ],
      "name": "stakers",
      "outputs": [
        {
          "internalType": "uint256",
          "name": "amountStaked",
          "type": "uint256"
        },
        {
          "internalType": "uint256",
          "name": "timeOfLastUpdate",
          "type": "uint256"
        },
        {
          "internalType": "uint256",
          "name": "unclaimedRewards",
          "type": "uint256"
        }
      ],
      "stateMutability": "view",
      "type": "function"
    },
    {
      "inputs": [],
      "name": "storenative",
      "outputs": [],
      "stateMutability": "payable",
      "type": "function"
    },
    {
      "inputs": [
        {
          "internalType": "address",
          "name": "newOwner",
          "type": "address"
        }
      ],
      "name": "transferOwnership",
      "outputs": [],
      "stateMutability": "nonpayable",
      "type": "function"
    },
    {
      "inputs": [
        {
          "internalType": "uint256",
          "name": "_tokenId",
          "type": "uint256"
        },
        {
          "internalType": "contract IERC721",
          "name": "contract_market",
          "type": "address"
        }
      ],
      "name": "withdraw",
      "outputs": [],
      "stateMutability": "nonpayable",
      "type": "function"
    },
    {
      "inputs": [
        {
          "internalType": "uint256",
          "name": "amount",
          "type": "uint256"
        }
      ],
      "name": "withdrawadmin",
      "outputs": [],
      "stateMutability": "payable",
      "type": "function"
    }
  ],
  "devdoc": {
    "kind": "dev",
    "methods": {
      "owner()": {
        "details": "Returns the address of the current owner."
      },
      "renounceOwnership()": {
        "details": "Leaves the contract without owner. It will not be possible to call `onlyOwner` functions anymore. Can only be called by the current owner. NOTE: Renouncing ownership will leave the contract without an owner, thereby removing any functionality that is only available to the owner."
      },
      "transferOwnership(address)": {
        "details": "Transfers ownership of the contract to a new account (`newOwner`). Can only be called by the current owner."
      }
    },
    "version": 1
  },
  "evm": {
    "assembly": "    /* \"StakingContract.sol\":356:9527  contract ERC721Staking is ReentrancyGuard, Ownable {... */\n  mstore(0x40, 0x0120)\n    /* \"StakingContract.sol\":1937:1960  20833000000000000000000 */\n  0x04695bf4120910e40000\n    /* \"StakingContract.sol\":1904:1960  uint256 private rewardsPerHour = 20833000000000000000000 */\n  0x03\n  sstore\n    /* \"StakingContract.sol\":831:1297  constructor(... */\n  callvalue\n  dup1\n  iszero\n  tag_1\n  jumpi\n  0x00\n  dup1\n  revert\ntag_1:\n  pop\n  mload(0x40)\n  sub(codesize, bytecodeSize)\n  dup1\n  bytecodeSize\n  dup4\n  codecopy\n  dup2\n  add\n  0x40\n  dup2\n  swap1\n  mstore\n  tag_2\n  swap2\n  tag_3\n  jump\t// in\ntag_2:\n    /* \"@openzeppelin/contracts/security/ReentrancyGuard.sol\":1716:1717   */\n  0x01\n    /* \"@openzeppelin/contracts/security/ReentrancyGuard.sol\":1821:1828   */\n  0x00\n    /* \"@openzeppelin/contracts/security/ReentrancyGuard.sol\":1821:1843   */\n  sstore\n    /* \"@openzeppelin/contracts/access/Ownable.sol\":936:968   */\n  tag_9\n    /* \"@openzeppelin/contracts/utils/Context.sol\":719:729   */\n  caller\n    /* \"@openzeppelin/contracts/access/Ownable.sol\":936:954   */\n  tag_12\n    /* \"@openzeppelin/contracts/access/Ownable.sol\":936:968   */\n  jump\t// in\ntag_9:\n  sub(shl(0xa0, 0x01), 0x01)\n    /* \"StakingContract.sol\":1039:1081  nftCollection_astra = _nftCollection_astra */\n  swap5\n  dup6\n  and\n  0xa0\n  mstore\n    /* \"StakingContract.sol\":1091:1133  nftCollection_horse = _nftCollection_horse */\n  swap3\n  dup5\n  and\n  0xc0\n  mstore\n    /* \"StakingContract.sol\":1143:1181  nftCollection_cat = _nftCollection_cat */\n  swap1\n  dup4\n  and\n  0xe0\n  mstore\n    /* \"StakingContract.sol\":1191:1231  nftCollection_bear = _nftCollection_bear */\n  dup3\n  and\n  0x0100\n  mstore\n    /* \"StakingContract.sol\":1241:1269  rewardsToken = _rewardsToken */\n  and\n  0x80\n  mstore\n    /* \"StakingContract.sol\":1286:1290  1000 */\n  0x03e8\n    /* \"StakingContract.sol\":1279:1283  imna */\n  0x02\n    /* \"StakingContract.sol\":1279:1290  imna = 1000 */\n  sstore\n    /* \"StakingContract.sol\":356:9527  contract ERC721Staking is ReentrancyGuard, Ownable {... */\n  jump(tag_18)\n    /* \"@openzeppelin/contracts/access/Ownable.sol\":2433:2620   */\ntag_12:\n    /* \"@openzeppelin/contracts/access/Ownable.sol\":2525:2531   */\n  0x01\n  dup1\n  sload\n  sub(shl(0xa0, 0x01), 0x01)\n    /* \"@openzeppelin/contracts/access/Ownable.sol\":2541:2558   */\n  dup4\n  dup2\n  and\n  not(sub(shl(0xa0, 0x01), 0x01))\n  dup4\n  and\n  dup2\n  or\n  swap1\n  swap4\n  sstore\n    /* \"@openzeppelin/contracts/access/Ownable.sol\":2573:2613   */\n  mload(0x40)\n    /* \"@openzeppelin/contracts/access/Ownable.sol\":2525:2531   */\n  swap2\n  and\n  swap2\n    /* \"@openzeppelin/contracts/access/Ownable.sol\":2541:2558   */\n  swap1\n    /* \"@openzeppelin/contracts/access/Ownable.sol\":2525:2531   */\n  dup3\n  swap1\n    /* \"@openzeppelin/contracts/access/Ownable.sol\":2573:2613   */\n  0x8be0079c531659141344cd1fd0a4f28419497f9722a3daafe3b4186f6b6457e0\n  swap1\n    /* \"@openzeppelin/contracts/access/Ownable.sol\":2506:2522   */\n  0x00\n  swap1\n    /* \"@openzeppelin/contracts/access/Ownable.sol\":2573:2613   */\n  log3\n    /* \"@openzeppelin/contracts/access/Ownable.sol\":2496:2620   */\n  pop\n    /* \"@openzeppelin/contracts/access/Ownable.sol\":2433:2620   */\n  pop\n  jump\t// out\n    /* \"#utility.yul\":14:154   */\ntag_17:\n  sub(shl(0xa0, 0x01), 0x01)\n    /* \"#utility.yul\":98:129   */\n  dup2\n  and\n    /* \"#utility.yul\":88:130   */\n  dup2\n  eq\n    /* \"#utility.yul\":78:148   */\n  tag_20\n  jumpi\n    /* \"#utility.yul\":144:145   */\n  0x00\n    /* \"#utility.yul\":141:142   */\n  dup1\n    /* \"#utility.yul\":134:146   */\n  revert\n    /* \"#utility.yul\":78:148   */\ntag_20:\n    /* \"#utility.yul\":14:154   */\n  pop\n  jump\t// out\n    /* \"#utility.yul\":159:1071   */\ntag_3:\n    /* \"#utility.yul\":343:349   */\n  0x00\n    /* \"#utility.yul\":351:357   */\n  dup1\n    /* \"#utility.yul\":359:365   */\n  0x00\n    /* \"#utility.yul\":367:373   */\n  dup1\n    /* \"#utility.yul\":375:381   */\n  0x00\n    /* \"#utility.yul\":428:431   */\n  0xa0\n    /* \"#utility.yul\":416:425   */\n  dup7\n    /* \"#utility.yul\":407:414   */\n  dup9\n    /* \"#utility.yul\":403:426   */\n  sub\n    /* \"#utility.yul\":399:432   */\n  slt\n    /* \"#utility.yul\":396:449   */\n  iszero\n  tag_22\n  jumpi\n    /* \"#utility.yul\":445:446   */\n  0x00\n    /* \"#utility.yul\":442:443   */\n  dup1\n    /* \"#utility.yul\":435:447   */\n  revert\n    /* \"#utility.yul\":396:449   */\ntag_22:\n    /* \"#utility.yul\":477:486   */\n  dup6\n    /* \"#utility.yul\":471:487   */\n  mload\n    /* \"#utility.yul\":496:536   */\n  tag_23\n    /* \"#utility.yul\":530:535   */\n  dup2\n    /* \"#utility.yul\":496:536   */\n  tag_17\n  jump\t// in\ntag_23:\n    /* \"#utility.yul\":605:607   */\n  0x20\n    /* \"#utility.yul\":590:608   */\n  dup8\n  add\n    /* \"#utility.yul\":584:609   */\n  mload\n    /* \"#utility.yul\":555:560   */\n  swap1\n  swap6\n  pop\n    /* \"#utility.yul\":618:660   */\n  tag_24\n    /* \"#utility.yul\":584:609   */\n  dup2\n    /* \"#utility.yul\":618:660   */\n  tag_17\n  jump\t// in\ntag_24:\n    /* \"#utility.yul\":731:733   */\n  0x40\n    /* \"#utility.yul\":716:734   */\n  dup8\n  add\n    /* \"#utility.yul\":710:735   */\n  mload\n    /* \"#utility.yul\":679:686   */\n  swap1\n  swap5\n  pop\n    /* \"#utility.yul\":744:786   */\n  tag_25\n    /* \"#utility.yul\":710:735   */\n  dup2\n    /* \"#utility.yul\":744:786   */\n  tag_17\n  jump\t// in\ntag_25:\n    /* \"#utility.yul\":857:859   */\n  0x60\n    /* \"#utility.yul\":842:860   */\n  dup8\n  add\n    /* \"#utility.yul\":836:861   */\n  mload\n    /* \"#utility.yul\":805:812   */\n  swap1\n  swap4\n  pop\n    /* \"#utility.yul\":870:912   */\n  tag_26\n    /* \"#utility.yul\":836:861   */\n  dup2\n    /* \"#utility.yul\":870:912   */\n  tag_17\n  jump\t// in\ntag_26:\n    /* \"#utility.yul\":983:986   */\n  0x80\n    /* \"#utility.yul\":968:987   */\n  dup8\n  add\n    /* \"#utility.yul\":962:988   */\n  mload\n    /* \"#utility.yul\":931:938   */\n  swap1\n  swap3\n  pop\n    /* \"#utility.yul\":997:1039   */\n  tag_27\n    /* \"#utility.yul\":962:988   */\n  dup2\n    /* \"#utility.yul\":997:1039   */\n  tag_17\n  jump\t// in\ntag_27:\n    /* \"#utility.yul\":1058:1065   */\n  dup1\n    /* \"#utility.yul\":1048:1065   */\n  swap2\n  pop\n  pop\n    /* \"#utility.yul\":159:1071   */\n  swap3\n  swap6\n  pop\n  swap3\n  swap6\n  swap1\n  swap4\n  pop\n  jump\t// out\ntag_18:\n    /* \"StakingContract.sol\":356:9527  contract ERC721Staking is ReentrancyGuard, Ownable {... */\n  mload(0x80)\n  mload(0xa0)\n  mload(0xc0)\n  mload(0xe0)\n  mload(0x0100)\n  codecopy(0x00, dataOffset(sub_0), dataSize(sub_0))\n  0x00\n  assignImmutable(\"0x7749cc8014201da2069c21d93ba99c584b6f62d393fde534ed47eac227e31561\")\n  0x00\n  assignImmutable(\"0x9cce9eb03c9f29c6481fca9f0f942b15bef0bbbc47fda0ddb44df157019835d9\")\n  0x00\n  assignImmutable(\"0x1572b593c53d839d80004aa4b8c51211864104f06ace9e22be9c4365b50655ea\")\n  0x00\n  assignImmutable(\"0x731dc163f73d31d8c68f9917ce4ff967753939f70432973c04fd2c2a48148607\")\n  0x00\n  assignImmutable(\"0x8e8fab5f003314da8d1873ea7720e8d9f47650136d916064d1edb8a11d682624\")\n  return(0x00, dataSize(sub_0))\nstop\n\nsub_0: assembly {\n        /* \"StakingContract.sol\":356:9527  contract ERC721Staking is ReentrancyGuard, Ownable {... */\n      mstore(0x40, 0x80)\n      jumpi(tag_1, lt(calldatasize, 0x04))\n      shr(0xe0, calldataload(0x00))\n      dup1\n      0x7acb7757\n      gt\n      tag_21\n      jumpi\n      dup1\n      0xbcb5eb28\n      gt\n      tag_22\n      jumpi\n      dup1\n      0xdd191719\n      gt\n      tag_23\n      jumpi\n      dup1\n      0xdd191719\n      eq\n      tag_18\n      jumpi\n      dup1\n      0xf2fde38b\n      eq\n      tag_19\n      jumpi\n      dup1\n      0xf854a27f\n      eq\n      tag_20\n      jumpi\n      0x00\n      dup1\n      revert\n    tag_23:\n      dup1\n      0xbcb5eb28\n      eq\n      tag_16\n      jumpi\n      dup1\n      0xd1af0c7d\n      eq\n      tag_17\n      jumpi\n      0x00\n      dup1\n      revert\n    tag_22:\n      dup1\n      0x9168ae72\n      gt\n      tag_24\n      jumpi\n      dup1\n      0x9168ae72\n      eq\n      tag_13\n      jumpi\n      dup1\n      0x94067045\n      eq\n      tag_14\n      jumpi\n      dup1\n      0xb768d7f5\n      eq\n      tag_15\n      jumpi\n      0x00\n      dup1\n      revert\n    tag_24:\n      dup1\n      0x7acb7757\n      eq\n      tag_11\n      jumpi\n      dup1\n      0x8da5cb5b\n      eq\n      tag_12\n      jumpi\n      0x00\n      dup1\n      revert\n    tag_21:\n      dup1\n      0x5036e63b\n      gt\n      tag_25\n      jumpi\n      dup1\n      0x63c28db1\n      gt\n      tag_26\n      jumpi\n      dup1\n      0x63c28db1\n      eq\n      tag_8\n      jumpi\n      dup1\n      0x640fffd8\n      eq\n      tag_9\n      jumpi\n      dup1\n      0x715018a6\n      eq\n      tag_10\n      jumpi\n      0x00\n      dup1\n      revert\n    tag_26:\n      dup1\n      0x5036e63b\n      eq\n      tag_6\n      jumpi\n      dup1\n      0x5f686f25\n      eq\n      tag_7\n      jumpi\n      0x00\n      dup1\n      revert\n    tag_25:\n      dup1\n      0xf714ce\n      eq\n      tag_2\n      jumpi\n      dup1\n      0x1829b46c\n      eq\n      tag_3\n      jumpi\n      dup1\n      0x372500ab\n      eq\n      tag_4\n      jumpi\n      dup1\n      0x45c44ad5\n      eq\n      tag_5\n      jumpi\n    tag_1:\n      0x00\n      dup1\n      revert\n        /* \"StakingContract.sol\":4528:6550  function withdraw(uint256 _tokenId , IERC721 contract_market) external nonReentrant {... */\n    tag_2:\n      callvalue\n      dup1\n      iszero\n      tag_27\n      jumpi\n      0x00\n      dup1\n      revert\n    tag_27:\n      pop\n      tag_28\n      tag_29\n      calldatasize\n      0x04\n      tag_30\n      jump\t// in\n    tag_29:\n      tag_31\n      jump\t// in\n    tag_28:\n      stop\n        /* \"StakingContract.sol\":9007:9195  function withdrawadmin(uint256 amount) external payable onlyOwner {... */\n    tag_3:\n      tag_28\n      tag_33\n      calldatasize\n      0x04\n      tag_34\n      jump\t// in\n    tag_33:\n      tag_35\n      jump\t// in\n        /* \"StakingContract.sol\":6728:7206  function claimRewards() external {... */\n    tag_4:\n      callvalue\n      dup1\n      iszero\n      tag_36\n      jumpi\n      0x00\n      dup1\n      revert\n    tag_36:\n      pop\n      tag_28\n      tag_38\n      jump\t// in\n        /* \"StakingContract.sol\":627:669  IERC721 public immutable nftCollection_cat */\n    tag_5:\n      callvalue\n      dup1\n      iszero\n      tag_39\n      jumpi\n      0x00\n      dup1\n      revert\n    tag_39:\n      pop\n      tag_40\n      immutable(\"0x9cce9eb03c9f29c6481fca9f0f942b15bef0bbbc47fda0ddb44df157019835d9\")\n      dup2\n      jump\n    tag_40:\n      mload(0x40)\n      sub(shl(0xa0, 0x01), 0x01)\n        /* \"#utility.yul\":892:947   */\n      swap1\n      swap2\n      and\n        /* \"#utility.yul\":874:948   */\n      dup2\n      mstore\n        /* \"#utility.yul\":862:864   */\n      0x20\n        /* \"#utility.yul\":847:865   */\n      add\n        /* \"StakingContract.sol\":627:669  IERC721 public immutable nftCollection_cat */\n    tag_42:\n      mload(0x40)\n      dup1\n      swap2\n      sub\n      swap1\n      return\n        /* \"StakingContract.sol\":8906:9001  function storenative() public payable {... */\n    tag_6:\n      tag_28\n        /* \"StakingContract.sol\":8991:8994  100 */\n      0x64\n        /* \"StakingContract.sol\":8984:8988  imna */\n      0x02\n        /* \"StakingContract.sol\":8984:8994  imna = 100 */\n      sstore\n        /* \"StakingContract.sol\":8906:9001  function storenative() public payable {... */\n      jump\n        /* \"StakingContract.sol\":675:718  IERC721 public immutable nftCollection_bear */\n    tag_7:\n      callvalue\n      dup1\n      iszero\n      tag_46\n      jumpi\n      0x00\n      dup1\n      revert\n    tag_46:\n      pop\n      tag_40\n      immutable(\"0x7749cc8014201da2069c21d93ba99c584b6f62d393fde534ed47eac227e31561\")\n      dup2\n      jump\n        /* \"StakingContract.sol\":7469:8370  function getStakedTokens(address _user)... */\n    tag_8:\n      callvalue\n      dup1\n      iszero\n      tag_50\n      jumpi\n      0x00\n      dup1\n      revert\n    tag_50:\n      pop\n      tag_51\n      tag_52\n      calldatasize\n      0x04\n      tag_53\n      jump\t// in\n    tag_52:\n      tag_54\n      jump\t// in\n    tag_51:\n      mload(0x40)\n      tag_42\n      swap2\n      swap1\n      tag_56\n      jump\t// in\n        /* \"StakingContract.sol\":577:621  IERC721 public immutable nftCollection_horse */\n    tag_9:\n      callvalue\n      dup1\n      iszero\n      tag_57\n      jumpi\n      0x00\n      dup1\n      revert\n    tag_57:\n      pop\n      tag_40\n      immutable(\"0x1572b593c53d839d80004aa4b8c51211864104f06ace9e22be9c4365b50655ea\")\n      dup2\n      jump\n        /* \"@openzeppelin/contracts/access/Ownable.sol\":1831:1932   */\n    tag_10:\n      callvalue\n      dup1\n      iszero\n      tag_61\n      jumpi\n      0x00\n      dup1\n      revert\n    tag_61:\n      pop\n      tag_28\n      tag_63\n      jump\t// in\n        /* \"StakingContract.sol\":2488:4284  function stake(uint256 _tokenId, IERC721 contract_market_)... */\n    tag_11:\n      callvalue\n      dup1\n      iszero\n      tag_64\n      jumpi\n      0x00\n      dup1\n      revert\n    tag_64:\n      pop\n      tag_28\n      tag_66\n      calldatasize\n      0x04\n      tag_30\n      jump\t// in\n    tag_66:\n      tag_67\n      jump\t// in\n        /* \"@openzeppelin/contracts/access/Ownable.sol\":1201:1286   */\n    tag_12:\n      callvalue\n      dup1\n      iszero\n      tag_68\n      jumpi\n      0x00\n      dup1\n      revert\n    tag_68:\n      pop\n        /* \"@openzeppelin/contracts/access/Ownable.sol\":1273:1279   */\n      and(sub(shl(0xa0, 0x01), 0x01), sload(0x01))\n        /* \"@openzeppelin/contracts/access/Ownable.sol\":1201:1286   */\n      jump(tag_40)\n        /* \"StakingContract.sol\":2013:2054  mapping(address => Staker) public stakers */\n    tag_13:\n      callvalue\n      dup1\n      iszero\n      tag_73\n      jumpi\n      0x00\n      dup1\n      revert\n    tag_73:\n      pop\n      tag_74\n      tag_75\n      calldatasize\n      0x04\n      tag_53\n      jump\t// in\n    tag_75:\n      mstore(0x20, 0x04)\n      0x00\n      swap1\n      dup2\n      mstore\n      0x40\n      swap1\n      keccak256\n      dup1\n      sload\n      0x02\n      dup3\n      add\n      sload\n      0x03\n      swap1\n      swap3\n      add\n      sload\n      swap1\n      swap2\n      swap1\n      dup4\n      jump\n    tag_74:\n      0x40\n      dup1\n      mload\n        /* \"#utility.yul\":2499:2524   */\n      swap4\n      dup5\n      mstore\n        /* \"#utility.yul\":2555:2557   */\n      0x20\n        /* \"#utility.yul\":2540:2558   */\n      dup5\n      add\n        /* \"#utility.yul\":2533:2567   */\n      swap3\n      swap1\n      swap3\n      mstore\n        /* \"#utility.yul\":2583:2601   */\n      swap1\n      dup3\n      add\n        /* \"#utility.yul\":2576:2610   */\n      mstore\n        /* \"#utility.yul\":2487:2489   */\n      0x60\n        /* \"#utility.yul\":2472:2490   */\n      add\n        /* \"StakingContract.sol\":2013:2054  mapping(address => Staker) public stakers */\n      tag_42\n        /* \"#utility.yul\":2297:2616   */\n      jump\n        /* \"StakingContract.sol\":2172:2220  mapping(uint256 => address) public stakerAddress */\n    tag_14:\n      callvalue\n      dup1\n      iszero\n      tag_79\n      jumpi\n      0x00\n      dup1\n      revert\n    tag_79:\n      pop\n      tag_40\n      tag_81\n      calldatasize\n      0x04\n      tag_34\n      jump\t// in\n    tag_81:\n      mstore(0x20, 0x05)\n      0x00\n      swap1\n      dup2\n      mstore\n      0x40\n      swap1\n      keccak256\n      sload\n      sub(shl(0xa0, 0x01), 0x01)\n      and\n      dup2\n      jump\n        /* \"StakingContract.sol\":9201:9301  function setrewardsPerHour(uint256 amount) public onlyOwner {... */\n    tag_15:\n      callvalue\n      dup1\n      iszero\n      tag_84\n      jumpi\n      0x00\n      dup1\n      revert\n    tag_84:\n      pop\n      tag_28\n      tag_86\n      calldatasize\n      0x04\n      tag_34\n      jump\t// in\n    tag_86:\n      tag_87\n      jump\t// in\n        /* \"StakingContract.sol\":527:571  IERC721 public immutable nftCollection_astra */\n    tag_16:\n      callvalue\n      dup1\n      iszero\n      tag_88\n      jumpi\n      0x00\n      dup1\n      revert\n    tag_88:\n      pop\n      tag_40\n      immutable(\"0x731dc163f73d31d8c68f9917ce4ff967753939f70432973c04fd2c2a48148607\")\n      dup2\n      jump\n        /* \"StakingContract.sol\":485:521  IERC20 public immutable rewardsToken */\n    tag_17:\n      callvalue\n      dup1\n      iszero\n      tag_92\n      jumpi\n      0x00\n      dup1\n      revert\n    tag_92:\n      pop\n      tag_40\n      immutable(\"0x8e8fab5f003314da8d1873ea7720e8d9f47650136d916064d1edb8a11d682624\")\n      dup2\n      jump\n        /* \"StakingContract.sol\":9307:9525  function emergencyWithdrawAll() external payable onlyOwner {... */\n    tag_18:\n      tag_28\n      tag_98\n      jump\t// in\n        /* \"@openzeppelin/contracts/access/Ownable.sol\":2081:2279   */\n    tag_19:\n      callvalue\n      dup1\n      iszero\n      tag_99\n      jumpi\n      0x00\n      dup1\n      revert\n    tag_99:\n      pop\n      tag_28\n      tag_101\n      calldatasize\n      0x04\n      tag_53\n      jump\t// in\n    tag_101:\n      tag_102\n      jump\t// in\n        /* \"StakingContract.sol\":7258:7463  function availableRewards(address _staker) public view returns (uint256) {... */\n    tag_20:\n      callvalue\n      dup1\n      iszero\n      tag_103\n      jumpi\n      0x00\n      dup1\n      revert\n    tag_103:\n      pop\n      tag_104\n      tag_105\n      calldatasize\n      0x04\n      tag_53\n      jump\t// in\n    tag_105:\n      tag_106\n      jump\t// in\n    tag_104:\n      mload(0x40)\n        /* \"#utility.yul\":3012:3037   */\n      swap1\n      dup2\n      mstore\n        /* \"#utility.yul\":3000:3002   */\n      0x20\n        /* \"#utility.yul\":2985:3003   */\n      add\n        /* \"StakingContract.sol\":7258:7463  function availableRewards(address _staker) public view returns (uint256) {... */\n      tag_42\n        /* \"#utility.yul\":2866:3043   */\n      jump\n        /* \"StakingContract.sol\":4528:6550  function withdraw(uint256 _tokenId , IERC721 contract_market) external nonReentrant {... */\n    tag_31:\n        /* \"@openzeppelin/contracts/security/ReentrancyGuard.sol\":2261:2282   */\n      tag_110\n        /* \"@openzeppelin/contracts/security/ReentrancyGuard.sol\":2261:2280   */\n      tag_111\n        /* \"@openzeppelin/contracts/security/ReentrancyGuard.sol\":2261:2282   */\n      jump\t// in\n    tag_110:\n        /* \"StakingContract.sol\":4730:4740  msg.sender */\n      caller\n        /* \"StakingContract.sol\":4757:4758  0 */\n      0x00\n        /* \"StakingContract.sol\":4722:4741  stakers[msg.sender] */\n      swap1\n      dup2\n      mstore\n        /* \"StakingContract.sol\":4722:4729  stakers */\n      0x04\n        /* \"StakingContract.sol\":4722:4741  stakers[msg.sender] */\n      0x20\n      mstore\n      0x40\n      swap1\n      keccak256\n        /* \"StakingContract.sol\":4722:4754  stakers[msg.sender].amountStaked */\n      sload\n        /* \"StakingContract.sol\":4701:4809  require(... */\n      tag_113\n      jumpi\n      mload(0x40)\n      shl(0xe5, 0x461bcd)\n      dup2\n      mstore\n        /* \"#utility.yul\":3250:3252   */\n      0x20\n        /* \"StakingContract.sol\":4701:4809  require(... */\n      0x04\n      dup3\n      add\n        /* \"#utility.yul\":3232:3253   */\n      mstore\n        /* \"#utility.yul\":3289:3291   */\n      0x19\n        /* \"#utility.yul\":3269:3287   */\n      0x24\n      dup3\n      add\n        /* \"#utility.yul\":3262:3292   */\n      mstore\n        /* \"#utility.yul\":3328:3355   */\n      0x596f752048617665204e6f20546f6b656e73205374616b656400000000000000\n        /* \"#utility.yul\":3308:3326   */\n      0x44\n      dup3\n      add\n        /* \"#utility.yul\":3301:3356   */\n      mstore\n        /* \"#utility.yul\":3373:3391   */\n      0x64\n      add\n        /* \"StakingContract.sol\":4701:4809  require(... */\n    tag_114:\n      mload(0x40)\n      dup1\n      swap2\n      sub\n      swap1\n      revert\n    tag_113:\n        /* \"StakingContract.sol\":4849:4859  msg.sender */\n      caller\n        /* \"StakingContract.sol\":4876:4877  0 */\n      0x00\n        /* \"StakingContract.sol\":4841:4860  stakers[msg.sender] */\n      swap1\n      dup2\n      mstore\n        /* \"StakingContract.sol\":4841:4848  stakers */\n      0x04\n        /* \"StakingContract.sol\":4841:4860  stakers[msg.sender] */\n      0x20\n      mstore\n      0x40\n      swap1\n      keccak256\n        /* \"StakingContract.sol\":4841:4873  stakers[msg.sender].amountStaked */\n      sload\n        /* \"StakingContract.sol\":4820:4928  require(... */\n      tag_116\n      jumpi\n      mload(0x40)\n      shl(0xe5, 0x461bcd)\n      dup2\n      mstore\n        /* \"#utility.yul\":3250:3252   */\n      0x20\n        /* \"StakingContract.sol\":4820:4928  require(... */\n      0x04\n      dup3\n      add\n        /* \"#utility.yul\":3232:3253   */\n      mstore\n        /* \"#utility.yul\":3289:3291   */\n      0x19\n        /* \"#utility.yul\":3269:3287   */\n      0x24\n      dup3\n      add\n        /* \"#utility.yul\":3262:3292   */\n      mstore\n        /* \"#utility.yul\":3328:3355   */\n      0x596f752048617665204e6f20546f6b656e73205374616b656400000000000000\n        /* \"#utility.yul\":3308:3326   */\n      0x44\n      dup3\n      add\n        /* \"#utility.yul\":3301:3356   */\n      mstore\n        /* \"#utility.yul\":3373:3391   */\n      0x64\n      add\n        /* \"StakingContract.sol\":4820:4928  require(... */\n      tag_114\n        /* \"#utility.yul\":3048:3397   */\n      jump\n        /* \"StakingContract.sol\":4820:4928  require(... */\n    tag_116:\n        /* \"StakingContract.sol\":4984:5003  nftCollection_astra */\n      immutable(\"0x731dc163f73d31d8c68f9917ce4ff967753939f70432973c04fd2c2a48148607\")\n      sub(shl(0xa0, 0x01), 0x01)\n        /* \"StakingContract.sol\":4965:5003  contract_market == nftCollection_astra */\n      and\n        /* \"StakingContract.sol\":4965:4980  contract_market */\n      dup2\n      sub(shl(0xa0, 0x01), 0x01)\n        /* \"StakingContract.sol\":4965:5003  contract_market == nftCollection_astra */\n      and\n      eq\n        /* \"StakingContract.sol\":4965:5061  contract_market == nftCollection_astra ||... */\n      dup1\n      tag_118\n      jumpi\n      pop\n        /* \"StakingContract.sol\":5042:5061  nftCollection_horse */\n      immutable(\"0x1572b593c53d839d80004aa4b8c51211864104f06ace9e22be9c4365b50655ea\")\n      sub(shl(0xa0, 0x01), 0x01)\n        /* \"StakingContract.sol\":5023:5061  contract_market == nftCollection_horse */\n      and\n        /* \"StakingContract.sol\":5023:5038  contract_market */\n      dup2\n      sub(shl(0xa0, 0x01), 0x01)\n        /* \"StakingContract.sol\":5023:5061  contract_market == nftCollection_horse */\n      and\n      eq\n        /* \"StakingContract.sol\":4965:5061  contract_market == nftCollection_astra ||... */\n    tag_118:\n        /* \"StakingContract.sol\":4965:5117  contract_market == nftCollection_astra ||... */\n      dup1\n      tag_119\n      jumpi\n      pop\n        /* \"StakingContract.sol\":5100:5117  nftCollection_cat */\n      immutable(\"0x9cce9eb03c9f29c6481fca9f0f942b15bef0bbbc47fda0ddb44df157019835d9\")\n      sub(shl(0xa0, 0x01), 0x01)\n        /* \"StakingContract.sol\":5081:5117  contract_market == nftCollection_cat */\n      and\n        /* \"StakingContract.sol\":5081:5096  contract_market */\n      dup2\n      sub(shl(0xa0, 0x01), 0x01)\n        /* \"StakingContract.sol\":5081:5117  contract_market == nftCollection_cat */\n      and\n      eq\n        /* \"StakingContract.sol\":4965:5117  contract_market == nftCollection_astra ||... */\n    tag_119:\n        /* \"StakingContract.sol\":4965:5174  contract_market == nftCollection_astra ||... */\n      dup1\n      tag_120\n      jumpi\n      pop\n        /* \"StakingContract.sol\":5156:5174  nftCollection_bear */\n      immutable(\"0x7749cc8014201da2069c21d93ba99c584b6f62d393fde534ed47eac227e31561\")\n      sub(shl(0xa0, 0x01), 0x01)\n        /* \"StakingContract.sol\":5137:5174  contract_market == nftCollection_bear */\n      and\n        /* \"StakingContract.sol\":5137:5152  contract_market */\n      dup2\n      sub(shl(0xa0, 0x01), 0x01)\n        /* \"StakingContract.sol\":5137:5174  contract_market == nftCollection_bear */\n      and\n      eq\n        /* \"StakingContract.sol\":4965:5174  contract_market == nftCollection_astra ||... */\n    tag_120:\n        /* \"StakingContract.sol\":4940:5234  require(... */\n      tag_121\n      jumpi\n      mload(0x40)\n      shl(0xe5, 0x461bcd)\n      dup2\n      mstore\n        /* \"#utility.yul\":3604:3606   */\n      0x20\n        /* \"StakingContract.sol\":4940:5234  require(... */\n      0x04\n      dup3\n      add\n        /* \"#utility.yul\":3586:3607   */\n      mstore\n        /* \"#utility.yul\":3643:3645   */\n      0x22\n        /* \"#utility.yul\":3623:3641   */\n      0x24\n      dup3\n      add\n        /* \"#utility.yul\":3616:3646   */\n      mstore\n        /* \"#utility.yul\":3682:3716   */\n      0x5468697320436f6c6c656374696f6e2043616e27742042652057697468647261\n        /* \"#utility.yul\":3662:3680   */\n      0x44\n      dup3\n      add\n        /* \"#utility.yul\":3655:3717   */\n      mstore\n      shl(0xf1, 0x3bb7)\n        /* \"#utility.yul\":3733:3751   */\n      0x64\n      dup3\n      add\n        /* \"#utility.yul\":3726:3758   */\n      mstore\n        /* \"#utility.yul\":3775:3794   */\n      0x84\n      add\n        /* \"StakingContract.sol\":4940:5234  require(... */\n      tag_114\n        /* \"#utility.yul\":3402:3800   */\n      jump\n        /* \"StakingContract.sol\":4940:5234  require(... */\n    tag_121:\n        /* \"StakingContract.sol\":5343:5358  uint256 rewards */\n      0x00\n        /* \"StakingContract.sol\":5361:5389  calculateRewards(msg.sender) */\n      tag_124\n        /* \"StakingContract.sol\":5378:5388  msg.sender */\n      caller\n        /* \"StakingContract.sol\":5361:5377  calculateRewards */\n      tag_125\n        /* \"StakingContract.sol\":5361:5389  calculateRewards(msg.sender) */\n      jump\t// in\n    tag_124:\n        /* \"StakingContract.sol\":5407:5417  msg.sender */\n      caller\n        /* \"StakingContract.sol\":5399:5418  stakers[msg.sender] */\n      0x00\n      swap1\n      dup2\n      mstore\n        /* \"StakingContract.sol\":5399:5406  stakers */\n      0x04\n        /* \"StakingContract.sol\":5399:5418  stakers[msg.sender] */\n      0x20\n      mstore\n      0x40\n      dup2\n      keccak256\n        /* \"StakingContract.sol\":5399:5435  stakers[msg.sender].unclaimedRewards */\n      0x03\n      add\n        /* \"StakingContract.sol\":5399:5446  stakers[msg.sender].unclaimedRewards += rewards */\n      dup1\n      sload\n        /* \"StakingContract.sol\":5343:5389  uint256 rewards = calculateRewards(msg.sender) */\n      swap3\n      swap4\n      pop\n      dup4\n      swap3\n        /* \"StakingContract.sol\":5399:5435  stakers[msg.sender].unclaimedRewards */\n      swap1\n      swap2\n        /* \"StakingContract.sol\":5399:5418  stakers[msg.sender] */\n      swap1\n        /* \"StakingContract.sol\":5399:5446  stakers[msg.sender].unclaimedRewards += rewards */\n      tag_126\n      swap1\n        /* \"StakingContract.sol\":5343:5389  uint256 rewards = calculateRewards(msg.sender) */\n      dup5\n      swap1\n        /* \"StakingContract.sol\":5399:5446  stakers[msg.sender].unclaimedRewards += rewards */\n      tag_127\n      jump\t// in\n    tag_126:\n      swap1\n      swap2\n      sstore\n      pop\n        /* \"StakingContract.sol\":5526:5539  uint256 index */\n      0x00\n      swap1\n      pop\n      dup1\n        /* \"StakingContract.sol\":5553:5879  for (uint256 i = 0; i < stakers[msg.sender].stakedTokens.length; i++) {... */\n    tag_128:\n        /* \"StakingContract.sol\":5585:5595  msg.sender */\n      caller\n        /* \"StakingContract.sol\":5577:5596  stakers[msg.sender] */\n      0x00\n      swap1\n      dup2\n      mstore\n        /* \"StakingContract.sol\":5577:5584  stakers */\n      0x04\n        /* \"StakingContract.sol\":5577:5596  stakers[msg.sender] */\n      0x20\n      mstore\n      0x40\n      swap1\n      keccak256\n        /* \"StakingContract.sol\":5577:5609  stakers[msg.sender].stakedTokens */\n      0x01\n      add\n        /* \"StakingContract.sol\":5577:5616  stakers[msg.sender].stakedTokens.length */\n      sload\n        /* \"StakingContract.sol\":5573:5616  i < stakers[msg.sender].stakedTokens.length */\n      dup2\n      lt\n        /* \"StakingContract.sol\":5553:5879  for (uint256 i = 0; i < stakers[msg.sender].stakedTokens.length; i++) {... */\n      iszero\n      tag_129\n      jumpi\n        /* \"StakingContract.sol\":5666:5676  msg.sender */\n      caller\n        /* \"StakingContract.sol\":5658:5677  stakers[msg.sender] */\n      0x00\n      swap1\n      dup2\n      mstore\n        /* \"StakingContract.sol\":5658:5665  stakers */\n      0x04\n        /* \"StakingContract.sol\":5658:5677  stakers[msg.sender] */\n      0x20\n      mstore\n      0x40\n      swap1\n      keccak256\n        /* \"StakingContract.sol\":5658:5690  stakers[msg.sender].stakedTokens */\n      0x01\n      add\n        /* \"StakingContract.sol\":5658:5693  stakers[msg.sender].stakedTokens[i] */\n      dup1\n      sload\n        /* \"StakingContract.sol\":5705:5713  _tokenId */\n      dup7\n      swap2\n        /* \"StakingContract.sol\":5658:5690  stakers[msg.sender].stakedTokens */\n      swap1\n        /* \"StakingContract.sol\":5691:5692  i */\n      dup4\n      swap1\n        /* \"StakingContract.sol\":5658:5693  stakers[msg.sender].stakedTokens[i] */\n      dup2\n      lt\n      tag_132\n      jumpi\n      tag_132\n      tag_133\n      jump\t// in\n    tag_132:\n      swap1\n      0x00\n      mstore\n      keccak256(0x00, 0x20)\n      swap1\n      0x02\n      mul\n      add\n        /* \"StakingContract.sol\":5658:5701  stakers[msg.sender].stakedTokens[i].tokenId */\n      0x01\n      add\n      sload\n        /* \"StakingContract.sol\":5658:5713  stakers[msg.sender].stakedTokens[i].tokenId == _tokenId */\n      eq\n        /* \"StakingContract.sol\":5658:5789  stakers[msg.sender].stakedTokens[i].tokenId == _tokenId &&... */\n      dup1\n      iszero\n      tag_135\n      jumpi\n      pop\n        /* \"StakingContract.sol\":5741:5751  msg.sender */\n      caller\n        /* \"StakingContract.sol\":5787:5788  0 */\n      0x00\n        /* \"StakingContract.sol\":5733:5752  stakers[msg.sender] */\n      swap1\n      dup2\n      mstore\n        /* \"StakingContract.sol\":5733:5740  stakers */\n      0x04\n        /* \"StakingContract.sol\":5733:5752  stakers[msg.sender] */\n      0x20\n      mstore\n      0x40\n      dup2\n      keccak256\n        /* \"StakingContract.sol\":5733:5765  stakers[msg.sender].stakedTokens */\n      0x01\n      add\n        /* \"StakingContract.sol\":5733:5768  stakers[msg.sender].stakedTokens[i] */\n      dup1\n      sload\n        /* \"StakingContract.sol\":5766:5767  i */\n      dup4\n      swap1\n        /* \"StakingContract.sol\":5733:5768  stakers[msg.sender].stakedTokens[i] */\n      dup2\n      lt\n      tag_137\n      jumpi\n      tag_137\n      tag_133\n      jump\t// in\n    tag_137:\n      0x00\n      swap2\n      dup3\n      mstore\n      0x20\n      swap1\n      swap2\n      keccak256\n      0x02\n      swap1\n      swap2\n      mul\n      add\n        /* \"StakingContract.sol\":5733:5775  stakers[msg.sender].stakedTokens[i].staker */\n      sload\n      sub(shl(0xa0, 0x01), 0x01)\n      and\n        /* \"StakingContract.sol\":5733:5789  stakers[msg.sender].stakedTokens[i].staker != address(0) */\n      eq\n      iszero\n        /* \"StakingContract.sol\":5658:5789  stakers[msg.sender].stakedTokens[i].tokenId == _tokenId &&... */\n    tag_135:\n        /* \"StakingContract.sol\":5637:5869  if (... */\n      iszero\n      tag_139\n      jumpi\n        /* \"StakingContract.sol\":5830:5831  i */\n      dup1\n        /* \"StakingContract.sol\":5822:5831  index = i */\n      swap2\n      pop\n        /* \"StakingContract.sol\":5849:5854  break */\n      jump(tag_129)\n        /* \"StakingContract.sol\":5637:5869  if (... */\n    tag_139:\n        /* \"StakingContract.sol\":5618:5621  i++ */\n      dup1\n      tag_140\n      dup2\n      tag_141\n      jump\t// in\n    tag_140:\n      swap2\n      pop\n      pop\n        /* \"StakingContract.sol\":5553:5879  for (uint256 i = 0; i < stakers[msg.sender].stakedTokens.length; i++) {... */\n      jump(tag_128)\n    tag_129:\n      pop\n        /* \"StakingContract.sol\":5980:5990  msg.sender */\n      caller\n        /* \"StakingContract.sol\":6029:6030  0 */\n      0x00\n        /* \"StakingContract.sol\":5972:5991  stakers[msg.sender] */\n      swap1\n      dup2\n      mstore\n        /* \"StakingContract.sol\":5972:5979  stakers */\n      0x04\n        /* \"StakingContract.sol\":5972:5991  stakers[msg.sender] */\n      0x20\n      mstore\n      0x40\n      dup2\n      keccak256\n        /* \"StakingContract.sol\":5972:6004  stakers[msg.sender].stakedTokens */\n      0x01\n      add\n        /* \"StakingContract.sol\":5972:6011  stakers[msg.sender].stakedTokens[index] */\n      dup1\n      sload\n        /* \"StakingContract.sol\":6005:6010  index */\n      dup4\n      swap1\n        /* \"StakingContract.sol\":5972:6011  stakers[msg.sender].stakedTokens[index] */\n      dup2\n      lt\n      tag_143\n      jumpi\n      tag_143\n      tag_133\n      jump\t// in\n    tag_143:\n      0x00\n      swap2\n      dup3\n      mstore\n      0x20\n      dup1\n      dup4\n      keccak256\n      0x02\n      swap3\n      swap1\n      swap3\n      mul\n      swap1\n      swap2\n      add\n        /* \"StakingContract.sol\":5972:6031  stakers[msg.sender].stakedTokens[index].staker = address(0) */\n      dup1\n      sload\n      not(sub(shl(0xa0, 0x01), 0x01))\n      and\n      sub(shl(0xa0, 0x01), 0x01)\n      swap5\n      swap1\n      swap5\n      and\n      swap4\n      swap1\n      swap4\n      or\n      swap1\n      swap3\n      sstore\n        /* \"StakingContract.sol\":6105:6115  msg.sender */\n      caller\n        /* \"StakingContract.sol\":6097:6116  stakers[msg.sender] */\n      dup2\n      mstore\n        /* \"StakingContract.sol\":6097:6104  stakers */\n      0x04\n        /* \"StakingContract.sol\":6097:6116  stakers[msg.sender] */\n      swap1\n      swap2\n      mstore\n      0x40\n      dup2\n      keccak256\n        /* \"StakingContract.sol\":6097:6131  stakers[msg.sender].amountStaked-- */\n      dup1\n      sload\n      swap2\n      tag_145\n      dup4\n      tag_146\n      jump\t// in\n    tag_145:\n      swap1\n      swap2\n      sstore\n      pop\n      pop\n        /* \"StakingContract.sol\":6289:6290  0 */\n      0x00\n        /* \"StakingContract.sol\":6255:6278  stakerAddress[_tokenId] */\n      dup5\n      dup2\n      mstore\n        /* \"StakingContract.sol\":6255:6268  stakerAddress */\n      0x05\n        /* \"StakingContract.sol\":6255:6278  stakerAddress[_tokenId] */\n      0x20\n      mstore\n      0x40\n      swap1\n      dup2\n      swap1\n      keccak256\n        /* \"StakingContract.sol\":6255:6291  stakerAddress[_tokenId] = address(0) */\n      dup1\n      sload\n      not(sub(shl(0xa0, 0x01), 0x01))\n      and\n      swap1\n      sstore\n        /* \"StakingContract.sol\":6355:6420  contract_market.transferFrom(address(this), msg.sender, _tokenId) */\n      mload\n      shl(0xe0, 0x23b872dd)\n      dup2\n      mstore\n        /* \"StakingContract.sol\":6392:6396  this */\n      address\n        /* \"StakingContract.sol\":6355:6420  contract_market.transferFrom(address(this), msg.sender, _tokenId) */\n      0x04\n      dup3\n      add\n        /* \"#utility.yul\":4743:4777   */\n      mstore\n        /* \"StakingContract.sol\":6399:6409  msg.sender */\n      caller\n        /* \"#utility.yul\":4793:4811   */\n      0x24\n      dup3\n      add\n        /* \"#utility.yul\":4786:4829   */\n      mstore\n        /* \"#utility.yul\":4845:4863   */\n      0x44\n      dup2\n      add\n        /* \"#utility.yul\":4838:4872   */\n      dup6\n      swap1\n      mstore\n      sub(shl(0xa0, 0x01), 0x01)\n        /* \"StakingContract.sol\":6355:6383  contract_market.transferFrom */\n      dup5\n      and\n      swap1\n      0x23b872dd\n      swap1\n        /* \"#utility.yul\":4655:4673   */\n      0x64\n      add\n        /* \"StakingContract.sol\":6355:6420  contract_market.transferFrom(address(this), msg.sender, _tokenId) */\n      0x00\n      mload(0x40)\n      dup1\n      dup4\n      sub\n      dup2\n      0x00\n      dup8\n      dup1\n      extcodesize\n      iszero\n      dup1\n      iszero\n      tag_149\n      jumpi\n      0x00\n      dup1\n      revert\n    tag_149:\n      pop\n      gas\n      call\n      iszero\n      dup1\n      iszero\n      tag_151\n      jumpi\n      returndatasize\n      0x00\n      dup1\n      returndatacopy\n      revert(0x00, returndatasize)\n    tag_151:\n      pop\n      pop\n        /* \"StakingContract.sol\":6497:6507  msg.sender */\n      caller\n        /* \"StakingContract.sol\":6489:6508  stakers[msg.sender] */\n      0x00\n      swap1\n      dup2\n      mstore\n        /* \"StakingContract.sol\":6489:6496  stakers */\n      0x04\n        /* \"StakingContract.sol\":6489:6508  stakers[msg.sender] */\n      0x20\n      mstore\n      0x40\n      swap1\n      keccak256\n        /* \"StakingContract.sol\":6528:6543  block.timestamp */\n      timestamp\n        /* \"StakingContract.sol\":6489:6525  stakers[msg.sender].timeOfLastUpdate */\n      0x02\n      swap1\n      swap2\n      add\n        /* \"StakingContract.sol\":6489:6543  stakers[msg.sender].timeOfLastUpdate = block.timestamp */\n      sstore\n      pop\n        /* \"@openzeppelin/contracts/security/ReentrancyGuard.sol\":2303:2323   */\n      tag_152\n      swap3\n      pop\n        /* \"@openzeppelin/contracts/security/ReentrancyGuard.sol\":2303:2321   */\n      tag_153\n      swap2\n      pop\n      pop\n        /* \"@openzeppelin/contracts/security/ReentrancyGuard.sol\":2303:2323   */\n      jump\t// in\n    tag_152:\n        /* \"StakingContract.sol\":4528:6550  function withdraw(uint256 _tokenId , IERC721 contract_market) external nonReentrant {... */\n      pop\n      pop\n      jump\t// out\n        /* \"StakingContract.sol\":9007:9195  function withdrawadmin(uint256 amount) external payable onlyOwner {... */\n    tag_35:\n        /* \"@openzeppelin/contracts/access/Ownable.sol\":1094:1107   */\n      tag_155\n        /* \"@openzeppelin/contracts/access/Ownable.sol\":1094:1105   */\n      tag_156\n        /* \"@openzeppelin/contracts/access/Ownable.sol\":1094:1107   */\n      jump\t// in\n    tag_155:\n        /* \"StakingContract.sol\":9084:9096  bool success */\n      0x00\n        /* \"StakingContract.sol\":9110:9117  owner() */\n      tag_158\n        /* \"@openzeppelin/contracts/access/Ownable.sol\":1273:1279   */\n      and(sub(shl(0xa0, 0x01), 0x01), sload(0x01))\n      swap1\n        /* \"@openzeppelin/contracts/access/Ownable.sol\":1201:1286   */\n      jump\n        /* \"StakingContract.sol\":9110:9117  owner() */\n    tag_158:\n      sub(shl(0xa0, 0x01), 0x01)\n        /* \"StakingContract.sol\":9102:9123  payable(owner()).call */\n      and\n        /* \"StakingContract.sol\":9131:9137  amount */\n      dup3\n        /* \"StakingContract.sol\":9102:9142  payable(owner()).call{value: amount}(\"\") */\n      mload(0x40)\n      0x00\n      mload(0x40)\n      dup1\n      dup4\n      sub\n      dup2\n      dup6\n      dup8\n      gas\n      call\n      swap3\n      pop\n      pop\n      pop\n      returndatasize\n      dup1\n      0x00\n      dup2\n      eq\n      tag_163\n      jumpi\n      mload(0x40)\n      swap2\n      pop\n      and(add(returndatasize, 0x3f), not(0x1f))\n      dup3\n      add\n      0x40\n      mstore\n      returndatasize\n      dup3\n      mstore\n      returndatasize\n      0x00\n      0x20\n      dup5\n      add\n      returndatacopy\n      jump(tag_162)\n    tag_163:\n      0x60\n      swap2\n      pop\n    tag_162:\n      pop\n        /* \"StakingContract.sol\":9083:9142  (bool success, ) = payable(owner()).call{value: amount}(\"\") */\n      pop\n      swap1\n      pop\n        /* \"StakingContract.sol\":9160:9167  success */\n      dup1\n        /* \"StakingContract.sol\":9152:9188  require(success, \"Transfer failed!\") */\n      tag_152\n      jumpi\n      mload(0x40)\n      shl(0xe5, 0x461bcd)\n      dup2\n      mstore\n        /* \"#utility.yul\":5295:5297   */\n      0x20\n        /* \"StakingContract.sol\":9152:9188  require(success, \"Transfer failed!\") */\n      0x04\n      dup3\n      add\n        /* \"#utility.yul\":5277:5298   */\n      mstore\n        /* \"#utility.yul\":5334:5336   */\n      0x10\n        /* \"#utility.yul\":5314:5332   */\n      0x24\n      dup3\n      add\n        /* \"#utility.yul\":5307:5337   */\n      mstore\n      shl(0x80, 0x5472616e73666572206661696c656421)\n        /* \"#utility.yul\":5353:5371   */\n      0x44\n      dup3\n      add\n        /* \"#utility.yul\":5346:5392   */\n      mstore\n        /* \"#utility.yul\":5409:5427   */\n      0x64\n      add\n        /* \"StakingContract.sol\":9152:9188  require(success, \"Transfer failed!\") */\n      tag_114\n        /* \"#utility.yul\":5093:5433   */\n      jump\n        /* \"StakingContract.sol\":6728:7206  function claimRewards() external {... */\n    tag_38:\n        /* \"StakingContract.sol\":6840:6850  msg.sender */\n      caller\n        /* \"StakingContract.sol\":6771:6786  uint256 rewards */\n      0x00\n        /* \"StakingContract.sol\":6832:6851  stakers[msg.sender] */\n      dup2\n      dup2\n      mstore\n        /* \"StakingContract.sol\":6832:6839  stakers */\n      0x04\n        /* \"StakingContract.sol\":6832:6851  stakers[msg.sender] */\n      0x20\n      mstore\n      0x40\n      dup2\n      keccak256\n        /* \"StakingContract.sol\":6832:6868  stakers[msg.sender].unclaimedRewards */\n      0x03\n      add\n      sload\n        /* \"StakingContract.sol\":6771:6786  uint256 rewards */\n      swap1\n      swap2\n        /* \"StakingContract.sol\":6789:6817  calculateRewards(msg.sender) */\n      tag_168\n      swap1\n        /* \"StakingContract.sol\":6789:6805  calculateRewards */\n      tag_125\n        /* \"StakingContract.sol\":6789:6817  calculateRewards(msg.sender) */\n      jump\t// in\n    tag_168:\n        /* \"StakingContract.sol\":6789:6868  calculateRewards(msg.sender) +... */\n      tag_169\n      swap2\n      swap1\n      tag_127\n      jump\t// in\n    tag_169:\n        /* \"StakingContract.sol\":6771:6868  uint256 rewards = calculateRewards(msg.sender) +... */\n      swap1\n      pop\n        /* \"StakingContract.sol\":6896:6897  0 */\n      0x00\n        /* \"StakingContract.sol\":6886:6893  rewards */\n      dup2\n        /* \"StakingContract.sol\":6886:6897  rewards > 0 */\n      gt\n        /* \"StakingContract.sol\":6878:6930  require(rewards > 0, \"You have no rewards to claim\") */\n      tag_170\n      jumpi\n      mload(0x40)\n      shl(0xe5, 0x461bcd)\n      dup2\n      mstore\n        /* \"#utility.yul\":5640:5642   */\n      0x20\n        /* \"StakingContract.sol\":6878:6930  require(rewards > 0, \"You have no rewards to claim\") */\n      0x04\n      dup3\n      add\n        /* \"#utility.yul\":5622:5643   */\n      mstore\n        /* \"#utility.yul\":5679:5681   */\n      0x1c\n        /* \"#utility.yul\":5659:5677   */\n      0x24\n      dup3\n      add\n        /* \"#utility.yul\":5652:5682   */\n      mstore\n        /* \"#utility.yul\":5718:5748   */\n      0x596f752068617665206e6f207265776172647320746f20636c61696d00000000\n        /* \"#utility.yul\":5698:5716   */\n      0x44\n      dup3\n      add\n        /* \"#utility.yul\":5691:5749   */\n      mstore\n        /* \"#utility.yul\":5766:5784   */\n      0x64\n      add\n        /* \"StakingContract.sol\":6878:6930  require(rewards > 0, \"You have no rewards to claim\") */\n      tag_114\n        /* \"#utility.yul\":5438:5790   */\n      jump\n        /* \"StakingContract.sol\":6878:6930  require(rewards > 0, \"You have no rewards to claim\") */\n    tag_170:\n        /* \"StakingContract.sol\":6949:6959  msg.sender */\n      caller\n        /* \"StakingContract.sol\":6941:6960  stakers[msg.sender] */\n      0x00\n      dup2\n      dup2\n      mstore\n        /* \"StakingContract.sol\":6941:6948  stakers */\n      0x04\n        /* \"StakingContract.sol\":6941:6960  stakers[msg.sender] */\n      0x20\n      mstore\n      0x40\n      dup2\n      keccak256\n        /* \"StakingContract.sol\":6980:6995  block.timestamp */\n      timestamp\n        /* \"StakingContract.sol\":6941:6977  stakers[msg.sender].timeOfLastUpdate */\n      0x02\n      dup3\n      add\n        /* \"StakingContract.sol\":6941:6995  stakers[msg.sender].timeOfLastUpdate = block.timestamp */\n      sstore\n        /* \"StakingContract.sol\":7005:7041  stakers[msg.sender].unclaimedRewards */\n      0x03\n      add\n        /* \"StakingContract.sol\":7005:7045  stakers[msg.sender].unclaimedRewards = 0 */\n      sstore\n        /* \"StakingContract.sol\":7055:7101  rewardsToken.safeTransfer(msg.sender, rewards) */\n      tag_173\n      swap1\n        /* \"StakingContract.sol\":7055:7067  rewardsToken */\n      immutable(\"0x8e8fab5f003314da8d1873ea7720e8d9f47650136d916064d1edb8a11d682624\")\n      sub(shl(0xa0, 0x01), 0x01)\n        /* \"StakingContract.sol\":7055:7080  rewardsToken.safeTransfer */\n      and\n      swap1\n        /* \"StakingContract.sol\":7093:7100  rewards */\n      dup4\n        /* \"StakingContract.sol\":7055:7080  rewardsToken.safeTransfer */\n      tag_174\n        /* \"StakingContract.sol\":7055:7101  rewardsToken.safeTransfer(msg.sender, rewards) */\n      jump\t// in\n    tag_173:\n        /* \"StakingContract.sol\":6761:7206  {... */\n      pop\n        /* \"StakingContract.sol\":6728:7206  function claimRewards() external {... */\n      jump\t// out\n        /* \"StakingContract.sol\":7469:8370  function getStakedTokens(address _user)... */\n    tag_54:\n      sub(shl(0xa0, 0x01), 0x01)\n        /* \"StakingContract.sol\":7632:7646  stakers[_user] */\n      dup2\n      and\n        /* \"StakingContract.sol\":7662:7663  0 */\n      0x00\n        /* \"StakingContract.sol\":7632:7646  stakers[_user] */\n      swap1\n      dup2\n      mstore\n        /* \"StakingContract.sol\":7632:7639  stakers */\n      0x04\n        /* \"StakingContract.sol\":7632:7646  stakers[_user] */\n      0x20\n      mstore\n      0x40\n      swap1\n      keccak256\n        /* \"StakingContract.sol\":7632:7659  stakers[_user].amountStaked */\n      sload\n        /* \"StakingContract.sol\":7554:7574  StakedToken[] memory */\n      0x60\n      swap1\n        /* \"StakingContract.sol\":7632:7663  stakers[_user].amountStaked > 0 */\n      iszero\n        /* \"StakingContract.sol\":7628:8364  if (stakers[_user].amountStaked > 0) {... */\n      tag_177\n      jumpi\n      sub(shl(0xa0, 0x01), 0x01)\n        /* \"StakingContract.sol\":7843:7857  stakers[_user] */\n      dup3\n      and\n        /* \"StakingContract.sol\":7771:7805  StakedToken[] memory _stakedTokens */\n      0x00\n        /* \"StakingContract.sol\":7843:7857  stakers[_user] */\n      swap1\n      dup2\n      mstore\n        /* \"StakingContract.sol\":7843:7850  stakers */\n      0x04\n        /* \"StakingContract.sol\":7843:7857  stakers[_user] */\n      0x20\n      mstore\n      0x40\n      dup2\n      keccak256\n        /* \"StakingContract.sol\":7843:7870  stakers[_user].amountStaked */\n      sload\n        /* \"StakingContract.sol\":7808:7884  new StakedToken[](... */\n      0xffffffffffffffff\n      dup2\n      gt\n      iszero\n      tag_179\n      jumpi\n      tag_179\n      tag_180\n      jump\t// in\n    tag_179:\n      mload(0x40)\n      swap1\n      dup1\n      dup3\n      mstore\n      dup1\n      0x20\n      mul\n      0x20\n      add\n      dup3\n      add\n      0x40\n      mstore\n      dup1\n      iszero\n      tag_181\n      jumpi\n      dup2\n      0x20\n      add\n    tag_182:\n      0x40\n      dup1\n      mload\n      dup1\n      dup3\n      add\n      swap1\n      swap2\n      mstore\n      0x00\n      dup1\n      dup3\n      mstore\n      0x20\n      dup3\n      add\n      mstore\n      dup2\n      mstore\n      0x20\n      add\n      swap1\n      0x01\n      swap1\n      sub\n      swap1\n      dup2\n      tag_182\n      jumpi\n      swap1\n      pop\n    tag_181:\n      pop\n        /* \"StakingContract.sol\":7771:7884  StakedToken[] memory _stakedTokens = new StakedToken[](... */\n      swap1\n      pop\n        /* \"StakingContract.sol\":7898:7912  uint256 _index */\n      0x00\n        /* \"StakingContract.sol\":7936:7945  uint256 j */\n      dup1\n        /* \"StakingContract.sol\":7931:8212  for (uint256 j = 0; j < stakers[_user].stakedTokens.length; j++) {... */\n    tag_185:\n      sub(shl(0xa0, 0x01), 0x01)\n        /* \"StakingContract.sol\":7955:7969  stakers[_user] */\n      dup6\n      and\n      0x00\n      swap1\n      dup2\n      mstore\n        /* \"StakingContract.sol\":7955:7962  stakers */\n      0x04\n        /* \"StakingContract.sol\":7955:7969  stakers[_user] */\n      0x20\n      mstore\n      0x40\n      swap1\n      keccak256\n        /* \"StakingContract.sol\":7955:7982  stakers[_user].stakedTokens */\n      0x01\n      add\n        /* \"StakingContract.sol\":7955:7989  stakers[_user].stakedTokens.length */\n      sload\n        /* \"StakingContract.sol\":7951:7989  j < stakers[_user].stakedTokens.length */\n      dup2\n      lt\n        /* \"StakingContract.sol\":7931:8212  for (uint256 j = 0; j < stakers[_user].stakedTokens.length; j++) {... */\n      iszero\n      tag_186\n      jumpi\n      sub(shl(0xa0, 0x01), 0x01)\n        /* \"StakingContract.sol\":8018:8032  stakers[_user] */\n      dup6\n      and\n        /* \"StakingContract.sol\":8068:8069  0 */\n      0x00\n        /* \"StakingContract.sol\":8018:8032  stakers[_user] */\n      swap1\n      dup2\n      mstore\n        /* \"StakingContract.sol\":8018:8025  stakers */\n      0x04\n        /* \"StakingContract.sol\":8018:8032  stakers[_user] */\n      0x20\n      mstore\n      0x40\n      dup2\n      keccak256\n        /* \"StakingContract.sol\":8018:8045  stakers[_user].stakedTokens */\n      0x01\n      add\n        /* \"StakingContract.sol\":8018:8048  stakers[_user].stakedTokens[j] */\n      dup1\n      sload\n        /* \"StakingContract.sol\":8046:8047  j */\n      dup4\n      swap1\n        /* \"StakingContract.sol\":8018:8048  stakers[_user].stakedTokens[j] */\n      dup2\n      lt\n      tag_189\n      jumpi\n      tag_189\n      tag_133\n      jump\t// in\n    tag_189:\n      0x00\n      swap2\n      dup3\n      mstore\n      0x20\n      swap1\n      swap2\n      keccak256\n      0x02\n      swap1\n      swap2\n      mul\n      add\n        /* \"StakingContract.sol\":8018:8055  stakers[_user].stakedTokens[j].staker */\n      sload\n      sub(shl(0xa0, 0x01), 0x01)\n      and\n        /* \"StakingContract.sol\":8018:8071  stakers[_user].stakedTokens[j].staker != (address(0)) */\n      eq\n        /* \"StakingContract.sol\":8014:8198  if (stakers[_user].stakedTokens[j].staker != (address(0))) {... */\n      tag_191\n      jumpi\n      sub(shl(0xa0, 0x01), 0x01)\n        /* \"StakingContract.sol\":8119:8133  stakers[_user] */\n      dup6\n      and\n      0x00\n      swap1\n      dup2\n      mstore\n        /* \"StakingContract.sol\":8119:8126  stakers */\n      0x04\n        /* \"StakingContract.sol\":8119:8133  stakers[_user] */\n      0x20\n      mstore\n      0x40\n      swap1\n      keccak256\n        /* \"StakingContract.sol\":8119:8146  stakers[_user].stakedTokens */\n      0x01\n      add\n        /* \"StakingContract.sol\":8119:8149  stakers[_user].stakedTokens[j] */\n      dup1\n      sload\n        /* \"StakingContract.sol\":8147:8148  j */\n      dup3\n      swap1\n        /* \"StakingContract.sol\":8119:8149  stakers[_user].stakedTokens[j] */\n      dup2\n      lt\n      tag_193\n      jumpi\n      tag_193\n      tag_133\n      jump\t// in\n    tag_193:\n      0x00\n      swap2\n      dup3\n      mstore\n      0x20\n      swap2\n      dup3\n      swap1\n      keccak256\n        /* \"StakingContract.sol\":8095:8149  _stakedTokens[_index] = stakers[_user].stakedTokens[j] */\n      0x40\n      dup1\n      mload\n      dup1\n      dup3\n      add\n      swap1\n      swap2\n      mstore\n        /* \"StakingContract.sol\":8119:8149  stakers[_user].stakedTokens[j] */\n      0x02\n      swap1\n      swap3\n      mul\n      add\n        /* \"StakingContract.sol\":8095:8149  _stakedTokens[_index] = stakers[_user].stakedTokens[j] */\n      dup1\n      sload\n      sub(shl(0xa0, 0x01), 0x01)\n      and\n      dup3\n      mstore\n      0x01\n      add\n      sload\n      swap2\n      dup2\n      add\n      swap2\n      swap1\n      swap2\n      mstore\n        /* \"StakingContract.sol\":8095:8116  _stakedTokens[_index] */\n      dup4\n      mload\n        /* \"StakingContract.sol\":8095:8108  _stakedTokens */\n      dup5\n      swap1\n        /* \"StakingContract.sol\":8109:8115  _index */\n      dup5\n      swap1\n        /* \"StakingContract.sol\":8095:8116  _stakedTokens[_index] */\n      dup2\n      lt\n      tag_196\n      jumpi\n      tag_196\n      tag_133\n      jump\t// in\n    tag_196:\n      0x20\n      mul\n      0x20\n      add\n      add\n        /* \"StakingContract.sol\":8095:8149  _stakedTokens[_index] = stakers[_user].stakedTokens[j] */\n      dup2\n      swap1\n      mstore\n      pop\n        /* \"StakingContract.sol\":8171:8179  _index++ */\n      dup2\n      dup1\n      tag_197\n      swap1\n      tag_141\n      jump\t// in\n    tag_197:\n      swap3\n      pop\n      pop\n        /* \"StakingContract.sol\":8014:8198  if (stakers[_user].stakedTokens[j].staker != (address(0))) {... */\n    tag_191:\n        /* \"StakingContract.sol\":7991:7994  j++ */\n      dup1\n      tag_198\n      dup2\n      tag_141\n      jump\t// in\n    tag_198:\n      swap2\n      pop\n      pop\n        /* \"StakingContract.sol\":7931:8212  for (uint256 j = 0; j < stakers[_user].stakedTokens.length; j++) {... */\n      jump(tag_185)\n    tag_186:\n      pop\n        /* \"StakingContract.sol\":8233:8246  _stakedTokens */\n      swap1\n      swap4\n        /* \"StakingContract.sol\":7469:8370  function getStakedTokens(address _user)... */\n      swap3\n      pop\n      pop\n      pop\n      jump\t// out\n        /* \"StakingContract.sol\":7628:8364  if (stakers[_user].amountStaked > 0) {... */\n    tag_177:\n        /* \"StakingContract.sol\":8333:8353  new StakedToken[](0) */\n      0x40\n      dup1\n      mload\n        /* \"StakingContract.sol\":8351:8352  0 */\n      0x00\n        /* \"StakingContract.sol\":8333:8353  new StakedToken[](0) */\n      dup1\n      dup3\n      mstore\n      0x20\n      dup3\n      add\n      swap1\n      swap3\n      mstore\n      swap1\n      jump(tag_202)\n    tag_203:\n      0x40\n      dup1\n      mload\n      dup1\n      dup3\n      add\n      swap1\n      swap2\n      mstore\n      0x00\n      dup1\n      dup3\n      mstore\n      0x20\n      dup3\n      add\n      mstore\n      dup2\n      mstore\n      0x20\n      add\n      swap1\n      0x01\n      swap1\n      sub\n      swap1\n      dup2\n      tag_203\n      jumpi\n      swap1\n      pop\n    tag_202:\n      pop\n        /* \"StakingContract.sol\":8326:8353  return new StakedToken[](0) */\n      swap3\n        /* \"StakingContract.sol\":7469:8370  function getStakedTokens(address _user)... */\n      swap2\n      pop\n      pop\n      jump\t// out\n        /* \"@openzeppelin/contracts/access/Ownable.sol\":1831:1932   */\n    tag_63:\n        /* \"@openzeppelin/contracts/access/Ownable.sol\":1094:1107   */\n      tag_206\n        /* \"@openzeppelin/contracts/access/Ownable.sol\":1094:1105   */\n      tag_156\n        /* \"@openzeppelin/contracts/access/Ownable.sol\":1094:1107   */\n      jump\t// in\n    tag_206:\n        /* \"@openzeppelin/contracts/access/Ownable.sol\":1895:1925   */\n      tag_208\n        /* \"@openzeppelin/contracts/access/Ownable.sol\":1922:1923   */\n      0x00\n        /* \"@openzeppelin/contracts/access/Ownable.sol\":1895:1913   */\n      tag_209\n        /* \"@openzeppelin/contracts/access/Ownable.sol\":1895:1925   */\n      jump\t// in\n    tag_208:\n        /* \"@openzeppelin/contracts/access/Ownable.sol\":1831:1932   */\n      jump\t// out\n        /* \"StakingContract.sol\":2488:4284  function stake(uint256 _tokenId, IERC721 contract_market_)... */\n    tag_67:\n        /* \"@openzeppelin/contracts/security/ReentrancyGuard.sol\":2261:2282   */\n      tag_211\n        /* \"@openzeppelin/contracts/security/ReentrancyGuard.sol\":2261:2280   */\n      tag_111\n        /* \"@openzeppelin/contracts/security/ReentrancyGuard.sol\":2261:2282   */\n      jump\t// in\n    tag_211:\n        /* \"StakingContract.sol\":2701:2711  msg.sender */\n      caller\n        /* \"StakingContract.sol\":2728:2729  0 */\n      0x00\n        /* \"StakingContract.sol\":2693:2712  stakers[msg.sender] */\n      swap1\n      dup2\n      mstore\n        /* \"StakingContract.sol\":2693:2700  stakers */\n      0x04\n        /* \"StakingContract.sol\":2693:2712  stakers[msg.sender] */\n      0x20\n      mstore\n      0x40\n      swap1\n      keccak256\n        /* \"StakingContract.sol\":2693:2725  stakers[msg.sender].amountStaked */\n      sload\n        /* \"StakingContract.sol\":2693:2729  stakers[msg.sender].amountStaked > 0 */\n      iszero\n        /* \"StakingContract.sol\":2689:2863  if (stakers[msg.sender].amountStaked > 0) {... */\n      tag_213\n      jumpi\n        /* \"StakingContract.sol\":2745:2760  uint256 rewards */\n      0x00\n        /* \"StakingContract.sol\":2763:2791  calculateRewards(msg.sender) */\n      tag_214\n        /* \"StakingContract.sol\":2780:2790  msg.sender */\n      caller\n        /* \"StakingContract.sol\":2763:2779  calculateRewards */\n      tag_125\n        /* \"StakingContract.sol\":2763:2791  calculateRewards(msg.sender) */\n      jump\t// in\n    tag_214:\n        /* \"StakingContract.sol\":2813:2823  msg.sender */\n      caller\n        /* \"StakingContract.sol\":2805:2824  stakers[msg.sender] */\n      0x00\n      swap1\n      dup2\n      mstore\n        /* \"StakingContract.sol\":2805:2812  stakers */\n      0x04\n        /* \"StakingContract.sol\":2805:2824  stakers[msg.sender] */\n      0x20\n      mstore\n      0x40\n      dup2\n      keccak256\n        /* \"StakingContract.sol\":2805:2841  stakers[msg.sender].unclaimedRewards */\n      0x03\n      add\n        /* \"StakingContract.sol\":2805:2852  stakers[msg.sender].unclaimedRewards += rewards */\n      dup1\n      sload\n        /* \"StakingContract.sol\":2745:2791  uint256 rewards = calculateRewards(msg.sender) */\n      swap3\n      swap4\n      pop\n      dup4\n      swap3\n        /* \"StakingContract.sol\":2805:2841  stakers[msg.sender].unclaimedRewards */\n      swap1\n      swap2\n        /* \"StakingContract.sol\":2805:2824  stakers[msg.sender] */\n      swap1\n        /* \"StakingContract.sol\":2805:2852  stakers[msg.sender].unclaimedRewards += rewards */\n      tag_215\n      swap1\n        /* \"StakingContract.sol\":2745:2791  uint256 rewards = calculateRewards(msg.sender) */\n      dup5\n      swap1\n        /* \"StakingContract.sol\":2805:2852  stakers[msg.sender].unclaimedRewards += rewards */\n      tag_127\n      jump\t// in\n    tag_215:\n      swap1\n      swap2\n      sstore\n      pop\n      pop\n      pop\n        /* \"StakingContract.sol\":2689:2863  if (stakers[msg.sender].amountStaked > 0) {... */\n    tag_213:\n        /* \"StakingContract.sol\":2960:2997  nftCollection_astra.ownerOf(_tokenId) */\n      mload(0x40)\n      shl(0xe1, 0x31a9108f)\n      dup2\n      mstore\n      0x04\n      dup2\n      add\n        /* \"#utility.yul\":3012:3037   */\n      dup4\n      swap1\n      mstore\n        /* \"StakingContract.sol\":3001:3011  msg.sender */\n      caller\n      swap1\n      sub(shl(0xa0, 0x01), 0x01)\n        /* \"StakingContract.sol\":2960:2979  nftCollection_astra */\n      immutable(\"0x731dc163f73d31d8c68f9917ce4ff967753939f70432973c04fd2c2a48148607\")\n        /* \"StakingContract.sol\":2960:2987  nftCollection_astra.ownerOf */\n      and\n      swap1\n      0x6352211e\n      swap1\n        /* \"#utility.yul\":2985:3003   */\n      0x24\n      add\n        /* \"StakingContract.sol\":2960:2997  nftCollection_astra.ownerOf(_tokenId) */\n      0x20\n      mload(0x40)\n      dup1\n      dup4\n      sub\n      dup2\n      dup7\n      gas\n      staticcall\n      iszero\n      dup1\n      iszero\n      tag_218\n      jumpi\n      returndatasize\n      0x00\n      dup1\n      returndatacopy\n      revert(0x00, returndatasize)\n    tag_218:\n      pop\n      pop\n      pop\n      pop\n      mload(0x40)\n      returndatasize\n      not(0x1f)\n      0x1f\n      dup3\n      add\n      and\n      dup3\n      add\n      dup1\n      0x40\n      mstore\n      pop\n      dup2\n      add\n      swap1\n      tag_219\n      swap2\n      swap1\n      tag_220\n      jump\t// in\n    tag_219:\n      sub(shl(0xa0, 0x01), 0x01)\n        /* \"StakingContract.sol\":2960:3011  nftCollection_astra.ownerOf(_tokenId) == msg.sender */\n      and\n      eq\n        /* \"StakingContract.sol\":2960:3082  nftCollection_astra.ownerOf(_tokenId) == msg.sender ||... */\n      dup1\n      tag_221\n      jumpi\n      pop\n        /* \"StakingContract.sol\":3031:3068  nftCollection_horse.ownerOf(_tokenId) */\n      mload(0x40)\n      shl(0xe1, 0x31a9108f)\n      dup2\n      mstore\n      0x04\n      dup2\n      add\n        /* \"#utility.yul\":3012:3037   */\n      dup4\n      swap1\n      mstore\n        /* \"StakingContract.sol\":3072:3082  msg.sender */\n      caller\n      swap1\n      sub(shl(0xa0, 0x01), 0x01)\n        /* \"StakingContract.sol\":3031:3050  nftCollection_horse */\n      immutable(\"0x1572b593c53d839d80004aa4b8c51211864104f06ace9e22be9c4365b50655ea\")\n        /* \"StakingContract.sol\":3031:3058  nftCollection_horse.ownerOf */\n      and\n      swap1\n      0x6352211e\n      swap1\n        /* \"#utility.yul\":2985:3003   */\n      0x24\n      add\n        /* \"StakingContract.sol\":3031:3068  nftCollection_horse.ownerOf(_tokenId) */\n      0x20\n      mload(0x40)\n      dup1\n      dup4\n      sub\n      dup2\n      dup7\n      gas\n      staticcall\n      iszero\n      dup1\n      iszero\n      tag_224\n      jumpi\n      returndatasize\n      0x00\n      dup1\n      returndatacopy\n      revert(0x00, returndatasize)\n    tag_224:\n      pop\n      pop\n      pop\n      pop\n      mload(0x40)\n      returndatasize\n      not(0x1f)\n      0x1f\n      dup3\n      add\n      and\n      dup3\n      add\n      dup1\n      0x40\n      mstore\n      pop\n      dup2\n      add\n      swap1\n      tag_225\n      swap2\n      swap1\n      tag_220\n      jump\t// in\n    tag_225:\n      sub(shl(0xa0, 0x01), 0x01)\n        /* \"StakingContract.sol\":3031:3082  nftCollection_horse.ownerOf(_tokenId) == msg.sender */\n      and\n      eq\n        /* \"StakingContract.sol\":2960:3082  nftCollection_astra.ownerOf(_tokenId) == msg.sender ||... */\n    tag_221:\n        /* \"StakingContract.sol\":2960:3151  nftCollection_astra.ownerOf(_tokenId) == msg.sender ||... */\n      dup1\n      tag_226\n      jumpi\n      pop\n        /* \"StakingContract.sol\":3102:3137  nftCollection_cat.ownerOf(_tokenId) */\n      mload(0x40)\n      shl(0xe1, 0x31a9108f)\n      dup2\n      mstore\n      0x04\n      dup2\n      add\n        /* \"#utility.yul\":3012:3037   */\n      dup4\n      swap1\n      mstore\n        /* \"StakingContract.sol\":3141:3151  msg.sender */\n      caller\n      swap1\n      sub(shl(0xa0, 0x01), 0x01)\n        /* \"StakingContract.sol\":3102:3119  nftCollection_cat */\n      immutable(\"0x9cce9eb03c9f29c6481fca9f0f942b15bef0bbbc47fda0ddb44df157019835d9\")\n        /* \"StakingContract.sol\":3102:3127  nftCollection_cat.ownerOf */\n      and\n      swap1\n      0x6352211e\n      swap1\n        /* \"#utility.yul\":2985:3003   */\n      0x24\n      add\n        /* \"StakingContract.sol\":3102:3137  nftCollection_cat.ownerOf(_tokenId) */\n      0x20\n      mload(0x40)\n      dup1\n      dup4\n      sub\n      dup2\n      dup7\n      gas\n      staticcall\n      iszero\n      dup1\n      iszero\n      tag_229\n      jumpi\n      returndatasize\n      0x00\n      dup1\n      returndatacopy\n      revert(0x00, returndatasize)\n    tag_229:\n      pop\n      pop\n      pop\n      pop\n      mload(0x40)\n      returndatasize\n      not(0x1f)\n      0x1f\n      dup3\n      add\n      and\n      dup3\n      add\n      dup1\n      0x40\n      mstore\n      pop\n      dup2\n      add\n      swap1\n      tag_230\n      swap2\n      swap1\n      tag_220\n      jump\t// in\n    tag_230:\n      sub(shl(0xa0, 0x01), 0x01)\n        /* \"StakingContract.sol\":3102:3151  nftCollection_cat.ownerOf(_tokenId) == msg.sender */\n      and\n      eq\n        /* \"StakingContract.sol\":2960:3151  nftCollection_astra.ownerOf(_tokenId) == msg.sender ||... */\n    tag_226:\n        /* \"StakingContract.sol\":2960:3221  nftCollection_astra.ownerOf(_tokenId) == msg.sender ||... */\n      dup1\n      tag_231\n      jumpi\n      pop\n        /* \"StakingContract.sol\":3171:3207  nftCollection_bear.ownerOf(_tokenId) */\n      mload(0x40)\n      shl(0xe1, 0x31a9108f)\n      dup2\n      mstore\n      0x04\n      dup2\n      add\n        /* \"#utility.yul\":3012:3037   */\n      dup4\n      swap1\n      mstore\n        /* \"StakingContract.sol\":3211:3221  msg.sender */\n      caller\n      swap1\n      sub(shl(0xa0, 0x01), 0x01)\n        /* \"StakingContract.sol\":3171:3189  nftCollection_bear */\n      immutable(\"0x7749cc8014201da2069c21d93ba99c584b6f62d393fde534ed47eac227e31561\")\n        /* \"StakingContract.sol\":3171:3197  nftCollection_bear.ownerOf */\n      and\n      swap1\n      0x6352211e\n      swap1\n        /* \"#utility.yul\":2985:3003   */\n      0x24\n      add\n        /* \"StakingContract.sol\":3171:3207  nftCollection_bear.ownerOf(_tokenId) */\n      0x20\n      mload(0x40)\n      dup1\n      dup4\n      sub\n      dup2\n      dup7\n      gas\n      staticcall\n      iszero\n      dup1\n      iszero\n      tag_234\n      jumpi\n      returndatasize\n      0x00\n      dup1\n      returndatacopy\n      revert(0x00, returndatasize)\n    tag_234:\n      pop\n      pop\n      pop\n      pop\n      mload(0x40)\n      returndatasize\n      not(0x1f)\n      0x1f\n      dup3\n      add\n      and\n      dup3\n      add\n      dup1\n      0x40\n      mstore\n      pop\n      dup2\n      add\n      swap1\n      tag_235\n      swap2\n      swap1\n      tag_220\n      jump\t// in\n    tag_235:\n      sub(shl(0xa0, 0x01), 0x01)\n        /* \"StakingContract.sol\":3171:3221  nftCollection_bear.ownerOf(_tokenId) == msg.sender */\n      and\n      eq\n        /* \"StakingContract.sol\":2960:3221  nftCollection_astra.ownerOf(_tokenId) == msg.sender ||... */\n    tag_231:\n        /* \"StakingContract.sol\":2935:3272  require(... */\n      tag_236\n      jumpi\n      mload(0x40)\n      shl(0xe5, 0x461bcd)\n      dup2\n      mstore\n        /* \"#utility.yul\":6394:6396   */\n      0x20\n        /* \"StakingContract.sol\":2935:3272  require(... */\n      0x04\n      dup3\n      add\n        /* \"#utility.yul\":6376:6397   */\n      mstore\n        /* \"#utility.yul\":6433:6435   */\n      0x19\n        /* \"#utility.yul\":6413:6431   */\n      0x24\n      dup3\n      add\n        /* \"#utility.yul\":6406:6436   */\n      mstore\n        /* \"#utility.yul\":6472:6499   */\n      0x596f7520446f6e2774204f776e205468697320546f6b656e2100000000000000\n        /* \"#utility.yul\":6452:6470   */\n      0x44\n      dup3\n      add\n        /* \"#utility.yul\":6445:6500   */\n      mstore\n        /* \"#utility.yul\":6517:6535   */\n      0x64\n      add\n        /* \"StakingContract.sol\":2935:3272  require(... */\n      tag_114\n        /* \"#utility.yul\":6192:6541   */\n      jump\n        /* \"StakingContract.sol\":2935:3272  require(... */\n    tag_236:\n        /* \"StakingContract.sol\":3328:3347  nftCollection_astra */\n      immutable(\"0x731dc163f73d31d8c68f9917ce4ff967753939f70432973c04fd2c2a48148607\")\n      sub(shl(0xa0, 0x01), 0x01)\n        /* \"StakingContract.sol\":3308:3347  contract_market_ == nftCollection_astra */\n      and\n        /* \"StakingContract.sol\":3308:3324  contract_market_ */\n      dup2\n      sub(shl(0xa0, 0x01), 0x01)\n        /* \"StakingContract.sol\":3308:3347  contract_market_ == nftCollection_astra */\n      and\n      eq\n        /* \"StakingContract.sol\":3308:3406  contract_market_ == nftCollection_astra ||... */\n      dup1\n      tag_239\n      jumpi\n      pop\n        /* \"StakingContract.sol\":3387:3406  nftCollection_horse */\n      immutable(\"0x1572b593c53d839d80004aa4b8c51211864104f06ace9e22be9c4365b50655ea\")\n      sub(shl(0xa0, 0x01), 0x01)\n        /* \"StakingContract.sol\":3367:3406  contract_market_ == nftCollection_horse */\n      and\n        /* \"StakingContract.sol\":3367:3383  contract_market_ */\n      dup2\n      sub(shl(0xa0, 0x01), 0x01)\n        /* \"StakingContract.sol\":3367:3406  contract_market_ == nftCollection_horse */\n      and\n      eq\n        /* \"StakingContract.sol\":3308:3406  contract_market_ == nftCollection_astra ||... */\n    tag_239:\n        /* \"StakingContract.sol\":3308:3463  contract_market_ == nftCollection_astra ||... */\n      dup1\n      tag_240\n      jumpi\n      pop\n        /* \"StakingContract.sol\":3446:3463  nftCollection_cat */\n      immutable(\"0x9cce9eb03c9f29c6481fca9f0f942b15bef0bbbc47fda0ddb44df157019835d9\")\n      sub(shl(0xa0, 0x01), 0x01)\n        /* \"StakingContract.sol\":3426:3463  contract_market_ == nftCollection_cat */\n      and\n        /* \"StakingContract.sol\":3426:3442  contract_market_ */\n      dup2\n      sub(shl(0xa0, 0x01), 0x01)\n        /* \"StakingContract.sol\":3426:3463  contract_market_ == nftCollection_cat */\n      and\n      eq\n        /* \"StakingContract.sol\":3308:3463  contract_market_ == nftCollection_astra ||... */\n    tag_240:\n        /* \"StakingContract.sol\":3308:3521  contract_market_ == nftCollection_astra ||... */\n      dup1\n      tag_241\n      jumpi\n      pop\n        /* \"StakingContract.sol\":3503:3521  nftCollection_bear */\n      immutable(\"0x7749cc8014201da2069c21d93ba99c584b6f62d393fde534ed47eac227e31561\")\n      sub(shl(0xa0, 0x01), 0x01)\n        /* \"StakingContract.sol\":3483:3521  contract_market_ == nftCollection_bear */\n      and\n        /* \"StakingContract.sol\":3483:3499  contract_market_ */\n      dup2\n      sub(shl(0xa0, 0x01), 0x01)\n        /* \"StakingContract.sol\":3483:3521  contract_market_ == nftCollection_bear */\n      and\n      eq\n        /* \"StakingContract.sol\":3308:3521  contract_market_ == nftCollection_astra ||... */\n    tag_241:\n        /* \"StakingContract.sol\":3283:3578  require(... */\n      tag_242\n      jumpi\n      mload(0x40)\n      shl(0xe5, 0x461bcd)\n      dup2\n      mstore\n        /* \"#utility.yul\":6748:6750   */\n      0x20\n        /* \"StakingContract.sol\":3283:3578  require(... */\n      0x04\n      dup3\n      add\n        /* \"#utility.yul\":6730:6751   */\n      mstore\n        /* \"#utility.yul\":6787:6789   */\n      0x1f\n        /* \"#utility.yul\":6767:6785   */\n      0x24\n      dup3\n      add\n        /* \"#utility.yul\":6760:6790   */\n      mstore\n        /* \"#utility.yul\":6826:6859   */\n      0x5468697320436f6c6c656374696f6e2043616e2774204265205374616b656400\n        /* \"#utility.yul\":6806:6824   */\n      0x44\n      dup3\n      add\n        /* \"#utility.yul\":6799:6860   */\n      mstore\n        /* \"#utility.yul\":6877:6895   */\n      0x64\n      add\n        /* \"StakingContract.sol\":3283:3578  require(... */\n      tag_114\n        /* \"#utility.yul\":6546:6901   */\n      jump\n        /* \"StakingContract.sol\":3283:3578  require(... */\n    tag_242:\n        /* \"StakingContract.sol\":3657:3723  contract_market_.transferFrom(msg.sender, address(this), _tokenId) */\n      mload(0x40)\n      shl(0xe0, 0x23b872dd)\n      dup2\n      mstore\n        /* \"StakingContract.sol\":3687:3697  msg.sender */\n      caller\n        /* \"StakingContract.sol\":3657:3723  contract_market_.transferFrom(msg.sender, address(this), _tokenId) */\n      0x04\n      dup3\n      add\n        /* \"#utility.yul\":4743:4777   */\n      mstore\n        /* \"StakingContract.sol\":3707:3711  this */\n      address\n        /* \"#utility.yul\":4793:4811   */\n      0x24\n      dup3\n      add\n        /* \"#utility.yul\":4786:4829   */\n      mstore\n        /* \"#utility.yul\":4845:4863   */\n      0x44\n      dup2\n      add\n        /* \"#utility.yul\":4838:4872   */\n      dup4\n      swap1\n      mstore\n      sub(shl(0xa0, 0x01), 0x01)\n        /* \"StakingContract.sol\":3657:3686  contract_market_.transferFrom */\n      dup3\n      and\n      swap1\n      0x23b872dd\n      swap1\n        /* \"#utility.yul\":4655:4673   */\n      0x64\n      add\n        /* \"StakingContract.sol\":3657:3723  contract_market_.transferFrom(msg.sender, address(this), _tokenId) */\n      0x00\n      mload(0x40)\n      dup1\n      dup4\n      sub\n      dup2\n      0x00\n      dup8\n      dup1\n      extcodesize\n      iszero\n      dup1\n      iszero\n      tag_246\n      jumpi\n      0x00\n      dup1\n      revert\n    tag_246:\n      pop\n      gas\n      call\n      iszero\n      dup1\n      iszero\n      tag_248\n      jumpi\n      returndatasize\n      0x00\n      dup1\n      returndatacopy\n      revert(0x00, returndatasize)\n    tag_248:\n      pop\n      pop\n        /* \"StakingContract.sol\":3797:3830  StakedToken(msg.sender, _tokenId) */\n      0x40\n      dup1\n      mload\n      dup1\n      dup3\n      add\n      dup3\n      mstore\n        /* \"StakingContract.sol\":3809:3819  msg.sender */\n      caller\n        /* \"StakingContract.sol\":3797:3830  StakedToken(msg.sender, _tokenId) */\n      dup1\n      dup3\n      mstore\n      0x20\n      dup1\n      dup4\n      add\n      dup9\n      dup2\n      mstore\n      0x00\n        /* \"StakingContract.sol\":3892:3911  stakers[msg.sender] */\n      dup4\n      dup2\n      mstore\n        /* \"StakingContract.sol\":3892:3899  stakers */\n      0x04\n        /* \"StakingContract.sol\":3892:3911  stakers[msg.sender] */\n      dup4\n      mstore\n      swap5\n      dup6\n      keccak256\n        /* \"StakingContract.sol\":3892:3924  stakers[msg.sender].stakedTokens */\n      0x01\n      dup1\n      dup3\n      add\n        /* \"StakingContract.sol\":3892:3942  stakers[msg.sender].stakedTokens.push(stakedToken) */\n      dup1\n      sload\n      dup1\n      dup4\n      add\n      dup3\n      sstore\n      swap1\n      dup9\n      mstore\n      swap4\n      dup8\n      keccak256\n      dup7\n      mload\n      0x02\n      swap1\n      swap6\n      mul\n      add\n      dup1\n      sload\n      not(sub(shl(0xa0, 0x01), 0x01))\n      and\n      sub(shl(0xa0, 0x01), 0x01)\n      swap1\n      swap6\n      and\n      swap5\n      swap1\n      swap5\n      or\n      dup5\n      sstore\n      swap2\n      mload\n      swap3\n      swap1\n      swap2\n      add\n      swap2\n      swap1\n      swap2\n      sstore\n        /* \"StakingContract.sol\":4008:4027  stakers[msg.sender] */\n      swap1\n      dup4\n      mstore\n        /* \"StakingContract.sol\":4008:4042  stakers[msg.sender].amountStaked++ */\n      dup1\n      sload\n        /* \"StakingContract.sol\":3797:3830  StakedToken(msg.sender, _tokenId) */\n      swap2\n      swap5\n      pop\n        /* \"StakingContract.sol\":4008:4042  stakers[msg.sender].amountStaked++ */\n      swap1\n      swap3\n      pop\n        /* \"StakingContract.sol\":3892:3911  stakers[msg.sender] */\n      swap1\n        /* \"StakingContract.sol\":4008:4042  stakers[msg.sender].amountStaked++ */\n      tag_250\n      dup4\n      tag_141\n      jump\t// in\n    tag_250:\n      swap1\n      swap2\n      sstore\n      pop\n      pop\n      pop\n        /* \"StakingContract.sol\":4122:4145  stakerAddress[_tokenId] */\n      0x00\n      dup3\n      dup2\n      mstore\n        /* \"StakingContract.sol\":4122:4135  stakerAddress */\n      0x05\n        /* \"StakingContract.sol\":4122:4145  stakerAddress[_tokenId] */\n      0x20\n      swap1\n      dup2\n      mstore\n      0x40\n      dup1\n      dup4\n      keccak256\n        /* \"StakingContract.sol\":4122:4158  stakerAddress[_tokenId] = msg.sender */\n      dup1\n      sload\n      not(sub(shl(0xa0, 0x01), 0x01))\n      and\n        /* \"StakingContract.sol\":4148:4158  msg.sender */\n      caller\n        /* \"StakingContract.sol\":4122:4158  stakerAddress[_tokenId] = msg.sender */\n      swap1\n      dup2\n      or\n      swap1\n      swap2\n      sstore\n        /* \"StakingContract.sol\":4223:4242  stakers[msg.sender] */\n      dup4\n      mstore\n        /* \"StakingContract.sol\":4223:4230  stakers */\n      0x04\n        /* \"StakingContract.sol\":4223:4242  stakers[msg.sender] */\n      swap1\n      swap2\n      mstore\n      swap1\n      keccak256\n        /* \"StakingContract.sol\":4262:4277  block.timestamp */\n      timestamp\n        /* \"StakingContract.sol\":4223:4259  stakers[msg.sender].timeOfLastUpdate */\n      0x02\n      swap1\n      swap2\n      add\n        /* \"StakingContract.sol\":4223:4277  stakers[msg.sender].timeOfLastUpdate = block.timestamp */\n      sstore\n        /* \"@openzeppelin/contracts/security/ReentrancyGuard.sol\":2303:2323   */\n      tag_152\n        /* \"@openzeppelin/contracts/security/ReentrancyGuard.sol\":1716:1717   */\n      0x01\n        /* \"@openzeppelin/contracts/security/ReentrancyGuard.sol\":2809:2816   */\n      0x00\n        /* \"@openzeppelin/contracts/security/ReentrancyGuard.sol\":2809:2831   */\n      sstore\n        /* \"@openzeppelin/contracts/security/ReentrancyGuard.sol\":2629:2838   */\n      jump\n        /* \"StakingContract.sol\":9201:9301  function setrewardsPerHour(uint256 amount) public onlyOwner {... */\n    tag_87:\n        /* \"@openzeppelin/contracts/access/Ownable.sol\":1094:1107   */\n      tag_254\n        /* \"@openzeppelin/contracts/access/Ownable.sol\":1094:1105   */\n      tag_156\n        /* \"@openzeppelin/contracts/access/Ownable.sol\":1094:1107   */\n      jump\t// in\n    tag_254:\n        /* \"StakingContract.sol\":9271:9285  rewardsPerHour */\n      0x03\n        /* \"StakingContract.sol\":9271:9294  rewardsPerHour = amount */\n      sstore\n        /* \"StakingContract.sol\":9201:9301  function setrewardsPerHour(uint256 amount) public onlyOwner {... */\n      jump\t// out\n        /* \"StakingContract.sol\":9307:9525  function emergencyWithdrawAll() external payable onlyOwner {... */\n    tag_98:\n        /* \"@openzeppelin/contracts/access/Ownable.sol\":1094:1107   */\n      tag_257\n        /* \"@openzeppelin/contracts/access/Ownable.sol\":1094:1105   */\n      tag_156\n        /* \"@openzeppelin/contracts/access/Ownable.sol\":1094:1107   */\n      jump\t// in\n    tag_257:\n        /* \"StakingContract.sol\":9377:9389  bool success */\n      0x00\n        /* \"StakingContract.sol\":9403:9410  owner() */\n      tag_259\n        /* \"@openzeppelin/contracts/access/Ownable.sol\":1273:1279   */\n      and(sub(shl(0xa0, 0x01), 0x01), sload(0x01))\n      swap1\n        /* \"@openzeppelin/contracts/access/Ownable.sol\":1201:1286   */\n      jump\n        /* \"StakingContract.sol\":9403:9410  owner() */\n    tag_259:\n      sub(shl(0xa0, 0x01), 0x01)\n        /* \"StakingContract.sol\":9395:9416  payable(owner()).call */\n      and\n        /* \"StakingContract.sol\":9424:9445  address(this).balance */\n      selfbalance\n        /* \"StakingContract.sol\":9395:9472  payable(owner()).call{value: address(this).balance}(... */\n      mload(0x40)\n      0x00\n      mload(0x40)\n      dup1\n      dup4\n      sub\n      dup2\n      dup6\n      dup8\n      gas\n      call\n      swap3\n      pop\n      pop\n      pop\n      returndatasize\n      dup1\n      0x00\n      dup2\n      eq\n      tag_263\n      jumpi\n      mload(0x40)\n      swap2\n      pop\n      and(add(returndatasize, 0x3f), not(0x1f))\n      dup3\n      add\n      0x40\n      mstore\n      returndatasize\n      dup3\n      mstore\n      returndatasize\n      0x00\n      0x20\n      dup5\n      add\n      returndatacopy\n      jump(tag_262)\n    tag_263:\n      0x60\n      swap2\n      pop\n    tag_262:\n      pop\n        /* \"StakingContract.sol\":9376:9472  (bool success, ) = payable(owner()).call{value: address(this).balance}(... */\n      pop\n      swap1\n      pop\n        /* \"StakingContract.sol\":9490:9497  success */\n      dup1\n        /* \"StakingContract.sol\":9482:9518  require(success, \"Transfer failed!\") */\n      tag_173\n      jumpi\n      mload(0x40)\n      shl(0xe5, 0x461bcd)\n      dup2\n      mstore\n        /* \"#utility.yul\":5295:5297   */\n      0x20\n        /* \"StakingContract.sol\":9482:9518  require(success, \"Transfer failed!\") */\n      0x04\n      dup3\n      add\n        /* \"#utility.yul\":5277:5298   */\n      mstore\n        /* \"#utility.yul\":5334:5336   */\n      0x10\n        /* \"#utility.yul\":5314:5332   */\n      0x24\n      dup3\n      add\n        /* \"#utility.yul\":5307:5337   */\n      mstore\n      shl(0x80, 0x5472616e73666572206661696c656421)\n        /* \"#utility.yul\":5353:5371   */\n      0x44\n      dup3\n      add\n        /* \"#utility.yul\":5346:5392   */\n      mstore\n        /* \"#utility.yul\":5409:5427   */\n      0x64\n      add\n        /* \"StakingContract.sol\":9482:9518  require(success, \"Transfer failed!\") */\n      tag_114\n        /* \"#utility.yul\":5093:5433   */\n      jump\n        /* \"@openzeppelin/contracts/access/Ownable.sol\":2081:2279   */\n    tag_102:\n        /* \"@openzeppelin/contracts/access/Ownable.sol\":1094:1107   */\n      tag_267\n        /* \"@openzeppelin/contracts/access/Ownable.sol\":1094:1105   */\n      tag_156\n        /* \"@openzeppelin/contracts/access/Ownable.sol\":1094:1107   */\n      jump\t// in\n    tag_267:\n      sub(shl(0xa0, 0x01), 0x01)\n        /* \"@openzeppelin/contracts/access/Ownable.sol\":2169:2191   */\n      dup2\n      and\n        /* \"@openzeppelin/contracts/access/Ownable.sol\":2161:2234   */\n      tag_269\n      jumpi\n      mload(0x40)\n      shl(0xe5, 0x461bcd)\n      dup2\n      mstore\n        /* \"#utility.yul\":7108:7110   */\n      0x20\n        /* \"@openzeppelin/contracts/access/Ownable.sol\":2161:2234   */\n      0x04\n      dup3\n      add\n        /* \"#utility.yul\":7090:7111   */\n      mstore\n        /* \"#utility.yul\":7147:7149   */\n      0x26\n        /* \"#utility.yul\":7127:7145   */\n      0x24\n      dup3\n      add\n        /* \"#utility.yul\":7120:7150   */\n      mstore\n        /* \"#utility.yul\":7186:7220   */\n      0x4f776e61626c653a206e6577206f776e657220697320746865207a65726f2061\n        /* \"#utility.yul\":7166:7184   */\n      0x44\n      dup3\n      add\n        /* \"#utility.yul\":7159:7221   */\n      mstore\n        /* \"#utility.yul\":7257:7265   */\n      0x6464726573730000000000000000000000000000000000000000000000000000\n        /* \"#utility.yul\":7237:7255   */\n      0x64\n      dup3\n      add\n        /* \"#utility.yul\":7230:7266   */\n      mstore\n        /* \"#utility.yul\":7283:7302   */\n      0x84\n      add\n        /* \"@openzeppelin/contracts/access/Ownable.sol\":2161:2234   */\n      tag_114\n        /* \"#utility.yul\":6906:7308   */\n      jump\n        /* \"@openzeppelin/contracts/access/Ownable.sol\":2161:2234   */\n    tag_269:\n        /* \"@openzeppelin/contracts/access/Ownable.sol\":2244:2272   */\n      tag_173\n        /* \"@openzeppelin/contracts/access/Ownable.sol\":2263:2271   */\n      dup2\n        /* \"@openzeppelin/contracts/access/Ownable.sol\":2244:2262   */\n      tag_209\n        /* \"@openzeppelin/contracts/access/Ownable.sol\":2244:2272   */\n      jump\t// in\n        /* \"StakingContract.sol\":7258:7463  function availableRewards(address _staker) public view returns (uint256) {... */\n    tag_106:\n      sub(shl(0xa0, 0x01), 0x01)\n        /* \"StakingContract.sol\":7399:7415  stakers[_staker] */\n      dup2\n      and\n        /* \"StakingContract.sol\":7322:7329  uint256 */\n      0x00\n        /* \"StakingContract.sol\":7399:7415  stakers[_staker] */\n      swap1\n      dup2\n      mstore\n        /* \"StakingContract.sol\":7399:7406  stakers */\n      0x04\n        /* \"StakingContract.sol\":7399:7415  stakers[_staker] */\n      0x20\n      mstore\n      0x40\n      dup2\n      keccak256\n        /* \"StakingContract.sol\":7399:7432  stakers[_staker].unclaimedRewards */\n      0x03\n      add\n      sload\n        /* \"StakingContract.sol\":7322:7329  uint256 */\n      dup2\n      swap1\n        /* \"StakingContract.sol\":7359:7384  calculateRewards(_staker) */\n      tag_274\n        /* \"StakingContract.sol\":7407:7414  _staker */\n      dup5\n        /* \"StakingContract.sol\":7359:7375  calculateRewards */\n      tag_125\n        /* \"StakingContract.sol\":7359:7384  calculateRewards(_staker) */\n      jump\t// in\n    tag_274:\n        /* \"StakingContract.sol\":7359:7432  calculateRewards(_staker) +... */\n      tag_275\n      swap2\n      swap1\n      tag_127\n      jump\t// in\n    tag_275:\n        /* \"StakingContract.sol\":7341:7432  uint256 rewards = calculateRewards(_staker) +... */\n      swap4\n        /* \"StakingContract.sol\":7258:7463  function availableRewards(address _staker) public view returns (uint256) {... */\n      swap3\n      pop\n      pop\n      pop\n      jump\t// out\n        /* \"@openzeppelin/contracts/security/ReentrancyGuard.sol\":2336:2623   */\n    tag_111:\n        /* \"@openzeppelin/contracts/security/ReentrancyGuard.sol\":1759:1760   */\n      0x02\n        /* \"@openzeppelin/contracts/security/ReentrancyGuard.sol\":2468:2475   */\n      sload(0x00)\n        /* \"@openzeppelin/contracts/security/ReentrancyGuard.sol\":2468:2487   */\n      sub\n        /* \"@openzeppelin/contracts/security/ReentrancyGuard.sol\":2460:2523   */\n      tag_277\n      jumpi\n      mload(0x40)\n      shl(0xe5, 0x461bcd)\n      dup2\n      mstore\n        /* \"#utility.yul\":7515:7517   */\n      0x20\n        /* \"@openzeppelin/contracts/security/ReentrancyGuard.sol\":2460:2523   */\n      0x04\n      dup3\n      add\n        /* \"#utility.yul\":7497:7518   */\n      mstore\n        /* \"#utility.yul\":7554:7556   */\n      0x1f\n        /* \"#utility.yul\":7534:7552   */\n      0x24\n      dup3\n      add\n        /* \"#utility.yul\":7527:7557   */\n      mstore\n        /* \"#utility.yul\":7593:7626   */\n      0x5265656e7472616e637947756172643a207265656e7472616e742063616c6c00\n        /* \"#utility.yul\":7573:7591   */\n      0x44\n      dup3\n      add\n        /* \"#utility.yul\":7566:7627   */\n      mstore\n        /* \"#utility.yul\":7644:7662   */\n      0x64\n      add\n        /* \"@openzeppelin/contracts/security/ReentrancyGuard.sol\":2460:2523   */\n      tag_114\n        /* \"#utility.yul\":7313:7668   */\n      jump\n        /* \"@openzeppelin/contracts/security/ReentrancyGuard.sol\":2460:2523   */\n    tag_277:\n        /* \"@openzeppelin/contracts/security/ReentrancyGuard.sol\":1759:1760   */\n      0x02\n        /* \"@openzeppelin/contracts/security/ReentrancyGuard.sol\":2598:2605   */\n      0x00\n        /* \"@openzeppelin/contracts/security/ReentrancyGuard.sol\":2598:2616   */\n      sstore\n        /* \"@openzeppelin/contracts/security/ReentrancyGuard.sol\":2336:2623   */\n      jump\t// out\n        /* \"StakingContract.sol\":8609:8900  function calculateRewards(address _staker)... */\n    tag_125:\n        /* \"StakingContract.sol\":8870:8884  rewardsPerHour */\n      sload(0x03)\n      sub(shl(0xa0, 0x01), 0x01)\n        /* \"StakingContract.sol\":8827:8843  stakers[_staker] */\n      dup3\n      and\n        /* \"StakingContract.sol\":8699:8715  uint256 _rewards */\n      0x00\n        /* \"StakingContract.sol\":8827:8843  stakers[_staker] */\n      swap1\n      dup2\n      mstore\n        /* \"StakingContract.sol\":8827:8834  stakers */\n      0x04\n        /* \"StakingContract.sol\":8827:8843  stakers[_staker] */\n      0x20\n      mstore\n      0x40\n      dup2\n      keccak256\n        /* \"StakingContract.sol\":8827:8856  stakers[_staker].amountStaked */\n      dup1\n      sload\n        /* \"StakingContract.sol\":8774:8807  stakers[_staker].timeOfLastUpdate */\n      0x02\n      swap1\n      swap2\n      add\n      sload\n        /* \"StakingContract.sol\":8699:8715  uint256 _rewards */\n      swap2\n      swap3\n        /* \"StakingContract.sol\":8888:8892  3600 */\n      0x0e10\n      swap3\n        /* \"StakingContract.sol\":8870:8884  rewardsPerHour */\n      swap1\n      swap2\n        /* \"StakingContract.sol\":8827:8856  stakers[_staker].amountStaked */\n      swap1\n        /* \"StakingContract.sol\":8756:8807  block.timestamp - stakers[_staker].timeOfLastUpdate */\n      tag_281\n      swap1\n        /* \"StakingContract.sol\":8756:8771  block.timestamp */\n      timestamp\n        /* \"StakingContract.sol\":8756:8807  block.timestamp - stakers[_staker].timeOfLastUpdate */\n      tag_282\n      jump\t// in\n    tag_281:\n        /* \"StakingContract.sol\":8755:8856  (block.timestamp - stakers[_staker].timeOfLastUpdate) *... */\n      tag_283\n      swap2\n      swap1\n      tag_284\n      jump\t// in\n    tag_283:\n        /* \"StakingContract.sol\":8740:8884  (... */\n      tag_285\n      swap2\n      swap1\n      tag_284\n      jump\t// in\n    tag_285:\n        /* \"StakingContract.sol\":8739:8892  ((... */\n      tag_286\n      swap2\n      swap1\n      tag_287\n      jump\t// in\n    tag_286:\n        /* \"StakingContract.sol\":8731:8893  return (((... */\n      swap3\n        /* \"StakingContract.sol\":8609:8900  function calculateRewards(address _staker)... */\n      swap2\n      pop\n      pop\n      jump\t// out\n        /* \"@openzeppelin/contracts/security/ReentrancyGuard.sol\":2629:2838   */\n    tag_153:\n        /* \"@openzeppelin/contracts/security/ReentrancyGuard.sol\":1716:1717   */\n      0x01\n        /* \"@openzeppelin/contracts/security/ReentrancyGuard.sol\":2809:2816   */\n      0x00\n        /* \"@openzeppelin/contracts/security/ReentrancyGuard.sol\":2809:2831   */\n      sstore\n        /* \"@openzeppelin/contracts/security/ReentrancyGuard.sol\":2629:2838   */\n      jump\t// out\n        /* \"@openzeppelin/contracts/access/Ownable.sol\":1359:1489   */\n    tag_156:\n        /* \"@openzeppelin/contracts/access/Ownable.sol\":1273:1279   */\n      and(sub(shl(0xa0, 0x01), 0x01), sload(0x01))\n        /* \"@openzeppelin/contracts/utils/Context.sol\":719:729   */\n      caller\n        /* \"@openzeppelin/contracts/access/Ownable.sol\":1422:1445   */\n      eq\n        /* \"@openzeppelin/contracts/access/Ownable.sol\":1414:1482   */\n      tag_208\n      jumpi\n      mload(0x40)\n      shl(0xe5, 0x461bcd)\n      dup2\n      mstore\n        /* \"#utility.yul\":8403:8405   */\n      0x20\n        /* \"@openzeppelin/contracts/access/Ownable.sol\":1414:1482   */\n      0x04\n      dup3\n      add\n        /* \"#utility.yul\":8385:8406   */\n      dup2\n      swap1\n      mstore\n        /* \"#utility.yul\":8422:8440   */\n      0x24\n      dup3\n      add\n        /* \"#utility.yul\":8415:8445   */\n      mstore\n        /* \"#utility.yul\":8481:8515   */\n      0x4f776e61626c653a2063616c6c6572206973206e6f7420746865206f776e6572\n        /* \"#utility.yul\":8461:8479   */\n      0x44\n      dup3\n      add\n        /* \"#utility.yul\":8454:8516   */\n      mstore\n        /* \"#utility.yul\":8533:8551   */\n      0x64\n      add\n        /* \"@openzeppelin/contracts/access/Ownable.sol\":1414:1482   */\n      tag_114\n        /* \"#utility.yul\":8201:8557   */\n      jump\n        /* \"@openzeppelin/contracts/token/ERC20/utils/SafeERC20.sol\":763:968   */\n    tag_174:\n        /* \"@openzeppelin/contracts/token/ERC20/utils/SafeERC20.sol\":902:960   */\n      0x40\n      dup1\n      mload\n      sub(shl(0xa0, 0x01), 0x01)\n        /* \"#utility.yul\":8754:8809   */\n      dup5\n      and\n        /* \"@openzeppelin/contracts/token/ERC20/utils/SafeERC20.sol\":902:960   */\n      0x24\n      dup3\n      add\n        /* \"#utility.yul\":8736:8810   */\n      mstore\n        /* \"#utility.yul\":8826:8844   */\n      0x44\n      dup1\n      dup3\n      add\n        /* \"#utility.yul\":8819:8853   */\n      dup5\n      swap1\n      mstore\n        /* \"@openzeppelin/contracts/token/ERC20/utils/SafeERC20.sol\":902:960   */\n      dup3\n      mload\n      dup1\n      dup4\n      sub\n      swap1\n      swap2\n      add\n      dup2\n      mstore\n        /* \"#utility.yul\":8709:8727   */\n      0x64\n      swap1\n      swap2\n      add\n        /* \"@openzeppelin/contracts/token/ERC20/utils/SafeERC20.sol\":902:960   */\n      swap1\n      swap2\n      mstore\n      0x20\n      dup2\n      add\n      dup1\n      mload\n      0xffffffffffffffffffffffffffffffffffffffffffffffffffffffff\n      and\n      shl(0xe0, 0xa9059cbb)\n      or\n      swap1\n      mstore\n        /* \"@openzeppelin/contracts/token/ERC20/utils/SafeERC20.sol\":875:961   */\n      tag_297\n      swap1\n        /* \"@openzeppelin/contracts/token/ERC20/utils/SafeERC20.sol\":895:900   */\n      dup5\n      swap1\n        /* \"@openzeppelin/contracts/token/ERC20/utils/SafeERC20.sol\":875:894   */\n      tag_300\n        /* \"@openzeppelin/contracts/token/ERC20/utils/SafeERC20.sol\":875:961   */\n      jump\t// in\n    tag_297:\n        /* \"@openzeppelin/contracts/token/ERC20/utils/SafeERC20.sol\":763:968   */\n      pop\n      pop\n      pop\n      jump\t// out\n        /* \"@openzeppelin/contracts/access/Ownable.sol\":2433:2620   */\n    tag_209:\n        /* \"@openzeppelin/contracts/access/Ownable.sol\":2525:2531   */\n      0x01\n      dup1\n      sload\n      sub(shl(0xa0, 0x01), 0x01)\n        /* \"@openzeppelin/contracts/access/Ownable.sol\":2541:2558   */\n      dup4\n      dup2\n      and\n      not(sub(shl(0xa0, 0x01), 0x01))\n      dup4\n      and\n      dup2\n      or\n      swap1\n      swap4\n      sstore\n        /* \"@openzeppelin/contracts/access/Ownable.sol\":2573:2613   */\n      mload(0x40)\n        /* \"@openzeppelin/contracts/access/Ownable.sol\":2525:2531   */\n      swap2\n      and\n      swap2\n        /* \"@openzeppelin/contracts/access/Ownable.sol\":2541:2558   */\n      swap1\n        /* \"@openzeppelin/contracts/access/Ownable.sol\":2525:2531   */\n      dup3\n      swap1\n        /* \"@openzeppelin/contracts/access/Ownable.sol\":2573:2613   */\n      0x8be0079c531659141344cd1fd0a4f28419497f9722a3daafe3b4186f6b6457e0\n      swap1\n        /* \"@openzeppelin/contracts/access/Ownable.sol\":2506:2522   */\n      0x00\n      swap1\n        /* \"@openzeppelin/contracts/access/Ownable.sol\":2573:2613   */\n      log3\n        /* \"@openzeppelin/contracts/access/Ownable.sol\":2496:2620   */\n      pop\n        /* \"@openzeppelin/contracts/access/Ownable.sol\":2433:2620   */\n      pop\n      jump\t// out\n        /* \"@openzeppelin/contracts/token/ERC20/utils/SafeERC20.sol\":3747:4453   */\n    tag_300:\n        /* \"@openzeppelin/contracts/token/ERC20/utils/SafeERC20.sol\":4166:4189   */\n      0x00\n        /* \"@openzeppelin/contracts/token/ERC20/utils/SafeERC20.sol\":4192:4261   */\n      tag_304\n        /* \"@openzeppelin/contracts/token/ERC20/utils/SafeERC20.sol\":4220:4224   */\n      dup3\n        /* \"@openzeppelin/contracts/token/ERC20/utils/SafeERC20.sol\":4192:4261   */\n      mload(0x40)\n      dup1\n      0x40\n      add\n      0x40\n      mstore\n      dup1\n      0x20\n      dup2\n      mstore\n      0x20\n      add\n      0x5361666545524332303a206c6f772d6c6576656c2063616c6c206661696c6564\n      dup2\n      mstore\n      pop\n        /* \"@openzeppelin/contracts/token/ERC20/utils/SafeERC20.sol\":4200:4205   */\n      dup6\n      sub(shl(0xa0, 0x01), 0x01)\n        /* \"@openzeppelin/contracts/token/ERC20/utils/SafeERC20.sol\":4192:4219   */\n      and\n      tag_305\n      swap1\n        /* \"@openzeppelin/contracts/token/ERC20/utils/SafeERC20.sol\":4192:4261   */\n      swap3\n      swap2\n      swap1\n      0xffffffff\n      and\n      jump\t// in\n    tag_304:\n        /* \"@openzeppelin/contracts/token/ERC20/utils/SafeERC20.sol\":4275:4292   */\n      dup1\n      mload\n        /* \"@openzeppelin/contracts/token/ERC20/utils/SafeERC20.sol\":4166:4261   */\n      swap1\n      swap2\n      pop\n        /* \"@openzeppelin/contracts/token/ERC20/utils/SafeERC20.sol\":4275:4296   */\n      iszero\n        /* \"@openzeppelin/contracts/token/ERC20/utils/SafeERC20.sol\":4271:4447   */\n      tag_297\n      jumpi\n        /* \"@openzeppelin/contracts/token/ERC20/utils/SafeERC20.sol\":4370:4380   */\n      dup1\n        /* \"@openzeppelin/contracts/token/ERC20/utils/SafeERC20.sol\":4359:4389   */\n      dup1\n      0x20\n      add\n      swap1\n      mload\n      dup2\n      add\n      swap1\n      tag_307\n      swap2\n      swap1\n      tag_308\n      jump\t// in\n    tag_307:\n        /* \"@openzeppelin/contracts/token/ERC20/utils/SafeERC20.sol\":4351:4436   */\n      tag_297\n      jumpi\n      mload(0x40)\n      shl(0xe5, 0x461bcd)\n      dup2\n      mstore\n        /* \"#utility.yul\":9348:9350   */\n      0x20\n        /* \"@openzeppelin/contracts/token/ERC20/utils/SafeERC20.sol\":4351:4436   */\n      0x04\n      dup3\n      add\n        /* \"#utility.yul\":9330:9351   */\n      mstore\n        /* \"#utility.yul\":9387:9389   */\n      0x2a\n        /* \"#utility.yul\":9367:9385   */\n      0x24\n      dup3\n      add\n        /* \"#utility.yul\":9360:9390   */\n      mstore\n        /* \"#utility.yul\":9426:9460   */\n      0x5361666545524332303a204552433230206f7065726174696f6e20646964206e\n        /* \"#utility.yul\":9406:9424   */\n      0x44\n      dup3\n      add\n        /* \"#utility.yul\":9399:9461   */\n      mstore\n        /* \"#utility.yul\":9497:9509   */\n      0x6f74207375636365656400000000000000000000000000000000000000000000\n        /* \"#utility.yul\":9477:9495   */\n      0x64\n      dup3\n      add\n        /* \"#utility.yul\":9470:9510   */\n      mstore\n        /* \"#utility.yul\":9527:9546   */\n      0x84\n      add\n        /* \"@openzeppelin/contracts/token/ERC20/utils/SafeERC20.sol\":4351:4436   */\n      tag_114\n        /* \"#utility.yul\":9146:9552   */\n      jump\n        /* \"@openzeppelin/contracts/utils/Address.sol\":3873:4096   */\n    tag_305:\n        /* \"@openzeppelin/contracts/utils/Address.sol\":4006:4018   */\n      0x60\n        /* \"@openzeppelin/contracts/utils/Address.sol\":4037:4089   */\n      tag_313\n        /* \"@openzeppelin/contracts/utils/Address.sol\":4059:4065   */\n      dup5\n        /* \"@openzeppelin/contracts/utils/Address.sol\":4067:4071   */\n      dup5\n        /* \"@openzeppelin/contracts/utils/Address.sol\":4073:4074   */\n      0x00\n        /* \"@openzeppelin/contracts/utils/Address.sol\":4076:4088   */\n      dup6\n        /* \"@openzeppelin/contracts/utils/Address.sol\":4037:4058   */\n      tag_314\n        /* \"@openzeppelin/contracts/utils/Address.sol\":4037:4089   */\n      jump\t// in\n    tag_313:\n        /* \"@openzeppelin/contracts/utils/Address.sol\":4030:4089   */\n      swap5\n        /* \"@openzeppelin/contracts/utils/Address.sol\":3873:4096   */\n      swap4\n      pop\n      pop\n      pop\n      pop\n      jump\t// out\n        /* \"@openzeppelin/contracts/utils/Address.sol\":4960:5406   */\n    tag_314:\n        /* \"@openzeppelin/contracts/utils/Address.sol\":5125:5137   */\n      0x60\n        /* \"@openzeppelin/contracts/utils/Address.sol\":5182:5187   */\n      dup3\n        /* \"@openzeppelin/contracts/utils/Address.sol\":5157:5178   */\n      selfbalance\n        /* \"@openzeppelin/contracts/utils/Address.sol\":5157:5187   */\n      lt\n      iszero\n        /* \"@openzeppelin/contracts/utils/Address.sol\":5149:5230   */\n      tag_316\n      jumpi\n      mload(0x40)\n      shl(0xe5, 0x461bcd)\n      dup2\n      mstore\n        /* \"#utility.yul\":9759:9761   */\n      0x20\n        /* \"@openzeppelin/contracts/utils/Address.sol\":5149:5230   */\n      0x04\n      dup3\n      add\n        /* \"#utility.yul\":9741:9762   */\n      mstore\n        /* \"#utility.yul\":9798:9800   */\n      0x26\n        /* \"#utility.yul\":9778:9796   */\n      0x24\n      dup3\n      add\n        /* \"#utility.yul\":9771:9801   */\n      mstore\n        /* \"#utility.yul\":9837:9871   */\n      0x416464726573733a20696e73756666696369656e742062616c616e636520666f\n        /* \"#utility.yul\":9817:9835   */\n      0x44\n      dup3\n      add\n        /* \"#utility.yul\":9810:9872   */\n      mstore\n        /* \"#utility.yul\":9908:9916   */\n      0x722063616c6c0000000000000000000000000000000000000000000000000000\n        /* \"#utility.yul\":9888:9906   */\n      0x64\n      dup3\n      add\n        /* \"#utility.yul\":9881:9917   */\n      mstore\n        /* \"#utility.yul\":9934:9953   */\n      0x84\n      add\n        /* \"@openzeppelin/contracts/utils/Address.sol\":5149:5230   */\n      tag_114\n        /* \"#utility.yul\":9557:9959   */\n      jump\n        /* \"@openzeppelin/contracts/utils/Address.sol\":5149:5230   */\n    tag_316:\n        /* \"@openzeppelin/contracts/utils/Address.sol\":5241:5253   */\n      0x00\n        /* \"@openzeppelin/contracts/utils/Address.sol\":5255:5278   */\n      dup1\n        /* \"@openzeppelin/contracts/utils/Address.sol\":5282:5288   */\n      dup7\n      sub(shl(0xa0, 0x01), 0x01)\n        /* \"@openzeppelin/contracts/utils/Address.sol\":5282:5293   */\n      and\n        /* \"@openzeppelin/contracts/utils/Address.sol\":5301:5306   */\n      dup6\n        /* \"@openzeppelin/contracts/utils/Address.sol\":5308:5312   */\n      dup8\n        /* \"@openzeppelin/contracts/utils/Address.sol\":5282:5313   */\n      mload(0x40)\n      tag_319\n      swap2\n      swap1\n      tag_320\n      jump\t// in\n    tag_319:\n      0x00\n      mload(0x40)\n      dup1\n      dup4\n      sub\n      dup2\n      dup6\n      dup8\n      gas\n      call\n      swap3\n      pop\n      pop\n      pop\n      returndatasize\n      dup1\n      0x00\n      dup2\n      eq\n      tag_323\n      jumpi\n      mload(0x40)\n      swap2\n      pop\n      and(add(returndatasize, 0x3f), not(0x1f))\n      dup3\n      add\n      0x40\n      mstore\n      returndatasize\n      dup3\n      mstore\n      returndatasize\n      0x00\n      0x20\n      dup5\n      add\n      returndatacopy\n      jump(tag_322)\n    tag_323:\n      0x60\n      swap2\n      pop\n    tag_322:\n      pop\n        /* \"@openzeppelin/contracts/utils/Address.sol\":5240:5313   */\n      swap2\n      pop\n      swap2\n      pop\n        /* \"@openzeppelin/contracts/utils/Address.sol\":5330:5399   */\n      tag_324\n        /* \"@openzeppelin/contracts/utils/Address.sol\":5357:5363   */\n      dup8\n        /* \"@openzeppelin/contracts/utils/Address.sol\":5365:5372   */\n      dup4\n        /* \"@openzeppelin/contracts/utils/Address.sol\":5374:5384   */\n      dup4\n        /* \"@openzeppelin/contracts/utils/Address.sol\":5386:5398   */\n      dup8\n        /* \"@openzeppelin/contracts/utils/Address.sol\":5330:5356   */\n      tag_325\n        /* \"@openzeppelin/contracts/utils/Address.sol\":5330:5399   */\n      jump\t// in\n    tag_324:\n        /* \"@openzeppelin/contracts/utils/Address.sol\":5323:5399   */\n      swap8\n        /* \"@openzeppelin/contracts/utils/Address.sol\":4960:5406   */\n      swap7\n      pop\n      pop\n      pop\n      pop\n      pop\n      pop\n      pop\n      jump\t// out\n        /* \"@openzeppelin/contracts/utils/Address.sol\":7466:8094   */\n    tag_325:\n        /* \"@openzeppelin/contracts/utils/Address.sol\":7646:7658   */\n      0x60\n        /* \"@openzeppelin/contracts/utils/Address.sol\":7674:7681   */\n      dup4\n        /* \"@openzeppelin/contracts/utils/Address.sol\":7670:8088   */\n      iszero\n      tag_327\n      jumpi\n        /* \"@openzeppelin/contracts/utils/Address.sol\":7701:7711   */\n      dup3\n        /* \"@openzeppelin/contracts/utils/Address.sol\":7701:7718   */\n      mload\n        /* \"@openzeppelin/contracts/utils/Address.sol\":7722:7723   */\n      0x00\n        /* \"@openzeppelin/contracts/utils/Address.sol\":7701:7723   */\n      sub\n        /* \"@openzeppelin/contracts/utils/Address.sol\":7697:7983   */\n      tag_331\n      jumpi\n      sub(shl(0xa0, 0x01), 0x01)\n        /* \"@openzeppelin/contracts/utils/Address.sol\":1465:1484   */\n      dup6\n      and\n      extcodesize\n        /* \"@openzeppelin/contracts/utils/Address.sol\":7908:7968   */\n      tag_331\n      jumpi\n      mload(0x40)\n      shl(0xe5, 0x461bcd)\n      dup2\n      mstore\n        /* \"#utility.yul\":10713:10715   */\n      0x20\n        /* \"@openzeppelin/contracts/utils/Address.sol\":7908:7968   */\n      0x04\n      dup3\n      add\n        /* \"#utility.yul\":10695:10716   */\n      mstore\n        /* \"#utility.yul\":10752:10754   */\n      0x1d\n        /* \"#utility.yul\":10732:10750   */\n      0x24\n      dup3\n      add\n        /* \"#utility.yul\":10725:10755   */\n      mstore\n        /* \"#utility.yul\":10791:10822   */\n      0x416464726573733a2063616c6c20746f206e6f6e2d636f6e7472616374000000\n        /* \"#utility.yul\":10771:10789   */\n      0x44\n      dup3\n      add\n        /* \"#utility.yul\":10764:10823   */\n      mstore\n        /* \"#utility.yul\":10840:10858   */\n      0x64\n      add\n        /* \"@openzeppelin/contracts/utils/Address.sol\":7908:7968   */\n      tag_114\n        /* \"#utility.yul\":10511:10864   */\n      jump\n        /* \"@openzeppelin/contracts/utils/Address.sol\":7908:7968   */\n    tag_331:\n      pop\n        /* \"@openzeppelin/contracts/utils/Address.sol\":8003:8013   */\n      dup2\n        /* \"@openzeppelin/contracts/utils/Address.sol\":7996:8013   */\n      jump(tag_313)\n        /* \"@openzeppelin/contracts/utils/Address.sol\":7670:8088   */\n    tag_327:\n        /* \"@openzeppelin/contracts/utils/Address.sol\":8044:8077   */\n      tag_313\n        /* \"@openzeppelin/contracts/utils/Address.sol\":8052:8062   */\n      dup4\n        /* \"@openzeppelin/contracts/utils/Address.sol\":8064:8076   */\n      dup4\n        /* \"@openzeppelin/contracts/utils/Address.sol\":8775:8792   */\n      dup2\n      mload\n        /* \"@openzeppelin/contracts/utils/Address.sol\":8775:8796   */\n      iszero\n        /* \"@openzeppelin/contracts/utils/Address.sol\":8771:9150   */\n      tag_339\n      jumpi\n        /* \"@openzeppelin/contracts/utils/Address.sol\":9003:9013   */\n      dup2\n        /* \"@openzeppelin/contracts/utils/Address.sol\":8997:9014   */\n      mload\n        /* \"@openzeppelin/contracts/utils/Address.sol\":9059:9074   */\n      dup1\n        /* \"@openzeppelin/contracts/utils/Address.sol\":9046:9056   */\n      dup4\n        /* \"@openzeppelin/contracts/utils/Address.sol\":9042:9044   */\n      0x20\n        /* \"@openzeppelin/contracts/utils/Address.sol\":9038:9057   */\n      add\n        /* \"@openzeppelin/contracts/utils/Address.sol\":9031:9075   */\n      revert\n        /* \"@openzeppelin/contracts/utils/Address.sol\":8771:9150   */\n    tag_339:\n        /* \"@openzeppelin/contracts/utils/Address.sol\":9126:9138   */\n      dup1\n        /* \"@openzeppelin/contracts/utils/Address.sol\":9119:9139   */\n      mload(0x40)\n      shl(0xe5, 0x461bcd)\n      dup2\n      mstore\n      0x04\n      add\n      tag_114\n      swap2\n      swap1\n      tag_342\n      jump\t// in\n        /* \"#utility.yul\":14:177   */\n    tag_343:\n      sub(shl(0xa0, 0x01), 0x01)\n        /* \"#utility.yul\":102:107   */\n      dup2\n        /* \"#utility.yul\":98:152   */\n      and\n        /* \"#utility.yul\":91:96   */\n      dup2\n        /* \"#utility.yul\":88:153   */\n      eq\n        /* \"#utility.yul\":78:171   */\n      tag_173\n      jumpi\n        /* \"#utility.yul\":167:168   */\n      0x00\n        /* \"#utility.yul\":164:165   */\n      dup1\n        /* \"#utility.yul\":157:169   */\n      revert\n        /* \"#utility.yul\":182:522   */\n    tag_30:\n        /* \"#utility.yul\":266:272   */\n      0x00\n        /* \"#utility.yul\":274:280   */\n      dup1\n        /* \"#utility.yul\":327:329   */\n      0x40\n        /* \"#utility.yul\":315:324   */\n      dup4\n        /* \"#utility.yul\":306:313   */\n      dup6\n        /* \"#utility.yul\":302:325   */\n      sub\n        /* \"#utility.yul\":298:330   */\n      slt\n        /* \"#utility.yul\":295:347   */\n      iszero\n      tag_350\n      jumpi\n        /* \"#utility.yul\":343:344   */\n      0x00\n        /* \"#utility.yul\":340:341   */\n      dup1\n        /* \"#utility.yul\":333:345   */\n      revert\n        /* \"#utility.yul\":295:347   */\n    tag_350:\n        /* \"#utility.yul\":379:388   */\n      dup3\n        /* \"#utility.yul\":366:389   */\n      calldataload\n        /* \"#utility.yul\":356:389   */\n      swap2\n      pop\n        /* \"#utility.yul\":439:441   */\n      0x20\n        /* \"#utility.yul\":428:437   */\n      dup4\n        /* \"#utility.yul\":424:442   */\n      add\n        /* \"#utility.yul\":411:443   */\n      calldataload\n        /* \"#utility.yul\":452:492   */\n      tag_351\n        /* \"#utility.yul\":486:491   */\n      dup2\n        /* \"#utility.yul\":452:492   */\n      tag_343\n      jump\t// in\n    tag_351:\n        /* \"#utility.yul\":511:516   */\n      dup1\n        /* \"#utility.yul\":501:516   */\n      swap2\n      pop\n      pop\n        /* \"#utility.yul\":182:522   */\n      swap3\n      pop\n      swap3\n      swap1\n      pop\n      jump\t// out\n        /* \"#utility.yul\":527:707   */\n    tag_34:\n        /* \"#utility.yul\":586:592   */\n      0x00\n        /* \"#utility.yul\":639:641   */\n      0x20\n        /* \"#utility.yul\":627:636   */\n      dup3\n        /* \"#utility.yul\":618:625   */\n      dup5\n        /* \"#utility.yul\":614:637   */\n      sub\n        /* \"#utility.yul\":610:642   */\n      slt\n        /* \"#utility.yul\":607:659   */\n      iszero\n      tag_353\n      jumpi\n        /* \"#utility.yul\":655:656   */\n      0x00\n        /* \"#utility.yul\":652:653   */\n      dup1\n        /* \"#utility.yul\":645:657   */\n      revert\n        /* \"#utility.yul\":607:659   */\n    tag_353:\n      pop\n        /* \"#utility.yul\":678:701   */\n      calldataload\n      swap2\n        /* \"#utility.yul\":527:707   */\n      swap1\n      pop\n      jump\t// out\n        /* \"#utility.yul\":959:1215   */\n    tag_53:\n        /* \"#utility.yul\":1018:1024   */\n      0x00\n        /* \"#utility.yul\":1071:1073   */\n      0x20\n        /* \"#utility.yul\":1059:1068   */\n      dup3\n        /* \"#utility.yul\":1050:1057   */\n      dup5\n        /* \"#utility.yul\":1046:1069   */\n      sub\n        /* \"#utility.yul\":1042:1074   */\n      slt\n        /* \"#utility.yul\":1039:1091   */\n      iszero\n      tag_356\n      jumpi\n        /* \"#utility.yul\":1087:1088   */\n      0x00\n        /* \"#utility.yul\":1084:1085   */\n      dup1\n        /* \"#utility.yul\":1077:1089   */\n      revert\n        /* \"#utility.yul\":1039:1091   */\n    tag_356:\n        /* \"#utility.yul\":1126:1135   */\n      dup2\n        /* \"#utility.yul\":1113:1136   */\n      calldataload\n        /* \"#utility.yul\":1145:1185   */\n      tag_275\n        /* \"#utility.yul\":1179:1184   */\n      dup2\n        /* \"#utility.yul\":1145:1185   */\n      tag_343\n      jump\t// in\n        /* \"#utility.yul\":1220:2061   */\n    tag_56:\n        /* \"#utility.yul\":1445:1447   */\n      0x20\n        /* \"#utility.yul\":1497:1518   */\n      dup1\n      dup3\n      mstore\n        /* \"#utility.yul\":1567:1580   */\n      dup3\n      mload\n        /* \"#utility.yul\":1470:1488   */\n      dup3\n      dup3\n      add\n        /* \"#utility.yul\":1589:1611   */\n      dup2\n      swap1\n      mstore\n        /* \"#utility.yul\":1416:1420   */\n      0x00\n      swap2\n        /* \"#utility.yul\":1445:1447   */\n      swap1\n        /* \"#utility.yul\":1630:1632   */\n      0x40\n      swap1\n        /* \"#utility.yul\":1648:1666   */\n      dup2\n      dup6\n      add\n      swap1\n        /* \"#utility.yul\":1689:1704   */\n      dup7\n      dup5\n      add\n        /* \"#utility.yul\":1416:1420   */\n      dup6\n        /* \"#utility.yul\":1732:2035   */\n    tag_359:\n        /* \"#utility.yul\":1746:1752   */\n      dup3\n        /* \"#utility.yul\":1743:1744   */\n      dup2\n        /* \"#utility.yul\":1740:1753   */\n      lt\n        /* \"#utility.yul\":1732:2035   */\n      iszero\n      tag_361\n      jumpi\n        /* \"#utility.yul\":1805:1818   */\n      dup2\n      mload\n        /* \"#utility.yul\":1847:1856   */\n      dup1\n      mload\n      sub(shl(0xa0, 0x01), 0x01)\n        /* \"#utility.yul\":1843:1901   */\n      and\n        /* \"#utility.yul\":1831:1902   */\n      dup6\n      mstore\n        /* \"#utility.yul\":1942:1953   */\n      dup7\n      add\n        /* \"#utility.yul\":1936:1954   */\n      mload\n        /* \"#utility.yul\":1922:1934   */\n      dup7\n      dup6\n      add\n        /* \"#utility.yul\":1915:1955   */\n      mstore\n        /* \"#utility.yul\":1975:1987   */\n      swap3\n      dup5\n      add\n      swap3\n        /* \"#utility.yul\":2010:2025   */\n      swap1\n      dup6\n      add\n      swap1\n        /* \"#utility.yul\":1768:1769   */\n      0x01\n        /* \"#utility.yul\":1761:1770   */\n      add\n        /* \"#utility.yul\":1732:2035   */\n      jump(tag_359)\n    tag_361:\n      pop\n        /* \"#utility.yul\":2052:2055   */\n      swap2\n      swap8\n        /* \"#utility.yul\":1220:2061   */\n      swap7\n      pop\n      pop\n      pop\n      pop\n      pop\n      pop\n      pop\n      jump\t// out\n        /* \"#utility.yul\":3805:3932   */\n    tag_344:\n        /* \"#utility.yul\":3866:3876   */\n      0x4e487b71\n        /* \"#utility.yul\":3861:3864   */\n      0xe0\n        /* \"#utility.yul\":3857:3877   */\n      shl\n        /* \"#utility.yul\":3854:3855   */\n      0x00\n        /* \"#utility.yul\":3847:3878   */\n      mstore\n        /* \"#utility.yul\":3897:3901   */\n      0x11\n        /* \"#utility.yul\":3894:3895   */\n      0x04\n        /* \"#utility.yul\":3887:3902   */\n      mstore\n        /* \"#utility.yul\":3921:3925   */\n      0x24\n        /* \"#utility.yul\":3918:3919   */\n      0x00\n        /* \"#utility.yul\":3911:3926   */\n      revert\n        /* \"#utility.yul\":3937:4062   */\n    tag_127:\n        /* \"#utility.yul\":4002:4011   */\n      dup1\n      dup3\n      add\n        /* \"#utility.yul\":4023:4033   */\n      dup1\n      dup3\n      gt\n        /* \"#utility.yul\":4020:4056   */\n      iszero\n      tag_286\n      jumpi\n        /* \"#utility.yul\":4036:4054   */\n      tag_286\n      tag_344\n      jump\t// in\n        /* \"#utility.yul\":4067:4194   */\n    tag_133:\n        /* \"#utility.yul\":4128:4138   */\n      0x4e487b71\n        /* \"#utility.yul\":4123:4126   */\n      0xe0\n        /* \"#utility.yul\":4119:4139   */\n      shl\n        /* \"#utility.yul\":4116:4117   */\n      0x00\n        /* \"#utility.yul\":4109:4140   */\n      mstore\n        /* \"#utility.yul\":4159:4163   */\n      0x32\n        /* \"#utility.yul\":4156:4157   */\n      0x04\n        /* \"#utility.yul\":4149:4164   */\n      mstore\n        /* \"#utility.yul\":4183:4187   */\n      0x24\n        /* \"#utility.yul\":4180:4181   */\n      0x00\n        /* \"#utility.yul\":4173:4188   */\n      revert\n        /* \"#utility.yul\":4199:4334   */\n    tag_141:\n        /* \"#utility.yul\":4238:4241   */\n      0x00\n        /* \"#utility.yul\":4259:4276   */\n      0x01\n      dup3\n      add\n        /* \"#utility.yul\":4256:4299   */\n      tag_375\n      jumpi\n        /* \"#utility.yul\":4279:4297   */\n      tag_375\n      tag_344\n      jump\t// in\n    tag_375:\n      pop\n        /* \"#utility.yul\":4326:4327   */\n      0x01\n        /* \"#utility.yul\":4315:4328   */\n      add\n      swap1\n        /* \"#utility.yul\":4199:4334   */\n      jump\t// out\n        /* \"#utility.yul\":4339:4475   */\n    tag_146:\n        /* \"#utility.yul\":4378:4381   */\n      0x00\n        /* \"#utility.yul\":4406:4411   */\n      dup2\n        /* \"#utility.yul\":4396:4435   */\n      tag_378\n      jumpi\n        /* \"#utility.yul\":4415:4433   */\n      tag_378\n      tag_344\n      jump\t// in\n    tag_378:\n      pop\n      not(0x00)\n        /* \"#utility.yul\":4451:4469   */\n      add\n      swap1\n        /* \"#utility.yul\":4339:4475   */\n      jump\t// out\n        /* \"#utility.yul\":5795:5922   */\n    tag_180:\n        /* \"#utility.yul\":5856:5866   */\n      0x4e487b71\n        /* \"#utility.yul\":5851:5854   */\n      0xe0\n        /* \"#utility.yul\":5847:5867   */\n      shl\n        /* \"#utility.yul\":5844:5845   */\n      0x00\n        /* \"#utility.yul\":5837:5868   */\n      mstore\n        /* \"#utility.yul\":5887:5891   */\n      0x41\n        /* \"#utility.yul\":5884:5885   */\n      0x04\n        /* \"#utility.yul\":5877:5892   */\n      mstore\n        /* \"#utility.yul\":5911:5915   */\n      0x24\n        /* \"#utility.yul\":5908:5909   */\n      0x00\n        /* \"#utility.yul\":5901:5916   */\n      revert\n        /* \"#utility.yul\":5927:6187   */\n    tag_220:\n        /* \"#utility.yul\":5997:6003   */\n      0x00\n        /* \"#utility.yul\":6050:6052   */\n      0x20\n        /* \"#utility.yul\":6038:6047   */\n      dup3\n        /* \"#utility.yul\":6029:6036   */\n      dup5\n        /* \"#utility.yul\":6025:6048   */\n      sub\n        /* \"#utility.yul\":6021:6053   */\n      slt\n        /* \"#utility.yul\":6018:6070   */\n      iszero\n      tag_385\n      jumpi\n        /* \"#utility.yul\":6066:6067   */\n      0x00\n        /* \"#utility.yul\":6063:6064   */\n      dup1\n        /* \"#utility.yul\":6056:6068   */\n      revert\n        /* \"#utility.yul\":6018:6070   */\n    tag_385:\n        /* \"#utility.yul\":6098:6107   */\n      dup2\n        /* \"#utility.yul\":6092:6108   */\n      mload\n        /* \"#utility.yul\":6117:6157   */\n      tag_275\n        /* \"#utility.yul\":6151:6156   */\n      dup2\n        /* \"#utility.yul\":6117:6157   */\n      tag_343\n      jump\t// in\n        /* \"#utility.yul\":7673:7801   */\n    tag_282:\n        /* \"#utility.yul\":7740:7749   */\n      dup2\n      dup2\n      sub\n        /* \"#utility.yul\":7761:7772   */\n      dup2\n      dup2\n      gt\n        /* \"#utility.yul\":7758:7795   */\n      iszero\n      tag_286\n      jumpi\n        /* \"#utility.yul\":7775:7793   */\n      tag_286\n      tag_344\n      jump\t// in\n        /* \"#utility.yul\":7806:7974   */\n    tag_284:\n        /* \"#utility.yul\":7879:7888   */\n      dup1\n      dup3\n      mul\n        /* \"#utility.yul\":7910:7919   */\n      dup2\n      iszero\n        /* \"#utility.yul\":7927:7942   */\n      dup3\n      dup3\n      div\n        /* \"#utility.yul\":7921:7943   */\n      dup5\n      eq\n        /* \"#utility.yul\":7907:7944   */\n      or\n        /* \"#utility.yul\":7897:7968   */\n      tag_286\n      jumpi\n        /* \"#utility.yul\":7948:7966   */\n      tag_286\n      tag_344\n      jump\t// in\n        /* \"#utility.yul\":7979:8196   */\n    tag_287:\n        /* \"#utility.yul\":8019:8020   */\n      0x00\n        /* \"#utility.yul\":8045:8046   */\n      dup3\n        /* \"#utility.yul\":8035:8167   */\n      tag_398\n      jumpi\n        /* \"#utility.yul\":8089:8099   */\n      0x4e487b71\n        /* \"#utility.yul\":8084:8087   */\n      0xe0\n        /* \"#utility.yul\":8080:8100   */\n      shl\n        /* \"#utility.yul\":8077:8078   */\n      0x00\n        /* \"#utility.yul\":8070:8101   */\n      mstore\n        /* \"#utility.yul\":8124:8128   */\n      0x12\n        /* \"#utility.yul\":8121:8122   */\n      0x04\n        /* \"#utility.yul\":8114:8129   */\n      mstore\n        /* \"#utility.yul\":8152:8156   */\n      0x24\n        /* \"#utility.yul\":8149:8150   */\n      0x00\n        /* \"#utility.yul\":8142:8157   */\n      revert\n        /* \"#utility.yul\":8035:8167   */\n    tag_398:\n      pop\n        /* \"#utility.yul\":8181:8190   */\n      div\n      swap1\n        /* \"#utility.yul\":7979:8196   */\n      jump\t// out\n        /* \"#utility.yul\":8864:9141   */\n    tag_308:\n        /* \"#utility.yul\":8931:8937   */\n      0x00\n        /* \"#utility.yul\":8984:8986   */\n      0x20\n        /* \"#utility.yul\":8972:8981   */\n      dup3\n        /* \"#utility.yul\":8963:8970   */\n      dup5\n        /* \"#utility.yul\":8959:8982   */\n      sub\n        /* \"#utility.yul\":8955:8987   */\n      slt\n        /* \"#utility.yul\":8952:9004   */\n      iszero\n      tag_402\n      jumpi\n        /* \"#utility.yul\":9000:9001   */\n      0x00\n        /* \"#utility.yul\":8997:8998   */\n      dup1\n        /* \"#utility.yul\":8990:9002   */\n      revert\n        /* \"#utility.yul\":8952:9004   */\n    tag_402:\n        /* \"#utility.yul\":9032:9041   */\n      dup2\n        /* \"#utility.yul\":9026:9042   */\n      mload\n        /* \"#utility.yul\":9085:9090   */\n      dup1\n        /* \"#utility.yul\":9078:9091   */\n      iszero\n        /* \"#utility.yul\":9071:9092   */\n      iszero\n        /* \"#utility.yul\":9064:9069   */\n      dup2\n        /* \"#utility.yul\":9061:9093   */\n      eq\n        /* \"#utility.yul\":9051:9111   */\n      tag_275\n      jumpi\n        /* \"#utility.yul\":9107:9108   */\n      0x00\n        /* \"#utility.yul\":9104:9105   */\n      dup1\n        /* \"#utility.yul\":9097:9109   */\n      revert\n        /* \"#utility.yul\":9964:10214   */\n    tag_345:\n        /* \"#utility.yul\":10049:10050   */\n      0x00\n        /* \"#utility.yul\":10059:10172   */\n    tag_407:\n        /* \"#utility.yul\":10073:10079   */\n      dup4\n        /* \"#utility.yul\":10070:10071   */\n      dup2\n        /* \"#utility.yul\":10067:10080   */\n      lt\n        /* \"#utility.yul\":10059:10172   */\n      iszero\n      tag_409\n      jumpi\n        /* \"#utility.yul\":10149:10160   */\n      dup2\n      dup2\n      add\n        /* \"#utility.yul\":10143:10161   */\n      mload\n        /* \"#utility.yul\":10130:10141   */\n      dup4\n      dup3\n      add\n        /* \"#utility.yul\":10123:10162   */\n      mstore\n        /* \"#utility.yul\":10095:10097   */\n      0x20\n        /* \"#utility.yul\":10088:10098   */\n      add\n        /* \"#utility.yul\":10059:10172   */\n      jump(tag_407)\n    tag_409:\n      pop\n      pop\n        /* \"#utility.yul\":10206:10207   */\n      0x00\n        /* \"#utility.yul\":10188:10204   */\n      swap2\n      add\n        /* \"#utility.yul\":10181:10208   */\n      mstore\n        /* \"#utility.yul\":9964:10214   */\n      jump\t// out\n        /* \"#utility.yul\":10219:10506   */\n    tag_320:\n        /* \"#utility.yul\":10348:10351   */\n      0x00\n        /* \"#utility.yul\":10386:10392   */\n      dup3\n        /* \"#utility.yul\":10380:10393   */\n      mload\n        /* \"#utility.yul\":10402:10468   */\n      tag_411\n        /* \"#utility.yul\":10461:10467   */\n      dup2\n        /* \"#utility.yul\":10456:10459   */\n      dup5\n        /* \"#utility.yul\":10449:10453   */\n      0x20\n        /* \"#utility.yul\":10441:10447   */\n      dup8\n        /* \"#utility.yul\":10437:10454   */\n      add\n        /* \"#utility.yul\":10402:10468   */\n      tag_345\n      jump\t// in\n    tag_411:\n        /* \"#utility.yul\":10484:10500   */\n      swap2\n      swap1\n      swap2\n      add\n      swap3\n        /* \"#utility.yul\":10219:10506   */\n      swap2\n      pop\n      pop\n      jump\t// out\n        /* \"#utility.yul\":10869:11265   */\n    tag_342:\n        /* \"#utility.yul\":11018:11020   */\n      0x20\n        /* \"#utility.yul\":11007:11016   */\n      dup2\n        /* \"#utility.yul\":11000:11021   */\n      mstore\n        /* \"#utility.yul\":10981:10985   */\n      0x00\n        /* \"#utility.yul\":11050:11056   */\n      dup3\n        /* \"#utility.yul\":11044:11057   */\n      mload\n        /* \"#utility.yul\":11093:11099   */\n      dup1\n        /* \"#utility.yul\":11088:11090   */\n      0x20\n        /* \"#utility.yul\":11077:11086   */\n      dup5\n        /* \"#utility.yul\":11073:11091   */\n      add\n        /* \"#utility.yul\":11066:11100   */\n      mstore\n        /* \"#utility.yul\":11109:11188   */\n      tag_414\n        /* \"#utility.yul\":11181:11187   */\n      dup2\n        /* \"#utility.yul\":11176:11178   */\n      0x40\n        /* \"#utility.yul\":11165:11174   */\n      dup6\n        /* \"#utility.yul\":11161:11179   */\n      add\n        /* \"#utility.yul\":11156:11158   */\n      0x20\n        /* \"#utility.yul\":11148:11154   */\n      dup8\n        /* \"#utility.yul\":11144:11159   */\n      add\n        /* \"#utility.yul\":11109:11188   */\n      tag_345\n      jump\t// in\n    tag_414:\n        /* \"#utility.yul\":11249:11251   */\n      0x1f\n        /* \"#utility.yul\":11228:11243   */\n      add\n      not(0x1f)\n        /* \"#utility.yul\":11224:11253   */\n      and\n        /* \"#utility.yul\":11209:11254   */\n      swap2\n      swap1\n      swap2\n      add\n        /* \"#utility.yul\":11256:11258   */\n      0x40\n        /* \"#utility.yul\":11205:11259   */\n      add\n      swap3\n        /* \"#utility.yul\":10869:11265   */\n      swap2\n      pop\n      pop\n      jump\t// out\n\n    auxdata: 0xa2646970667358221220e83f94847c6a393981bd3b6d3baca69a5b85c448fcd7ad30dca6a5832b9a821764736f6c63430008110033\n}\n",
    "bytecode": {
      "linkReferences": {},
      "object": "6101206040526904695bf4120910e400006003553480156200002057600080fd5b5060405162001bb838038062001bb88339810160408190526200004391620000ee565b6001600055620000533362000083565b6001600160a01b0394851660a05292841660c05290831660e052821661010052166080526103e86002556200016e565b600180546001600160a01b038381166001600160a01b0319831681179093556040519116919082907f8be0079c531659141344cd1fd0a4f28419497f9722a3daafe3b4186f6b6457e090600090a35050565b6001600160a01b0381168114620000eb57600080fd5b50565b600080600080600060a086880312156200010757600080fd5b85516200011481620000d5565b60208701519095506200012781620000d5565b60408701519094506200013a81620000d5565b60608701519093506200014d81620000d5565b60808701519092506200016081620000d5565b809150509295509295909350565b60805160a05160c05160e051610100516119aa6200020e600039600081816101ff015281816105ba01528181610e290152610fa00152600081816101a40152818161057e01528181610d8d0152610f640152600081816102600152818161054201528181610cf10152610f280152600081816103940152818161050701528181610c560152610eed0152600081816103c801526109a001526119aa6000f3fe6080604052600436106101435760003560e01c80637acb7757116100c0578063bcb5eb2811610074578063dd19171911610059578063dd191719146103ea578063f2fde38b146103f2578063f854a27f1461041257600080fd5b8063bcb5eb2814610382578063d1af0c7d146103b657600080fd5b80639168ae72116100a55780639168ae72146102d5578063940670451461032c578063b768d7f51461036257600080fd5b80637acb7757146102975780638da5cb5b146102b757600080fd5b80635036e63b1161011757806363c28db1116100fc57806363c28db114610221578063640fffd81461024e578063715018a61461028257600080fd5b80635036e63b146101e35780635f686f25146101ed57600080fd5b8062f714ce146101485780631829b46c1461016a578063372500ab1461017d57806345c44ad514610192575b600080fd5b34801561015457600080fd5b50610168610163366004611733565b610440565b005b610168610178366004611763565b610858565b34801561018957600080fd5b50610168610907565b34801561019e57600080fd5b506101c67f000000000000000000000000000000000000000000000000000000000000000081565b6040516001600160a01b0390911681526020015b60405180910390f35b6101686064600255565b3480156101f957600080fd5b506101c67f000000000000000000000000000000000000000000000000000000000000000081565b34801561022d57600080fd5b5061024161023c36600461177c565b6109d2565b6040516101da9190611799565b34801561025a57600080fd5b506101c67f000000000000000000000000000000000000000000000000000000000000000081565b34801561028e57600080fd5b50610168610bcc565b3480156102a357600080fd5b506101686102b2366004611733565b610be0565b3480156102c357600080fd5b506001546001600160a01b03166101c6565b3480156102e157600080fd5b506103116102f036600461177c565b60046020526000908152604090208054600282015460039092015490919083565b604080519384526020840192909252908201526060016101da565b34801561033857600080fd5b506101c6610347366004611763565b6005602052600090815260409020546001600160a01b031681565b34801561036e57600080fd5b5061016861037d366004611763565b61113f565b34801561038e57600080fd5b506101c67f000000000000000000000000000000000000000000000000000000000000000081565b3480156103c257600080fd5b506101c67f000000000000000000000000000000000000000000000000000000000000000081565b61016861114c565b3480156103fe57600080fd5b5061016861040d36600461177c565b6111fb565b34801561041e57600080fd5b5061043261042d36600461177c565b611288565b6040519081526020016101da565b6104486112c0565b336000908152600460205260409020546104a95760405162461bcd60e51b815260206004820152601960248201527f596f752048617665204e6f20546f6b656e73205374616b65640000000000000060448201526064015b60405180910390fd5b336000908152600460205260409020546105055760405162461bcd60e51b815260206004820152601960248201527f596f752048617665204e6f20546f6b656e73205374616b65640000000000000060448201526064016104a0565b7f00000000000000000000000000000000000000000000000000000000000000006001600160a01b0316816001600160a01b0316148061057657507f00000000000000000000000000000000000000000000000000000000000000006001600160a01b0316816001600160a01b0316145b806105b257507f00000000000000000000000000000000000000000000000000000000000000006001600160a01b0316816001600160a01b0316145b806105ee57507f00000000000000000000000000000000000000000000000000000000000000006001600160a01b0316816001600160a01b0316145b6106455760405162461bcd60e51b815260206004820152602260248201527f5468697320436f6c6c656374696f6e2043616e277420426520576974686472616044820152613bb760f11b60648201526084016104a0565b600061065033611319565b33600090815260046020526040812060030180549293508392909190610677908490611807565b9091555060009050805b3360009081526004602052604090206001015481101561073c573360009081526004602052604090206001018054869190839081106106c2576106c261181a565b90600052602060002090600202016001015414801561071d57503360009081526004602052604081206001018054839081106107005761070061181a565b60009182526020909120600290910201546001600160a01b031614155b1561072a5780915061073c565b8061073481611830565b915050610681565b503360009081526004602052604081206001018054839081106107615761076161181a565b6000918252602080832060029290920290910180546001600160a01b0319166001600160a01b0394909416939093179092553381526004909152604081208054916107ab83611849565b90915550506000848152600560205260409081902080546001600160a01b0319169055516323b872dd60e01b8152306004820152336024820152604481018590526001600160a01b038416906323b872dd90606401600060405180830381600087803b15801561081a57600080fd5b505af115801561082e573d6000803e3d6000fd5b505033600090815260046020526040902042600290910155506108549250611373915050565b5050565b61086061137a565b60006108746001546001600160a01b031690565b6001600160a01b03168260405160006040518083038185875af1925050503d80600081146108be576040519150601f19603f3d011682016040523d82523d6000602084013e6108c3565b606091505b50509050806108545760405162461bcd60e51b815260206004820152601060248201526f5472616e73666572206661696c65642160801b60448201526064016104a0565b33600081815260046020526040812060030154909161092590611319565b61092f9190611807565b9050600081116109815760405162461bcd60e51b815260206004820152601c60248201527f596f752068617665206e6f207265776172647320746f20636c61696d0000000060448201526064016104a0565b336000818152600460205260408120426002820155600301556109cf907f00000000000000000000000000000000000000000000000000000000000000006001600160a01b031690836113d4565b50565b6001600160a01b03811660009081526004602052604090205460609015610b88576001600160a01b03821660009081526004602052604081205467ffffffffffffffff811115610a2457610a24611860565b604051908082528060200260200182016040528015610a6957816020015b6040805180820190915260008082526020820152815260200190600190039081610a425790505b5090506000805b6001600160a01b038516600090815260046020526040902060010154811015610b7f576001600160a01b0385166000908152600460205260408120600101805483908110610ac057610ac061181a565b60009182526020909120600290910201546001600160a01b031614610b6d576001600160a01b0385166000908152600460205260409020600101805482908110610b0c57610b0c61181a565b60009182526020918290206040805180820190915260029092020180546001600160a01b0316825260010154918101919091528351849084908110610b5357610b5361181a565b60200260200101819052508180610b6990611830565b9250505b80610b7781611830565b915050610a70565b50909392505050565b6040805160008082526020820190925290610bc5565b6040805180820190915260008082526020820152815260200190600190039081610b9e5790505b5092915050565b610bd461137a565b610bde6000611440565b565b610be86112c0565b3360009081526004602052604090205415610c36576000610c0833611319565b33600090815260046020526040812060030180549293508392909190610c2f908490611807565b9091555050505b6040516331a9108f60e11b81526004810183905233906001600160a01b037f00000000000000000000000000000000000000000000000000000000000000001690636352211e90602401602060405180830381865afa158015610c9d573d6000803e3d6000fd5b505050506040513d601f19601f82011682018060405250810190610cc19190611876565b6001600160a01b03161480610d6757506040516331a9108f60e11b81526004810183905233906001600160a01b037f00000000000000000000000000000000000000000000000000000000000000001690636352211e90602401602060405180830381865afa158015610d38573d6000803e3d6000fd5b505050506040513d601f19601f82011682018060405250810190610d5c9190611876565b6001600160a01b0316145b80610e0357506040516331a9108f60e11b81526004810183905233906001600160a01b037f00000000000000000000000000000000000000000000000000000000000000001690636352211e90602401602060405180830381865afa158015610dd4573d6000803e3d6000fd5b505050506040513d601f19601f82011682018060405250810190610df89190611876565b6001600160a01b0316145b80610e9f57506040516331a9108f60e11b81526004810183905233906001600160a01b037f00000000000000000000000000000000000000000000000000000000000000001690636352211e90602401602060405180830381865afa158015610e70573d6000803e3d6000fd5b505050506040513d601f19601f82011682018060405250810190610e949190611876565b6001600160a01b0316145b610eeb5760405162461bcd60e51b815260206004820152601960248201527f596f7520446f6e2774204f776e205468697320546f6b656e210000000000000060448201526064016104a0565b7f00000000000000000000000000000000000000000000000000000000000000006001600160a01b0316816001600160a01b03161480610f5c57507f00000000000000000000000000000000000000000000000000000000000000006001600160a01b0316816001600160a01b0316145b80610f9857507f00000000000000000000000000000000000000000000000000000000000000006001600160a01b0316816001600160a01b0316145b80610fd457507f00000000000000000000000000000000000000000000000000000000000000006001600160a01b0316816001600160a01b0316145b6110205760405162461bcd60e51b815260206004820152601f60248201527f5468697320436f6c6c656374696f6e2043616e2774204265205374616b65640060448201526064016104a0565b6040516323b872dd60e01b8152336004820152306024820152604481018390526001600160a01b038216906323b872dd90606401600060405180830381600087803b15801561106e57600080fd5b505af1158015611082573d6000803e3d6000fd5b5050604080518082018252338082526020808301888152600083815260048352948520600180820180548083018255908852938720865160029095020180546001600160a01b0319166001600160a01b03909516949094178455915192909101919091559083528054919450909250906110fb83611830565b909155505050600082815260056020908152604080832080546001600160a01b03191633908117909155835260049091529020426002909101556108546001600055565b61114761137a565b600355565b61115461137a565b60006111686001546001600160a01b031690565b6001600160a01b03164760405160006040518083038185875af1925050503d80600081146111b2576040519150601f19603f3d011682016040523d82523d6000602084013e6111b7565b606091505b50509050806109cf5760405162461bcd60e51b815260206004820152601060248201526f5472616e73666572206661696c65642160801b60448201526064016104a0565b61120361137a565b6001600160a01b03811661127f5760405162461bcd60e51b815260206004820152602660248201527f4f776e61626c653a206e6577206f776e657220697320746865207a65726f206160448201527f646472657373000000000000000000000000000000000000000000000000000060648201526084016104a0565b6109cf81611440565b6001600160a01b03811660009081526004602052604081206003015481906112af84611319565b6112b99190611807565b9392505050565b6002600054036113125760405162461bcd60e51b815260206004820152601f60248201527f5265656e7472616e637947756172643a207265656e7472616e742063616c6c0060448201526064016104a0565b6002600055565b6003546001600160a01b038216600090815260046020526040812080546002909101549192610e109290919061134f9042611893565b61135991906118a6565b61136391906118a6565b61136d91906118bd565b92915050565b6001600055565b6001546001600160a01b03163314610bde5760405162461bcd60e51b815260206004820181905260248201527f4f776e61626c653a2063616c6c6572206973206e6f7420746865206f776e657260448201526064016104a0565b604080516001600160a01b038416602482015260448082018490528251808303909101815260649091019091526020810180517bffffffffffffffffffffffffffffffffffffffffffffffffffffffff1663a9059cbb60e01b17905261143b908490611492565b505050565b600180546001600160a01b038381166001600160a01b0319831681179093556040519116919082907f8be0079c531659141344cd1fd0a4f28419497f9722a3daafe3b4186f6b6457e090600090a35050565b60006114e7826040518060400160405280602081526020017f5361666545524332303a206c6f772d6c6576656c2063616c6c206661696c6564815250856001600160a01b03166115779092919063ffffffff16565b80519091501561143b578080602001905181019061150591906118df565b61143b5760405162461bcd60e51b815260206004820152602a60248201527f5361666545524332303a204552433230206f7065726174696f6e20646964206e60448201527f6f7420737563636565640000000000000000000000000000000000000000000060648201526084016104a0565b6060611586848460008561158e565b949350505050565b6060824710156116065760405162461bcd60e51b815260206004820152602660248201527f416464726573733a20696e73756666696369656e742062616c616e636520666f60448201527f722063616c6c000000000000000000000000000000000000000000000000000060648201526084016104a0565b600080866001600160a01b031685876040516116229190611925565b60006040518083038185875af1925050503d806000811461165f576040519150601f19603f3d011682016040523d82523d6000602084013e611664565b606091505b509150915061167587838387611680565b979650505050505050565b606083156116ef5782516000036116e8576001600160a01b0385163b6116e85760405162461bcd60e51b815260206004820152601d60248201527f416464726573733a2063616c6c20746f206e6f6e2d636f6e747261637400000060448201526064016104a0565b5081611586565b61158683838151156117045781518083602001fd5b8060405162461bcd60e51b81526004016104a09190611941565b6001600160a01b03811681146109cf57600080fd5b6000806040838503121561174657600080fd5b8235915060208301356117588161171e565b809150509250929050565b60006020828403121561177557600080fd5b5035919050565b60006020828403121561178e57600080fd5b81356112b98161171e565b602080825282518282018190526000919060409081850190868401855b828110156117e457815180516001600160a01b031685528601518685015292840192908501906001016117b6565b5091979650505050505050565b634e487b7160e01b600052601160045260246000fd5b8082018082111561136d5761136d6117f1565b634e487b7160e01b600052603260045260246000fd5b600060018201611842576118426117f1565b5060010190565b600081611858576118586117f1565b506000190190565b634e487b7160e01b600052604160045260246000fd5b60006020828403121561188857600080fd5b81516112b98161171e565b8181038181111561136d5761136d6117f1565b808202811582820484141761136d5761136d6117f1565b6000826118da57634e487b7160e01b600052601260045260246000fd5b500490565b6000602082840312156118f157600080fd5b815180151581146112b957600080fd5b60005b8381101561191c578181015183820152602001611904565b50506000910152565b60008251611937818460208701611901565b9190910192915050565b6020815260008251806020840152611960816040850160208701611901565b601f01601f1916919091016040019291505056fea2646970667358221220e83f94847c6a393981bd3b6d3baca69a5b85c448fcd7ad30dca6a5832b9a821764736f6c63430008110033",
      "opcodes": "PUSH2 0x120 PUSH1 0x40 MSTORE PUSH10 0x4695BF4120910E40000 PUSH1 0x3 SSTORE CALLVALUE DUP1 ISZERO PUSH3 0x20 JUMPI PUSH1 0x0 DUP1 REVERT JUMPDEST POP PUSH1 0x40 MLOAD PUSH3 0x1BB8 CODESIZE SUB DUP1 PUSH3 0x1BB8 DUP4 CODECOPY DUP2 ADD PUSH1 0x40 DUP2 SWAP1 MSTORE PUSH3 0x43 SWAP2 PUSH3 0xEE JUMP JUMPDEST PUSH1 0x1 PUSH1 0x0 SSTORE PUSH3 0x53 CALLER PUSH3 0x83 JUMP JUMPDEST PUSH1 0x1 PUSH1 0x1 PUSH1 0xA0 SHL SUB SWAP5 DUP6 AND PUSH1 0xA0 MSTORE SWAP3 DUP5 AND PUSH1 0xC0 MSTORE SWAP1 DUP4 AND PUSH1 0xE0 MSTORE DUP3 AND PUSH2 0x100 MSTORE AND PUSH1 0x80 MSTORE PUSH2 0x3E8 PUSH1 0x2 SSTORE PUSH3 0x16E JUMP JUMPDEST PUSH1 0x1 DUP1 SLOAD PUSH1 0x1 PUSH1 0x1 PUSH1 0xA0 SHL SUB DUP4 DUP2 AND PUSH1 0x1 PUSH1 0x1 PUSH1 0xA0 SHL SUB NOT DUP4 AND DUP2 OR SWAP1 SWAP4 SSTORE PUSH1 0x40 MLOAD SWAP2 AND SWAP2 SWAP1 DUP3 SWAP1 PUSH32 0x8BE0079C531659141344CD1FD0A4F28419497F9722A3DAAFE3B4186F6B6457E0 SWAP1 PUSH1 0x0 SWAP1 LOG3 POP POP JUMP JUMPDEST PUSH1 0x1 PUSH1 0x1 PUSH1 0xA0 SHL SUB DUP2 AND DUP2 EQ PUSH3 0xEB JUMPI PUSH1 0x0 DUP1 REVERT JUMPDEST POP JUMP JUMPDEST PUSH1 0x0 DUP1 PUSH1 0x0 DUP1 PUSH1 0x0 PUSH1 0xA0 DUP7 DUP9 SUB SLT ISZERO PUSH3 0x107 JUMPI PUSH1 0x0 DUP1 REVERT JUMPDEST DUP6 MLOAD PUSH3 0x114 DUP2 PUSH3 0xD5 JUMP JUMPDEST PUSH1 0x20 DUP8 ADD MLOAD SWAP1 SWAP6 POP PUSH3 0x127 DUP2 PUSH3 0xD5 JUMP JUMPDEST PUSH1 0x40 DUP8 ADD MLOAD SWAP1 SWAP5 POP PUSH3 0x13A DUP2 PUSH3 0xD5 JUMP JUMPDEST PUSH1 0x60 DUP8 ADD MLOAD SWAP1 SWAP4 POP PUSH3 0x14D DUP2 PUSH3 0xD5 JUMP JUMPDEST PUSH1 0x80 DUP8 ADD MLOAD SWAP1 SWAP3 POP PUSH3 0x160 DUP2 PUSH3 0xD5 JUMP JUMPDEST DUP1 SWAP2 POP POP SWAP3 SWAP6 POP SWAP3 SWAP6 SWAP1 SWAP4 POP JUMP JUMPDEST PUSH1 0x80 MLOAD PUSH1 0xA0 MLOAD PUSH1 0xC0 MLOAD PUSH1 0xE0 MLOAD PUSH2 0x100 MLOAD PUSH2 0x19AA PUSH3 0x20E PUSH1 0x0 CODECOPY PUSH1 0x0 DUP2 DUP2 PUSH2 0x1FF ADD MSTORE DUP2 DUP2 PUSH2 0x5BA ADD MSTORE DUP2 DUP2 PUSH2 0xE29 ADD MSTORE PUSH2 0xFA0 ADD MSTORE PUSH1 0x0 DUP2 DUP2 PUSH2 0x1A4 ADD MSTORE DUP2 DUP2 PUSH2 0x57E ADD MSTORE DUP2 DUP2 PUSH2 0xD8D ADD MSTORE PUSH2 0xF64 ADD MSTORE PUSH1 0x0 DUP2 DUP2 PUSH2 0x260 ADD MSTORE DUP2 DUP2 PUSH2 0x542 ADD MSTORE DUP2 DUP2 PUSH2 0xCF1 ADD MSTORE PUSH2 0xF28 ADD MSTORE PUSH1 0x0 DUP2 DUP2 PUSH2 0x394 ADD MSTORE DUP2 DUP2 PUSH2 0x507 ADD MSTORE DUP2 DUP2 PUSH2 0xC56 ADD MSTORE PUSH2 0xEED ADD MSTORE PUSH1 0x0 DUP2 DUP2 PUSH2 0x3C8 ADD MSTORE PUSH2 0x9A0 ADD MSTORE PUSH2 0x19AA PUSH1 0x0 RETURN INVALID PUSH1 0x80 PUSH1 0x40 MSTORE PUSH1 0x4 CALLDATASIZE LT PUSH2 0x143 JUMPI PUSH1 0x0 CALLDATALOAD PUSH1 0xE0 SHR DUP1 PUSH4 0x7ACB7757 GT PUSH2 0xC0 JUMPI DUP1 PUSH4 0xBCB5EB28 GT PUSH2 0x74 JUMPI DUP1 PUSH4 0xDD191719 GT PUSH2 0x59 JUMPI DUP1 PUSH4 0xDD191719 EQ PUSH2 0x3EA JUMPI DUP1 PUSH4 0xF2FDE38B EQ PUSH2 0x3F2 JUMPI DUP1 PUSH4 0xF854A27F EQ PUSH2 0x412 JUMPI PUSH1 0x0 DUP1 REVERT JUMPDEST DUP1 PUSH4 0xBCB5EB28 EQ PUSH2 0x382 JUMPI DUP1 PUSH4 0xD1AF0C7D EQ PUSH2 0x3B6 JUMPI PUSH1 0x0 DUP1 REVERT JUMPDEST DUP1 PUSH4 0x9168AE72 GT PUSH2 0xA5 JUMPI DUP1 PUSH4 0x9168AE72 EQ PUSH2 0x2D5 JUMPI DUP1 PUSH4 0x94067045 EQ PUSH2 0x32C JUMPI DUP1 PUSH4 0xB768D7F5 EQ PUSH2 0x362 JUMPI PUSH1 0x0 DUP1 REVERT JUMPDEST DUP1 PUSH4 0x7ACB7757 EQ PUSH2 0x297 JUMPI DUP1 PUSH4 0x8DA5CB5B EQ PUSH2 0x2B7 JUMPI PUSH1 0x0 DUP1 REVERT JUMPDEST DUP1 PUSH4 0x5036E63B GT PUSH2 0x117 JUMPI DUP1 PUSH4 0x63C28DB1 GT PUSH2 0xFC JUMPI DUP1 PUSH4 0x63C28DB1 EQ PUSH2 0x221 JUMPI DUP1 PUSH4 0x640FFFD8 EQ PUSH2 0x24E JUMPI DUP1 PUSH4 0x715018A6 EQ PUSH2 0x282 JUMPI PUSH1 0x0 DUP1 REVERT JUMPDEST DUP1 PUSH4 0x5036E63B EQ PUSH2 0x1E3 JUMPI DUP1 PUSH4 0x5F686F25 EQ PUSH2 0x1ED JUMPI PUSH1 0x0 DUP1 REVERT JUMPDEST DUP1 PUSH3 0xF714CE EQ PUSH2 0x148 JUMPI DUP1 PUSH4 0x1829B46C EQ PUSH2 0x16A JUMPI DUP1 PUSH4 0x372500AB EQ PUSH2 0x17D JUMPI DUP1 PUSH4 0x45C44AD5 EQ PUSH2 0x192 JUMPI JUMPDEST PUSH1 0x0 DUP1 REVERT JUMPDEST CALLVALUE DUP1 ISZERO PUSH2 0x154 JUMPI PUSH1 0x0 DUP1 REVERT JUMPDEST POP PUSH2 0x168 PUSH2 0x163 CALLDATASIZE PUSH1 0x4 PUSH2 0x1733 JUMP JUMPDEST PUSH2 0x440 JUMP JUMPDEST STOP JUMPDEST PUSH2 0x168 PUSH2 0x178 CALLDATASIZE PUSH1 0x4 PUSH2 0x1763 JUMP JUMPDEST PUSH2 0x858 JUMP JUMPDEST CALLVALUE DUP1 ISZERO PUSH2 0x189 JUMPI PUSH1 0x0 DUP1 REVERT JUMPDEST POP PUSH2 0x168 PUSH2 0x907 JUMP JUMPDEST CALLVALUE DUP1 ISZERO PUSH2 0x19E JUMPI PUSH1 0x0 DUP1 REVERT JUMPDEST POP PUSH2 0x1C6 PUSH32 0x0 DUP2 JUMP JUMPDEST PUSH1 0x40 MLOAD PUSH1 0x1 PUSH1 0x1 PUSH1 0xA0 SHL SUB SWAP1 SWAP2 AND DUP2 MSTORE PUSH1 0x20 ADD JUMPDEST PUSH1 0x40 MLOAD DUP1 SWAP2 SUB SWAP1 RETURN JUMPDEST PUSH2 0x168 PUSH1 0x64 PUSH1 0x2 SSTORE JUMP JUMPDEST CALLVALUE DUP1 ISZERO PUSH2 0x1F9 JUMPI PUSH1 0x0 DUP1 REVERT JUMPDEST POP PUSH2 0x1C6 PUSH32 0x0 DUP2 JUMP JUMPDEST CALLVALUE DUP1 ISZERO PUSH2 0x22D JUMPI PUSH1 0x0 DUP1 REVERT JUMPDEST POP PUSH2 0x241 PUSH2 0x23C CALLDATASIZE PUSH1 0x4 PUSH2 0x177C JUMP JUMPDEST PUSH2 0x9D2 JUMP JUMPDEST PUSH1 0x40 MLOAD PUSH2 0x1DA SWAP2 SWAP1 PUSH2 0x1799 JUMP JUMPDEST CALLVALUE DUP1 ISZERO PUSH2 0x25A JUMPI PUSH1 0x0 DUP1 REVERT JUMPDEST POP PUSH2 0x1C6 PUSH32 0x0 DUP2 JUMP JUMPDEST CALLVALUE DUP1 ISZERO PUSH2 0x28E JUMPI PUSH1 0x0 DUP1 REVERT JUMPDEST POP PUSH2 0x168 PUSH2 0xBCC JUMP JUMPDEST CALLVALUE DUP1 ISZERO PUSH2 0x2A3 JUMPI PUSH1 0x0 DUP1 REVERT JUMPDEST POP PUSH2 0x168 PUSH2 0x2B2 CALLDATASIZE PUSH1 0x4 PUSH2 0x1733 JUMP JUMPDEST PUSH2 0xBE0 JUMP JUMPDEST CALLVALUE DUP1 ISZERO PUSH2 0x2C3 JUMPI PUSH1 0x0 DUP1 REVERT JUMPDEST POP PUSH1 0x1 SLOAD PUSH1 0x1 PUSH1 0x1 PUSH1 0xA0 SHL SUB AND PUSH2 0x1C6 JUMP JUMPDEST CALLVALUE DUP1 ISZERO PUSH2 0x2E1 JUMPI PUSH1 0x0 DUP1 REVERT JUMPDEST POP PUSH2 0x311 PUSH2 0x2F0 CALLDATASIZE PUSH1 0x4 PUSH2 0x177C JUMP JUMPDEST PUSH1 0x4 PUSH1 0x20 MSTORE PUSH1 0x0 SWAP1 DUP2 MSTORE PUSH1 0x40 SWAP1 KECCAK256 DUP1 SLOAD PUSH1 0x2 DUP3 ADD SLOAD PUSH1 0x3 SWAP1 SWAP3 ADD SLOAD SWAP1 SWAP2 SWAP1 DUP4 JUMP JUMPDEST PUSH1 0x40 DUP1 MLOAD SWAP4 DUP5 MSTORE PUSH1 0x20 DUP5 ADD SWAP3 SWAP1 SWAP3 MSTORE SWAP1 DUP3 ADD MSTORE PUSH1 0x60 ADD PUSH2 0x1DA JUMP JUMPDEST CALLVALUE DUP1 ISZERO PUSH2 0x338 JUMPI PUSH1 0x0 DUP1 REVERT JUMPDEST POP PUSH2 0x1C6 PUSH2 0x347 CALLDATASIZE PUSH1 0x4 PUSH2 0x1763 JUMP JUMPDEST PUSH1 0x5 PUSH1 0x20 MSTORE PUSH1 0x0 SWAP1 DUP2 MSTORE PUSH1 0x40 SWAP1 KECCAK256 SLOAD PUSH1 0x1 PUSH1 0x1 PUSH1 0xA0 SHL SUB AND DUP2 JUMP JUMPDEST CALLVALUE DUP1 ISZERO PUSH2 0x36E JUMPI PUSH1 0x0 DUP1 REVERT JUMPDEST POP PUSH2 0x168 PUSH2 0x37D CALLDATASIZE PUSH1 0x4 PUSH2 0x1763 JUMP JUMPDEST PUSH2 0x113F JUMP JUMPDEST CALLVALUE DUP1 ISZERO PUSH2 0x38E JUMPI PUSH1 0x0 DUP1 REVERT JUMPDEST POP PUSH2 0x1C6 PUSH32 0x0 DUP2 JUMP JUMPDEST CALLVALUE DUP1 ISZERO PUSH2 0x3C2 JUMPI PUSH1 0x0 DUP1 REVERT JUMPDEST POP PUSH2 0x1C6 PUSH32 0x0 DUP2 JUMP JUMPDEST PUSH2 0x168 PUSH2 0x114C JUMP JUMPDEST CALLVALUE DUP1 ISZERO PUSH2 0x3FE JUMPI PUSH1 0x0 DUP1 REVERT JUMPDEST POP PUSH2 0x168 PUSH2 0x40D CALLDATASIZE PUSH1 0x4 PUSH2 0x177C JUMP JUMPDEST PUSH2 0x11FB JUMP JUMPDEST CALLVALUE DUP1 ISZERO PUSH2 0x41E JUMPI PUSH1 0x0 DUP1 REVERT JUMPDEST POP PUSH2 0x432 PUSH2 0x42D CALLDATASIZE PUSH1 0x4 PUSH2 0x177C JUMP JUMPDEST PUSH2 0x1288 JUMP JUMPDEST PUSH1 0x40 MLOAD SWAP1 DUP2 MSTORE PUSH1 0x20 ADD PUSH2 0x1DA JUMP JUMPDEST PUSH2 0x448 PUSH2 0x12C0 JUMP JUMPDEST CALLER PUSH1 0x0 SWAP1 DUP2 MSTORE PUSH1 0x4 PUSH1 0x20 MSTORE PUSH1 0x40 SWAP1 KECCAK256 SLOAD PUSH2 0x4A9 JUMPI PUSH1 0x40 MLOAD PUSH3 0x461BCD PUSH1 0xE5 SHL DUP2 MSTORE PUSH1 0x20 PUSH1 0x4 DUP3 ADD MSTORE PUSH1 0x19 PUSH1 0x24 DUP3 ADD MSTORE PUSH32 0x596F752048617665204E6F20546F6B656E73205374616B656400000000000000 PUSH1 0x44 DUP3 ADD MSTORE PUSH1 0x64 ADD JUMPDEST PUSH1 0x40 MLOAD DUP1 SWAP2 SUB SWAP1 REVERT JUMPDEST CALLER PUSH1 0x0 SWAP1 DUP2 MSTORE PUSH1 0x4 PUSH1 0x20 MSTORE PUSH1 0x40 SWAP1 KECCAK256 SLOAD PUSH2 0x505 JUMPI PUSH1 0x40 MLOAD PUSH3 0x461BCD PUSH1 0xE5 SHL DUP2 MSTORE PUSH1 0x20 PUSH1 0x4 DUP3 ADD MSTORE PUSH1 0x19 PUSH1 0x24 DUP3 ADD MSTORE PUSH32 0x596F752048617665204E6F20546F6B656E73205374616B656400000000000000 PUSH1 0x44 DUP3 ADD MSTORE PUSH1 0x64 ADD PUSH2 0x4A0 JUMP JUMPDEST PUSH32 0x0 PUSH1 0x1 PUSH1 0x1 PUSH1 0xA0 SHL SUB AND DUP2 PUSH1 0x1 PUSH1 0x1 PUSH1 0xA0 SHL SUB AND EQ DUP1 PUSH2 0x576 JUMPI POP PUSH32 0x0 PUSH1 0x1 PUSH1 0x1 PUSH1 0xA0 SHL SUB AND DUP2 PUSH1 0x1 PUSH1 0x1 PUSH1 0xA0 SHL SUB AND EQ JUMPDEST DUP1 PUSH2 0x5B2 JUMPI POP PUSH32 0x0 PUSH1 0x1 PUSH1 0x1 PUSH1 0xA0 SHL SUB AND DUP2 PUSH1 0x1 PUSH1 0x1 PUSH1 0xA0 SHL SUB AND EQ JUMPDEST DUP1 PUSH2 0x5EE JUMPI POP PUSH32 0x0 PUSH1 0x1 PUSH1 0x1 PUSH1 0xA0 SHL SUB AND DUP2 PUSH1 0x1 PUSH1 0x1 PUSH1 0xA0 SHL SUB AND EQ JUMPDEST PUSH2 0x645 JUMPI PUSH1 0x40 MLOAD PUSH3 0x461BCD PUSH1 0xE5 SHL DUP2 MSTORE PUSH1 0x20 PUSH1 0x4 DUP3 ADD MSTORE PUSH1 0x22 PUSH1 0x24 DUP3 ADD MSTORE PUSH32 0x5468697320436F6C6C656374696F6E2043616E27742042652057697468647261 PUSH1 0x44 DUP3 ADD MSTORE PUSH2 0x3BB7 PUSH1 0xF1 SHL PUSH1 0x64 DUP3 ADD MSTORE PUSH1 0x84 ADD PUSH2 0x4A0 JUMP JUMPDEST PUSH1 0x0 PUSH2 0x650 CALLER PUSH2 0x1319 JUMP JUMPDEST CALLER PUSH1 0x0 SWAP1 DUP2 MSTORE PUSH1 0x4 PUSH1 0x20 MSTORE PUSH1 0x40 DUP2 KECCAK256 PUSH1 0x3 ADD DUP1 SLOAD SWAP3 SWAP4 POP DUP4 SWAP3 SWAP1 SWAP2 SWAP1 PUSH2 0x677 SWAP1 DUP5 SWAP1 PUSH2 0x1807 JUMP JUMPDEST SWAP1 SWAP2 SSTORE POP PUSH1 0x0 SWAP1 POP DUP1 JUMPDEST CALLER PUSH1 0x0 SWAP1 DUP2 MSTORE PUSH1 0x4 PUSH1 0x20 MSTORE PUSH1 0x40 SWAP1 KECCAK256 PUSH1 0x1 ADD SLOAD DUP2 LT ISZERO PUSH2 0x73C JUMPI CALLER PUSH1 0x0 SWAP1 DUP2 MSTORE PUSH1 0x4 PUSH1 0x20 MSTORE PUSH1 0x40 SWAP1 KECCAK256 PUSH1 0x1 ADD DUP1 SLOAD DUP7 SWAP2 SWAP1 DUP4 SWAP1 DUP2 LT PUSH2 0x6C2 JUMPI PUSH2 0x6C2 PUSH2 0x181A JUMP JUMPDEST SWAP1 PUSH1 0x0 MSTORE PUSH1 0x20 PUSH1 0x0 KECCAK256 SWAP1 PUSH1 0x2 MUL ADD PUSH1 0x1 ADD SLOAD EQ DUP1 ISZERO PUSH2 0x71D JUMPI POP CALLER PUSH1 0x0 SWAP1 DUP2 MSTORE PUSH1 0x4 PUSH1 0x20 MSTORE PUSH1 0x40 DUP2 KECCAK256 PUSH1 0x1 ADD DUP1 SLOAD DUP4 SWAP1 DUP2 LT PUSH2 0x700 JUMPI PUSH2 0x700 PUSH2 0x181A JUMP JUMPDEST PUSH1 0x0 SWAP2 DUP3 MSTORE PUSH1 0x20 SWAP1 SWAP2 KECCAK256 PUSH1 0x2 SWAP1 SWAP2 MUL ADD SLOAD PUSH1 0x1 PUSH1 0x1 PUSH1 0xA0 SHL SUB AND EQ ISZERO JUMPDEST ISZERO PUSH2 0x72A JUMPI DUP1 SWAP2 POP PUSH2 0x73C JUMP JUMPDEST DUP1 PUSH2 0x734 DUP2 PUSH2 0x1830 JUMP JUMPDEST SWAP2 POP POP PUSH2 0x681 JUMP JUMPDEST POP CALLER PUSH1 0x0 SWAP1 DUP2 MSTORE PUSH1 0x4 PUSH1 0x20 MSTORE PUSH1 0x40 DUP2 KECCAK256 PUSH1 0x1 ADD DUP1 SLOAD DUP4 SWAP1 DUP2 LT PUSH2 0x761 JUMPI PUSH2 0x761 PUSH2 0x181A JUMP JUMPDEST PUSH1 0x0 SWAP2 DUP3 MSTORE PUSH1 0x20 DUP1 DUP4 KECCAK256 PUSH1 0x2 SWAP3 SWAP1 SWAP3 MUL SWAP1 SWAP2 ADD DUP1 SLOAD PUSH1 0x1 PUSH1 0x1 PUSH1 0xA0 SHL SUB NOT AND PUSH1 0x1 PUSH1 0x1 PUSH1 0xA0 SHL SUB SWAP5 SWAP1 SWAP5 AND SWAP4 SWAP1 SWAP4 OR SWAP1 SWAP3 SSTORE CALLER DUP2 MSTORE PUSH1 0x4 SWAP1 SWAP2 MSTORE PUSH1 0x40 DUP2 KECCAK256 DUP1 SLOAD SWAP2 PUSH2 0x7AB DUP4 PUSH2 0x1849 JUMP JUMPDEST SWAP1 SWAP2 SSTORE POP POP PUSH1 0x0 DUP5 DUP2 MSTORE PUSH1 0x5 PUSH1 0x20 MSTORE PUSH1 0x40 SWAP1 DUP2 SWAP1 KECCAK256 DUP1 SLOAD PUSH1 0x1 PUSH1 0x1 PUSH1 0xA0 SHL SUB NOT AND SWAP1 SSTORE MLOAD PUSH4 0x23B872DD PUSH1 0xE0 SHL DUP2 MSTORE ADDRESS PUSH1 0x4 DUP3 ADD MSTORE CALLER PUSH1 0x24 DUP3 ADD MSTORE PUSH1 0x44 DUP2 ADD DUP6 SWAP1 MSTORE PUSH1 0x1 PUSH1 0x1 PUSH1 0xA0 SHL SUB DUP5 AND SWAP1 PUSH4 0x23B872DD SWAP1 PUSH1 0x64 ADD PUSH1 0x0 PUSH1 0x40 MLOAD DUP1 DUP4 SUB DUP2 PUSH1 0x0 DUP8 DUP1 EXTCODESIZE ISZERO DUP1 ISZERO PUSH2 0x81A JUMPI PUSH1 0x0 DUP1 REVERT JUMPDEST POP GAS CALL ISZERO DUP1 ISZERO PUSH2 0x82E JUMPI RETURNDATASIZE PUSH1 0x0 DUP1 RETURNDATACOPY RETURNDATASIZE PUSH1 0x0 REVERT JUMPDEST POP POP CALLER PUSH1 0x0 SWAP1 DUP2 MSTORE PUSH1 0x4 PUSH1 0x20 MSTORE PUSH1 0x40 SWAP1 KECCAK256 TIMESTAMP PUSH1 0x2 SWAP1 SWAP2 ADD SSTORE POP PUSH2 0x854 SWAP3 POP PUSH2 0x1373 SWAP2 POP POP JUMP JUMPDEST POP POP JUMP JUMPDEST PUSH2 0x860 PUSH2 0x137A JUMP JUMPDEST PUSH1 0x0 PUSH2 0x874 PUSH1 0x1 SLOAD PUSH1 0x1 PUSH1 0x1 PUSH1 0xA0 SHL SUB AND SWAP1 JUMP JUMPDEST PUSH1 0x1 PUSH1 0x1 PUSH1 0xA0 SHL SUB AND DUP3 PUSH1 0x40 MLOAD PUSH1 0x0 PUSH1 0x40 MLOAD DUP1 DUP4 SUB DUP2 DUP6 DUP8 GAS CALL SWAP3 POP POP POP RETURNDATASIZE DUP1 PUSH1 0x0 DUP2 EQ PUSH2 0x8BE JUMPI PUSH1 0x40 MLOAD SWAP2 POP PUSH1 0x1F NOT PUSH1 0x3F RETURNDATASIZE ADD AND DUP3 ADD PUSH1 0x40 MSTORE RETURNDATASIZE DUP3 MSTORE RETURNDATASIZE PUSH1 0x0 PUSH1 0x20 DUP5 ADD RETURNDATACOPY PUSH2 0x8C3 JUMP JUMPDEST PUSH1 0x60 SWAP2 POP JUMPDEST POP POP SWAP1 POP DUP1 PUSH2 0x854 JUMPI PUSH1 0x40 MLOAD PUSH3 0x461BCD PUSH1 0xE5 SHL DUP2 MSTORE PUSH1 0x20 PUSH1 0x4 DUP3 ADD MSTORE PUSH1 0x10 PUSH1 0x24 DUP3 ADD MSTORE PUSH16 0x5472616E73666572206661696C656421 PUSH1 0x80 SHL PUSH1 0x44 DUP3 ADD MSTORE PUSH1 0x64 ADD PUSH2 0x4A0 JUMP JUMPDEST CALLER PUSH1 0x0 DUP2 DUP2 MSTORE PUSH1 0x4 PUSH1 0x20 MSTORE PUSH1 0x40 DUP2 KECCAK256 PUSH1 0x3 ADD SLOAD SWAP1 SWAP2 PUSH2 0x925 SWAP1 PUSH2 0x1319 JUMP JUMPDEST PUSH2 0x92F SWAP2 SWAP1 PUSH2 0x1807 JUMP JUMPDEST SWAP1 POP PUSH1 0x0 DUP2 GT PUSH2 0x981 JUMPI PUSH1 0x40 MLOAD PUSH3 0x461BCD PUSH1 0xE5 SHL DUP2 MSTORE PUSH1 0x20 PUSH1 0x4 DUP3 ADD MSTORE PUSH1 0x1C PUSH1 0x24 DUP3 ADD MSTORE PUSH32 0x596F752068617665206E6F207265776172647320746F20636C61696D00000000 PUSH1 0x44 DUP3 ADD MSTORE PUSH1 0x64 ADD PUSH2 0x4A0 JUMP JUMPDEST CALLER PUSH1 0x0 DUP2 DUP2 MSTORE PUSH1 0x4 PUSH1 0x20 MSTORE PUSH1 0x40 DUP2 KECCAK256 TIMESTAMP PUSH1 0x2 DUP3 ADD SSTORE PUSH1 0x3 ADD SSTORE PUSH2 0x9CF SWAP1 PUSH32 0x0 PUSH1 0x1 PUSH1 0x1 PUSH1 0xA0 SHL SUB AND SWAP1 DUP4 PUSH2 0x13D4 JUMP JUMPDEST POP JUMP JUMPDEST PUSH1 0x1 PUSH1 0x1 PUSH1 0xA0 SHL SUB DUP2 AND PUSH1 0x0 SWAP1 DUP2 MSTORE PUSH1 0x4 PUSH1 0x20 MSTORE PUSH1 0x40 SWAP1 KECCAK256 SLOAD PUSH1 0x60 SWAP1 ISZERO PUSH2 0xB88 JUMPI PUSH1 0x1 PUSH1 0x1 PUSH1 0xA0 SHL SUB DUP3 AND PUSH1 0x0 SWAP1 DUP2 MSTORE PUSH1 0x4 PUSH1 0x20 MSTORE PUSH1 0x40 DUP2 KECCAK256 SLOAD PUSH8 0xFFFFFFFFFFFFFFFF DUP2 GT ISZERO PUSH2 0xA24 JUMPI PUSH2 0xA24 PUSH2 0x1860 JUMP JUMPDEST PUSH1 0x40 MLOAD SWAP1 DUP1 DUP3 MSTORE DUP1 PUSH1 0x20 MUL PUSH1 0x20 ADD DUP3 ADD PUSH1 0x40 MSTORE DUP1 ISZERO PUSH2 0xA69 JUMPI DUP2 PUSH1 0x20 ADD JUMPDEST PUSH1 0x40 DUP1 MLOAD DUP1 DUP3 ADD SWAP1 SWAP2 MSTORE PUSH1 0x0 DUP1 DUP3 MSTORE PUSH1 0x20 DUP3 ADD MSTORE DUP2 MSTORE PUSH1 0x20 ADD SWAP1 PUSH1 0x1 SWAP1 SUB SWAP1 DUP2 PUSH2 0xA42 JUMPI SWAP1 POP JUMPDEST POP SWAP1 POP PUSH1 0x0 DUP1 JUMPDEST PUSH1 0x1 PUSH1 0x1 PUSH1 0xA0 SHL SUB DUP6 AND PUSH1 0x0 SWAP1 DUP2 MSTORE PUSH1 0x4 PUSH1 0x20 MSTORE PUSH1 0x40 SWAP1 KECCAK256 PUSH1 0x1 ADD SLOAD DUP2 LT ISZERO PUSH2 0xB7F JUMPI PUSH1 0x1 PUSH1 0x1 PUSH1 0xA0 SHL SUB DUP6 AND PUSH1 0x0 SWAP1 DUP2 MSTORE PUSH1 0x4 PUSH1 0x20 MSTORE PUSH1 0x40 DUP2 KECCAK256 PUSH1 0x1 ADD DUP1 SLOAD DUP4 SWAP1 DUP2 LT PUSH2 0xAC0 JUMPI PUSH2 0xAC0 PUSH2 0x181A JUMP JUMPDEST PUSH1 0x0 SWAP2 DUP3 MSTORE PUSH1 0x20 SWAP1 SWAP2 KECCAK256 PUSH1 0x2 SWAP1 SWAP2 MUL ADD SLOAD PUSH1 0x1 PUSH1 0x1 PUSH1 0xA0 SHL SUB AND EQ PUSH2 0xB6D JUMPI PUSH1 0x1 PUSH1 0x1 PUSH1 0xA0 SHL SUB DUP6 AND PUSH1 0x0 SWAP1 DUP2 MSTORE PUSH1 0x4 PUSH1 0x20 MSTORE PUSH1 0x40 SWAP1 KECCAK256 PUSH1 0x1 ADD DUP1 SLOAD DUP3 SWAP1 DUP2 LT PUSH2 0xB0C JUMPI PUSH2 0xB0C PUSH2 0x181A JUMP JUMPDEST PUSH1 0x0 SWAP2 DUP3 MSTORE PUSH1 0x20 SWAP2 DUP3 SWAP1 KECCAK256 PUSH1 0x40 DUP1 MLOAD DUP1 DUP3 ADD SWAP1 SWAP2 MSTORE PUSH1 0x2 SWAP1 SWAP3 MUL ADD DUP1 SLOAD PUSH1 0x1 PUSH1 0x1 PUSH1 0xA0 SHL SUB AND DUP3 MSTORE PUSH1 0x1 ADD SLOAD SWAP2 DUP2 ADD SWAP2 SWAP1 SWAP2 MSTORE DUP4 MLOAD DUP5 SWAP1 DUP5 SWAP1 DUP2 LT PUSH2 0xB53 JUMPI PUSH2 0xB53 PUSH2 0x181A JUMP JUMPDEST PUSH1 0x20 MUL PUSH1 0x20 ADD ADD DUP2 SWAP1 MSTORE POP DUP2 DUP1 PUSH2 0xB69 SWAP1 PUSH2 0x1830 JUMP JUMPDEST SWAP3 POP POP JUMPDEST DUP1 PUSH2 0xB77 DUP2 PUSH2 0x1830 JUMP JUMPDEST SWAP2 POP POP PUSH2 0xA70 JUMP JUMPDEST POP SWAP1 SWAP4 SWAP3 POP POP POP JUMP JUMPDEST PUSH1 0x40 DUP1 MLOAD PUSH1 0x0 DUP1 DUP3 MSTORE PUSH1 0x20 DUP3 ADD SWAP1 SWAP3 MSTORE SWAP1 PUSH2 0xBC5 JUMP JUMPDEST PUSH1 0x40 DUP1 MLOAD DUP1 DUP3 ADD SWAP1 SWAP2 MSTORE PUSH1 0x0 DUP1 DUP3 MSTORE PUSH1 0x20 DUP3 ADD MSTORE DUP2 MSTORE PUSH1 0x20 ADD SWAP1 PUSH1 0x1 SWAP1 SUB SWAP1 DUP2 PUSH2 0xB9E JUMPI SWAP1 POP JUMPDEST POP SWAP3 SWAP2 POP POP JUMP JUMPDEST PUSH2 0xBD4 PUSH2 0x137A JUMP JUMPDEST PUSH2 0xBDE PUSH1 0x0 PUSH2 0x1440 JUMP JUMPDEST JUMP JUMPDEST PUSH2 0xBE8 PUSH2 0x12C0 JUMP JUMPDEST CALLER PUSH1 0x0 SWAP1 DUP2 MSTORE PUSH1 0x4 PUSH1 0x20 MSTORE PUSH1 0x40 SWAP1 KECCAK256 SLOAD ISZERO PUSH2 0xC36 JUMPI PUSH1 0x0 PUSH2 0xC08 CALLER PUSH2 0x1319 JUMP JUMPDEST CALLER PUSH1 0x0 SWAP1 DUP2 MSTORE PUSH1 0x4 PUSH1 0x20 MSTORE PUSH1 0x40 DUP2 KECCAK256 PUSH1 0x3 ADD DUP1 SLOAD SWAP3 SWAP4 POP DUP4 SWAP3 SWAP1 SWAP2 SWAP1 PUSH2 0xC2F SWAP1 DUP5 SWAP1 PUSH2 0x1807 JUMP JUMPDEST SWAP1 SWAP2 SSTORE POP POP POP JUMPDEST PUSH1 0x40 MLOAD PUSH4 0x31A9108F PUSH1 0xE1 SHL DUP2 MSTORE PUSH1 0x4 DUP2 ADD DUP4 SWAP1 MSTORE CALLER SWAP1 PUSH1 0x1 PUSH1 0x1 PUSH1 0xA0 SHL SUB PUSH32 0x0 AND SWAP1 PUSH4 0x6352211E SWAP1 PUSH1 0x24 ADD PUSH1 0x20 PUSH1 0x40 MLOAD DUP1 DUP4 SUB DUP2 DUP7 GAS STATICCALL ISZERO DUP1 ISZERO PUSH2 0xC9D JUMPI RETURNDATASIZE PUSH1 0x0 DUP1 RETURNDATACOPY RETURNDATASIZE PUSH1 0x0 REVERT JUMPDEST POP POP POP POP PUSH1 0x40 MLOAD RETURNDATASIZE PUSH1 0x1F NOT PUSH1 0x1F DUP3 ADD AND DUP3 ADD DUP1 PUSH1 0x40 MSTORE POP DUP2 ADD SWAP1 PUSH2 0xCC1 SWAP2 SWAP1 PUSH2 0x1876 JUMP JUMPDEST PUSH1 0x1 PUSH1 0x1 PUSH1 0xA0 SHL SUB AND EQ DUP1 PUSH2 0xD67 JUMPI POP PUSH1 0x40 MLOAD PUSH4 0x31A9108F PUSH1 0xE1 SHL DUP2 MSTORE PUSH1 0x4 DUP2 ADD DUP4 SWAP1 MSTORE CALLER SWAP1 PUSH1 0x1 PUSH1 0x1 PUSH1 0xA0 SHL SUB PUSH32 0x0 AND SWAP1 PUSH4 0x6352211E SWAP1 PUSH1 0x24 ADD PUSH1 0x20 PUSH1 0x40 MLOAD DUP1 DUP4 SUB DUP2 DUP7 GAS STATICCALL ISZERO DUP1 ISZERO PUSH2 0xD38 JUMPI RETURNDATASIZE PUSH1 0x0 DUP1 RETURNDATACOPY RETURNDATASIZE PUSH1 0x0 REVERT JUMPDEST POP POP POP POP PUSH1 0x40 MLOAD RETURNDATASIZE PUSH1 0x1F NOT PUSH1 0x1F DUP3 ADD AND DUP3 ADD DUP1 PUSH1 0x40 MSTORE POP DUP2 ADD SWAP1 PUSH2 0xD5C SWAP2 SWAP1 PUSH2 0x1876 JUMP JUMPDEST PUSH1 0x1 PUSH1 0x1 PUSH1 0xA0 SHL SUB AND EQ JUMPDEST DUP1 PUSH2 0xE03 JUMPI POP PUSH1 0x40 MLOAD PUSH4 0x31A9108F PUSH1 0xE1 SHL DUP2 MSTORE PUSH1 0x4 DUP2 ADD DUP4 SWAP1 MSTORE CALLER SWAP1 PUSH1 0x1 PUSH1 0x1 PUSH1 0xA0 SHL SUB PUSH32 0x0 AND SWAP1 PUSH4 0x6352211E SWAP1 PUSH1 0x24 ADD PUSH1 0x20 PUSH1 0x40 MLOAD DUP1 DUP4 SUB DUP2 DUP7 GAS STATICCALL ISZERO DUP1 ISZERO PUSH2 0xDD4 JUMPI RETURNDATASIZE PUSH1 0x0 DUP1 RETURNDATACOPY RETURNDATASIZE PUSH1 0x0 REVERT JUMPDEST POP POP POP POP PUSH1 0x40 MLOAD RETURNDATASIZE PUSH1 0x1F NOT PUSH1 0x1F DUP3 ADD AND DUP3 ADD DUP1 PUSH1 0x40 MSTORE POP DUP2 ADD SWAP1 PUSH2 0xDF8 SWAP2 SWAP1 PUSH2 0x1876 JUMP JUMPDEST PUSH1 0x1 PUSH1 0x1 PUSH1 0xA0 SHL SUB AND EQ JUMPDEST DUP1 PUSH2 0xE9F JUMPI POP PUSH1 0x40 MLOAD PUSH4 0x31A9108F PUSH1 0xE1 SHL DUP2 MSTORE PUSH1 0x4 DUP2 ADD DUP4 SWAP1 MSTORE CALLER SWAP1 PUSH1 0x1 PUSH1 0x1 PUSH1 0xA0 SHL SUB PUSH32 0x0 AND SWAP1 PUSH4 0x6352211E SWAP1 PUSH1 0x24 ADD PUSH1 0x20 PUSH1 0x40 MLOAD DUP1 DUP4 SUB DUP2 DUP7 GAS STATICCALL ISZERO DUP1 ISZERO PUSH2 0xE70 JUMPI RETURNDATASIZE PUSH1 0x0 DUP1 RETURNDATACOPY RETURNDATASIZE PUSH1 0x0 REVERT JUMPDEST POP POP POP POP PUSH1 0x40 MLOAD RETURNDATASIZE PUSH1 0x1F NOT PUSH1 0x1F DUP3 ADD AND DUP3 ADD DUP1 PUSH1 0x40 MSTORE POP DUP2 ADD SWAP1 PUSH2 0xE94 SWAP2 SWAP1 PUSH2 0x1876 JUMP JUMPDEST PUSH1 0x1 PUSH1 0x1 PUSH1 0xA0 SHL SUB AND EQ JUMPDEST PUSH2 0xEEB JUMPI PUSH1 0x40 MLOAD PUSH3 0x461BCD PUSH1 0xE5 SHL DUP2 MSTORE PUSH1 0x20 PUSH1 0x4 DUP3 ADD MSTORE PUSH1 0x19 PUSH1 0x24 DUP3 ADD MSTORE PUSH32 0x596F7520446F6E2774204F776E205468697320546F6B656E2100000000000000 PUSH1 0x44 DUP3 ADD MSTORE PUSH1 0x64 ADD PUSH2 0x4A0 JUMP JUMPDEST PUSH32 0x0 PUSH1 0x1 PUSH1 0x1 PUSH1 0xA0 SHL SUB AND DUP2 PUSH1 0x1 PUSH1 0x1 PUSH1 0xA0 SHL SUB AND EQ DUP1 PUSH2 0xF5C JUMPI POP PUSH32 0x0 PUSH1 0x1 PUSH1 0x1 PUSH1 0xA0 SHL SUB AND DUP2 PUSH1 0x1 PUSH1 0x1 PUSH1 0xA0 SHL SUB AND EQ JUMPDEST DUP1 PUSH2 0xF98 JUMPI POP PUSH32 0x0 PUSH1 0x1 PUSH1 0x1 PUSH1 0xA0 SHL SUB AND DUP2 PUSH1 0x1 PUSH1 0x1 PUSH1 0xA0 SHL SUB AND EQ JUMPDEST DUP1 PUSH2 0xFD4 JUMPI POP PUSH32 0x0 PUSH1 0x1 PUSH1 0x1 PUSH1 0xA0 SHL SUB AND DUP2 PUSH1 0x1 PUSH1 0x1 PUSH1 0xA0 SHL SUB AND EQ JUMPDEST PUSH2 0x1020 JUMPI PUSH1 0x40 MLOAD PUSH3 0x461BCD PUSH1 0xE5 SHL DUP2 MSTORE PUSH1 0x20 PUSH1 0x4 DUP3 ADD MSTORE PUSH1 0x1F PUSH1 0x24 DUP3 ADD MSTORE PUSH32 0x5468697320436F6C6C656374696F6E2043616E2774204265205374616B656400 PUSH1 0x44 DUP3 ADD MSTORE PUSH1 0x64 ADD PUSH2 0x4A0 JUMP JUMPDEST PUSH1 0x40 MLOAD PUSH4 0x23B872DD PUSH1 0xE0 SHL DUP2 MSTORE CALLER PUSH1 0x4 DUP3 ADD MSTORE ADDRESS PUSH1 0x24 DUP3 ADD MSTORE PUSH1 0x44 DUP2 ADD DUP4 SWAP1 MSTORE PUSH1 0x1 PUSH1 0x1 PUSH1 0xA0 SHL SUB DUP3 AND SWAP1 PUSH4 0x23B872DD SWAP1 PUSH1 0x64 ADD PUSH1 0x0 PUSH1 0x40 MLOAD DUP1 DUP4 SUB DUP2 PUSH1 0x0 DUP8 DUP1 EXTCODESIZE ISZERO DUP1 ISZERO PUSH2 0x106E JUMPI PUSH1 0x0 DUP1 REVERT JUMPDEST POP GAS CALL ISZERO DUP1 ISZERO PUSH2 0x1082 JUMPI RETURNDATASIZE PUSH1 0x0 DUP1 RETURNDATACOPY RETURNDATASIZE PUSH1 0x0 REVERT JUMPDEST POP POP PUSH1 0x40 DUP1 MLOAD DUP1 DUP3 ADD DUP3 MSTORE CALLER DUP1 DUP3 MSTORE PUSH1 0x20 DUP1 DUP4 ADD DUP9 DUP2 MSTORE PUSH1 0x0 DUP4 DUP2 MSTORE PUSH1 0x4 DUP4 MSTORE SWAP5 DUP6 KECCAK256 PUSH1 0x1 DUP1 DUP3 ADD DUP1 SLOAD DUP1 DUP4 ADD DUP3 SSTORE SWAP1 DUP9 MSTORE SWAP4 DUP8 KECCAK256 DUP7 MLOAD PUSH1 0x2 SWAP1 SWAP6 MUL ADD DUP1 SLOAD PUSH1 0x1 PUSH1 0x1 PUSH1 0xA0 SHL SUB NOT AND PUSH1 0x1 PUSH1 0x1 PUSH1 0xA0 SHL SUB SWAP1 SWAP6 AND SWAP5 SWAP1 SWAP5 OR DUP5 SSTORE SWAP2 MLOAD SWAP3 SWAP1 SWAP2 ADD SWAP2 SWAP1 SWAP2 SSTORE SWAP1 DUP4 MSTORE DUP1 SLOAD SWAP2 SWAP5 POP SWAP1 SWAP3 POP SWAP1 PUSH2 0x10FB DUP4 PUSH2 0x1830 JUMP JUMPDEST SWAP1 SWAP2 SSTORE POP POP POP PUSH1 0x0 DUP3 DUP2 MSTORE PUSH1 0x5 PUSH1 0x20 SWAP1 DUP2 MSTORE PUSH1 0x40 DUP1 DUP4 KECCAK256 DUP1 SLOAD PUSH1 0x1 PUSH1 0x1 PUSH1 0xA0 SHL SUB NOT AND CALLER SWAP1 DUP2 OR SWAP1 SWAP2 SSTORE DUP4 MSTORE PUSH1 0x4 SWAP1 SWAP2 MSTORE SWAP1 KECCAK256 TIMESTAMP PUSH1 0x2 SWAP1 SWAP2 ADD SSTORE PUSH2 0x854 PUSH1 0x1 PUSH1 0x0 SSTORE JUMP JUMPDEST PUSH2 0x1147 PUSH2 0x137A JUMP JUMPDEST PUSH1 0x3 SSTORE JUMP JUMPDEST PUSH2 0x1154 PUSH2 0x137A JUMP JUMPDEST PUSH1 0x0 PUSH2 0x1168 PUSH1 0x1 SLOAD PUSH1 0x1 PUSH1 0x1 PUSH1 0xA0 SHL SUB AND SWAP1 JUMP JUMPDEST PUSH1 0x1 PUSH1 0x1 PUSH1 0xA0 SHL SUB AND SELFBALANCE PUSH1 0x40 MLOAD PUSH1 0x0 PUSH1 0x40 MLOAD DUP1 DUP4 SUB DUP2 DUP6 DUP8 GAS CALL SWAP3 POP POP POP RETURNDATASIZE DUP1 PUSH1 0x0 DUP2 EQ PUSH2 0x11B2 JUMPI PUSH1 0x40 MLOAD SWAP2 POP PUSH1 0x1F NOT PUSH1 0x3F RETURNDATASIZE ADD AND DUP3 ADD PUSH1 0x40 MSTORE RETURNDATASIZE DUP3 MSTORE RETURNDATASIZE PUSH1 0x0 PUSH1 0x20 DUP5 ADD RETURNDATACOPY PUSH2 0x11B7 JUMP JUMPDEST PUSH1 0x60 SWAP2 POP JUMPDEST POP POP SWAP1 POP DUP1 PUSH2 0x9CF JUMPI PUSH1 0x40 MLOAD PUSH3 0x461BCD PUSH1 0xE5 SHL DUP2 MSTORE PUSH1 0x20 PUSH1 0x4 DUP3 ADD MSTORE PUSH1 0x10 PUSH1 0x24 DUP3 ADD MSTORE PUSH16 0x5472616E73666572206661696C656421 PUSH1 0x80 SHL PUSH1 0x44 DUP3 ADD MSTORE PUSH1 0x64 ADD PUSH2 0x4A0 JUMP JUMPDEST PUSH2 0x1203 PUSH2 0x137A JUMP JUMPDEST PUSH1 0x1 PUSH1 0x1 PUSH1 0xA0 SHL SUB DUP2 AND PUSH2 0x127F JUMPI PUSH1 0x40 MLOAD PUSH3 0x461BCD PUSH1 0xE5 SHL DUP2 MSTORE PUSH1 0x20 PUSH1 0x4 DUP3 ADD MSTORE PUSH1 0x26 PUSH1 0x24 DUP3 ADD MSTORE PUSH32 0x4F776E61626C653A206E6577206F776E657220697320746865207A65726F2061 PUSH1 0x44 DUP3 ADD MSTORE PUSH32 0x6464726573730000000000000000000000000000000000000000000000000000 PUSH1 0x64 DUP3 ADD MSTORE PUSH1 0x84 ADD PUSH2 0x4A0 JUMP JUMPDEST PUSH2 0x9CF DUP2 PUSH2 0x1440 JUMP JUMPDEST PUSH1 0x1 PUSH1 0x1 PUSH1 0xA0 SHL SUB DUP2 AND PUSH1 0x0 SWAP1 DUP2 MSTORE PUSH1 0x4 PUSH1 0x20 MSTORE PUSH1 0x40 DUP2 KECCAK256 PUSH1 0x3 ADD SLOAD DUP2 SWAP1 PUSH2 0x12AF DUP5 PUSH2 0x1319 JUMP JUMPDEST PUSH2 0x12B9 SWAP2 SWAP1 PUSH2 0x1807 JUMP JUMPDEST SWAP4 SWAP3 POP POP POP JUMP JUMPDEST PUSH1 0x2 PUSH1 0x0 SLOAD SUB PUSH2 0x1312 JUMPI PUSH1 0x40 MLOAD PUSH3 0x461BCD PUSH1 0xE5 SHL DUP2 MSTORE PUSH1 0x20 PUSH1 0x4 DUP3 ADD MSTORE PUSH1 0x1F PUSH1 0x24 DUP3 ADD MSTORE PUSH32 0x5265656E7472616E637947756172643A207265656E7472616E742063616C6C00 PUSH1 0x44 DUP3 ADD MSTORE PUSH1 0x64 ADD PUSH2 0x4A0 JUMP JUMPDEST PUSH1 0x2 PUSH1 0x0 SSTORE JUMP JUMPDEST PUSH1 0x3 SLOAD PUSH1 0x1 PUSH1 0x1 PUSH1 0xA0 SHL SUB DUP3 AND PUSH1 0x0 SWAP1 DUP2 MSTORE PUSH1 0x4 PUSH1 0x20 MSTORE PUSH1 0x40 DUP2 KECCAK256 DUP1 SLOAD PUSH1 0x2 SWAP1 SWAP2 ADD SLOAD SWAP2 SWAP3 PUSH2 0xE10 SWAP3 SWAP1 SWAP2 SWAP1 PUSH2 0x134F SWAP1 TIMESTAMP PUSH2 0x1893 JUMP JUMPDEST PUSH2 0x1359 SWAP2 SWAP1 PUSH2 0x18A6 JUMP JUMPDEST PUSH2 0x1363 SWAP2 SWAP1 PUSH2 0x18A6 JUMP JUMPDEST PUSH2 0x136D SWAP2 SWAP1 PUSH2 0x18BD JUMP JUMPDEST SWAP3 SWAP2 POP POP JUMP JUMPDEST PUSH1 0x1 PUSH1 0x0 SSTORE JUMP JUMPDEST PUSH1 0x1 SLOAD PUSH1 0x1 PUSH1 0x1 PUSH1 0xA0 SHL SUB AND CALLER EQ PUSH2 0xBDE JUMPI PUSH1 0x40 MLOAD PUSH3 0x461BCD PUSH1 0xE5 SHL DUP2 MSTORE PUSH1 0x20 PUSH1 0x4 DUP3 ADD DUP2 SWAP1 MSTORE PUSH1 0x24 DUP3 ADD MSTORE PUSH32 0x4F776E61626C653A2063616C6C6572206973206E6F7420746865206F776E6572 PUSH1 0x44 DUP3 ADD MSTORE PUSH1 0x64 ADD PUSH2 0x4A0 JUMP JUMPDEST PUSH1 0x40 DUP1 MLOAD PUSH1 0x1 PUSH1 0x1 PUSH1 0xA0 SHL SUB DUP5 AND PUSH1 0x24 DUP3 ADD MSTORE PUSH1 0x44 DUP1 DUP3 ADD DUP5 SWAP1 MSTORE DUP3 MLOAD DUP1 DUP4 SUB SWAP1 SWAP2 ADD DUP2 MSTORE PUSH1 0x64 SWAP1 SWAP2 ADD SWAP1 SWAP2 MSTORE PUSH1 0x20 DUP2 ADD DUP1 MLOAD PUSH28 0xFFFFFFFFFFFFFFFFFFFFFFFFFFFFFFFFFFFFFFFFFFFFFFFFFFFFFFFF AND PUSH4 0xA9059CBB PUSH1 0xE0 SHL OR SWAP1 MSTORE PUSH2 0x143B SWAP1 DUP5 SWAP1 PUSH2 0x1492 JUMP JUMPDEST POP POP POP JUMP JUMPDEST PUSH1 0x1 DUP1 SLOAD PUSH1 0x1 PUSH1 0x1 PUSH1 0xA0 SHL SUB DUP4 DUP2 AND PUSH1 0x1 PUSH1 0x1 PUSH1 0xA0 SHL SUB NOT DUP4 AND DUP2 OR SWAP1 SWAP4 SSTORE PUSH1 0x40 MLOAD SWAP2 AND SWAP2 SWAP1 DUP3 SWAP1 PUSH32 0x8BE0079C531659141344CD1FD0A4F28419497F9722A3DAAFE3B4186F6B6457E0 SWAP1 PUSH1 0x0 SWAP1 LOG3 POP POP JUMP JUMPDEST PUSH1 0x0 PUSH2 0x14E7 DUP3 PUSH1 0x40 MLOAD DUP1 PUSH1 0x40 ADD PUSH1 0x40 MSTORE DUP1 PUSH1 0x20 DUP2 MSTORE PUSH1 0x20 ADD PUSH32 0x5361666545524332303A206C6F772D6C6576656C2063616C6C206661696C6564 DUP2 MSTORE POP DUP6 PUSH1 0x1 PUSH1 0x1 PUSH1 0xA0 SHL SUB AND PUSH2 0x1577 SWAP1 SWAP3 SWAP2 SWAP1 PUSH4 0xFFFFFFFF AND JUMP JUMPDEST DUP1 MLOAD SWAP1 SWAP2 POP ISZERO PUSH2 0x143B JUMPI DUP1 DUP1 PUSH1 0x20 ADD SWAP1 MLOAD DUP2 ADD SWAP1 PUSH2 0x1505 SWAP2 SWAP1 PUSH2 0x18DF JUMP JUMPDEST PUSH2 0x143B JUMPI PUSH1 0x40 MLOAD PUSH3 0x461BCD PUSH1 0xE5 SHL DUP2 MSTORE PUSH1 0x20 PUSH1 0x4 DUP3 ADD MSTORE PUSH1 0x2A PUSH1 0x24 DUP3 ADD MSTORE PUSH32 0x5361666545524332303A204552433230206F7065726174696F6E20646964206E PUSH1 0x44 DUP3 ADD MSTORE PUSH32 0x6F74207375636365656400000000000000000000000000000000000000000000 PUSH1 0x64 DUP3 ADD MSTORE PUSH1 0x84 ADD PUSH2 0x4A0 JUMP JUMPDEST PUSH1 0x60 PUSH2 0x1586 DUP5 DUP5 PUSH1 0x0 DUP6 PUSH2 0x158E JUMP JUMPDEST SWAP5 SWAP4 POP POP POP POP JUMP JUMPDEST PUSH1 0x60 DUP3 SELFBALANCE LT ISZERO PUSH2 0x1606 JUMPI PUSH1 0x40 MLOAD PUSH3 0x461BCD PUSH1 0xE5 SHL DUP2 MSTORE PUSH1 0x20 PUSH1 0x4 DUP3 ADD MSTORE PUSH1 0x26 PUSH1 0x24 DUP3 ADD MSTORE PUSH32 0x416464726573733A20696E73756666696369656E742062616C616E636520666F PUSH1 0x44 DUP3 ADD MSTORE PUSH32 0x722063616C6C0000000000000000000000000000000000000000000000000000 PUSH1 0x64 DUP3 ADD MSTORE PUSH1 0x84 ADD PUSH2 0x4A0 JUMP JUMPDEST PUSH1 0x0 DUP1 DUP7 PUSH1 0x1 PUSH1 0x1 PUSH1 0xA0 SHL SUB AND DUP6 DUP8 PUSH1 0x40 MLOAD PUSH2 0x1622 SWAP2 SWAP1 PUSH2 0x1925 JUMP JUMPDEST PUSH1 0x0 PUSH1 0x40 MLOAD DUP1 DUP4 SUB DUP2 DUP6 DUP8 GAS CALL SWAP3 POP POP POP RETURNDATASIZE DUP1 PUSH1 0x0 DUP2 EQ PUSH2 0x165F JUMPI PUSH1 0x40 MLOAD SWAP2 POP PUSH1 0x1F NOT PUSH1 0x3F RETURNDATASIZE ADD AND DUP3 ADD PUSH1 0x40 MSTORE RETURNDATASIZE DUP3 MSTORE RETURNDATASIZE PUSH1 0x0 PUSH1 0x20 DUP5 ADD RETURNDATACOPY PUSH2 0x1664 JUMP JUMPDEST PUSH1 0x60 SWAP2 POP JUMPDEST POP SWAP2 POP SWAP2 POP PUSH2 0x1675 DUP8 DUP4 DUP4 DUP8 PUSH2 0x1680 JUMP JUMPDEST SWAP8 SWAP7 POP POP POP POP POP POP POP JUMP JUMPDEST PUSH1 0x60 DUP4 ISZERO PUSH2 0x16EF JUMPI DUP3 MLOAD PUSH1 0x0 SUB PUSH2 0x16E8 JUMPI PUSH1 0x1 PUSH1 0x1 PUSH1 0xA0 SHL SUB DUP6 AND EXTCODESIZE PUSH2 0x16E8 JUMPI PUSH1 0x40 MLOAD PUSH3 0x461BCD PUSH1 0xE5 SHL DUP2 MSTORE PUSH1 0x20 PUSH1 0x4 DUP3 ADD MSTORE PUSH1 0x1D PUSH1 0x24 DUP3 ADD MSTORE PUSH32 0x416464726573733A2063616C6C20746F206E6F6E2D636F6E7472616374000000 PUSH1 0x44 DUP3 ADD MSTORE PUSH1 0x64 ADD PUSH2 0x4A0 JUMP JUMPDEST POP DUP2 PUSH2 0x1586 JUMP JUMPDEST PUSH2 0x1586 DUP4 DUP4 DUP2 MLOAD ISZERO PUSH2 0x1704 JUMPI DUP2 MLOAD DUP1 DUP4 PUSH1 0x20 ADD REVERT JUMPDEST DUP1 PUSH1 0x40 MLOAD PUSH3 0x461BCD PUSH1 0xE5 SHL DUP2 MSTORE PUSH1 0x4 ADD PUSH2 0x4A0 SWAP2 SWAP1 PUSH2 0x1941 JUMP JUMPDEST PUSH1 0x1 PUSH1 0x1 PUSH1 0xA0 SHL SUB DUP2 AND DUP2 EQ PUSH2 0x9CF JUMPI PUSH1 0x0 DUP1 REVERT JUMPDEST PUSH1 0x0 DUP1 PUSH1 0x40 DUP4 DUP6 SUB SLT ISZERO PUSH2 0x1746 JUMPI PUSH1 0x0 DUP1 REVERT JUMPDEST DUP3 CALLDATALOAD SWAP2 POP PUSH1 0x20 DUP4 ADD CALLDATALOAD PUSH2 0x1758 DUP2 PUSH2 0x171E JUMP JUMPDEST DUP1 SWAP2 POP POP SWAP3 POP SWAP3 SWAP1 POP JUMP JUMPDEST PUSH1 0x0 PUSH1 0x20 DUP3 DUP5 SUB SLT ISZERO PUSH2 0x1775 JUMPI PUSH1 0x0 DUP1 REVERT JUMPDEST POP CALLDATALOAD SWAP2 SWAP1 POP JUMP JUMPDEST PUSH1 0x0 PUSH1 0x20 DUP3 DUP5 SUB SLT ISZERO PUSH2 0x178E JUMPI PUSH1 0x0 DUP1 REVERT JUMPDEST DUP2 CALLDATALOAD PUSH2 0x12B9 DUP2 PUSH2 0x171E JUMP JUMPDEST PUSH1 0x20 DUP1 DUP3 MSTORE DUP3 MLOAD DUP3 DUP3 ADD DUP2 SWAP1 MSTORE PUSH1 0x0 SWAP2 SWAP1 PUSH1 0x40 SWAP1 DUP2 DUP6 ADD SWAP1 DUP7 DUP5 ADD DUP6 JUMPDEST DUP3 DUP2 LT ISZERO PUSH2 0x17E4 JUMPI DUP2 MLOAD DUP1 MLOAD PUSH1 0x1 PUSH1 0x1 PUSH1 0xA0 SHL SUB AND DUP6 MSTORE DUP7 ADD MLOAD DUP7 DUP6 ADD MSTORE SWAP3 DUP5 ADD SWAP3 SWAP1 DUP6 ADD SWAP1 PUSH1 0x1 ADD PUSH2 0x17B6 JUMP JUMPDEST POP SWAP2 SWAP8 SWAP7 POP POP POP POP POP POP POP JUMP JUMPDEST PUSH4 0x4E487B71 PUSH1 0xE0 SHL PUSH1 0x0 MSTORE PUSH1 0x11 PUSH1 0x4 MSTORE PUSH1 0x24 PUSH1 0x0 REVERT JUMPDEST DUP1 DUP3 ADD DUP1 DUP3 GT ISZERO PUSH2 0x136D JUMPI PUSH2 0x136D PUSH2 0x17F1 JUMP JUMPDEST PUSH4 0x4E487B71 PUSH1 0xE0 SHL PUSH1 0x0 MSTORE PUSH1 0x32 PUSH1 0x4 MSTORE PUSH1 0x24 PUSH1 0x0 REVERT JUMPDEST PUSH1 0x0 PUSH1 0x1 DUP3 ADD PUSH2 0x1842 JUMPI PUSH2 0x1842 PUSH2 0x17F1 JUMP JUMPDEST POP PUSH1 0x1 ADD SWAP1 JUMP JUMPDEST PUSH1 0x0 DUP2 PUSH2 0x1858 JUMPI PUSH2 0x1858 PUSH2 0x17F1 JUMP JUMPDEST POP PUSH1 0x0 NOT ADD SWAP1 JUMP JUMPDEST PUSH4 0x4E487B71 PUSH1 0xE0 SHL PUSH1 0x0 MSTORE PUSH1 0x41 PUSH1 0x4 MSTORE PUSH1 0x24 PUSH1 0x0 REVERT JUMPDEST PUSH1 0x0 PUSH1 0x20 DUP3 DUP5 SUB SLT ISZERO PUSH2 0x1888 JUMPI PUSH1 0x0 DUP1 REVERT JUMPDEST DUP2 MLOAD PUSH2 0x12B9 DUP2 PUSH2 0x171E JUMP JUMPDEST DUP2 DUP2 SUB DUP2 DUP2 GT ISZERO PUSH2 0x136D JUMPI PUSH2 0x136D PUSH2 0x17F1 JUMP JUMPDEST DUP1 DUP3 MUL DUP2 ISZERO DUP3 DUP3 DIV DUP5 EQ OR PUSH2 0x136D JUMPI PUSH2 0x136D PUSH2 0x17F1 JUMP JUMPDEST PUSH1 0x0 DUP3 PUSH2 0x18DA JUMPI PUSH4 0x4E487B71 PUSH1 0xE0 SHL PUSH1 0x0 MSTORE PUSH1 0x12 PUSH1 0x4 MSTORE PUSH1 0x24 PUSH1 0x0 REVERT JUMPDEST POP DIV SWAP1 JUMP JUMPDEST PUSH1 0x0 PUSH1 0x20 DUP3 DUP5 SUB SLT ISZERO PUSH2 0x18F1 JUMPI PUSH1 0x0 DUP1 REVERT JUMPDEST DUP2 MLOAD DUP1 ISZERO ISZERO DUP2 EQ PUSH2 0x12B9 JUMPI PUSH1 0x0 DUP1 REVERT JUMPDEST PUSH1 0x0 JUMPDEST DUP4 DUP2 LT ISZERO PUSH2 0x191C JUMPI DUP2 DUP2 ADD MLOAD DUP4 DUP3 ADD MSTORE PUSH1 0x20 ADD PUSH2 0x1904 JUMP JUMPDEST POP POP PUSH1 0x0 SWAP2 ADD MSTORE JUMP JUMPDEST PUSH1 0x0 DUP3 MLOAD PUSH2 0x1937 DUP2 DUP5 PUSH1 0x20 DUP8 ADD PUSH2 0x1901 JUMP JUMPDEST SWAP2 SWAP1 SWAP2 ADD SWAP3 SWAP2 POP POP JUMP JUMPDEST PUSH1 0x20 DUP2 MSTORE PUSH1 0x0 DUP3 MLOAD DUP1 PUSH1 0x20 DUP5 ADD MSTORE PUSH2 0x1960 DUP2 PUSH1 0x40 DUP6 ADD PUSH1 0x20 DUP8 ADD PUSH2 0x1901 JUMP JUMPDEST PUSH1 0x1F ADD PUSH1 0x1F NOT AND SWAP2 SWAP1 SWAP2 ADD PUSH1 0x40 ADD SWAP3 SWAP2 POP POP JUMP INVALID LOG2 PUSH5 0x6970667358 0x22 SLT KECCAK256 0xE8 EXTCODEHASH SWAP5 DUP5 PUSH29 0x6A393981BD3B6D3BACA69A5B85C448FCD7AD30DCA6A5832B9A82176473 PUSH16 0x6C634300081100330000000000000000 "
    },
    "gasEstimates": {
      "creation": {
        "codeDepositCost": "1314000",
        "executionCost": "infinite",
        "totalCost": "infinite"
      },
      "external": {
        "availableRewards(address)": "infinite",
        "claimRewards()": "infinite",
        "emergencyWithdrawAll()": "infinite",
        "getStakedTokens(address)": "infinite",
        "nftCollection_astra()": "infinite",
        "nftCollection_bear()": "infinite",
        "nftCollection_cat()": "infinite",
        "nftCollection_horse()": "infinite",
        "owner()": "2388",
        "renounceOwnership()": "infinite",
        "rewardsToken()": "infinite",
        "setrewardsPerHour(uint256)": "24577",
        "stake(uint256,address)": "infinite",
        "stakerAddress(uint256)": "2533",
        "stakers(address)": "6833",
        "storenative()": "22260",
        "transferOwnership(address)": "infinite",
        "withdraw(uint256,address)": "infinite",
        "withdrawadmin(uint256)": "infinite"
      },
      "internal": {
        "calculateRewards(address)": "infinite"
      }
    },
    "methodIdentifiers": {
      "availableRewards(address)": "f854a27f",
      "claimRewards()": "372500ab",
      "emergencyWithdrawAll()": "dd191719",
      "getStakedTokens(address)": "63c28db1",
      "nftCollection_astra()": "bcb5eb28",
      "nftCollection_bear()": "5f686f25",
      "nftCollection_cat()": "45c44ad5",
      "nftCollection_horse()": "640fffd8",
      "owner()": "8da5cb5b",
      "renounceOwnership()": "715018a6",
      "rewardsToken()": "d1af0c7d",
      "setrewardsPerHour(uint256)": "b768d7f5",
      "stake(uint256,address)": "7acb7757",
      "stakerAddress(uint256)": "94067045",
      "stakers(address)": "9168ae72",
      "storenative()": "5036e63b",
      "transferOwnership(address)": "f2fde38b",
      "withdraw(uint256,address)": "00f714ce",
      "withdrawadmin(uint256)": "1829b46c"
    }
  },
  "storageLayout": {
    "storage": [
      {
        "astId": 805,
        "contract": "StakingContract.sol:ERC721Staking",
        "label": "_status",
        "offset": 0,
        "slot": "0",
        "type": "t_uint256"
      },
      {
        "astId": 689,
        "contract": "StakingContract.sol:ERC721Staking",
        "label": "_owner",
        "offset": 0,
        "slot": "1",
        "type": "t_address"
      },
      {
        "astId": 31,
        "contract": "StakingContract.sol:ERC721Staking",
        "label": "imna",
        "offset": 0,
        "slot": "2",
        "type": "t_uint256"
      },
      {
        "astId": 93,
        "contract": "StakingContract.sol:ERC721Staking",
        "label": "rewardsPerHour",
        "offset": 0,
        "slot": "3",
        "type": "t_uint256"
      },
      {
        "astId": 98,
        "contract": "StakingContract.sol:ERC721Staking",
        "label": "stakers",
        "offset": 0,
        "slot": "4",
        "type": "t_mapping(t_address,t_struct(Staker)90_storage)"
      },
      {
        "astId": 102,
        "contract": "StakingContract.sol:ERC721Staking",
        "label": "stakerAddress",
        "offset": 0,
        "slot": "5",
        "type": "t_mapping(t_uint256,t_address)"
      }
    ],
    "types": {
      "t_address": {
        "encoding": "inplace",
        "label": "address",
        "numberOfBytes": "20"
      },
      "t_array(t_struct(StakedToken)79_storage)dyn_storage": {
        "base": "t_struct(StakedToken)79_storage",
        "encoding": "dynamic_array",
        "label": "struct ERC721Staking.StakedToken[]",
        "numberOfBytes": "32"
      },
      "t_mapping(t_address,t_struct(Staker)90_storage)": {
        "encoding": "mapping",
        "key": "t_address",
        "label": "mapping(address => struct ERC721Staking.Staker)",
        "numberOfBytes": "32",
        "value": "t_struct(Staker)90_storage"
      },
      "t_mapping(t_uint256,t_address)": {
        "encoding": "mapping",
        "key": "t_uint256",
        "label": "mapping(uint256 => address)",
        "numberOfBytes": "32",
        "value": "t_address"
      },
      "t_struct(StakedToken)79_storage": {
        "encoding": "inplace",
        "label": "struct ERC721Staking.StakedToken",
        "members": [
          {
            "astId": 76,
            "contract": "StakingContract.sol:ERC721Staking",
            "label": "staker",
            "offset": 0,
            "slot": "0",
            "type": "t_address"
          },
          {
            "astId": 78,
            "contract": "StakingContract.sol:ERC721Staking",
            "label": "tokenId",
            "offset": 0,
            "slot": "1",
            "type": "t_uint256"
          }
        ],
        "numberOfBytes": "64"
      },
      "t_struct(Staker)90_storage": {
        "encoding": "inplace",
        "label": "struct ERC721Staking.Staker",
        "members": [
          {
            "astId": 81,
            "contract": "StakingContract.sol:ERC721Staking",
            "label": "amountStaked",
            "offset": 0,
            "slot": "0",
            "type": "t_uint256"
          },
          {
            "astId": 85,
            "contract": "StakingContract.sol:ERC721Staking",
            "label": "stakedTokens",
            "offset": 0,
            "slot": "1",
            "type": "t_array(t_struct(StakedToken)79_storage)dyn_storage"
          },
          {
            "astId": 87,
            "contract": "StakingContract.sol:ERC721Staking",
            "label": "timeOfLastUpdate",
            "offset": 0,
            "slot": "2",
            "type": "t_uint256"
          },
          {
            "astId": 89,
            "contract": "StakingContract.sol:ERC721Staking",
            "label": "unclaimedRewards",
            "offset": 0,
            "slot": "3",
            "type": "t_uint256"
          }
        ],
        "numberOfBytes": "128"
      },
      "t_uint256": {
        "encoding": "inplace",
        "label": "uint256",
        "numberOfBytes": "32"
      }
    }
  },
  "userdoc": {
    "kind": "user",
    "methods": {},
    "version": 1
  }
}